{
  "contractName": "CashToken",
  "abi": [
    {
      "constant": true,
      "inputs": [],
      "name": "name",
      "outputs": [
        {
          "name": "",
          "type": "string"
        }
      ],
      "payable": false,
      "stateMutability": "view",
      "type": "function"
    },
    {
      "constant": true,
      "inputs": [],
      "name": "coinvest",
      "outputs": [
        {
          "name": "",
          "type": "address"
        }
      ],
      "payable": false,
      "stateMutability": "view",
      "type": "function"
    },
    {
      "constant": false,
      "inputs": [
        {
          "name": "_user",
          "type": "address"
        },
        {
          "name": "_status",
          "type": "bool"
        }
      ],
      "name": "alterAdmin",
      "outputs": [],
      "payable": false,
      "stateMutability": "nonpayable",
      "type": "function"
    },
    {
      "constant": true,
      "inputs": [],
      "name": "decimals",
      "outputs": [
        {
          "name": "",
          "type": "uint8"
        }
      ],
      "payable": false,
      "stateMutability": "view",
      "type": "function"
    },
    {
      "constant": true,
      "inputs": [
        {
          "name": "",
          "type": "address"
        }
      ],
      "name": "admins",
      "outputs": [
        {
          "name": "",
          "type": "bool"
        }
      ],
      "payable": false,
      "stateMutability": "view",
      "type": "function"
    },
    {
      "constant": true,
      "inputs": [],
      "name": "owner",
      "outputs": [
        {
          "name": "",
          "type": "address"
        }
      ],
      "payable": false,
      "stateMutability": "view",
      "type": "function"
    },
    {
      "constant": true,
      "inputs": [],
      "name": "symbol",
      "outputs": [
        {
          "name": "",
          "type": "string"
        }
      ],
      "payable": false,
      "stateMutability": "view",
      "type": "function"
    },
    {
      "constant": false,
      "inputs": [
        {
          "name": "_newCoinvest",
          "type": "address"
        }
      ],
      "name": "transferCoinvest",
      "outputs": [],
      "payable": false,
      "stateMutability": "nonpayable",
      "type": "function"
    },
    {
      "constant": false,
      "inputs": [
        {
          "name": "newOwner",
          "type": "address"
        }
      ],
      "name": "transferOwnership",
      "outputs": [],
      "payable": false,
      "stateMutability": "nonpayable",
      "type": "function"
    },
    {
      "inputs": [],
      "payable": false,
      "stateMutability": "nonpayable",
      "type": "constructor"
    },
    {
      "anonymous": false,
      "inputs": [
        {
          "indexed": true,
          "name": "from",
          "type": "address"
        },
        {
          "indexed": true,
          "name": "to",
          "type": "address"
        },
        {
          "indexed": false,
          "name": "tokens",
          "type": "uint256"
        }
      ],
      "name": "Transfer",
      "type": "event"
    },
    {
      "anonymous": false,
      "inputs": [
        {
          "indexed": true,
          "name": "from",
          "type": "address"
        },
        {
          "indexed": true,
          "name": "spender",
          "type": "address"
        },
        {
          "indexed": false,
          "name": "tokens",
          "type": "uint256"
        }
      ],
      "name": "Approval",
      "type": "event"
    },
    {
      "anonymous": false,
      "inputs": [
        {
          "indexed": true,
          "name": "to",
          "type": "address"
        },
        {
          "indexed": false,
          "name": "amount",
          "type": "uint256"
        }
      ],
      "name": "Mint",
      "type": "event"
    },
    {
      "anonymous": false,
      "inputs": [
        {
          "indexed": true,
          "name": "from",
          "type": "address"
        },
        {
          "indexed": false,
          "name": "amount",
          "type": "uint256"
        }
      ],
      "name": "Burn",
      "type": "event"
    },
    {
      "anonymous": false,
      "inputs": [
        {
          "indexed": true,
          "name": "txHash",
          "type": "bytes32"
        },
        {
          "indexed": true,
          "name": "from",
          "type": "address"
        }
      ],
      "name": "HashRedeemed",
      "type": "event"
    },
    {
      "anonymous": false,
      "inputs": [
        {
          "indexed": true,
          "name": "previousOwner",
          "type": "address"
        },
        {
          "indexed": true,
          "name": "newOwner",
          "type": "address"
        }
      ],
      "name": "OwnershipTransferred",
      "type": "event"
    },
    {
      "constant": false,
      "inputs": [
        {
          "name": "_from",
          "type": "address"
        },
        {
          "name": "_amount",
          "type": "uint256"
        },
        {
          "name": "_token",
          "type": "address"
        },
        {
          "name": "_data",
          "type": "bytes"
        }
      ],
      "name": "receiveApproval",
      "outputs": [],
      "payable": false,
      "stateMutability": "nonpayable",
      "type": "function"
    },
    {
      "constant": false,
      "inputs": [
        {
          "name": "_to",
          "type": "address"
        },
        {
          "name": "_amount",
          "type": "uint256"
        }
      ],
      "name": "transfer",
      "outputs": [
        {
          "name": "success",
          "type": "bool"
        }
      ],
      "payable": false,
      "stateMutability": "nonpayable",
      "type": "function"
    },
    {
      "constant": false,
      "inputs": [
        {
          "name": "_from",
          "type": "address"
        },
        {
          "name": "_to",
          "type": "address"
        },
        {
          "name": "_amount",
          "type": "uint256"
        }
      ],
      "name": "transferFrom",
      "outputs": [
        {
          "name": "success",
          "type": "bool"
        }
      ],
      "payable": false,
      "stateMutability": "nonpayable",
      "type": "function"
    },
    {
      "constant": false,
      "inputs": [
        {
          "name": "_spender",
          "type": "address"
        },
        {
          "name": "_amount",
          "type": "uint256"
        }
      ],
      "name": "approve",
      "outputs": [
        {
          "name": "success",
          "type": "bool"
        }
      ],
      "payable": false,
      "stateMutability": "nonpayable",
      "type": "function"
    },
    {
      "constant": false,
      "inputs": [
        {
          "name": "_spender",
          "type": "address"
        },
        {
          "name": "_amount",
          "type": "uint256"
        }
      ],
      "name": "increaseApproval",
      "outputs": [
        {
          "name": "success",
          "type": "bool"
        }
      ],
      "payable": false,
      "stateMutability": "nonpayable",
      "type": "function"
    },
    {
      "constant": false,
      "inputs": [
        {
          "name": "_spender",
          "type": "address"
        },
        {
          "name": "_amount",
          "type": "uint256"
        }
      ],
      "name": "decreaseApproval",
      "outputs": [
        {
          "name": "success",
          "type": "bool"
        }
      ],
      "payable": false,
      "stateMutability": "nonpayable",
      "type": "function"
    },
    {
      "constant": false,
      "inputs": [
        {
          "name": "_spender",
          "type": "address"
        },
        {
          "name": "_amount",
          "type": "uint256"
        },
        {
          "name": "_data",
          "type": "bytes"
        }
      ],
      "name": "approveAndCall",
      "outputs": [
        {
          "name": "success",
          "type": "bool"
        }
      ],
      "payable": false,
      "stateMutability": "nonpayable",
      "type": "function"
    },
    {
      "constant": false,
      "inputs": [
        {
          "name": "_signature",
          "type": "bytes"
        },
        {
          "name": "_to",
          "type": "address"
        },
        {
          "name": "_value",
          "type": "uint256"
        },
        {
          "name": "_gasPrice",
          "type": "uint256"
        },
        {
          "name": "_nonce",
          "type": "uint256"
        }
      ],
      "name": "transferPreSigned",
      "outputs": [
        {
          "name": "",
          "type": "bool"
        }
      ],
      "payable": false,
      "stateMutability": "nonpayable",
      "type": "function"
    },
    {
      "constant": false,
      "inputs": [
        {
          "name": "_signature",
          "type": "bytes"
        },
        {
          "name": "_to",
          "type": "address"
        },
        {
          "name": "_value",
          "type": "uint256"
        },
        {
          "name": "_gasPrice",
          "type": "uint256"
        },
        {
          "name": "_nonce",
          "type": "uint256"
        }
      ],
      "name": "approvePreSigned",
      "outputs": [
        {
          "name": "",
          "type": "bool"
        }
      ],
      "payable": false,
      "stateMutability": "nonpayable",
      "type": "function"
    },
    {
      "constant": false,
      "inputs": [
        {
          "name": "_signature",
          "type": "bytes"
        },
        {
          "name": "_to",
          "type": "address"
        },
        {
          "name": "_value",
          "type": "uint256"
        },
        {
          "name": "_gasPrice",
          "type": "uint256"
        },
        {
          "name": "_nonce",
          "type": "uint256"
        }
      ],
      "name": "increaseApprovalPreSigned",
      "outputs": [
        {
          "name": "",
          "type": "bool"
        }
      ],
      "payable": false,
      "stateMutability": "nonpayable",
      "type": "function"
    },
    {
      "constant": false,
      "inputs": [
        {
          "name": "_signature",
          "type": "bytes"
        },
        {
          "name": "_to",
          "type": "address"
        },
        {
          "name": "_value",
          "type": "uint256"
        },
        {
          "name": "_gasPrice",
          "type": "uint256"
        },
        {
          "name": "_nonce",
          "type": "uint256"
        }
      ],
      "name": "decreaseApprovalPreSigned",
      "outputs": [
        {
          "name": "",
          "type": "bool"
        }
      ],
      "payable": false,
      "stateMutability": "nonpayable",
      "type": "function"
    },
    {
      "constant": false,
      "inputs": [
        {
          "name": "_signature",
          "type": "bytes"
        },
        {
          "name": "_to",
          "type": "address"
        },
        {
          "name": "_value",
          "type": "uint256"
        },
        {
          "name": "_extraData",
          "type": "bytes"
        },
        {
          "name": "_gasPrice",
          "type": "uint256"
        },
        {
          "name": "_nonce",
          "type": "uint256"
        }
      ],
      "name": "approveAndCallPreSigned",
      "outputs": [
        {
          "name": "",
          "type": "bool"
        }
      ],
      "payable": false,
      "stateMutability": "nonpayable",
      "type": "function"
    },
    {
      "constant": false,
      "inputs": [
        {
          "name": "_hashToRevoke",
          "type": "bytes32"
        }
      ],
      "name": "revokeHash",
      "outputs": [
        {
          "name": "",
          "type": "bool"
        }
      ],
      "payable": false,
      "stateMutability": "nonpayable",
      "type": "function"
    },
    {
      "constant": false,
      "inputs": [
        {
          "name": "_signature",
          "type": "bytes"
        },
        {
          "name": "_hashToRevoke",
          "type": "bytes32"
        },
        {
          "name": "_gasPrice",
          "type": "uint256"
        }
      ],
      "name": "revokeHashPreSigned",
      "outputs": [
        {
          "name": "",
          "type": "bool"
        }
      ],
      "payable": false,
      "stateMutability": "nonpayable",
      "type": "function"
    },
    {
      "constant": true,
      "inputs": [
        {
          "name": "_hashToRevoke",
          "type": "bytes32"
        },
        {
          "name": "_gasPrice",
          "type": "uint256"
        }
      ],
      "name": "getRevokeHash",
      "outputs": [
        {
          "name": "txHash",
          "type": "bytes32"
        }
      ],
      "payable": false,
      "stateMutability": "view",
      "type": "function"
    },
    {
      "constant": true,
      "inputs": [
        {
          "name": "_signature",
          "type": "bytes"
        },
        {
          "name": "_hashToRevoke",
          "type": "bytes32"
        },
        {
          "name": "_gasPrice",
          "type": "uint256"
        }
      ],
      "name": "recoverRevokeHash",
      "outputs": [
        {
          "name": "from",
          "type": "address"
        }
      ],
      "payable": false,
      "stateMutability": "view",
      "type": "function"
    },
    {
      "constant": true,
      "inputs": [
        {
          "name": "_function",
          "type": "bytes4"
        },
        {
          "name": "_to",
          "type": "address"
        },
        {
          "name": "_value",
          "type": "uint256"
        },
        {
          "name": "_extraData",
          "type": "bytes"
        },
        {
          "name": "_gasPrice",
          "type": "uint256"
        },
        {
          "name": "_nonce",
          "type": "uint256"
        }
      ],
      "name": "getPreSignedHash",
      "outputs": [
        {
          "name": "txHash",
          "type": "bytes32"
        }
      ],
      "payable": false,
      "stateMutability": "view",
      "type": "function"
    },
    {
      "constant": true,
      "inputs": [
        {
          "name": "_sig",
          "type": "bytes"
        },
        {
          "name": "_function",
          "type": "bytes4"
        },
        {
          "name": "_to",
          "type": "address"
        },
        {
          "name": "_value",
          "type": "uint256"
        },
        {
          "name": "_extraData",
          "type": "bytes"
        },
        {
          "name": "_gasPrice",
          "type": "uint256"
        },
        {
          "name": "_nonce",
          "type": "uint256"
        }
      ],
      "name": "recoverPreSigned",
      "outputs": [
        {
          "name": "recovered",
          "type": "address"
        }
      ],
      "payable": false,
      "stateMutability": "view",
      "type": "function"
    },
    {
      "constant": true,
      "inputs": [
        {
          "name": "_hash",
          "type": "bytes32"
        }
      ],
      "name": "getSignHash",
      "outputs": [
        {
          "name": "signHash",
          "type": "bytes32"
        }
      ],
      "payable": false,
      "stateMutability": "pure",
      "type": "function"
    },
    {
      "constant": true,
      "inputs": [
        {
          "name": "hash",
          "type": "bytes32"
        },
        {
          "name": "sig",
          "type": "bytes"
        }
      ],
      "name": "ecrecoverFromSig",
      "outputs": [
        {
          "name": "recoveredAddress",
          "type": "address"
        }
      ],
      "payable": false,
      "stateMutability": "pure",
      "type": "function"
    },
    {
      "constant": true,
      "inputs": [
        {
          "name": "_owner",
          "type": "address"
        }
      ],
      "name": "getNonce",
      "outputs": [
        {
          "name": "nonce",
          "type": "uint256"
        }
      ],
      "payable": false,
      "stateMutability": "view",
      "type": "function"
    },
    {
      "constant": true,
      "inputs": [],
      "name": "totalSupply",
      "outputs": [
        {
          "name": "",
          "type": "uint256"
        }
      ],
      "payable": false,
      "stateMutability": "view",
      "type": "function"
    },
    {
      "constant": true,
      "inputs": [
        {
          "name": "_owner",
          "type": "address"
        }
      ],
      "name": "balanceOf",
      "outputs": [
        {
          "name": "",
          "type": "uint256"
        }
      ],
      "payable": false,
      "stateMutability": "view",
      "type": "function"
    },
    {
      "constant": true,
      "inputs": [
        {
          "name": "_owner",
          "type": "address"
        },
        {
          "name": "_spender",
          "type": "address"
        }
      ],
      "name": "allowance",
      "outputs": [
        {
          "name": "",
          "type": "uint256"
        }
      ],
      "payable": false,
      "stateMutability": "view",
      "type": "function"
    },
    {
      "constant": false,
      "inputs": [
        {
          "name": "_to",
          "type": "address"
        },
        {
          "name": "_amount",
          "type": "uint256"
        }
      ],
      "name": "mint",
      "outputs": [
        {
          "name": "success",
          "type": "bool"
        }
      ],
      "payable": false,
      "stateMutability": "nonpayable",
      "type": "function"
    },
    {
      "constant": false,
      "inputs": [
        {
          "name": "_from",
          "type": "address"
        },
        {
          "name": "_amount",
          "type": "uint256"
        }
      ],
      "name": "burn",
      "outputs": [
        {
          "name": "success",
          "type": "bool"
        }
      ],
      "payable": false,
      "stateMutability": "nonpayable",
      "type": "function"
    },
    {
      "constant": false,
      "inputs": [
        {
          "name": "_tokenContract",
          "type": "address"
        }
      ],
      "name": "tokenEscape",
      "outputs": [],
      "payable": false,
      "stateMutability": "nonpayable",
      "type": "function"
    }
  ],
  "bytecode": "0x60806040526a58a061ea91aa7f2584000060035534801561001f57600080fd5b50336000806101000a81548173ffffffffffffffffffffffffffffffffffffffff021916908373ffffffffffffffffffffffffffffffffffffffff16021790555033600160006101000a81548173ffffffffffffffffffffffffffffffffffffffff021916908373ffffffffffffffffffffffffffffffffffffffff1602179055506001600260008060009054906101000a900473ffffffffffffffffffffffffffffffffffffffff1673ffffffffffffffffffffffffffffffffffffffff1673ffffffffffffffffffffffffffffffffffffffff16815260200190815260200160002060006101000a81548160ff021916908315150217905550600160026000600160009054906101000a900473ffffffffffffffffffffffffffffffffffffffff1673ffffffffffffffffffffffffffffffffffffffff1673ffffffffffffffffffffffffffffffffffffffff16815260200190815260200160002060006101000a81548160ff021916908315150217905550600354600460003373ffffffffffffffffffffffffffffffffffffffff1673ffffffffffffffffffffffffffffffffffffffff16815260200190815260200160002081905550614ccb806101e96000396000f3006080604052600436106101c2576000357c0100000000000000000000000000000000000000000000000000000000900463ffffffff16806306fdde03146101c75780630958a9f314610257578063095ea7b3146102ae57806309ea63e31461031357806310840303146104695780631296830d146104b857806318160ddd1461057757806323b872dd146105a25780632d0335ab14610627578063313ce5671461067e5780633f454406146106af57806340c10f19146106f2578063429b62e514610757578063476e492f146107b2578063617b390b14610873578063661884631461093257806370a082311461099757806370de43f1146109ee5780638be5278314610a375780638da5cb5b14610af65780638e421f1614610b4d5780638f4ffcb114610be657806395d89b4114610c995780639dc29fac14610d29578063a59b3d4614610d8e578063a9059cbb14610de5578063a9a0b49514610e4a578063adb8249e14610f36578063b15aa5b714610ff5578063c8d4b38914611042578063cae9ca5114611147578063d4acaf6c146111f2578063d73dd623146112a9578063dd62ed3e1461130e578063dfb6c46814611385578063f2fde38b146113c8575b600080fd5b3480156101d357600080fd5b506101dc61140b565b6040518080602001828103825283818151815260200191508051906020019080838360005b8381101561021c578082015181840152602081019050610201565b50505050905090810190601f1680156102495780820380516001836020036101000a031916815260200191505b509250505060405180910390f35b34801561026357600080fd5b5061026c611444565b604051808273ffffffffffffffffffffffffffffffffffffffff1673ffffffffffffffffffffffffffffffffffffffff16815260200191505060405180910390f35b3480156102ba57600080fd5b506102f9600480360381019080803573ffffffffffffffffffffffffffffffffffffffff1690602001909291908035906020019092919050505061146a565b604051808215151515815260200191505060405180910390f35b34801561031f57600080fd5b50610427600480360381019080803590602001908201803590602001908080601f016020809104026020016040519081016040528093929190818152602001838380828437820191505050505050919291929080357bffffffffffffffffffffffffffffffffffffffffffffffffffffffff19169060200190929190803573ffffffffffffffffffffffffffffffffffffffff16906020019092919080359060200190929190803590602001908201803590602001908080601f0160208091040260200160405190810160405280939291908181526020018383808284378201915050505050509192919290803590602001909291908035906020019092919050505061148c565b604051808273ffffffffffffffffffffffffffffffffffffffff1673ffffffffffffffffffffffffffffffffffffffff16815260200191505060405180910390f35b34801561047557600080fd5b506104b6600480360381019080803573ffffffffffffffffffffffffffffffffffffffff1690602001909291908035151590602001909291905050506114ba565b005b3480156104c457600080fd5b5061055d600480360381019080803590602001908201803590602001908080601f0160208091040260200160405190810160405280939291908181526020018383808284378201915050505050509192919290803573ffffffffffffffffffffffffffffffffffffffff16906020019092919080359060200190929190803590602001909291908035906020019092919050505061160a565b604051808215151515815260200191505060405180910390f35b34801561058357600080fd5b5061058c611a22565b6040518082815260200191505060405180910390f35b3480156105ae57600080fd5b5061060d600480360381019080803573ffffffffffffffffffffffffffffffffffffffff169060200190929190803573ffffffffffffffffffffffffffffffffffffffff16906020019092919080359060200190929190505050611a2c565b604051808215151515815260200191505060405180910390f35b34801561063357600080fd5b50610668600480360381019080803573ffffffffffffffffffffffffffffffffffffffff169060200190929190505050611c34565b6040518082815260200191505060405180910390f35b34801561068a57600080fd5b50610693611c7d565b604051808260ff1660ff16815260200191505060405180910390f35b3480156106bb57600080fd5b506106f0600480360381019080803573ffffffffffffffffffffffffffffffffffffffff169060200190929190505050611c82565b005b3480156106fe57600080fd5b5061073d600480360381019080803573ffffffffffffffffffffffffffffffffffffffff16906020019092919080359060200190929190505050611ec0565b604051808215151515815260200191505060405180910390f35b34801561076357600080fd5b50610798600480360381019080803573ffffffffffffffffffffffffffffffffffffffff169060200190929190505050612034565b604051808215151515815260200191505060405180910390f35b3480156107be57600080fd5b50610831600480360381019080803590602001908201803590602001908080601f0160208091040260200160405190810160405280939291908181526020018383808284378201915050505050509192919290803560001916906020019092919080359060200190929190505050612054565b604051808273ffffffffffffffffffffffffffffffffffffffff1673ffffffffffffffffffffffffffffffffffffffff16815260200191505060405180910390f35b34801561087f57600080fd5b50610918600480360381019080803590602001908201803590602001908080601f0160208091040260200160405190810160405280939291908181526020018383808284378201915050505050509192919290803573ffffffffffffffffffffffffffffffffffffffff16906020019092919080359060200190929190803590602001909291908035906020019092919050505061207a565b604051808215151515815260200191505060405180910390f35b34801561093e57600080fd5b5061097d600480360381019080803573ffffffffffffffffffffffffffffffffffffffff16906020019092919080359060200190929190505050612492565b604051808215151515815260200191505060405180910390f35b3480156109a357600080fd5b506109d8600480360381019080803573ffffffffffffffffffffffffffffffffffffffff1690602001909291905050506124b4565b6040518082815260200191505060405180910390f35b3480156109fa57600080fd5b50610a1d60048036038101908080356000191690602001909291905050506124fd565b604051808215151515815260200191505060405180910390f35b348015610a4357600080fd5b50610adc600480360381019080803590602001908201803590602001908080601f0160208091040260200160405190810160405280939291908181526020018383808284378201915050505050509192919290803573ffffffffffffffffffffffffffffffffffffffff169060200190929190803590602001909291908035906020019092919080359060200190929190505050612579565b604051808215151515815260200191505060405180910390f35b348015610b0257600080fd5b50610b0b612991565b604051808273ffffffffffffffffffffffffffffffffffffffff1673ffffffffffffffffffffffffffffffffffffffff16815260200191505060405180910390f35b348015610b5957600080fd5b50610bcc600480360381019080803590602001908201803590602001908080601f01602080910402602001604051908101604052809392919081815260200183838082843782019150505050505091929192908035600019169060200190929190803590602001909291905050506129b6565b604051808215151515815260200191505060405180910390f35b348015610bf257600080fd5b50610c97600480360381019080803573ffffffffffffffffffffffffffffffffffffffff16906020019092919080359060200190929190803573ffffffffffffffffffffffffffffffffffffffff169060200190929190803590602001908201803590602001908080601f0160208091040260200160405190810160405280939291908181526020018383808284378201915050505050509192919290505050612db9565b005b348015610ca557600080fd5b50610cae612e4f565b6040518080602001828103825283818151815260200191508051906020019080838360005b83811015610cee578082015181840152602081019050610cd3565b50505050905090810190601f168015610d1b5780820380516001836020036101000a031916815260200191505b509250505060405180910390f35b348015610d3557600080fd5b50610d74600480360381019080803573ffffffffffffffffffffffffffffffffffffffff16906020019092919080359060200190929190505050612e88565b604051808215151515815260200191505060405180910390f35b348015610d9a57600080fd5b50610dc760048036038101908080356000191690602001909291908035906020019092919050505061304a565b60405180826000191660001916815260200191505060405180910390f35b348015610df157600080fd5b50610e30600480360381019080803573ffffffffffffffffffffffffffffffffffffffff16906020019092919080359060200190929190505050613192565b604051808215151515815260200191505060405180910390f35b348015610e5657600080fd5b50610f1860048036038101908080357bffffffffffffffffffffffffffffffffffffffffffffffffffffffff19169060200190929190803573ffffffffffffffffffffffffffffffffffffffff16906020019092919080359060200190929190803590602001908201803590602001908080601f016020809104026020016040519081016040528093929190818152602001838380828437820191505050505050919291929080359060200190929190803590602001909291905050506131b4565b60405180826000191660001916815260200191505060405180910390f35b348015610f4257600080fd5b50610fdb600480360381019080803590602001908201803590602001908080601f0160208091040260200160405190810160405280939291908181526020018383808284378201915050505050509192919290803573ffffffffffffffffffffffffffffffffffffffff169060200190929190803590602001909291908035906020019092919080359060200190929190505050613375565b604051808215151515815260200191505060405180910390f35b34801561100157600080fd5b50611024600480360381019080803560001916906020019092919050505061378d565b60405180826000191660001916815260200191505060405180910390f35b34801561104e57600080fd5b5061112d600480360381019080803590602001908201803590602001908080601f0160208091040260200160405190810160405280939291908181526020018383808284378201915050505050509192919290803573ffffffffffffffffffffffffffffffffffffffff16906020019092919080359060200190929190803590602001908201803590602001908080601f01602080910402602001604051908101604052809392919081815260200183838082843782019150505050505091929192908035906020019092919080359060200190929190505050613848565b604051808215151515815260200191505060405180910390f35b34801561115357600080fd5b506111d8600480360381019080803573ffffffffffffffffffffffffffffffffffffffff16906020019092919080359060200190929190803590602001908201803590602001908080601f0160208091040260200160405190810160405280939291908181526020018383808284378201915050505050509192919290505050613da7565b604051808215151515815260200191505060405180910390f35b3480156111fe57600080fd5b506112676004803603810190808035600019169060200190929190803590602001908201803590602001908080601f0160208091040260200160405190810160405280939291908181526020018383808284378201915050505050509192919290505050613f26565b604051808273ffffffffffffffffffffffffffffffffffffffff1673ffffffffffffffffffffffffffffffffffffffff16815260200191505060405180910390f35b3480156112b557600080fd5b506112f4600480360381019080803573ffffffffffffffffffffffffffffffffffffffff1690602001909291908035906020019092919050505061401e565b604051808215151515815260200191505060405180910390f35b34801561131a57600080fd5b5061136f600480360381019080803573ffffffffffffffffffffffffffffffffffffffff169060200190929190803573ffffffffffffffffffffffffffffffffffffffff169060200190929190505050614040565b6040518082815260200191505060405180910390f35b34801561139157600080fd5b506113c6600480360381019080803573ffffffffffffffffffffffffffffffffffffffff1690602001909291905050506140c7565b005b3480156113d457600080fd5b50611409600480360381019080803573ffffffffffffffffffffffffffffffffffffffff1690602001909291905050506141a3565b005b6040805190810160405280601381526020017f436f696e76657374204341534820546f6b656e0000000000000000000000000081525081565b600160009054906101000a900473ffffffffffffffffffffffffffffffffffffffff1681565b60006114773384846142f8565b151561148257600080fd5b6001905092915050565b60006114ad6114a76114a28989898989896131b4565b61378d565b89613f26565b9050979650505050505050565b600160009054906101000a900473ffffffffffffffffffffffffffffffffffffffff1673ffffffffffffffffffffffffffffffffffffffff163373ffffffffffffffffffffffffffffffffffffffff1614151561151657600080fd5b600073ffffffffffffffffffffffffffffffffffffffff168273ffffffffffffffffffffffffffffffffffffffff161415151561155257600080fd5b600160009054906101000a900473ffffffffffffffffffffffffffffffffffffffff1673ffffffffffffffffffffffffffffffffffffffff168273ffffffffffffffffffffffffffffffffffffffff16141515156115af57600080fd5b80600260008473ffffffffffffffffffffffffffffffffffffffff1673ffffffffffffffffffffffffffffffffffffffff16815260200190815260200160002060006101000a81548160ff0219169083151502179055505050565b6000806000805a92506116558963a9059cbb7c0100000000000000000000000000000000000000000000000000000000028a8a60206040519081016040528060008152508b8b61148c565b9150600073ffffffffffffffffffffffffffffffffffffffff168273ffffffffffffffffffffffffffffffffffffffff16141515156116fc576040517f08c379a000000000000000000000000000000000000000000000000000000000815260040180806020018281038252601b8152602001807f496e76616c6964207369676e61747572652070726f76696465642e000000000081525060200191505060405180910390fd5b61173d63a9059cbb7c010000000000000000000000000000000000000000000000000000000002898960206040519081016040528060008152508a8a6131b4565b9050600760008373ffffffffffffffffffffffffffffffffffffffff1673ffffffffffffffffffffffffffffffffffffffff1681526020019081526020016000206000826000191660001916815260200190815260200160002060009054906101000a900460ff16151515611840576040517f08c379a00000000000000000000000000000000000000000000000000000000081526004018080602001828103825260268152602001807f5472616e73616374696f6e2068617320616c7265616479206265656e2065786581526020017f63757465642e000000000000000000000000000000000000000000000000000081525060400191505060405180910390fd5b6001600760008473ffffffffffffffffffffffffffffffffffffffff1673ffffffffffffffffffffffffffffffffffffffff1681526020019081526020016000206000836000191660001916815260200190815260200160002060006101000a81548160ff021916908315150217905550600660008373ffffffffffffffffffffffffffffffffffffffff1673ffffffffffffffffffffffffffffffffffffffff1681526020019081526020016000206000815480929190600101919050555061190b8289896143eb565b151561191657600080fd5b60008611156119ca576119325a8461472e90919063ffffffff16565b6188b80192506119558232611950868a61474790919063ffffffff16565b6143eb565b15156119c9576040517f08c379a000000000000000000000000000000000000000000000000000000000815260040180806020018281038252601b8152602001807f47617320636f737420636f756c64206e6f7420626520706169642e000000000081525060200191505060405180910390fd5b5b8173ffffffffffffffffffffffffffffffffffffffff1681600019167ff4a65fdaee7ca2336b6b5ea720055552af3fd371f7ebe46b8c83fa89d8c733f860405160405180910390a36001935050505095945050505050565b6000600354905090565b600081600460008673ffffffffffffffffffffffffffffffffffffffff1673ffffffffffffffffffffffffffffffffffffffff1681526020019081526020016000205410158015611af9575081600560008673ffffffffffffffffffffffffffffffffffffffff1673ffffffffffffffffffffffffffffffffffffffff16815260200190815260200160002060003373ffffffffffffffffffffffffffffffffffffffff1673ffffffffffffffffffffffffffffffffffffffff1681526020019081526020016000205410155b1515611b0457600080fd5b611b9382600560008773ffffffffffffffffffffffffffffffffffffffff1673ffffffffffffffffffffffffffffffffffffffff16815260200190815260200160002060003373ffffffffffffffffffffffffffffffffffffffff1673ffffffffffffffffffffffffffffffffffffffff1681526020019081526020016000205461472e90919063ffffffff16565b600560008673ffffffffffffffffffffffffffffffffffffffff1673ffffffffffffffffffffffffffffffffffffffff16815260200190815260200160002060003373ffffffffffffffffffffffffffffffffffffffff1673ffffffffffffffffffffffffffffffffffffffff16815260200190815260200160002081905550611c1e8484846143eb565b1515611c2957600080fd5b600190509392505050565b6000600660008373ffffffffffffffffffffffffffffffffffffffff1673ffffffffffffffffffffffffffffffffffffffff168152602001908152602001600020549050919050565b601281565b6000806000809054906101000a900473ffffffffffffffffffffffffffffffffffffffff1673ffffffffffffffffffffffffffffffffffffffff163373ffffffffffffffffffffffffffffffffffffffff16141515611ce057600080fd5b8291508173ffffffffffffffffffffffffffffffffffffffff166370a08231306040518263ffffffff167c0100000000000000000000000000000000000000000000000000000000028152600401808273ffffffffffffffffffffffffffffffffffffffff1673ffffffffffffffffffffffffffffffffffffffff168152602001915050602060405180830381600087803b158015611d7e57600080fd5b505af1158015611d92573d6000803e3d6000fd5b505050506040513d6020811015611da857600080fd5b810190808051906020019092919050505090508173ffffffffffffffffffffffffffffffffffffffff1663a9059cbb6000809054906101000a900473ffffffffffffffffffffffffffffffffffffffff16836040518363ffffffff167c0100000000000000000000000000000000000000000000000000000000028152600401808373ffffffffffffffffffffffffffffffffffffffff1673ffffffffffffffffffffffffffffffffffffffff16815260200182815260200192505050602060405180830381600087803b158015611e7f57600080fd5b505af1158015611e93573d6000803e3d6000fd5b505050506040513d6020811015611ea957600080fd5b810190808051906020019092919050505050505050565b60008060009054906101000a900473ffffffffffffffffffffffffffffffffffffffff1673ffffffffffffffffffffffffffffffffffffffff163373ffffffffffffffffffffffffffffffffffffffff16141515611f1d57600080fd5b600082111515611f2c57600080fd5b611f7e82600460008673ffffffffffffffffffffffffffffffffffffffff1673ffffffffffffffffffffffffffffffffffffffff1681526020019081526020016000205461477a90919063ffffffff16565b600460008573ffffffffffffffffffffffffffffffffffffffff1673ffffffffffffffffffffffffffffffffffffffff16815260200190815260200160002081905550611fd68260035461477a90919063ffffffff16565b6003819055508273ffffffffffffffffffffffffffffffffffffffff167f0f6798a560793a54c3bcfe86a93cde1e73087d944c0ea20544137d4121396885836040518082815260200191505060405180910390a26001905092915050565b60026020528060005260406000206000915054906101000a900460ff1681565b600061207161206b612066858561304a565b61378d565b85613f26565b90509392505050565b6000806000805a92506120c58963095ea7b37c0100000000000000000000000000000000000000000000000000000000028a8a60206040519081016040528060008152508b8b61148c565b9150600073ffffffffffffffffffffffffffffffffffffffff168273ffffffffffffffffffffffffffffffffffffffff161415151561216c576040517f08c379a000000000000000000000000000000000000000000000000000000000815260040180806020018281038252601b8152602001807f496e76616c6964207369676e61747572652070726f76696465642e000000000081525060200191505060405180910390fd5b6121ad63095ea7b37c010000000000000000000000000000000000000000000000000000000002898960206040519081016040528060008152508a8a6131b4565b9050600760008373ffffffffffffffffffffffffffffffffffffffff1673ffffffffffffffffffffffffffffffffffffffff1681526020019081526020016000206000826000191660001916815260200190815260200160002060009054906101000a900460ff161515156122b0576040517f08c379a00000000000000000000000000000000000000000000000000000000081526004018080602001828103825260268152602001807f5472616e73616374696f6e2068617320616c7265616479206265656e2065786581526020017f63757465642e000000000000000000000000000000000000000000000000000081525060400191505060405180910390fd5b6001600760008473ffffffffffffffffffffffffffffffffffffffff1673ffffffffffffffffffffffffffffffffffffffff1681526020019081526020016000206000836000191660001916815260200190815260200160002060006101000a81548160ff021916908315150217905550600660008373ffffffffffffffffffffffffffffffffffffffff1673ffffffffffffffffffffffffffffffffffffffff1681526020019081526020016000206000815480929190600101919050555061237b8289896142f8565b151561238657600080fd5b600086111561243a576123a25a8461472e90919063ffffffff16565b6188b80192506123c582326123c0868a61474790919063ffffffff16565b6143eb565b1515612439576040517f08c379a000000000000000000000000000000000000000000000000000000000815260040180806020018281038252601b8152602001807f47617320636f737420636f756c64206e6f7420626520706169642e000000000081525060200191505060405180910390fd5b5b8173ffffffffffffffffffffffffffffffffffffffff1681600019167ff4a65fdaee7ca2336b6b5ea720055552af3fd371f7ebe46b8c83fa89d8c733f860405160405180910390a36001935050505095945050505050565b600061249f338484614798565b15156124aa57600080fd5b6001905092915050565b6000600460008373ffffffffffffffffffffffffffffffffffffffff1673ffffffffffffffffffffffffffffffffffffffff168152602001908152602001600020549050919050565b60006001600760003373ffffffffffffffffffffffffffffffffffffffff1673ffffffffffffffffffffffffffffffffffffffff1681526020019081526020016000206000846000191660001916815260200190815260200160002060006101000a81548160ff02191690831515021790555060019050919050565b6000806000805a92506125c48963661884637c0100000000000000000000000000000000000000000000000000000000028a8a60206040519081016040528060008152508b8b61148c565b9150600073ffffffffffffffffffffffffffffffffffffffff168273ffffffffffffffffffffffffffffffffffffffff161415151561266b576040517f08c379a000000000000000000000000000000000000000000000000000000000815260040180806020018281038252601b8152602001807f496e76616c6964207369676e61747572652070726f76696465642e000000000081525060200191505060405180910390fd5b6126ac63661884637c010000000000000000000000000000000000000000000000000000000002898960206040519081016040528060008152508a8a6131b4565b9050600760008373ffffffffffffffffffffffffffffffffffffffff1673ffffffffffffffffffffffffffffffffffffffff1681526020019081526020016000206000826000191660001916815260200190815260200160002060009054906101000a900460ff161515156127af576040517f08c379a00000000000000000000000000000000000000000000000000000000081526004018080602001828103825260268152602001807f5472616e73616374696f6e2068617320616c7265616479206265656e2065786581526020017f63757465642e000000000000000000000000000000000000000000000000000081525060400191505060405180910390fd5b6001600760008473ffffffffffffffffffffffffffffffffffffffff1673ffffffffffffffffffffffffffffffffffffffff1681526020019081526020016000206000836000191660001916815260200190815260200160002060006101000a81548160ff021916908315150217905550600660008373ffffffffffffffffffffffffffffffffffffffff1673ffffffffffffffffffffffffffffffffffffffff1681526020019081526020016000206000815480929190600101919050555061287a828989614798565b151561288557600080fd5b6000861115612939576128a15a8461472e90919063ffffffff16565b6188b80192506128c482326128bf868a61474790919063ffffffff16565b6143eb565b1515612938576040517f08c379a000000000000000000000000000000000000000000000000000000000815260040180806020018281038252601b8152602001807f47617320636f737420636f756c64206e6f7420626520706169642e000000000081525060200191505060405180910390fd5b5b8173ffffffffffffffffffffffffffffffffffffffff1681600019167ff4a65fdaee7ca2336b6b5ea720055552af3fd371f7ebe46b8c83fa89d8c733f860405160405180910390a36001935050505095945050505050565b6000809054906101000a900473ffffffffffffffffffffffffffffffffffffffff1681565b6000806000805a92506129ca878787612054565b9150600073ffffffffffffffffffffffffffffffffffffffff168273ffffffffffffffffffffffffffffffffffffffff1614151515612a71576040517f08c379a000000000000000000000000000000000000000000000000000000000815260040180806020018281038252601b8152602001807f496e76616c6964207369676e61747572652070726f76696465642e000000000081525060200191505060405180910390fd5b612a7b868661304a565b9050600760008373ffffffffffffffffffffffffffffffffffffffff1673ffffffffffffffffffffffffffffffffffffffff1681526020019081526020016000206000826000191660001916815260200190815260200160002060009054906101000a900460ff16151515612b7e576040517f08c379a00000000000000000000000000000000000000000000000000000000081526004018080602001828103825260268152602001807f5472616e73616374696f6e2068617320616c7265616479206265656e2065786581526020017f63757465642e000000000000000000000000000000000000000000000000000081525060400191505060405180910390fd5b6001600760008473ffffffffffffffffffffffffffffffffffffffff1673ffffffffffffffffffffffffffffffffffffffff1681526020019081526020016000206000836000191660001916815260200190815260200160002060006101000a81548160ff021916908315150217905550600660008373ffffffffffffffffffffffffffffffffffffffff1673ffffffffffffffffffffffffffffffffffffffff168152602001908152602001600020600081548092919060010191905055506001600760008473ffffffffffffffffffffffffffffffffffffffff1673ffffffffffffffffffffffffffffffffffffffff1681526020019081526020016000206000886000191660001916815260200190815260200160002060006101000a81548160ff0219169083151502179055506000851115612d6357612ccb5a8461472e90919063ffffffff16565b6188b8019250612cee8232612ce9868961474790919063ffffffff16565b6143eb565b1515612d62576040517f08c379a000000000000000000000000000000000000000000000000000000000815260040180806020018281038252601b8152602001807f47617320636f737420636f756c64206e6f7420626520706169642e000000000081525060200191505060405180910390fd5b5b8173ffffffffffffffffffffffffffffffffffffffff1681600019167ff4a65fdaee7ca2336b6b5ea720055552af3fd371f7ebe46b8c83fa89d8c733f860405160405180910390a3600193505050509392505050565b3073ffffffffffffffffffffffffffffffffffffffff168160405180828051906020019080838360005b83811015612dfe578082015181840152602081019050612de3565b50505050905090810190601f168015612e2b5780820380516001836020036101000a031916815260200191505b50915050600060405180830381855af49150501515612e4957600080fd5b50505050565b6040805190810160405280600481526020017f434153480000000000000000000000000000000000000000000000000000000081525081565b60008060009054906101000a900473ffffffffffffffffffffffffffffffffffffffff1673ffffffffffffffffffffffffffffffffffffffff163373ffffffffffffffffffffffffffffffffffffffff16141515612ee557600080fd5b600082111515612ef457600080fd5b81600460008573ffffffffffffffffffffffffffffffffffffffff1673ffffffffffffffffffffffffffffffffffffffff1681526020019081526020016000205410151515612f4257600080fd5b612f9482600460008673ffffffffffffffffffffffffffffffffffffffff1673ffffffffffffffffffffffffffffffffffffffff1681526020019081526020016000205461472e90919063ffffffff16565b600460008573ffffffffffffffffffffffffffffffffffffffff1673ffffffffffffffffffffffffffffffffffffffff16815260200190815260200160002081905550612fec8260035461472e90919063ffffffff16565b6003819055508273ffffffffffffffffffffffffffffffffffffffff167fcc16f5dbb4873280815c1ee09dbd06736cffcc184412cf7a71a0fdb75d397ca5836040518082815260200191505060405180910390a26001905092915050565b6000306370de43f17c0100000000000000000000000000000000000000000000000000000000028484604051602001808573ffffffffffffffffffffffffffffffffffffffff1673ffffffffffffffffffffffffffffffffffffffff166c01000000000000000000000000028152601401847bffffffffffffffffffffffffffffffffffffffffffffffffffffffff19167bffffffffffffffffffffffffffffffffffffffffffffffffffffffff1916815260040183600019166000191681526020018281526020019450505050506040516020818303038152906040526040518082805190602001908083835b60208310151561315d5780518252602082019150602081019050602083039250613138565b6001836020036101000a0380198251168184511680821785525050505050509050019150506040518091039020905092915050565b600061319f3384846143eb565b15156131aa57600080fd5b6001905092915050565b600030878787878787604051602001808873ffffffffffffffffffffffffffffffffffffffff1673ffffffffffffffffffffffffffffffffffffffff166c01000000000000000000000000028152601401877bffffffffffffffffffffffffffffffffffffffffffffffffffffffff19167bffffffffffffffffffffffffffffffffffffffffffffffffffffffff191681526004018673ffffffffffffffffffffffffffffffffffffffff1673ffffffffffffffffffffffffffffffffffffffff166c0100000000000000000000000002815260140185815260200184805190602001908083835b6020831015156132c1578051825260208201915060208101905060208303925061329c565b6001836020036101000a0380198251168184511680821785525050505050509050018381526020018281526020019750505050505050506040516020818303038152906040526040518082805190602001908083835b60208310151561333c5780518252602082019150602081019050602083039250613317565b6001836020036101000a038019825116818451168082178552505050505050905001915050604051809103902090509695505050505050565b6000806000805a92506133c08963d73dd6237c0100000000000000000000000000000000000000000000000000000000028a8a60206040519081016040528060008152508b8b61148c565b9150600073ffffffffffffffffffffffffffffffffffffffff168273ffffffffffffffffffffffffffffffffffffffff1614151515613467576040517f08c379a000000000000000000000000000000000000000000000000000000000815260040180806020018281038252601b8152602001807f496e76616c6964207369676e61747572652070726f76696465642e000000000081525060200191505060405180910390fd5b6134a863d73dd6237c010000000000000000000000000000000000000000000000000000000002898960206040519081016040528060008152508a8a6131b4565b9050600760008373ffffffffffffffffffffffffffffffffffffffff1673ffffffffffffffffffffffffffffffffffffffff1681526020019081526020016000206000826000191660001916815260200190815260200160002060009054906101000a900460ff161515156135ab576040517f08c379a00000000000000000000000000000000000000000000000000000000081526004018080602001828103825260268152602001807f5472616e73616374696f6e2068617320616c7265616479206265656e2065786581526020017f63757465642e000000000000000000000000000000000000000000000000000081525060400191505060405180910390fd5b6001600760008473ffffffffffffffffffffffffffffffffffffffff1673ffffffffffffffffffffffffffffffffffffffff1681526020019081526020016000206000836000191660001916815260200190815260200160002060006101000a81548160ff021916908315150217905550600660008373ffffffffffffffffffffffffffffffffffffffff1673ffffffffffffffffffffffffffffffffffffffff16815260200190815260200160002060008154809291906001019190505550613676828989614aa2565b151561368157600080fd5b60008611156137355761369d5a8461472e90919063ffffffff16565b6188b80192506136c082326136bb868a61474790919063ffffffff16565b6143eb565b1515613734576040517f08c379a000000000000000000000000000000000000000000000000000000000815260040180806020018281038252601b8152602001807f47617320636f737420636f756c64206e6f7420626520706169642e000000000081525060200191505060405180910390fd5b5b8173ffffffffffffffffffffffffffffffffffffffff1681600019167ff4a65fdaee7ca2336b6b5ea720055552af3fd371f7ebe46b8c83fa89d8c733f860405160405180910390a36001935050505095945050505050565b60008160405160200180807f19457468657265756d205369676e6564204d6573736167653a0a333200000000815250601c0182600019166000191681526020019150506040516020818303038152906040526040518082805190602001908083835b60208310151561381457805182526020820191506020810190506020830392506137ef565b6001836020036101000a03801982511681845116808217855250505050505090500191505060405180910390209050919050565b6000806000805a92506138838a63cae9ca517c0100000000000000000000000000000000000000000000000000000000028b8b8b8b8b61148c565b9150600073ffffffffffffffffffffffffffffffffffffffff168273ffffffffffffffffffffffffffffffffffffffff161415151561392a576040517f08c379a000000000000000000000000000000000000000000000000000000000815260040180806020018281038252601b8152602001807f496e76616c6964207369676e61747572652070726f76696465642e000000000081525060200191505060405180910390fd5b61395b63cae9ca517c0100000000000000000000000000000000000000000000000000000000028a8a8a8a8a6131b4565b9050600760008373ffffffffffffffffffffffffffffffffffffffff1673ffffffffffffffffffffffffffffffffffffffff1681526020019081526020016000206000826000191660001916815260200190815260200160002060009054906101000a900460ff16151515613a5e576040517f08c379a00000000000000000000000000000000000000000000000000000000081526004018080602001828103825260268152602001807f5472616e73616374696f6e2068617320616c7265616479206265656e2065786581526020017f63757465642e000000000000000000000000000000000000000000000000000081525060400191505060405180910390fd5b6001600760008473ffffffffffffffffffffffffffffffffffffffff1673ffffffffffffffffffffffffffffffffffffffff1681526020019081526020016000206000836000191660001916815260200190815260200160002060006101000a81548160ff021916908315150217905550600660008373ffffffffffffffffffffffffffffffffffffffff1673ffffffffffffffffffffffffffffffffffffffff168152602001908152602001600020600081548092919060010191905055506000881115613b3e57613b32828a8a6142f8565b1515613b3d57600080fd5b5b8873ffffffffffffffffffffffffffffffffffffffff16638f4ffcb1838a308b6040518563ffffffff167c0100000000000000000000000000000000000000000000000000000000028152600401808573ffffffffffffffffffffffffffffffffffffffff1673ffffffffffffffffffffffffffffffffffffffff1681526020018481526020018373ffffffffffffffffffffffffffffffffffffffff1673ffffffffffffffffffffffffffffffffffffffff16815260200180602001828103825283818151815260200191508051906020019080838360005b83811015613c33578082015181840152602081019050613c18565b50505050905090810190601f168015613c605780820380516001836020036101000a031916815260200191505b5095505050505050600060405180830381600087803b158015613c8257600080fd5b505af1158015613c96573d6000803e3d6000fd5b505050506000861115613d4e57613cb65a8461472e90919063ffffffff16565b6188b8019250613cd98232613cd4868a61474790919063ffffffff16565b6143eb565b1515613d4d576040517f08c379a000000000000000000000000000000000000000000000000000000000815260040180806020018281038252601b8152602001807f47617320636f737420636f756c64206e6f7420626520706169642e000000000081525060200191505060405180910390fd5b5b8173ffffffffffffffffffffffffffffffffffffffff1681600019167ff4a65fdaee7ca2336b6b5ea720055552af3fd371f7ebe46b8c83fa89d8c733f860405160405180910390a3600193505050509695505050505050565b6000613db43385856142f8565b1515613dbf57600080fd5b8373ffffffffffffffffffffffffffffffffffffffff16638f4ffcb1338530866040518563ffffffff167c0100000000000000000000000000000000000000000000000000000000028152600401808573ffffffffffffffffffffffffffffffffffffffff1673ffffffffffffffffffffffffffffffffffffffff1681526020018481526020018373ffffffffffffffffffffffffffffffffffffffff1673ffffffffffffffffffffffffffffffffffffffff16815260200180602001828103825283818151815260200191508051906020019080838360005b83811015613eb4578082015181840152602081019050613e99565b50505050905090810190601f168015613ee15780820380516001836020036101000a031916815260200191505b5095505050505050600060405180830381600087803b158015613f0357600080fd5b505af1158015613f17573d6000803e3d6000fd5b50505050600190509392505050565b60008060008060418551141515613f405760009350614015565b6020850151925060408501519150606085015160001a9050601b8160ff161015613f6b57601b810190505b601b8160ff1614158015613f835750601c8160ff1614155b15613f915760009350614015565b600186828585604051600081526020016040526040518085600019166000191681526020018460ff1660ff1681526020018360001916600019168152602001826000191660001916815260200194505050505060206040516020810390808403906000865af1158015614008573d6000803e3d6000fd5b5050506020604051035193505b50505092915050565b600061402b338484614aa2565b151561403657600080fd5b6001905092915050565b6000600560008473ffffffffffffffffffffffffffffffffffffffff1673ffffffffffffffffffffffffffffffffffffffff16815260200190815260200160002060008373ffffffffffffffffffffffffffffffffffffffff1673ffffffffffffffffffffffffffffffffffffffff16815260200190815260200160002054905092915050565b600160009054906101000a900473ffffffffffffffffffffffffffffffffffffffff1673ffffffffffffffffffffffffffffffffffffffff163373ffffffffffffffffffffffffffffffffffffffff1614151561412357600080fd5b600073ffffffffffffffffffffffffffffffffffffffff168173ffffffffffffffffffffffffffffffffffffffff161415151561415f57600080fd5b80600160006101000a81548173ffffffffffffffffffffffffffffffffffffffff021916908373ffffffffffffffffffffffffffffffffffffffff16021790555050565b6000809054906101000a900473ffffffffffffffffffffffffffffffffffffffff1673ffffffffffffffffffffffffffffffffffffffff163373ffffffffffffffffffffffffffffffffffffffff161415156141fe57600080fd5b600073ffffffffffffffffffffffffffffffffffffffff168173ffffffffffffffffffffffffffffffffffffffff161415151561423a57600080fd5b8073ffffffffffffffffffffffffffffffffffffffff166000809054906101000a900473ffffffffffffffffffffffffffffffffffffffff1673ffffffffffffffffffffffffffffffffffffffff167f8be0079c531659141344cd1fd0a4f28419497f9722a3daafe3b4186f6b6457e060405160405180910390a3806000806101000a81548173ffffffffffffffffffffffffffffffffffffffff021916908373ffffffffffffffffffffffffffffffffffffffff16021790555050565b600081600560008673ffffffffffffffffffffffffffffffffffffffff1673ffffffffffffffffffffffffffffffffffffffff16815260200190815260200160002060008573ffffffffffffffffffffffffffffffffffffffff1673ffffffffffffffffffffffffffffffffffffffff168152602001908152602001600020819055508273ffffffffffffffffffffffffffffffffffffffff168473ffffffffffffffffffffffffffffffffffffffff167f8c5be1e5ebec7d5bd14f71427d1e84f3dd0314c0f7b2291e5b200ac8c7c3b925846040518082815260200191505060405180910390a3600190509392505050565b60008073ffffffffffffffffffffffffffffffffffffffff168373ffffffffffffffffffffffffffffffffffffffff16141515156144b7576040517f08c379a00000000000000000000000000000000000000000000000000000000081526004018080602001828103825260238152602001807f496e76616c6964207472616e7366657220726563697069656e7420616464726581526020017f73732e000000000000000000000000000000000000000000000000000000000081525060400191505060405180910390fd5b81600460008673ffffffffffffffffffffffffffffffffffffffff1673ffffffffffffffffffffffffffffffffffffffff1681526020019081526020016000205410151515614594576040517f08c379a00000000000000000000000000000000000000000000000000000000081526004018080602001828103825260248152602001807f53656e64657220646f6573206e6f74206861766520656e6f7567682062616c6181526020017f6e63652e0000000000000000000000000000000000000000000000000000000081525060400191505060405180910390fd5b6145e682600460008773ffffffffffffffffffffffffffffffffffffffff1673ffffffffffffffffffffffffffffffffffffffff1681526020019081526020016000205461472e90919063ffffffff16565b600460008673ffffffffffffffffffffffffffffffffffffffff1673ffffffffffffffffffffffffffffffffffffffff1681526020019081526020016000208190555061467b82600460008673ffffffffffffffffffffffffffffffffffffffff1673ffffffffffffffffffffffffffffffffffffffff1681526020019081526020016000205461477a90919063ffffffff16565b600460008573ffffffffffffffffffffffffffffffffffffffff1673ffffffffffffffffffffffffffffffffffffffff168152602001908152602001600020819055508273ffffffffffffffffffffffffffffffffffffffff168473ffffffffffffffffffffffffffffffffffffffff167fddf252ad1be2c89b69c2b068fc378daa952ba7f163c4a11628f55a4df523b3ef846040518082815260200191505060405180910390a3600190509392505050565b600082821115151561473c57fe5b818303905092915050565b60008082840290506000841480614768575082848281151561476557fe5b04145b151561477057fe5b8091505092915050565b600080828401905083811015151561478e57fe5b8091505092915050565b600081600560008673ffffffffffffffffffffffffffffffffffffffff1673ffffffffffffffffffffffffffffffffffffffff16815260200190815260200160002060008573ffffffffffffffffffffffffffffffffffffffff1673ffffffffffffffffffffffffffffffffffffffff168152602001908152602001600020541115156148a6576000600560008673ffffffffffffffffffffffffffffffffffffffff1673ffffffffffffffffffffffffffffffffffffffff16815260200190815260200160002060008573ffffffffffffffffffffffffffffffffffffffff1673ffffffffffffffffffffffffffffffffffffffff168152602001908152602001600020819055506149b6565b61493582600560008773ffffffffffffffffffffffffffffffffffffffff1673ffffffffffffffffffffffffffffffffffffffff16815260200190815260200160002060008673ffffffffffffffffffffffffffffffffffffffff1673ffffffffffffffffffffffffffffffffffffffff1681526020019081526020016000205461472e90919063ffffffff16565b600560008673ffffffffffffffffffffffffffffffffffffffff1673ffffffffffffffffffffffffffffffffffffffff16815260200190815260200160002060008573ffffffffffffffffffffffffffffffffffffffff1673ffffffffffffffffffffffffffffffffffffffff168152602001908152602001600020819055505b8273ffffffffffffffffffffffffffffffffffffffff168473ffffffffffffffffffffffffffffffffffffffff167f8c5be1e5ebec7d5bd14f71427d1e84f3dd0314c0f7b2291e5b200ac8c7c3b925600560008873ffffffffffffffffffffffffffffffffffffffff1673ffffffffffffffffffffffffffffffffffffffff16815260200190815260200160002060008773ffffffffffffffffffffffffffffffffffffffff1673ffffffffffffffffffffffffffffffffffffffff168152602001908152602001600020546040518082815260200191505060405180910390a3600190509392505050565b6000614b3382600560008773ffffffffffffffffffffffffffffffffffffffff1673ffffffffffffffffffffffffffffffffffffffff16815260200190815260200160002060008673ffffffffffffffffffffffffffffffffffffffff1673ffffffffffffffffffffffffffffffffffffffff1681526020019081526020016000205461477a90919063ffffffff16565b600560008673ffffffffffffffffffffffffffffffffffffffff1673ffffffffffffffffffffffffffffffffffffffff16815260200190815260200160002060008573ffffffffffffffffffffffffffffffffffffffff1673ffffffffffffffffffffffffffffffffffffffff168152602001908152602001600020819055508273ffffffffffffffffffffffffffffffffffffffff168473ffffffffffffffffffffffffffffffffffffffff167f8c5be1e5ebec7d5bd14f71427d1e84f3dd0314c0f7b2291e5b200ac8c7c3b925600560008873ffffffffffffffffffffffffffffffffffffffff1673ffffffffffffffffffffffffffffffffffffffff16815260200190815260200160002060008773ffffffffffffffffffffffffffffffffffffffff1673ffffffffffffffffffffffffffffffffffffffff168152602001908152602001600020546040518082815260200191505060405180910390a36001905093925050505600a165627a7a72305820d709dbd76c1dbf7f9d4eac074a656c7ee68b13d4d8dd77386ea2d804c708a50a0029",
  "source": "pragma solidity ^0.4.24;\nimport './SafeMathLib.sol';\nimport './Ownable.sol';\n\n/**\n * @dev Abstract contract for approveAndCall.\n**/\ncontract ApproveAndCallFallBack {\n    function receiveApproval(address from, uint256 tokens, address token, bytes data) public;\n}\n\n/**\n * @title Coinvest CASH Token\n * @dev Coinvest CASH is a token pegged to the price of gold. We use the Coinvest COIN\n * @dev contract directly but have added a mint/burn function in order to increase or decrease\n * @dev total supply when we add gold to the Coinvest reserves.\n**/\ncontract CashToken is Ownable {\n    using SafeMathLib for uint256;\n    \n    string public constant symbol = \"CASH\";\n    string public constant name = \"Coinvest CASH Token\";\n    \n    uint8 public constant decimals = 18;\n    uint256 private _totalSupply = 107142857 * (10 ** 18);\n    \n    // Function sigs to be used within contract for signature recovery.\n    bytes4 internal constant transferSig = 0xa9059cbb;\n    bytes4 internal constant approveSig = 0x095ea7b3;\n    bytes4 internal constant increaseApprovalSig = 0xd73dd623;\n    bytes4 internal constant decreaseApprovalSig = 0x66188463;\n    bytes4 internal constant approveAndCallSig = 0xcae9ca51;\n    bytes4 internal constant revokeHashSig = 0x70de43f1;\n\n    // Balances for each account\n    mapping(address => uint256) balances;\n\n    // Owner of account approves the transfer of an amount to another account\n    mapping(address => mapping (address => uint256)) allowed;\n    \n    // Keeps track of the last nonce sent from user. Used for delegated functions.\n    mapping(address => uint256) nonces;\n    \n    // Mapping of past used hashes: true if already used.\n    mapping(address => mapping (bytes32 => bool)) invalidHashes;\n\n    event Transfer(address indexed from, address indexed to, uint tokens);\n    event Approval(address indexed from, address indexed spender, uint tokens);\n    event Mint(address indexed to, uint256 amount);\n    event Burn(address indexed from, uint256 amount);\n    event HashRedeemed(bytes32 indexed txHash, address indexed from);\n\n    /**\n     * @dev Set owner and beginning balance.\n    **/\n    constructor()\n      public\n    {\n        balances[msg.sender] = _totalSupply;\n    }\n\n    /**\n     * @dev approveAndCall reception used primarily to pay gas with other tokens.\n    **/\n    function receiveApproval(address _from, uint256 _amount, address _token, bytes _data) \n      public\n    {\n        require(address(this).delegatecall(_data));\n        _from; _amount; _token;\n    }\n\n/** ******************************** ERC20 ********************************* **/\n\n    /**\n     * @dev Transfers coins from one address to another.\n     * @param _to The recipient of the transfer amount.\n     * @param _amount The amount of tokens to transfer.\n    **/\n    function transfer(address _to, uint256 _amount) \n      public\n    returns (bool success)\n    {\n        require(_transfer(msg.sender, _to, _amount));\n        return true;\n    }\n    \n    /**\n     * @dev An allowed address can transfer tokens from another's address.\n     * @param _from The owner of the tokens to be transferred.\n     * @param _to The address to which the tokens will be transferred.\n     * @param _amount The amount of tokens to be transferred.\n    **/\n    function transferFrom(address _from, address _to, uint _amount)\n      public\n    returns (bool success)\n    {\n        require(balances[_from] >= _amount && allowed[_from][msg.sender] >= _amount);\n\n        allowed[_from][msg.sender] = allowed[_from][msg.sender].sub(_amount);\n        require(_transfer(_from, _to, _amount));\n        return true;\n    }\n    \n    /**\n     * @dev Approves a wallet to transfer tokens on one's behalf.\n     * @param _spender The wallet approved to spend tokens.\n     * @param _amount The amount of tokens approved to spend.\n    **/\n    function approve(address _spender, uint256 _amount) \n      public\n    returns (bool success)\n    {\n        require(_approve(msg.sender, _spender, _amount));\n        return true;\n    }\n    \n    /**\n     * @dev Increases the allowed amount for spender from msg.sender.\n     * @param _spender The address to increase allowed amount for.\n     * @param _amount The amount of tokens to increase allowed amount by.\n    **/\n    function increaseApproval(address _spender, uint256 _amount) \n      public\n    returns (bool success)\n    {\n        require(_increaseApproval(msg.sender, _spender, _amount));\n        return true;\n    }\n    \n    /**\n     * @dev Decreases the allowed amount for spender from msg.sender.\n     * @param _spender The address to decrease allowed amount for.\n     * @param _amount The amount of tokens to decrease allowed amount by.\n    **/\n    function decreaseApproval(address _spender, uint256 _amount) \n      public\n    returns (bool success)\n    {\n        require(_decreaseApproval(msg.sender, _spender, _amount));\n        return true;\n    }\n    \n    /**\n     * @dev Used to approve an address and call a function on it in the same transaction.\n     * @dev _spender The address to be approved to spend CASH.\n     * @dev _amount The amount of CASH to be approved to spend.\n     * @dev _data The data to send to the called contract.\n    **/\n    function approveAndCall(address _spender, uint256 _amount, bytes _data) \n      public\n    returns (bool success) \n    {\n        require(_approve(msg.sender, _spender, _amount));\n        ApproveAndCallFallBack(_spender).receiveApproval(msg.sender, _amount, address(this), _data);\n        return true;\n    }\n\n/** ****************************** Internal ******************************** **/\n    \n    /**\n     * @dev Internal transfer for all functions that transfer.\n     * @param _from The address that is transferring coins.\n     * @param _to The receiving address of the coins.\n     * @param _amount The amount of coins being transferred.\n    **/\n    function _transfer(address _from, address _to, uint256 _amount)\n      internal\n    returns (bool success)\n    {\n        require (_to != address(0), \"Invalid transfer recipient address.\");\n        require(balances[_from] >= _amount, \"Sender does not have enough balance.\");\n        \n        balances[_from] = balances[_from].sub(_amount);\n        balances[_to] = balances[_to].add(_amount);\n        \n        emit Transfer(_from, _to, _amount);\n        return true;\n    }\n    \n    /**\n     * @dev Internal approve for all functions that require an approve.\n     * @param _owner The owner who is allowing spender to use their balance.\n     * @param _spender The wallet approved to spend tokens.\n     * @param _amount The amount of tokens approved to spend.\n    **/\n    function _approve(address _owner, address _spender, uint256 _amount) \n      internal\n    returns (bool success)\n    {\n        allowed[_owner][_spender] = _amount;\n        emit Approval(_owner, _spender, _amount);\n        return true;\n    }\n    \n    /**\n     * @dev Increases the allowed by \"_amount\" for \"_spender\" from \"owner\"\n     * @param _owner The address that tokens may be transferred from.\n     * @param _spender The address that may transfer these tokens.\n     * @param _amount The amount of tokens to transfer.\n    **/\n    function _increaseApproval(address _owner, address _spender, uint256 _amount)\n      internal\n    returns (bool success)\n    {\n        allowed[_owner][_spender] = allowed[_owner][_spender].add(_amount);\n        emit Approval(_owner, _spender, allowed[_owner][_spender]);\n        return true;\n    }\n    \n    /**\n     * @dev Decreases the allowed by \"_amount\" for \"_spender\" from \"_owner\"\n     * @param _owner The owner of the tokens to decrease allowed for.\n     * @param _spender The spender whose allowed will decrease.\n     * @param _amount The amount of tokens to decrease allowed by.\n    **/\n    function _decreaseApproval(address _owner, address _spender, uint256 _amount)\n      internal\n    returns (bool success)\n    {\n        if (allowed[_owner][_spender] <= _amount) allowed[_owner][_spender] = 0;\n        else allowed[_owner][_spender] = allowed[_owner][_spender].sub(_amount);\n        \n        emit Approval(_owner, _spender, allowed[_owner][_spender]);\n        return true;\n    }\n    \n/** ************************ Delegated Functions *************************** **/\n\n    /**\n     * @dev Called by delegate with a signed hash of the transaction data to allow a user\n     * @dev to transfer tokens without paying gas in Ether (they pay in CASH instead).\n     * @param _signature Signed hash of data for this transfer.\n     * @param _to The address to transfer CASH to.\n     * @param _value The amount of CASH to transfer.\n     * @param _gasPrice Price (IN CASH) that will be paid per unit of gas by user to \"delegate\".\n     * @param _nonce Nonce of the user's new transaction.\n    **/\n    function transferPreSigned(\n        bytes _signature,\n        address _to, \n        uint256 _value,\n        uint256 _gasPrice, \n        uint256 _nonce) \n      public\n    returns (bool) \n    {\n        // Log starting gas left of transaction for later gas price calculations.\n        uint256 gas = gasleft();\n        \n        // Recover signer address from signature; ensure address is valid.\n        address from = recoverPreSigned(_signature, transferSig, _to, _value, \"\", _gasPrice, _nonce);\n        require(from != address(0), \"Invalid signature provided.\");\n        \n        // Require the hash has not been used, declare it used, increment nonce.\n        bytes32 txHash = getPreSignedHash(transferSig, _to, _value, \"\", _gasPrice, _nonce);\n        require(!invalidHashes[from][txHash], \"Transaction has already been executed.\");\n        invalidHashes[from][txHash] = true;\n        nonces[from]++;\n        \n        // Internal transfer.\n        require(_transfer(from, _to, _value));\n\n        // If the delegate is charging, pay them for gas in CASH.\n        if (_gasPrice > 0) {\n            // 35000 because of base fee of 21000 and ~14000 for the fee transfer.\n            gas = 35000 + gas.sub(gasleft());\n            require(_transfer(from, tx.origin, _gasPrice.mul(gas)), \"Gas cost could not be paid.\");\n        }\n        \n        emit HashRedeemed(txHash, from);\n        return true;\n    }\n    \n    /**\n     * @dev Called by a delegate with signed hash to approve a transaction for user.\n     * @dev All variables equivalent to transfer except _to:\n     * @param _to The address that will be approved to transfer CASH from user's wallet.\n    **/\n    function approvePreSigned(\n        bytes _signature,\n        address _to, \n        uint256 _value,\n        uint256 _gasPrice, \n        uint256 _nonce) \n      public\n    returns (bool) \n    {\n        uint256 gas = gasleft();\n        address from = recoverPreSigned(_signature, approveSig, _to, _value, \"\", _gasPrice, _nonce);\n        require(from != address(0), \"Invalid signature provided.\");\n\n        bytes32 txHash = getPreSignedHash(approveSig, _to, _value, \"\", _gasPrice, _nonce);\n        require(!invalidHashes[from][txHash], \"Transaction has already been executed.\");\n        invalidHashes[from][txHash] = true;\n        nonces[from]++;\n        \n        require(_approve(from, _to, _value));\n\n        if (_gasPrice > 0) {\n            gas = 35000 + gas.sub(gasleft());\n            require(_transfer(from, tx.origin, _gasPrice.mul(gas)), \"Gas cost could not be paid.\");\n        }\n\n        emit HashRedeemed(txHash, from);\n        return true;\n    }\n    \n    /**\n     * @dev Used to increase the amount allowed for \"_to\" to spend from \"from\"\n     * @dev A bare approve allows potentially nasty race conditions when using a delegate.\n    **/\n    function increaseApprovalPreSigned(\n        bytes _signature,\n        address _to, \n        uint256 _value,\n        uint256 _gasPrice, \n        uint256 _nonce)\n      public\n    returns (bool) \n    {\n        uint256 gas = gasleft();\n        address from = recoverPreSigned(_signature, increaseApprovalSig, _to, _value, \"\", _gasPrice, _nonce);\n        require(from != address(0), \"Invalid signature provided.\");\n\n        bytes32 txHash = getPreSignedHash(increaseApprovalSig, _to, _value, \"\", _gasPrice, _nonce);\n        require(!invalidHashes[from][txHash], \"Transaction has already been executed.\");\n        invalidHashes[from][txHash] = true;\n        nonces[from]++;\n        \n        require(_increaseApproval(from, _to, _value));\n\n        if (_gasPrice > 0) {\n            gas = 35000 + gas.sub(gasleft());\n            require(_transfer(from, tx.origin, _gasPrice.mul(gas)), \"Gas cost could not be paid.\");\n        }\n        \n        emit HashRedeemed(txHash, from);\n        return true;\n    }\n    \n    /**\n     * @dev Added for the same reason as increaseApproval. Decreases to 0 if \"_value\" is greater than allowed.\n    **/\n    function decreaseApprovalPreSigned(\n        bytes _signature,\n        address _to, \n        uint256 _value, \n        uint256 _gasPrice, \n        uint256 _nonce) \n      public\n    returns (bool) \n    {\n        uint256 gas = gasleft();\n        address from = recoverPreSigned(_signature, decreaseApprovalSig, _to, _value, \"\", _gasPrice, _nonce);\n        require(from != address(0), \"Invalid signature provided.\");\n\n        bytes32 txHash = getPreSignedHash(decreaseApprovalSig, _to, _value, \"\", _gasPrice, _nonce);\n        require(!invalidHashes[from][txHash], \"Transaction has already been executed.\");\n        invalidHashes[from][txHash] = true;\n        nonces[from]++;\n        \n        require(_decreaseApproval(from, _to, _value));\n\n        if (_gasPrice > 0) {\n            gas = 35000 + gas.sub(gasleft());\n            require(_transfer(from, tx.origin, _gasPrice.mul(gas)), \"Gas cost could not be paid.\");\n        }\n\n        emit HashRedeemed(txHash, from);\n        return true;\n    }\n    \n    /**\n     * @dev approveAndCallPreSigned allows a user to approve a contract and call a function on it\n     * @dev in the same transaction. As with the other presigneds, a delegate calls this with signed data from user.\n     * @dev This function is the big reason we're using gas price and calculating gas use.\n     * @dev Using this with the investment contract can result in varying gas costs.\n     * @param _extraData The data to send to the contract.\n    **/\n    function approveAndCallPreSigned(\n        bytes _signature,\n        address _to, \n        uint256 _value,\n        bytes _extraData,\n        uint256 _gasPrice,\n        uint256 _nonce) \n      public\n    returns (bool) \n    {\n        uint256 gas = gasleft();\n        address from = recoverPreSigned(_signature, approveAndCallSig, _to, _value, _extraData, _gasPrice, _nonce);\n        require(from != address(0), \"Invalid signature provided.\");\n\n        bytes32 txHash = getPreSignedHash(approveAndCallSig, _to, _value, _extraData, _gasPrice, _nonce);\n        require(!invalidHashes[from][txHash], \"Transaction has already been executed.\");\n        invalidHashes[from][txHash] = true;\n        nonces[from]++;\n        \n        if (_value > 0) require(_approve(from, _to, _value));\n        ApproveAndCallFallBack(_to).receiveApproval(from, _value, address(this), _extraData);\n\n        if (_gasPrice > 0) {\n            gas = 35000 + gas.sub(gasleft());\n            require(_transfer(from, tx.origin, _gasPrice.mul(gas)), \"Gas cost could not be paid.\");\n        }\n        \n        emit HashRedeemed(txHash, from);\n        return true;\n    }\n\n/** *************************** Revoke PreSigned ************************** **/\n    \n    /**\n     * @dev Revoke hash without going through a delegate.\n     * @param _hashToRevoke The hash that you no longer want to be used.\n    **/\n    function revokeHash(bytes32 _hashToRevoke)\n      public\n    returns (bool)\n    {\n        invalidHashes[msg.sender][_hashToRevoke] = true;\n        return true;\n    }\n    \n    /**\n     * @dev Revoke hash through a delegate.\n     * @param _signature The signature allowing this revocation.\n     * @param _hashToRevoke The hash that you would like revoked.\n     * @param _gasPrice The amount of token wei to be paid for each uint of gas.\n    **/\n    function revokeHashPreSigned(\n        bytes _signature,\n        bytes32 _hashToRevoke,\n        uint256 _gasPrice)\n      public\n    returns (bool)\n    {\n        uint256 gas = gasleft();\n        address from = recoverRevokeHash(_signature, _hashToRevoke, _gasPrice);\n        require(from != address(0), \"Invalid signature provided.\");\n        \n        bytes32 txHash = getRevokeHash(_hashToRevoke, _gasPrice);\n        require(!invalidHashes[from][txHash], \"Transaction has already been executed.\");\n        invalidHashes[from][txHash] = true;\n        nonces[from]++;\n        \n        invalidHashes[from][_hashToRevoke] = true;\n        \n        if (_gasPrice > 0) {\n            gas = 35000 + gas.sub(gasleft());\n            require(_transfer(from, tx.origin, _gasPrice.mul(gas)), \"Gas cost could not be paid.\");\n        }\n        \n        emit HashRedeemed(txHash, from);\n        return true;\n    }\n    \n    /**\n     * @dev Get hash for a revocation.\n     * @param _hashToRevoke The signature to be revoked.\n     * @param _gasPrice The amount to be paid to delegate for sending this tx.\n    **/\n    function getRevokeHash(bytes32 _hashToRevoke, uint256 _gasPrice)\n      public\n      view\n    returns (bytes32 txHash)\n    {\n        return keccak256(abi.encodePacked(address(this), revokeHashSig, _hashToRevoke, _gasPrice));\n    }\n\n    /**\n     * @dev Recover the address from a revocation hash.\n     * @param _hashToRevoke The hash to be revoked.\n     * @param _signature The signature allowing this revocation.\n     * @param _gasPrice The amount of token wei to be paid for each unit of gas.\n    **/\n    function recoverRevokeHash(bytes _signature, bytes32 _hashToRevoke, uint256 _gasPrice)\n      public\n      view\n    returns (address from)\n    {\n        return ecrecoverFromSig(getSignHash(getRevokeHash(_hashToRevoke, _gasPrice)), _signature);\n    }\n    \n/** ************************** PreSigned Constants ************************ **/\n\n    /**\n     * @dev Used in frontend and contract to get hashed data of any given pre-signed transaction.\n     * @param _to The address to transfer CASH to.\n     * @param _value The amount of CASH to be transferred.\n     * @param _extraData Extra data of tx if needed. Transfers and approves will leave this null.\n     * @param _function Function signature of the pre-signed function being used.\n     * @param _gasPrice The agreed-upon amount of CASH to be paid per unit of gas.\n     * @param _nonce The user's nonce of the new transaction.\n    **/\n    function getPreSignedHash(\n        bytes4 _function,\n        address _to, \n        uint256 _value,\n        bytes _extraData,\n        uint256 _gasPrice,\n        uint256 _nonce)\n      public\n      view\n    returns (bytes32 txHash) \n    {\n        return keccak256(abi.encodePacked(address(this), _function, _to, _value, _extraData, _gasPrice, _nonce));\n    }\n    \n    /**\n     * @dev Recover an address from a signed pre-signed hash.\n     * @param _sig The signed hash.\n     * @param _function The function signature for function being called.\n     * @param _to The address to transfer/approve/transferFrom/etc. tokens to.\n     * @param _value The amont of tokens to transfer/approve/etc.\n     * @param _extraData The extra data included in the transaction, if any.\n     * @param _gasPrice The amount of token wei to be paid to the delegate for each unit of gas.\n     * @param _nonce The user's nonce for this transaction.\n    **/\n    function recoverPreSigned(\n        bytes _sig,\n        bytes4 _function,\n        address _to,\n        uint256 _value,\n        bytes _extraData,\n        uint256 _gasPrice,\n        uint256 _nonce) \n      public\n      view\n    returns (address recovered)\n    {\n        return ecrecoverFromSig(getSignHash(getPreSignedHash(_function, _to, _value, _extraData, _gasPrice, _nonce)), _sig);\n    }\n    \n    /**\n     * @dev Add signature prefix to hash for recovery  la ERC191.\n     * @param _hash The hashed transaction to add signature prefix to.\n    **/\n    function getSignHash(bytes32 _hash)\n      public\n      pure\n    returns (bytes32 signHash)\n    {\n        return keccak256(abi.encodePacked(\"\\x19Ethereum Signed Message:\\n32\", _hash));\n    }\n\n    /**\n     * @dev Helps to reduce stack depth problems for delegations. Thank you to Bokky for this!\n     * @param hash The hash of signed data for the transaction.\n     * @param sig Contains r, s, and v for recovery of address from the hash.\n    **/\n    function ecrecoverFromSig(bytes32 hash, bytes sig) \n      public \n      pure \n    returns (address recoveredAddress) \n    {\n        bytes32 r;\n        bytes32 s;\n        uint8 v;\n        if (sig.length != 65) return address(0);\n        assembly {\n            r := mload(add(sig, 32))\n            s := mload(add(sig, 64))\n            // Here we are loading the last 32 bytes. We exploit the fact that 'mload' will pad with zeroes if we overread.\n            // There is no 'mload8' to do this, but that would be nicer.\n            v := byte(0, mload(add(sig, 96)))\n        }\n        // Albeit non-transactional signatures are not specified by the YP, one would expect it to match the YP range of [27, 28]\n        // geth uses [0, 1] and some clients have followed. This might change, see https://github.com/ethereum/go-ethereum/issues/2053\n        if (v < 27) v += 27;\n        if (v != 27 && v != 28) return address(0);\n        return ecrecover(hash, v, r, s);\n    }\n\n    /**\n     * @dev Frontend queries to find the next nonce of the user so they can find the new nonce to send.\n     * @param _owner Address that will be sending the CASH.\n    **/\n    function getNonce(address _owner)\n      external\n      view\n    returns (uint256 nonce)\n    {\n        return nonces[_owner];\n    }\n\n/** ****************************** Constants ******************************* **/\n    \n    /**\n     * @dev Return total supply of token.\n    **/\n    function totalSupply() \n      external\n      view \n     returns (uint256)\n    {\n        return _totalSupply;\n    }\n\n    /**\n     * @dev Return balance of a certain address.\n     * @param _owner The address whose balance we want to check.\n    **/\n    function balanceOf(address _owner)\n      external\n      view \n    returns (uint256) \n    {\n        return balances[_owner];\n    }\n    \n    /**\n     * @dev Allowed amount for a user to spend of another's tokens.\n     * @param _owner The owner of the tokens approved to spend.\n     * @param _spender The address of the user allowed to spend the tokens.\n    **/\n    function allowance(address _owner, address _spender) \n      external\n      view \n    returns (uint256) \n    {\n        return allowed[_owner][_spender];\n    }\n    \n/** ****************************** onlyOwner ******************************* **/\n    \n    /**\n     * @dev Used by Coinvest to put CASH into the system.\n     * @param _to The address to which coins will be minted.\n     * @param _amount The amount of coins to be minted to that address.\n    **/\n    function mint(address _to, uint256 _amount)\n      external\n      onlyOwner\n    returns (bool success)\n    {\n        require(_amount > 0);\n\n        balances[_to] = balances[_to].add(_amount);\n        _totalSupply = _totalSupply.add(_amount);\n\n        emit Mint(_to, _amount);\n        return true;\n    }\n    \n    /**\n     * @dev Used by Coinvest when taking CASH out of the system.\n     * @param _from The address that will have coins burned.\n     * @param _amount The amount of coins that will be burned.\n    **/\n    function burn(address _from, uint256 _amount)\n      external\n      onlyOwner\n    returns (bool success)\n    {\n        require(_amount > 0);\n        require(balances[_from] >= _amount);\n        \n        balances[_from] = balances[_from].sub(_amount);\n        _totalSupply = _totalSupply.sub(_amount);\n\n        emit Burn(_from, _amount);\n        return true;\n    }\n\n    /**\n     * @dev Allow the owner to take ERC20 tokens off of this contract if they are accidentally sent.\n    **/\n    function tokenEscape(address _tokenContract)\n      external\n      onlyOwner\n    {\n        CashToken lostToken = CashToken(_tokenContract);\n        \n        uint256 stuckTokens = lostToken.balanceOf(address(this));\n        lostToken.transfer(owner, stuckTokens);\n    }\n    \n}\n",
  "sourcePath": "/root/Coinvest2/contracts/CashToken.sol",
  "compiler": {
    "name": "solc",
    "version": "0.4.24+commit.e67f0147.Emscripten.clang"
  },
  "schemaVersion": "2.0.1",
  "updatedAt": "2018-09-25T15:47:52.067Z"
}