{
  "contractName": "CoinvestToken",
  "abi": [
    {
      "constant": true,
      "inputs": [],
      "name": "name",
      "outputs": [
        {
          "name": "",
          "type": "string"
        }
      ],
      "payable": false,
      "stateMutability": "view",
      "type": "function"
    },
    {
      "constant": true,
      "inputs": [],
      "name": "decimals",
      "outputs": [
        {
          "name": "",
          "type": "uint8"
        }
      ],
      "payable": false,
      "stateMutability": "view",
      "type": "function"
    },
    {
      "constant": true,
      "inputs": [],
      "name": "owner",
      "outputs": [
        {
          "name": "",
          "type": "address"
        }
      ],
      "payable": false,
      "stateMutability": "view",
      "type": "function"
    },
    {
      "constant": true,
      "inputs": [],
      "name": "symbol",
      "outputs": [
        {
          "name": "",
          "type": "string"
        }
      ],
      "payable": false,
      "stateMutability": "view",
      "type": "function"
    },
    {
      "constant": true,
      "inputs": [
        {
          "name": "",
          "type": "bytes4"
        }
      ],
      "name": "standardSigs",
      "outputs": [
        {
          "name": "",
          "type": "bytes4"
        }
      ],
      "payable": false,
      "stateMutability": "view",
      "type": "function"
    },
    {
      "constant": false,
      "inputs": [
        {
          "name": "newOwner",
          "type": "address"
        }
      ],
      "name": "transferOwnership",
      "outputs": [],
      "payable": false,
      "stateMutability": "nonpayable",
      "type": "function"
    },
    {
      "inputs": [],
      "payable": false,
      "stateMutability": "nonpayable",
      "type": "constructor"
    },
    {
      "payable": false,
      "stateMutability": "nonpayable",
      "type": "fallback"
    },
    {
      "anonymous": false,
      "inputs": [
        {
          "indexed": true,
          "name": "from",
          "type": "address"
        },
        {
          "indexed": true,
          "name": "to",
          "type": "address"
        },
        {
          "indexed": false,
          "name": "tokens",
          "type": "uint256"
        }
      ],
      "name": "Transfer",
      "type": "event"
    },
    {
      "anonymous": false,
      "inputs": [
        {
          "indexed": true,
          "name": "from",
          "type": "address"
        },
        {
          "indexed": true,
          "name": "spender",
          "type": "address"
        },
        {
          "indexed": false,
          "name": "tokens",
          "type": "uint256"
        }
      ],
      "name": "Approval",
      "type": "event"
    },
    {
      "anonymous": false,
      "inputs": [
        {
          "indexed": true,
          "name": "previousOwner",
          "type": "address"
        },
        {
          "indexed": true,
          "name": "newOwner",
          "type": "address"
        }
      ],
      "name": "OwnershipTransferred",
      "type": "event"
    },
    {
      "constant": false,
      "inputs": [
        {
          "name": "_to",
          "type": "address"
        },
        {
          "name": "_amount",
          "type": "uint256"
        }
      ],
      "name": "transfer",
      "outputs": [
        {
          "name": "success",
          "type": "bool"
        }
      ],
      "payable": false,
      "stateMutability": "nonpayable",
      "type": "function"
    },
    {
      "constant": false,
      "inputs": [
        {
          "name": "_from",
          "type": "address"
        },
        {
          "name": "_to",
          "type": "address"
        },
        {
          "name": "_amount",
          "type": "uint256"
        }
      ],
      "name": "transferFrom",
      "outputs": [
        {
          "name": "success",
          "type": "bool"
        }
      ],
      "payable": false,
      "stateMutability": "nonpayable",
      "type": "function"
    },
    {
      "constant": false,
      "inputs": [
        {
          "name": "_spender",
          "type": "address"
        },
        {
          "name": "_amount",
          "type": "uint256"
        }
      ],
      "name": "approve",
      "outputs": [
        {
          "name": "success",
          "type": "bool"
        }
      ],
      "payable": false,
      "stateMutability": "nonpayable",
      "type": "function"
    },
    {
      "constant": false,
      "inputs": [
        {
          "name": "_spender",
          "type": "address"
        },
        {
          "name": "_amount",
          "type": "uint256"
        }
      ],
      "name": "increaseApproval",
      "outputs": [
        {
          "name": "success",
          "type": "bool"
        }
      ],
      "payable": false,
      "stateMutability": "nonpayable",
      "type": "function"
    },
    {
      "constant": false,
      "inputs": [
        {
          "name": "_spender",
          "type": "address"
        },
        {
          "name": "_amount",
          "type": "uint256"
        }
      ],
      "name": "decreaseApproval",
      "outputs": [
        {
          "name": "success",
          "type": "bool"
        }
      ],
      "payable": false,
      "stateMutability": "nonpayable",
      "type": "function"
    },
    {
      "constant": false,
      "inputs": [
        {
          "name": "_spender",
          "type": "address"
        },
        {
          "name": "_amount",
          "type": "uint256"
        },
        {
          "name": "_data",
          "type": "bytes"
        }
      ],
      "name": "approveAndCall",
      "outputs": [
        {
          "name": "success",
          "type": "bool"
        }
      ],
      "payable": false,
      "stateMutability": "nonpayable",
      "type": "function"
    },
    {
      "constant": false,
      "inputs": [
        {
          "name": "_signature",
          "type": "bytes"
        },
        {
          "name": "_to",
          "type": "address"
        },
        {
          "name": "_value",
          "type": "uint256"
        },
        {
          "name": "_gasPrice",
          "type": "uint256"
        },
        {
          "name": "_nonce",
          "type": "uint256"
        }
      ],
      "name": "transferPreSigned",
      "outputs": [
        {
          "name": "",
          "type": "bool"
        }
      ],
      "payable": false,
      "stateMutability": "nonpayable",
      "type": "function"
    },
    {
      "constant": false,
      "inputs": [
        {
          "name": "_signature",
          "type": "bytes"
        },
        {
          "name": "_to",
          "type": "address"
        },
        {
          "name": "_value",
          "type": "uint256"
        },
        {
          "name": "_gasPrice",
          "type": "uint256"
        },
        {
          "name": "_nonce",
          "type": "uint256"
        }
      ],
      "name": "approvePreSigned",
      "outputs": [
        {
          "name": "",
          "type": "bool"
        }
      ],
      "payable": false,
      "stateMutability": "nonpayable",
      "type": "function"
    },
    {
      "constant": false,
      "inputs": [
        {
          "name": "_signature",
          "type": "bytes"
        },
        {
          "name": "_to",
          "type": "address"
        },
        {
          "name": "_value",
          "type": "uint256"
        },
        {
          "name": "_gasPrice",
          "type": "uint256"
        },
        {
          "name": "_nonce",
          "type": "uint256"
        }
      ],
      "name": "increaseApprovalPreSigned",
      "outputs": [
        {
          "name": "",
          "type": "bool"
        }
      ],
      "payable": false,
      "stateMutability": "nonpayable",
      "type": "function"
    },
    {
      "constant": false,
      "inputs": [
        {
          "name": "_signature",
          "type": "bytes"
        },
        {
          "name": "_to",
          "type": "address"
        },
        {
          "name": "_value",
          "type": "uint256"
        },
        {
          "name": "_gasPrice",
          "type": "uint256"
        },
        {
          "name": "_nonce",
          "type": "uint256"
        }
      ],
      "name": "decreaseApprovalPreSigned",
      "outputs": [
        {
          "name": "",
          "type": "bool"
        }
      ],
      "payable": false,
      "stateMutability": "nonpayable",
      "type": "function"
    },
    {
      "constant": false,
      "inputs": [
        {
          "name": "_signature",
          "type": "bytes"
        },
        {
          "name": "_to",
          "type": "address"
        },
        {
          "name": "_value",
          "type": "uint256"
        },
        {
          "name": "_extraData",
          "type": "bytes"
        },
        {
          "name": "_gasPrice",
          "type": "uint256"
        },
        {
          "name": "_nonce",
          "type": "uint256"
        }
      ],
      "name": "approveAndCallPreSigned",
      "outputs": [
        {
          "name": "",
          "type": "bool"
        }
      ],
      "payable": false,
      "stateMutability": "nonpayable",
      "type": "function"
    },
    {
      "constant": false,
      "inputs": [
        {
          "name": "_sigToRevoke",
          "type": "bytes"
        }
      ],
      "name": "revokeSignature",
      "outputs": [
        {
          "name": "",
          "type": "bool"
        }
      ],
      "payable": false,
      "stateMutability": "nonpayable",
      "type": "function"
    },
    {
      "constant": false,
      "inputs": [
        {
          "name": "_signature",
          "type": "bytes"
        },
        {
          "name": "_sigToRevoke",
          "type": "bytes"
        },
        {
          "name": "_gasPrice",
          "type": "uint256"
        }
      ],
      "name": "revokeSignaturePreSigned",
      "outputs": [
        {
          "name": "",
          "type": "bool"
        }
      ],
      "payable": false,
      "stateMutability": "nonpayable",
      "type": "function"
    },
    {
      "constant": true,
      "inputs": [
        {
          "name": "_sigToRevoke",
          "type": "bytes"
        },
        {
          "name": "_gasPrice",
          "type": "uint256"
        }
      ],
      "name": "getRevokeHash",
      "outputs": [
        {
          "name": "txHash",
          "type": "bytes32"
        }
      ],
      "payable": false,
      "stateMutability": "view",
      "type": "function"
    },
    {
      "constant": true,
      "inputs": [
        {
          "name": "_signature",
          "type": "bytes"
        },
        {
          "name": "_sigToRevoke",
          "type": "bytes"
        },
        {
          "name": "_gasPrice",
          "type": "uint256"
        }
      ],
      "name": "recoverRevokeHash",
      "outputs": [
        {
          "name": "from",
          "type": "address"
        }
      ],
      "payable": false,
      "stateMutability": "view",
      "type": "function"
    },
    {
      "constant": true,
      "inputs": [
        {
          "name": "_function",
          "type": "bytes4"
        },
        {
          "name": "_to",
          "type": "address"
        },
        {
          "name": "_value",
          "type": "uint256"
        },
        {
          "name": "_extraData",
          "type": "bytes"
        },
        {
          "name": "_gasPrice",
          "type": "uint256"
        },
        {
          "name": "_nonce",
          "type": "uint256"
        }
      ],
      "name": "getPreSignedHash",
      "outputs": [
        {
          "name": "txHash",
          "type": "bytes32"
        }
      ],
      "payable": false,
      "stateMutability": "view",
      "type": "function"
    },
    {
      "constant": true,
      "inputs": [
        {
          "name": "_sig",
          "type": "bytes"
        },
        {
          "name": "_function",
          "type": "bytes4"
        },
        {
          "name": "_to",
          "type": "address"
        },
        {
          "name": "_value",
          "type": "uint256"
        },
        {
          "name": "_extraData",
          "type": "bytes"
        },
        {
          "name": "_gasPrice",
          "type": "uint256"
        },
        {
          "name": "_nonce",
          "type": "uint256"
        }
      ],
      "name": "recoverPreSigned",
      "outputs": [
        {
          "name": "recovered",
          "type": "address"
        }
      ],
      "payable": false,
      "stateMutability": "view",
      "type": "function"
    },
    {
      "constant": true,
      "inputs": [
        {
          "name": "_hash",
          "type": "bytes32"
        }
      ],
      "name": "getSignHash",
      "outputs": [
        {
          "name": "signHash",
          "type": "bytes32"
        }
      ],
      "payable": false,
      "stateMutability": "pure",
      "type": "function"
    },
    {
      "constant": true,
      "inputs": [
        {
          "name": "hash",
          "type": "bytes32"
        },
        {
          "name": "sig",
          "type": "bytes"
        }
      ],
      "name": "ecrecoverFromSig",
      "outputs": [
        {
          "name": "recoveredAddress",
          "type": "address"
        }
      ],
      "payable": false,
      "stateMutability": "pure",
      "type": "function"
    },
    {
      "constant": true,
      "inputs": [
        {
          "name": "_owner",
          "type": "address"
        }
      ],
      "name": "getNonce",
      "outputs": [
        {
          "name": "nonce",
          "type": "uint256"
        }
      ],
      "payable": false,
      "stateMutability": "view",
      "type": "function"
    },
    {
      "constant": true,
      "inputs": [],
      "name": "totalSupply",
      "outputs": [
        {
          "name": "",
          "type": "uint256"
        }
      ],
      "payable": false,
      "stateMutability": "view",
      "type": "function"
    },
    {
      "constant": true,
      "inputs": [
        {
          "name": "_owner",
          "type": "address"
        }
      ],
      "name": "balanceOf",
      "outputs": [
        {
          "name": "",
          "type": "uint256"
        }
      ],
      "payable": false,
      "stateMutability": "view",
      "type": "function"
    },
    {
      "constant": true,
      "inputs": [
        {
          "name": "_owner",
          "type": "address"
        },
        {
          "name": "_spender",
          "type": "address"
        }
      ],
      "name": "allowance",
      "outputs": [
        {
          "name": "",
          "type": "uint256"
        }
      ],
      "payable": false,
      "stateMutability": "view",
      "type": "function"
    },
    {
      "constant": false,
      "inputs": [
        {
          "name": "_tokenContract",
          "type": "address"
        }
      ],
      "name": "token_escape",
      "outputs": [],
      "payable": false,
      "stateMutability": "nonpayable",
      "type": "function"
    },
    {
      "constant": false,
      "inputs": [
        {
          "name": "_standardSig",
          "type": "bytes4"
        },
        {
          "name": "_ourSig",
          "type": "bytes4"
        }
      ],
      "name": "updateStandard",
      "outputs": [
        {
          "name": "success",
          "type": "bool"
        }
      ],
      "payable": false,
      "stateMutability": "nonpayable",
      "type": "function"
    }
  ],
  "bytecode": "0x60806040526a58a061ea91aa7f2584000060015534801561001f57600080fd5b50336000806101000a81548173ffffffffffffffffffffffffffffffffffffffff021916908373ffffffffffffffffffffffffffffffffffffffff160217905550600154600260003373ffffffffffffffffffffffffffffffffffffffff1673ffffffffffffffffffffffffffffffffffffffff16815260200190815260200160002081905550613f99806100b56000396000f30060806040526004361061018b576000357c0100000000000000000000000000000000000000000000000000000000900463ffffffff16806306fdde031461034f578063095ea7b3146103df57806309ea63e3146104445780631296830d1461059a57806318160ddd1461065957806323b872dd146106845780632d0335ab14610709578063313ce56714610760578063617b390b14610791578063661884631461085057806370a08231146108b55780638be527831461090c5780638da5cb5b146109cb57806395d89b4114610a225780639871894814610ab2578063a9059cbb14610b50578063a9a0b49514610bb5578063adb8249e14610ca1578063b15aa5b714610d60578063c22f825014610dad578063c8d4b38914610e3a578063cae9ca5114610f3f578063ccbfc6ed14610fea578063d035e45f1461106b578063d4acaf6c146110ae578063d4d64f2b14611165578063d73dd623146111f4578063dd62ed3e14611259578063e269f929146112d0578063e391a7c4146113c9578063f2fde38b1461149a575b34801561019757600080fd5b506060600080368080601f01602080910402602001604051908101604052809392919081815260200183838082843782019150505050505091506006600080357fffffffff00000000000000000000000000000000000000000000000000000000167bffffffffffffffffffffffffffffffffffffffffffffffffffffffff19167bffffffffffffffffffffffffffffffffffffffffffffffffffffffff1916815260200190815260200160002060009054906101000a90047c010000000000000000000000000000000000000000000000000000000002905060007c010000000000000000000000000000000000000000000000000000000002817bffffffffffffffffffffffffffffffffffffffffffffffffffffffff1916141515156102bf57600080fd5b8082602001523073ffffffffffffffffffffffffffffffffffffffff168260405180828051906020019080838360005b8381101561030a5780820151818401526020810190506102ef565b50505050905090810190601f1680156103375780820380516001836020036101000a031916815260200191505b50915050600060405180830381855af4915050505050005b34801561035b57600080fd5b506103646114dd565b6040518080602001828103825283818151815260200191508051906020019080838360005b838110156103a4578082015181840152602081019050610389565b50505050905090810190601f1680156103d15780820380516001836020036101000a031916815260200191505b509250505060405180910390f35b3480156103eb57600080fd5b5061042a600480360381019080803573ffffffffffffffffffffffffffffffffffffffff16906020019092919080359060200190929190505050611516565b604051808215151515815260200191505060405180910390f35b34801561045057600080fd5b50610558600480360381019080803590602001908201803590602001908080601f016020809104026020016040519081016040528093929190818152602001838380828437820191505050505050919291929080357bffffffffffffffffffffffffffffffffffffffffffffffffffffffff19169060200190929190803573ffffffffffffffffffffffffffffffffffffffff16906020019092919080359060200190929190803590602001908201803590602001908080601f01602080910402602001604051908101604052809392919081815260200183838082843782019150505050505091929192908035906020019092919080359060200190929190505050611538565b604051808273ffffffffffffffffffffffffffffffffffffffff1673ffffffffffffffffffffffffffffffffffffffff16815260200191505060405180910390f35b3480156105a657600080fd5b5061063f600480360381019080803590602001908201803590602001908080601f0160208091040260200160405190810160405280939291908181526020018383808284378201915050505050509192919290803573ffffffffffffffffffffffffffffffffffffffff169060200190929190803590602001909291908035906020019092919080359060200190929190505050611566565b604051808215151515815260200191505060405180910390f35b34801561066557600080fd5b5061066e611830565b6040518082815260200191505060405180910390f35b34801561069057600080fd5b506106ef600480360381019080803573ffffffffffffffffffffffffffffffffffffffff169060200190929190803573ffffffffffffffffffffffffffffffffffffffff1690602001909291908035906020019092919050505061183a565b604051808215151515815260200191505060405180910390f35b34801561071557600080fd5b5061074a600480360381019080803573ffffffffffffffffffffffffffffffffffffffff169060200190929190505050611a42565b6040518082815260200191505060405180910390f35b34801561076c57600080fd5b50610775611a8b565b604051808260ff1660ff16815260200191505060405180910390f35b34801561079d57600080fd5b50610836600480360381019080803590602001908201803590602001908080601f0160208091040260200160405190810160405280939291908181526020018383808284378201915050505050509192919290803573ffffffffffffffffffffffffffffffffffffffff169060200190929190803590602001909291908035906020019092919080359060200190929190505050611a90565b604051808215151515815260200191505060405180910390f35b34801561085c57600080fd5b5061089b600480360381019080803573ffffffffffffffffffffffffffffffffffffffff16906020019092919080359060200190929190505050611d5a565b604051808215151515815260200191505060405180910390f35b3480156108c157600080fd5b506108f6600480360381019080803573ffffffffffffffffffffffffffffffffffffffff169060200190929190505050611d7c565b6040518082815260200191505060405180910390f35b34801561091857600080fd5b506109b1600480360381019080803590602001908201803590602001908080601f0160208091040260200160405190810160405280939291908181526020018383808284378201915050505050509192919290803573ffffffffffffffffffffffffffffffffffffffff169060200190929190803590602001909291908035906020019092919080359060200190929190505050611dc5565b604051808215151515815260200191505060405180910390f35b3480156109d757600080fd5b506109e061208f565b604051808273ffffffffffffffffffffffffffffffffffffffff1673ffffffffffffffffffffffffffffffffffffffff16815260200191505060405180910390f35b348015610a2e57600080fd5b50610a376120b4565b6040518080602001828103825283818151815260200191508051906020019080838360005b83811015610a77578082015181840152602081019050610a5c565b50505050905090810190601f168015610aa45780820380516001836020036101000a031916815260200191505b509250505060405180910390f35b348015610abe57600080fd5b50610afc60048036038101908080357bffffffffffffffffffffffffffffffffffffffffffffffffffffffff191690602001909291905050506120ed565b60405180827bffffffffffffffffffffffffffffffffffffffffffffffffffffffff19167bffffffffffffffffffffffffffffffffffffffffffffffffffffffff1916815260200191505060405180910390f35b348015610b5c57600080fd5b50610b9b600480360381019080803573ffffffffffffffffffffffffffffffffffffffff16906020019092919080359060200190929190505050612129565b604051808215151515815260200191505060405180910390f35b348015610bc157600080fd5b50610c8360048036038101908080357bffffffffffffffffffffffffffffffffffffffffffffffffffffffff19169060200190929190803573ffffffffffffffffffffffffffffffffffffffff16906020019092919080359060200190929190803590602001908201803590602001908080601f0160208091040260200160405190810160405280939291908181526020018383808284378201915050505050509192919290803590602001909291908035906020019092919050505061214b565b60405180826000191660001916815260200191505060405180910390f35b348015610cad57600080fd5b50610d46600480360381019080803590602001908201803590602001908080601f0160208091040260200160405190810160405280939291908181526020018383808284378201915050505050509192919290803573ffffffffffffffffffffffffffffffffffffffff1690602001909291908035906020019092919080359060200190929190803590602001909291905050506122a0565b604051808215151515815260200191505060405180910390f35b348015610d6c57600080fd5b50610d8f600480360381019080803560001916906020019092919050505061256a565b60405180826000191660001916815260200191505060405180910390f35b348015610db957600080fd5b50610e2060048036038101908080357bffffffffffffffffffffffffffffffffffffffffffffffffffffffff1916906020019092919080357bffffffffffffffffffffffffffffffffffffffffffffffffffffffff191690602001909291905050506125b9565b604051808215151515815260200191505060405180910390f35b348015610e4657600080fd5b50610f25600480360381019080803590602001908201803590602001908080601f0160208091040260200160405190810160405280939291908181526020018383808284378201915050505050509192919290803573ffffffffffffffffffffffffffffffffffffffff16906020019092919080359060200190929190803590602001908201803590602001908080601f016020809104026020016040519081016040528093929190818152602001838380828437820191505050505050919291929080359060200190929190803590602001909291905050506126aa565b604051808215151515815260200191505060405180910390f35b348015610f4b57600080fd5b50610fd0600480360381019080803573ffffffffffffffffffffffffffffffffffffffff16906020019092919080359060200190929190803590602001908201803590602001908080601f0160208091040260200160405190810160405280939291908181526020018383808284378201915050505050509192919290505050612ac1565b604051808215151515815260200191505060405180910390f35b348015610ff657600080fd5b50611051600480360381019080803590602001908201803590602001908080601f0160208091040260200160405190810160405280939291908181526020018383808284378201915050505050509192919290505050612c40565b604051808215151515815260200191505060405180910390f35b34801561107757600080fd5b506110ac600480360381019080803573ffffffffffffffffffffffffffffffffffffffff169060200190929190505050612d0c565b005b3480156110ba57600080fd5b506111236004803603810190808035600019169060200190929190803590602001908201803590602001908080601f0160208091040260200160405190810160405280939291908181526020018383808284378201915050505050509192919290505050612f4a565b604051808273ffffffffffffffffffffffffffffffffffffffff1673ffffffffffffffffffffffffffffffffffffffff16815260200191505060405180910390f35b34801561117157600080fd5b506111d6600480360381019080803590602001908201803590602001908080601f016020809104026020016040519081016040528093929190818152602001838380828437820191505050505050919291929080359060200190929190505050613042565b60405180826000191660001916815260200191505060405180910390f35b34801561120057600080fd5b5061123f600480360381019080803573ffffffffffffffffffffffffffffffffffffffff16906020019092919080359060200190929190505050613120565b604051808215151515815260200191505060405180910390f35b34801561126557600080fd5b506112ba600480360381019080803573ffffffffffffffffffffffffffffffffffffffff169060200190929190803573ffffffffffffffffffffffffffffffffffffffff169060200190929190505050613142565b6040518082815260200191505060405180910390f35b3480156112dc57600080fd5b50611387600480360381019080803590602001908201803590602001908080601f0160208091040260200160405190810160405280939291908181526020018383808284378201915050505050509192919290803590602001908201803590602001908080601f0160208091040260200160405190810160405280939291908181526020018383808284378201915050505050509192919290803590602001909291905050506131c9565b604051808273ffffffffffffffffffffffffffffffffffffffff1673ffffffffffffffffffffffffffffffffffffffff16815260200191505060405180910390f35b3480156113d557600080fd5b50611480600480360381019080803590602001908201803590602001908080601f0160208091040260200160405190810160405280939291908181526020018383808284378201915050505050509192919290803590602001908201803590602001908080601f0160208091040260200160405190810160405280939291908181526020018383808284378201915050505050509192919290803590602001909291905050506131ef565b604051808215151515815260200191505060405180910390f35b3480156114a657600080fd5b506114db600480360381019080803573ffffffffffffffffffffffffffffffffffffffff1690602001909291905050506134a0565b005b6040805190810160405280601681526020017f436f696e7665737420434f494e20563220546f6b656e0000000000000000000081525081565b60006115233384846135f5565b151561152e57600080fd5b6001905092915050565b600061155961155361154e89898989898961214b565b61256a565b89612f4a565b9050979650505050505050565b60008060005a91506115b08863a9059cbb7c010000000000000000000000000000000000000000000000000000000002898960206040519081016040528060008152508a8a611538565b9050600073ffffffffffffffffffffffffffffffffffffffff168173ffffffffffffffffffffffffffffffffffffffff16141515156115ee57600080fd5b600560008273ffffffffffffffffffffffffffffffffffffffff1673ffffffffffffffffffffffffffffffffffffffff168152602001908152602001600020886040518082805190602001908083835b602083101515611663578051825260208201915060208101905060208303925061163e565b6001836020036101000a038019825116818451168082178552505050505050905001915050908152602001604051809103902060009054906101000a900460ff161515156116b057600080fd5b6001600560008373ffffffffffffffffffffffffffffffffffffffff1673ffffffffffffffffffffffffffffffffffffffff168152602001908152602001600020896040518082805190602001908083835b6020831015156117275780518252602082019150602081019050602083039250611702565b6001836020036101000a038019825116818451168082178552505050505050905001915050908152602001604051809103902060006101000a81548160ff021916908315150217905550600460008273ffffffffffffffffffffffffffffffffffffffff1673ffffffffffffffffffffffffffffffffffffffff168152602001908152602001600020600081548092919060010191905055506117cb818888613736565b15156117d657600080fd5b6000851115611821576117f25a8361392090919063ffffffff16565b6188b80191506118158133611810858961393990919063ffffffff16565b613736565b151561182057600080fd5b5b60019250505095945050505050565b6000600154905090565b600081600260008673ffffffffffffffffffffffffffffffffffffffff1673ffffffffffffffffffffffffffffffffffffffff1681526020019081526020016000205410158015611907575081600360008673ffffffffffffffffffffffffffffffffffffffff1673ffffffffffffffffffffffffffffffffffffffff16815260200190815260200160002060003373ffffffffffffffffffffffffffffffffffffffff1673ffffffffffffffffffffffffffffffffffffffff1681526020019081526020016000205410155b151561191257600080fd5b6119a182600360008773ffffffffffffffffffffffffffffffffffffffff1673ffffffffffffffffffffffffffffffffffffffff16815260200190815260200160002060003373ffffffffffffffffffffffffffffffffffffffff1673ffffffffffffffffffffffffffffffffffffffff1681526020019081526020016000205461392090919063ffffffff16565b600360008673ffffffffffffffffffffffffffffffffffffffff1673ffffffffffffffffffffffffffffffffffffffff16815260200190815260200160002060003373ffffffffffffffffffffffffffffffffffffffff1673ffffffffffffffffffffffffffffffffffffffff16815260200190815260200160002081905550611a2c848484613736565b1515611a3757600080fd5b600190509392505050565b6000600460008373ffffffffffffffffffffffffffffffffffffffff1673ffffffffffffffffffffffffffffffffffffffff168152602001908152602001600020549050919050565b601281565b60008060005a9150611ada8863095ea7b37c010000000000000000000000000000000000000000000000000000000002898960206040519081016040528060008152508a8a611538565b9050600073ffffffffffffffffffffffffffffffffffffffff168173ffffffffffffffffffffffffffffffffffffffff1614151515611b1857600080fd5b600560008273ffffffffffffffffffffffffffffffffffffffff1673ffffffffffffffffffffffffffffffffffffffff168152602001908152602001600020886040518082805190602001908083835b602083101515611b8d5780518252602082019150602081019050602083039250611b68565b6001836020036101000a038019825116818451168082178552505050505050905001915050908152602001604051809103902060009054906101000a900460ff16151515611bda57600080fd5b6001600560008373ffffffffffffffffffffffffffffffffffffffff1673ffffffffffffffffffffffffffffffffffffffff168152602001908152602001600020896040518082805190602001908083835b602083101515611c515780518252602082019150602081019050602083039250611c2c565b6001836020036101000a038019825116818451168082178552505050505050905001915050908152602001604051809103902060006101000a81548160ff021916908315150217905550600460008273ffffffffffffffffffffffffffffffffffffffff1673ffffffffffffffffffffffffffffffffffffffff16815260200190815260200160002060008154809291906001019190505550611cf58188886135f5565b1515611d0057600080fd5b6000851115611d4b57611d1c5a8361392090919063ffffffff16565b6188b8019150611d3f8133611d3a858961393990919063ffffffff16565b613736565b1515611d4a57600080fd5b5b60019250505095945050505050565b6000611d6733848461396c565b1515611d7257600080fd5b6001905092915050565b6000600260008373ffffffffffffffffffffffffffffffffffffffff1673ffffffffffffffffffffffffffffffffffffffff168152602001908152602001600020549050919050565b60008060005a9150611e0f8863661884637c010000000000000000000000000000000000000000000000000000000002898960206040519081016040528060008152508a8a611538565b9050600073ffffffffffffffffffffffffffffffffffffffff168173ffffffffffffffffffffffffffffffffffffffff1614151515611e4d57600080fd5b600560008273ffffffffffffffffffffffffffffffffffffffff1673ffffffffffffffffffffffffffffffffffffffff168152602001908152602001600020886040518082805190602001908083835b602083101515611ec25780518252602082019150602081019050602083039250611e9d565b6001836020036101000a038019825116818451168082178552505050505050905001915050908152602001604051809103902060009054906101000a900460ff16151515611f0f57600080fd5b6001600560008373ffffffffffffffffffffffffffffffffffffffff1673ffffffffffffffffffffffffffffffffffffffff168152602001908152602001600020896040518082805190602001908083835b602083101515611f865780518252602082019150602081019050602083039250611f61565b6001836020036101000a038019825116818451168082178552505050505050905001915050908152602001604051809103902060006101000a81548160ff021916908315150217905550600460008273ffffffffffffffffffffffffffffffffffffffff1673ffffffffffffffffffffffffffffffffffffffff1681526020019081526020016000206000815480929190600101919050555061202a81888861396c565b151561203557600080fd5b6000851115612080576120515a8361392090919063ffffffff16565b6188b8019150612074813361206f858961393990919063ffffffff16565b613736565b151561207f57600080fd5b5b60019250505095945050505050565b6000809054906101000a900473ffffffffffffffffffffffffffffffffffffffff1681565b6040805190810160405280600481526020017f434f494e0000000000000000000000000000000000000000000000000000000081525081565b60066020528060005260406000206000915054906101000a90047c01000000000000000000000000000000000000000000000000000000000281565b6000612136338484613736565b151561214157600080fd5b6001905092915050565b600030878787878787604051808873ffffffffffffffffffffffffffffffffffffffff1673ffffffffffffffffffffffffffffffffffffffff166c01000000000000000000000000028152601401877bffffffffffffffffffffffffffffffffffffffffffffffffffffffff19167bffffffffffffffffffffffffffffffffffffffffffffffffffffffff191681526004018673ffffffffffffffffffffffffffffffffffffffff1673ffffffffffffffffffffffffffffffffffffffff166c0100000000000000000000000002815260140185815260200184805190602001908083835b6020831015156122555780518252602082019150602081019050602083039250612230565b6001836020036101000a038019825116818451168082178552505050505050905001838152602001828152602001975050505050505050604051809103902090509695505050505050565b60008060005a91506122ea8863d73dd6237c010000000000000000000000000000000000000000000000000000000002898960206040519081016040528060008152508a8a611538565b9050600073ffffffffffffffffffffffffffffffffffffffff168173ffffffffffffffffffffffffffffffffffffffff161415151561232857600080fd5b600560008273ffffffffffffffffffffffffffffffffffffffff1673ffffffffffffffffffffffffffffffffffffffff168152602001908152602001600020886040518082805190602001908083835b60208310151561239d5780518252602082019150602081019050602083039250612378565b6001836020036101000a038019825116818451168082178552505050505050905001915050908152602001604051809103902060009054906101000a900460ff161515156123ea57600080fd5b6001600560008373ffffffffffffffffffffffffffffffffffffffff1673ffffffffffffffffffffffffffffffffffffffff168152602001908152602001600020896040518082805190602001908083835b602083101515612461578051825260208201915060208101905060208303925061243c565b6001836020036101000a038019825116818451168082178552505050505050905001915050908152602001604051809103902060006101000a81548160ff021916908315150217905550600460008273ffffffffffffffffffffffffffffffffffffffff1673ffffffffffffffffffffffffffffffffffffffff16815260200190815260200160002060008154809291906001019190505550612505818888613c76565b151561251057600080fd5b600085111561255b5761252c5a8361392090919063ffffffff16565b6188b801915061254f813361254a858961393990919063ffffffff16565b613736565b151561255a57600080fd5b5b60019250505095945050505050565b60008160405180807f19457468657265756d205369676e6564204d6573736167653a0a333200000000815250601c01826000191660001916815260200191505060405180910390209050919050565b60008060009054906101000a900473ffffffffffffffffffffffffffffffffffffffff1673ffffffffffffffffffffffffffffffffffffffff163373ffffffffffffffffffffffffffffffffffffffff1614151561261657600080fd5b8160066000857bffffffffffffffffffffffffffffffffffffffffffffffffffffffff19167bffffffffffffffffffffffffffffffffffffffffffffffffffffffff1916815260200190815260200160002060006101000a81548163ffffffff02191690837c0100000000000000000000000000000000000000000000000000000000900402179055506001905092915050565b60008060005a91506126e48963cae9ca517c0100000000000000000000000000000000000000000000000000000000028a8a8a8a8a611538565b9050600073ffffffffffffffffffffffffffffffffffffffff168173ffffffffffffffffffffffffffffffffffffffff161415151561272257600080fd5b600560008273ffffffffffffffffffffffffffffffffffffffff1673ffffffffffffffffffffffffffffffffffffffff168152602001908152602001600020896040518082805190602001908083835b6020831015156127975780518252602082019150602081019050602083039250612772565b6001836020036101000a038019825116818451168082178552505050505050905001915050908152602001604051809103902060009054906101000a900460ff161515156127e457600080fd5b6001600560008373ffffffffffffffffffffffffffffffffffffffff1673ffffffffffffffffffffffffffffffffffffffff1681526020019081526020016000208a6040518082805190602001908083835b60208310151561285b5780518252602082019150602081019050602083039250612836565b6001836020036101000a038019825116818451168082178552505050505050905001915050908152602001604051809103902060006101000a81548160ff021916908315150217905550600460008273ffffffffffffffffffffffffffffffffffffffff1673ffffffffffffffffffffffffffffffffffffffff168152602001908152602001600020600081548092919060010191905055506128ff8189896135f5565b151561290a57600080fd5b8773ffffffffffffffffffffffffffffffffffffffff16638f4ffcb18289308a6040518563ffffffff167c0100000000000000000000000000000000000000000000000000000000028152600401808573ffffffffffffffffffffffffffffffffffffffff1673ffffffffffffffffffffffffffffffffffffffff1681526020018481526020018373ffffffffffffffffffffffffffffffffffffffff1673ffffffffffffffffffffffffffffffffffffffff16815260200180602001828103825283818151815260200191508051906020019080838360005b838110156129ff5780820151818401526020810190506129e4565b50505050905090810190601f168015612a2c5780820380516001836020036101000a031916815260200191505b5095505050505050600060405180830381600087803b158015612a4e57600080fd5b505af1158015612a62573d6000803e3d6000fd5b505050506000851115612ab157612a825a8361392090919063ffffffff16565b6188b8019150612aa58133612aa0858961393990919063ffffffff16565b613736565b1515612ab057600080fd5b5b6001925050509695505050505050565b6000612ace3385856135f5565b1515612ad957600080fd5b8373ffffffffffffffffffffffffffffffffffffffff16638f4ffcb1338530866040518563ffffffff167c0100000000000000000000000000000000000000000000000000000000028152600401808573ffffffffffffffffffffffffffffffffffffffff1673ffffffffffffffffffffffffffffffffffffffff1681526020018481526020018373ffffffffffffffffffffffffffffffffffffffff1673ffffffffffffffffffffffffffffffffffffffff16815260200180602001828103825283818151815260200191508051906020019080838360005b83811015612bce578082015181840152602081019050612bb3565b50505050905090810190601f168015612bfb5780820380516001836020036101000a031916815260200191505b5095505050505050600060405180830381600087803b158015612c1d57600080fd5b505af1158015612c31573d6000803e3d6000fd5b50505050600190509392505050565b60006001600560003373ffffffffffffffffffffffffffffffffffffffff1673ffffffffffffffffffffffffffffffffffffffff168152602001908152602001600020836040518082805190602001908083835b602083101515612cb95780518252602082019150602081019050602083039250612c94565b6001836020036101000a038019825116818451168082178552505050505050905001915050908152602001604051809103902060006101000a81548160ff02191690831515021790555060019050919050565b6000806000809054906101000a900473ffffffffffffffffffffffffffffffffffffffff1673ffffffffffffffffffffffffffffffffffffffff163373ffffffffffffffffffffffffffffffffffffffff16141515612d6a57600080fd5b8291508173ffffffffffffffffffffffffffffffffffffffff166370a08231306040518263ffffffff167c0100000000000000000000000000000000000000000000000000000000028152600401808273ffffffffffffffffffffffffffffffffffffffff1673ffffffffffffffffffffffffffffffffffffffff168152602001915050602060405180830381600087803b158015612e0857600080fd5b505af1158015612e1c573d6000803e3d6000fd5b505050506040513d6020811015612e3257600080fd5b810190808051906020019092919050505090508173ffffffffffffffffffffffffffffffffffffffff1663a9059cbb6000809054906101000a900473ffffffffffffffffffffffffffffffffffffffff16836040518363ffffffff167c0100000000000000000000000000000000000000000000000000000000028152600401808373ffffffffffffffffffffffffffffffffffffffff1673ffffffffffffffffffffffffffffffffffffffff16815260200182815260200192505050602060405180830381600087803b158015612f0957600080fd5b505af1158015612f1d573d6000803e3d6000fd5b505050506040513d6020811015612f3357600080fd5b810190808051906020019092919050505050505050565b60008060008060418551141515612f645760009350613039565b6020850151925060408501519150606085015160001a9050601b8160ff161015612f8f57601b810190505b601b8160ff1614158015612fa75750601c8160ff1614155b15612fb55760009350613039565b600186828585604051600081526020016040526040518085600019166000191681526020018460ff1660ff1681526020018360001916600019168152602001826000191660001916815260200194505050505060206040516020810390808403906000865af115801561302c573d6000803e3d6000fd5b5050506020604051035193505b50505092915050565b600063e40d89e57c010000000000000000000000000000000000000000000000000000000002838360405180847bffffffffffffffffffffffffffffffffffffffffffffffffffffffff19167bffffffffffffffffffffffffffffffffffffffffffffffffffffffff1916815260040183805190602001908083835b6020831015156130e357805182526020820191506020810190506020830392506130be565b6001836020036101000a03801982511681845116808217855250505050505090500182815260200193505050506040518091039020905092915050565b600061312d338484613c76565b151561313857600080fd5b6001905092915050565b6000600360008473ffffffffffffffffffffffffffffffffffffffff1673ffffffffffffffffffffffffffffffffffffffff16815260200190815260200160002060008373ffffffffffffffffffffffffffffffffffffffff1673ffffffffffffffffffffffffffffffffffffffff16815260200190815260200160002054905092915050565b60006131e66131e06131db8585613042565b61256a565b85612f4a565b90509392505050565b60008060005a91506132028686866131c9565b9050600560008273ffffffffffffffffffffffffffffffffffffffff1673ffffffffffffffffffffffffffffffffffffffff168152602001908152602001600020866040518082805190602001908083835b6020831015156132795780518252602082019150602081019050602083039250613254565b6001836020036101000a038019825116818451168082178552505050505050905001915050908152602001604051809103902060009054906101000a900460ff161515156132c657600080fd5b6001600560008373ffffffffffffffffffffffffffffffffffffffff1673ffffffffffffffffffffffffffffffffffffffff168152602001908152602001600020876040518082805190602001908083835b60208310151561333d5780518252602082019150602081019050602083039250613318565b6001836020036101000a038019825116818451168082178552505050505050905001915050908152602001604051809103902060006101000a81548160ff0219169083151502179055506001600560008373ffffffffffffffffffffffffffffffffffffffff1673ffffffffffffffffffffffffffffffffffffffff168152602001908152602001600020866040518082805190602001908083835b6020831015156133fe57805182526020820191506020810190506020830392506133d9565b6001836020036101000a038019825116818451168082178552505050505050905001915050908152602001604051809103902060006101000a81548160ff0219169083151502179055506000841115613493576134645a8361392090919063ffffffff16565b61875d0191506134878133613482858861393990919063ffffffff16565b613736565b151561349257600080fd5b5b6001925050509392505050565b6000809054906101000a900473ffffffffffffffffffffffffffffffffffffffff1673ffffffffffffffffffffffffffffffffffffffff163373ffffffffffffffffffffffffffffffffffffffff161415156134fb57600080fd5b600073ffffffffffffffffffffffffffffffffffffffff168173ffffffffffffffffffffffffffffffffffffffff161415151561353757600080fd5b8073ffffffffffffffffffffffffffffffffffffffff166000809054906101000a900473ffffffffffffffffffffffffffffffffffffffff1673ffffffffffffffffffffffffffffffffffffffff167f8be0079c531659141344cd1fd0a4f28419497f9722a3daafe3b4186f6b6457e060405160405180910390a3806000806101000a81548173ffffffffffffffffffffffffffffffffffffffff021916908373ffffffffffffffffffffffffffffffffffffffff16021790555050565b600081600260008673ffffffffffffffffffffffffffffffffffffffff1673ffffffffffffffffffffffffffffffffffffffff168152602001908152602001600020541015151561364557600080fd5b81600360008673ffffffffffffffffffffffffffffffffffffffff1673ffffffffffffffffffffffffffffffffffffffff16815260200190815260200160002060008573ffffffffffffffffffffffffffffffffffffffff1673ffffffffffffffffffffffffffffffffffffffff168152602001908152602001600020819055508273ffffffffffffffffffffffffffffffffffffffff168473ffffffffffffffffffffffffffffffffffffffff167f8c5be1e5ebec7d5bd14f71427d1e84f3dd0314c0f7b2291e5b200ac8c7c3b925846040518082815260200191505060405180910390a3600190509392505050565b600081600260008673ffffffffffffffffffffffffffffffffffffffff1673ffffffffffffffffffffffffffffffffffffffff168152602001908152602001600020541015151561378657600080fd5b6137d882600260008773ffffffffffffffffffffffffffffffffffffffff1673ffffffffffffffffffffffffffffffffffffffff1681526020019081526020016000205461392090919063ffffffff16565b600260008673ffffffffffffffffffffffffffffffffffffffff1673ffffffffffffffffffffffffffffffffffffffff1681526020019081526020016000208190555061386d82600260008673ffffffffffffffffffffffffffffffffffffffff1673ffffffffffffffffffffffffffffffffffffffff16815260200190815260200160002054613f4f90919063ffffffff16565b600260008573ffffffffffffffffffffffffffffffffffffffff1673ffffffffffffffffffffffffffffffffffffffff168152602001908152602001600020819055508273ffffffffffffffffffffffffffffffffffffffff168473ffffffffffffffffffffffffffffffffffffffff167fddf252ad1be2c89b69c2b068fc378daa952ba7f163c4a11628f55a4df523b3ef846040518082815260200191505060405180910390a3600190509392505050565b600082821115151561392e57fe5b818303905092915050565b6000808284029050600084148061395a575082848281151561395757fe5b04145b151561396257fe5b8091505092915050565b600081600360008673ffffffffffffffffffffffffffffffffffffffff1673ffffffffffffffffffffffffffffffffffffffff16815260200190815260200160002060008573ffffffffffffffffffffffffffffffffffffffff1673ffffffffffffffffffffffffffffffffffffffff16815260200190815260200160002054111515613a7a576000600360008673ffffffffffffffffffffffffffffffffffffffff1673ffffffffffffffffffffffffffffffffffffffff16815260200190815260200160002060008573ffffffffffffffffffffffffffffffffffffffff1673ffffffffffffffffffffffffffffffffffffffff16815260200190815260200160002081905550613b8a565b613b0982600360008773ffffffffffffffffffffffffffffffffffffffff1673ffffffffffffffffffffffffffffffffffffffff16815260200190815260200160002060008673ffffffffffffffffffffffffffffffffffffffff1673ffffffffffffffffffffffffffffffffffffffff1681526020019081526020016000205461392090919063ffffffff16565b600360008673ffffffffffffffffffffffffffffffffffffffff1673ffffffffffffffffffffffffffffffffffffffff16815260200190815260200160002060008573ffffffffffffffffffffffffffffffffffffffff1673ffffffffffffffffffffffffffffffffffffffff168152602001908152602001600020819055505b8273ffffffffffffffffffffffffffffffffffffffff168473ffffffffffffffffffffffffffffffffffffffff167f8c5be1e5ebec7d5bd14f71427d1e84f3dd0314c0f7b2291e5b200ac8c7c3b925600360008873ffffffffffffffffffffffffffffffffffffffff1673ffffffffffffffffffffffffffffffffffffffff16815260200190815260200160002060008773ffffffffffffffffffffffffffffffffffffffff1673ffffffffffffffffffffffffffffffffffffffff168152602001908152602001600020546040518082815260200191505060405180910390a3600190509392505050565b6000613d0782600360008773ffffffffffffffffffffffffffffffffffffffff1673ffffffffffffffffffffffffffffffffffffffff16815260200190815260200160002060008673ffffffffffffffffffffffffffffffffffffffff1673ffffffffffffffffffffffffffffffffffffffff16815260200190815260200160002054613f4f90919063ffffffff16565b600260008673ffffffffffffffffffffffffffffffffffffffff1673ffffffffffffffffffffffffffffffffffffffff1681526020019081526020016000205410151515613d5457600080fd5b613de382600360008773ffffffffffffffffffffffffffffffffffffffff1673ffffffffffffffffffffffffffffffffffffffff16815260200190815260200160002060008673ffffffffffffffffffffffffffffffffffffffff1673ffffffffffffffffffffffffffffffffffffffff16815260200190815260200160002054613f4f90919063ffffffff16565b600360008673ffffffffffffffffffffffffffffffffffffffff1673ffffffffffffffffffffffffffffffffffffffff16815260200190815260200160002060008573ffffffffffffffffffffffffffffffffffffffff1673ffffffffffffffffffffffffffffffffffffffff168152602001908152602001600020819055508273ffffffffffffffffffffffffffffffffffffffff168473ffffffffffffffffffffffffffffffffffffffff167f8c5be1e5ebec7d5bd14f71427d1e84f3dd0314c0f7b2291e5b200ac8c7c3b925600360008873ffffffffffffffffffffffffffffffffffffffff1673ffffffffffffffffffffffffffffffffffffffff16815260200190815260200160002060008773ffffffffffffffffffffffffffffffffffffffff1673ffffffffffffffffffffffffffffffffffffffff168152602001908152602001600020546040518082815260200191505060405180910390a3600190509392505050565b6000808284019050838110151515613f6357fe5b80915050929150505600a165627a7a72305820950aad8836656cc1deb9867a30597e0bf1a073a2a7df1c336d67758f6bc1b8fc0029",
  "source": "pragma solidity ^0.4.20;\n\n/**\n * @title SafeMath\n * @dev Math operations with safety checks that throw on error\n**/\nlibrary SafeMathLib{\n  function mul(uint256 a, uint256 b) internal pure returns (uint256) {\n    uint256 c = a * b;\n    assert(a == 0 || c / a == b);\n    return c;\n  }\n\n  function div(uint256 a, uint256 b) internal pure returns (uint256) {\n    // assert(b > 0); // Solidity automatically throws when dividing by 0\n    uint256 c = a / b;\n    // assert(a == b * c + a % b); // There is no case in which this doesn't hold\n    return c;\n  }\n\n  function sub(uint256 a, uint256 b) internal pure returns (uint256) {\n    assert(b <= a);\n    return a - b;\n  }\n  \n  function add(uint256 a, uint256 b) internal pure returns (uint256) {\n    uint256 c = a + b;\n    assert(c >= a);\n    return c;\n  }\n}\n\n/**\n * @title Ownable\n * @dev The Ownable contract has an owner address, and provides basic authorization control\n * functions, this simplifies the implementation of \"user permissions\".\n**/\ncontract Ownable {\n  address public owner;\n\n  event OwnershipTransferred(address indexed previousOwner, address indexed newOwner);\n\n  /**\n   * @dev The Ownable constructor sets the original `owner` of the contract to the sender\n   * account.\n   */\n  function Ownable() public {\n    owner = msg.sender;\n  }\n\n  /**\n   * @dev Throws if called by any account other than the owner.\n   */\n  modifier onlyOwner() {\n    require(msg.sender == owner);\n    _;\n  }\n\n  /**\n   * @dev Allows the current owner to transfer control of the contract to a newOwner.\n   * @param newOwner The address to transfer ownership to.\n   */\n  function transferOwnership(address newOwner) onlyOwner public {\n    require(newOwner != address(0));\n    emit OwnershipTransferred(owner, newOwner);\n    owner = newOwner;\n  }\n\n}\n\n/**\n * @dev Abstract contract for approveAndCall.\n**/\ncontract ApproveAndCallFallBack {\n    function receiveApproval(address from, uint256 tokens, address token, bytes data) public;\n}\n\n/**\n * @title Coinvest COIN Token\n * @dev ERC20 contract utilizing ERC865-ish structure (primarily 3esmit's iteration).\n * @dev to allow users to pay Ethereum fees in tokens.\n**/\ncontract CoinvestToken is Ownable {\n    using SafeMathLib for uint256;\n    \n    string public constant symbol = \"COIN\";\n    string public constant name = \"Coinvest COIN V2 Token\";\n    \n    uint8 public constant decimals = 18;\n    uint256 private _totalSupply = 107142857 * (10 ** 18);\n    \n    // Function sigs to be used within contract for signature recovery.\n    bytes4 internal constant transferSig = 0xa9059cbb;\n    bytes4 internal constant approveSig = 0x095ea7b3;\n    bytes4 internal constant increaseApprovalSig = 0xd73dd623;\n    bytes4 internal constant decreaseApprovalSig = 0x66188463;\n    bytes4 internal constant approveAndCallSig = 0xcae9ca51;\n    bytes4 internal constant revokeSignatureSig = 0xe40d89e5;\n\n    // Balances for each account\n    mapping(address => uint256) balances;\n\n    // Owner of account approves the transfer of an amount to another account\n    mapping(address => mapping (address => uint256)) allowed;\n    \n    // Keeps track of the last nonce sent from user. Used for delegated functions.\n    mapping (address => uint256) nonces;\n    \n    // Mapping of past used hashes: true if already used.\n    mapping (address => mapping (bytes => bool)) invalidSignatures;\n\n    // Mapping of finalized ERC865 standard sigs => our function sigs for future-proofing\n    mapping (bytes4 => bytes4) public standardSigs;\n\n    event Transfer(address indexed from, address indexed to, uint tokens);\n    event Approval(address indexed from, address indexed spender, uint tokens);\n\n    /**\n     * @dev Set owner and beginning balance.\n    **/\n    constructor()\n      public\n    {\n        balances[msg.sender] = _totalSupply;\n    }\n    \n    /**\n     * @dev This code allows us to redirect pre-signed calls with different function selectors to our own.\n    **/\n    function () \n      public\n    {\n        bytes memory calldata = msg.data;\n        bytes4 new_selector = standardSigs[msg.sig];\n        require(new_selector != 0);\n        \n        assembly {\n           mstore(add(0x20, calldata), new_selector)\n        }\n        address(this).delegatecall(calldata);\n    }\n\n/** ******************************** ERC20 ********************************* **/\n\n    /**\n     * @dev Transfers coins from one address to another.\n     * @param _to The recipient of the transfer amount.\n     * @param _amount The amount of tokens to transfer.\n    **/\n    function transfer(address _to, uint256 _amount) \n      public\n    returns (bool success)\n    {\n        require(_transfer(msg.sender, _to, _amount));\n        return true;\n    }\n    \n    /**\n     * @dev An allowed address can transfer tokens from another's address.\n     * @param _from The owner of the tokens to be transferred.\n     * @param _to The address to which the tokens will be transferred.\n     * @param _amount The amount of tokens to be transferred.\n    **/\n    function transferFrom(address _from, address _to, uint _amount)\n      public\n    returns (bool success)\n    {\n        require(balances[_from] >= _amount && allowed[_from][msg.sender] >= _amount);\n\n        allowed[_from][msg.sender] = allowed[_from][msg.sender].sub(_amount);\n        require(_transfer(_from, _to, _amount));\n        return true;\n    }\n    \n    /**\n     * @dev Approves a wallet to transfer tokens on one's behalf.\n     * @param _spender The wallet approved to spend tokens.\n     * @param _amount The amount of tokens approved to spend.\n    **/\n    function approve(address _spender, uint256 _amount) \n      public\n    returns (bool success)\n    {\n        require(_approve(msg.sender, _spender, _amount));\n        return true;\n    }\n    \n    function increaseApproval(address _spender, uint256 _amount) \n      public\n    returns (bool success)\n    {\n        require(_increaseApproval(msg.sender, _spender, _amount));\n        return true;\n    }\n\n    function decreaseApproval(address _spender, uint256 _amount) \n      public\n    returns (bool success)\n    {\n        require(_decreaseApproval(msg.sender, _spender, _amount));\n        return true;\n    }\n    \n    /**\n     * @dev Used to approve an address and call a function on it in the same transaction.\n     * @dev _spender The address to be approved to spend COIN.\n     * @dev _amount The amount of COIN to be approved to spend.\n     * @dev _data The data to send to the called contract.\n    **/\n    function approveAndCall(address _spender, uint256 _amount, bytes _data) \n      public\n    returns (bool success) \n    {\n        require(_approve(msg.sender, _spender, _amount));\n        ApproveAndCallFallBack(_spender).receiveApproval(msg.sender, _amount, address(this), _data);\n        return true;\n    }\n\n/** ****************************** Internal ******************************** **/\n    \n    /**\n     * @dev Internal transfer for all functions that transfer.\n     * @param _from The address that is transferring coins.\n     * @param _to The receiving address of the coins.\n     * @param _amount The amount of coins being transferred.\n    **/\n    function _transfer(address _from, address _to, uint256 _amount)\n      internal\n    returns (bool success)\n    {\n        require(balances[_from] >= _amount);\n        \n        balances[_from] = balances[_from].sub(_amount);\n        balances[_to] = balances[_to].add(_amount);\n        \n        emit Transfer(_from, _to, _amount);\n        return true;\n    }\n    \n    /**\n     * @dev Internal approve for all functions that require an approve.\n     * @param _owner The owner who is allowing spender to use their balance.\n     * @param _spender The wallet approved to spend tokens.\n     * @param _amount The amount of tokens approved to spend.\n    **/\n    function _approve(address _owner, address _spender, uint256 _amount) \n      internal\n    returns (bool success)\n    {\n        require(balances[_owner] >= _amount);\n        \n        allowed[_owner][_spender] = _amount;\n        emit Approval(_owner, _spender, _amount);\n        return true;\n    }\n    \n    function _increaseApproval(address _owner, address _spender, uint256 _amount)\n      internal\n    returns (bool success)\n    {\n        require(balances[_owner] >= allowed[_owner][_spender].add(_amount));\n        \n        allowed[_owner][_spender] = allowed[_owner][_spender].add(_amount);\n        emit Approval(_owner, _spender, allowed[_owner][_spender]);\n        return true;\n    }\n    \n    function _decreaseApproval(address _owner, address _spender, uint256 _amount)\n      internal\n    returns (bool success)\n    {\n        if (allowed[_owner][_spender] <= _amount) allowed[_owner][_spender] = 0;\n        else allowed[_owner][_spender] = allowed[_owner][_spender].sub(_amount);\n        \n        emit Approval(_owner, _spender, allowed[_owner][_spender]);\n        return true;\n    }\n    \n/** ************************ Delegated Functions *************************** **/\n\n    /**\n     * @dev Called by delegate with a signed hash of the transaction data to allow a user\n     * @dev to transfer tokens without paying gas in Ether (they pay in COIN instead).\n     * @param _signature Signed hash of data for this transfer.\n     * @param _to The address to transfer COIN to.\n     * @param _value The amount of COIN to transfer.\n     * @param _gasPrice Price (IN COIN) that will be paid per unit of gas by user to \"delegate\".\n     * @param _nonce Nonce of the user's new transaction.\n    **/\n    function transferPreSigned(\n        bytes _signature,\n        address _to, \n        uint256 _value, \n        uint256 _gasPrice, \n        uint256 _nonce) \n      public\n    returns (bool) \n    {\n        // Log starting gas left of transaction for later gas price calculations.\n        uint256 gas = gasleft();\n        \n        // Recover signer address from signature; ensure address is valid.\n        address from = recoverPreSigned(_signature, transferSig, _to, _value, \"\", _gasPrice, _nonce);\n        require(from != address(0));\n        \n        // Require the hash has not been used, declare it used, increment nonce.\n        require(!invalidSignatures[from][_signature]);\n        invalidSignatures[from][_signature] = true;\n        nonces[from]++;\n        \n        // Internal transfer.\n        require(_transfer(from, _to, _value));\n\n        // If the delegate is charging, pay them for gas in COIN.\n        if (_gasPrice > 0) {\n            \n            // 35000 because of base fee of 21000 and ~14000 for the fee transfer.\n            gas = 35000 + gas.sub(gasleft());\n            require(_transfer(from, msg.sender, _gasPrice.mul(gas)));\n        }\n        \n        return true;\n    }\n    \n    /**\n     * @dev Called by a delegate with signed hash to approve a transaction for user.\n     * @dev All variables equivalent to transfer except _to:\n     * @param _to The address that will be approved to transfer COIN from user's wallet.\n    **/\n    function approvePreSigned(\n        bytes _signature,\n        address _to, \n        uint256 _value, \n        uint256 _gasPrice, \n        uint256 _nonce) \n      public\n    returns (bool) \n    {\n        uint256 gas = gasleft();\n        address from = recoverPreSigned(_signature, approveSig, _to, _value, \"\", _gasPrice, _nonce);\n        require(from != address(0));\n        require(!invalidSignatures[from][_signature]);\n        \n        invalidSignatures[from][_signature] = true;\n        nonces[from]++;\n        \n        require(_approve(from, _to, _value));\n\n        if (_gasPrice > 0) {\n            gas = 35000 + gas.sub(gasleft());\n            require(_transfer(from, msg.sender, _gasPrice.mul(gas)));\n        }\n        return true;\n    }\n    \n    /**\n     * @dev Called by a delegate with signed hash to approve a transaction for user.\n     * @dev All variables equivalent to transfer except _to:\n     * @param _to The address that will be approved to transfer COIN from user's wallet.\n    **/\n    function increaseApprovalPreSigned(\n        bytes _signature,\n        address _to, \n        uint256 _value, \n        uint256 _gasPrice, \n        uint256 _nonce) \n      public\n    returns (bool) \n    {\n        uint256 gas = gasleft();\n        address from = recoverPreSigned(_signature, increaseApprovalSig, _to, _value, \"\", _gasPrice, _nonce);\n        require(from != address(0));\n        require(!invalidSignatures[from][_signature]);\n        \n        invalidSignatures[from][_signature] = true;\n        nonces[from]++;\n        \n        require(_increaseApproval(from, _to, _value));\n\n        if (_gasPrice > 0) {\n            gas = 35000 + gas.sub(gasleft());\n            require(_transfer(from, msg.sender, _gasPrice.mul(gas)));\n        }\n        return true;\n    }\n    \n    /**\n     * @dev Called by a delegate with signed hash to approve a transaction for user.\n     * @dev All variables equivalent to transfer except _to:\n     * @param _to The address that will be approved to transfer COIN from user's wallet.\n    **/\n    function decreaseApprovalPreSigned(\n        bytes _signature,\n        address _to, \n        uint256 _value, \n        uint256 _gasPrice, \n        uint256 _nonce) \n      public\n    returns (bool) \n    {\n        uint256 gas = gasleft();\n        address from = recoverPreSigned(_signature, decreaseApprovalSig, _to, _value, \"\", _gasPrice, _nonce);\n        require(from != address(0));\n        require(!invalidSignatures[from][_signature]);\n        \n        invalidSignatures[from][_signature] = true;\n        nonces[from]++;\n        \n        require(_decreaseApproval(from, _to, _value));\n\n        if (_gasPrice > 0) {\n            gas = 35000 + gas.sub(gasleft());\n            require(_transfer(from, msg.sender, _gasPrice.mul(gas)));\n        }\n        return true;\n    }\n    \n    /**\n     * @dev approveAndCallPreSigned allows a user to approve a contract and call a function on it\n     * @dev in the same transaction. As with the other presigneds, a delegate calls this with signed data from user.\n     * @dev This function is the big reason we're using gas price and calculating gas use.\n     * @dev Using this with the investment contract can result in varying gas costs.\n     * @param _extraData The data to send to the contract.\n    **/\n    function approveAndCallPreSigned(\n        bytes _signature,\n        address _to, \n        uint256 _value,\n        bytes _extraData,\n        uint256 _gasPrice, \n        uint256 _nonce) \n      public\n    returns (bool) \n    {\n        uint256 gas = gasleft();\n        address from = recoverPreSigned(_signature, approveAndCallSig, _to, _value, _extraData, _gasPrice, _nonce);\n        require(from != address(0));\n        require(!invalidSignatures[from][_signature]);\n        \n        invalidSignatures[from][_signature] = true;\n        nonces[from]++;\n        \n        require(_approve(from, _to, _value));\n        ApproveAndCallFallBack(_to).receiveApproval(from, _value, address(this), _extraData);\n\n        if (_gasPrice > 0) {\n            gas = 35000 + gas.sub(gasleft());\n            require(_transfer(from, msg.sender, _gasPrice.mul(gas)));\n        }\n    return true;\n    }\n    \n/** *************************** Revoke PreSigned ************************** **/\n    \n    /**\n     * @dev Revoke signature without going through a delegate.\n     * @param _sigToRevoke The signature that you no longer want to be used.\n    **/\n    function revokeSignature(bytes _sigToRevoke)\n      public\n    returns (bool)\n    {\n        invalidSignatures[msg.sender][_sigToRevoke] = true;\n        return true;\n    }\n\n    /**\n     * @dev Revoke signature through a delegate.\n     * @param _sigToRevoke The signature that you would like revoked.\n     * @param _signature The signature allowing this revocation.\n     * @param _gasPrice The amount of token wei to be paid for each uint of gas.\n    **/\n    function revokeSignaturePreSigned(\n        bytes _signature,\n        bytes _sigToRevoke,\n        uint256 _gasPrice)\n      public\n    returns (bool)\n    {\n        uint256 gas = gasleft();\n        address from = recoverRevokeHash(_signature, _sigToRevoke, _gasPrice);\n        require(!invalidSignatures[from][_signature]);\n        invalidSignatures[from][_signature] = true;\n        \n        invalidSignatures[from][_sigToRevoke] = true;\n        \n        if (_gasPrice > 0) {\n            gas = 34653 + gas.sub(gasleft());\n            require(_transfer(from, msg.sender, _gasPrice.mul(gas)));\n        }\n        return true;\n    }\n    \n    /**\n     * @dev Get hash for a revocation.\n     * @param _sigToRevoke The signature to be revoked.\n     * @param _gasPrice The amount to be paid to delegate for sending this tx.\n    **/\n    function getRevokeHash(bytes _sigToRevoke, uint256 _gasPrice)\n      public\n      view\n    returns (bytes32 txHash)\n    {\n        return keccak256(revokeSignatureSig, _sigToRevoke, _gasPrice);\n    }\n    \n    /**\n     * @dev Recover the address from a revocation signature.\n     * @param _sigToRevoke The signature to be revoked.\n     * @param _signature The signature allowing this revocation.\n     * @param _gasPrice The amount of token wei to be paid for each unit of gas.\n    **/\n    function recoverRevokeHash(bytes _signature, bytes _sigToRevoke, uint256 _gasPrice)\n      public\n      view\n    returns (address from)\n    {\n        return ecrecoverFromSig(getSignHash(getRevokeHash(_sigToRevoke, _gasPrice)), _signature);\n    }\n    \n/** ************************** PreSigned Constants ************************ **/\n\n    /**\n     * @dev Used in frontend and contract to get hashed data of any given pre-signed transaction.\n     * @param _to The address to transfer COIN to.\n     * @param _value The amount of COIN to be transferred.\n     * @param _extraData Extra data of tx if needed. Transfers and approves will leave this null.\n     * @param _function Function signature of the pre-signed function being used.\n     * @param _gasPrice The agreed-upon amount of COIN to be paid per unit of gas.\n     * @param _nonce The user's nonce of the new transaction.\n    **/\n    function getPreSignedHash(\n        bytes4 _function,\n        address _to, \n        uint256 _value,\n        bytes _extraData,\n        uint256 _gasPrice,\n        uint256 _nonce)\n      public\n      view\n    returns (bytes32 txHash) \n    {\n        return keccak256(address(this), _function, _to, _value, _extraData, _gasPrice, _nonce);\n    }\n    \n    /**\n     * @dev Recover an address from a signed pre-signed hash.\n     * @param _sig The signed hash.\n     * @param _function The function signature for function being called.\n     * @param _to The address to transfer/approve/transferFrom/etc. tokens to.\n     * @param _value The amont of tokens to transfer/approve/etc.\n     * @param _extraData The extra data included in the transaction, if any.\n     * @param _gasPrice The amount of token wei to be paid to the delegate for each unit of gas.\n     * @param _nonce The user's nonce for this transaction.\n    **/\n    function recoverPreSigned(\n        bytes _sig,\n        bytes4 _function,\n        address _to,\n        uint256 _value,\n        bytes _extraData,\n        uint256 _gasPrice,\n        uint256 _nonce) \n      public\n      view\n    returns (address recovered)\n    {\n        return ecrecoverFromSig(getSignHash(getPreSignedHash(_function, _to, _value, _extraData, _gasPrice, _nonce)), _sig);\n    }\n    \n    /**\n     * @dev Add signature prefix to hash for recovery  la ERC191.\n     * @param _hash The hashed transaction to add signature prefix to.\n    **/\n    function getSignHash(bytes32 _hash)\n      public\n      pure\n    returns (bytes32 signHash)\n    {\n        return keccak256(\"\\x19Ethereum Signed Message:\\n32\", _hash);\n    }\n\n    /**\n     * @dev Helps to reduce stack depth problems for delegations. Thank you to Bokky for this!\n     * @param hash The hash of signed data for the transaction.\n     * @param sig Contains r, s, and v for recovery of address from the hash.\n    **/\n    function ecrecoverFromSig(bytes32 hash, bytes sig) \n      public \n      pure \n    returns (address recoveredAddress) \n    {\n        bytes32 r;\n        bytes32 s;\n        uint8 v;\n        if (sig.length != 65) return address(0);\n        assembly {\n            r := mload(add(sig, 32))\n            s := mload(add(sig, 64))\n            // Here we are loading the last 32 bytes. We exploit the fact that 'mload' will pad with zeroes if we overread.\n            // There is no 'mload8' to do this, but that would be nicer.\n            v := byte(0, mload(add(sig, 96)))\n        }\n        // Albeit non-transactional signatures are not specified by the YP, one would expect it to match the YP range of [27, 28]\n        // geth uses [0, 1] and some clients have followed. This might change, see https://github.com/ethereum/go-ethereum/issues/2053\n        if (v < 27) {\n          v += 27;\n        }\n        if (v != 27 && v != 28) return address(0);\n        return ecrecover(hash, v, r, s);\n    }\n\n    /**\n     * @dev Frontend queries to find the next nonce of the user so they can find the new nonce to send.\n     * @param _owner Address that will be sending the COIN.\n    **/\n    function getNonce(address _owner)\n      external\n      view\n    returns (uint256 nonce)\n    {\n        return nonces[_owner];\n    }\n    \n/** ****************************** Constants ******************************* **/\n    \n    /**\n     * @dev Return total supply of token.\n    **/\n    function totalSupply() \n      external\n      view \n     returns (uint256)\n    {\n        return _totalSupply;\n    }\n\n    /**\n     * @dev Return balance of a certain address.\n     * @param _owner The address whose balance we want to check.\n    **/\n    function balanceOf(address _owner)\n      external\n      view \n    returns (uint256) \n    {\n        return balances[_owner];\n    }\n    \n    /**\n     * @dev Allowed amount for a user to spend of another's tokens.\n     * @param _owner The owner of the tokens approved to spend.\n     * @param _spender The address of the user allowed to spend the tokens.\n    **/\n    function allowance(address _owner, address _spender) \n      external\n      view \n    returns (uint256) \n    {\n        return allowed[_owner][_spender];\n    }\n    \n/** ****************************** onlyOwner ******************************* **/\n    \n    /**\n     * @dev Allow the owner to take ERC20 tokens off of this contract if they are accidentally sent.\n    **/\n    function token_escape(address _tokenContract)\n      external\n      onlyOwner\n    {\n        CoinvestToken lostToken = CoinvestToken(_tokenContract);\n        \n        uint256 stuckTokens = lostToken.balanceOf(address(this));\n        lostToken.transfer(owner, stuckTokens);\n    }\n    \n    function updateStandard(bytes4 _standardSig, bytes4 _ourSig)\n      external\n      onlyOwner\n    returns (bool success)\n    {\n        standardSigs[_standardSig] = _ourSig;\n        return true;\n    }\n    \n}\n\n",
  "sourcePath": "/home/robert/coding/Coinvest/contracts/CoinvestToken.sol",
  "compiler": {
    "name": "solc",
    "version": "0.4.23+commit.124ca40d.Emscripten.clang"
  },
  "schemaVersion": "2.0.0",
  "updatedAt": "2018-05-02T18:51:09.422Z"
}