{
  "contractName": "Coinvest223",
  "abi": [
    {
      "constant": true,
      "inputs": [],
      "name": "name",
      "outputs": [
        {
          "name": "",
          "type": "string"
        }
      ],
      "payable": false,
      "stateMutability": "view",
      "type": "function"
    },
    {
      "constant": true,
      "inputs": [],
      "name": "totalSupply",
      "outputs": [
        {
          "name": "",
          "type": "uint256"
        }
      ],
      "payable": false,
      "stateMutability": "view",
      "type": "function"
    },
    {
      "constant": true,
      "inputs": [],
      "name": "lockupEndTime",
      "outputs": [
        {
          "name": "",
          "type": "uint256"
        }
      ],
      "payable": false,
      "stateMutability": "view",
      "type": "function"
    },
    {
      "constant": true,
      "inputs": [],
      "name": "decimals",
      "outputs": [
        {
          "name": "",
          "type": "uint8"
        }
      ],
      "payable": false,
      "stateMutability": "view",
      "type": "function"
    },
    {
      "constant": true,
      "inputs": [],
      "name": "MAX_UINT256",
      "outputs": [
        {
          "name": "",
          "type": "uint256"
        }
      ],
      "payable": false,
      "stateMutability": "view",
      "type": "function"
    },
    {
      "constant": true,
      "inputs": [],
      "name": "Transfer_nodata_enabled",
      "outputs": [
        {
          "name": "",
          "type": "bool"
        }
      ],
      "payable": false,
      "stateMutability": "view",
      "type": "function"
    },
    {
      "constant": true,
      "inputs": [],
      "name": "symbol",
      "outputs": [
        {
          "name": "",
          "type": "string"
        }
      ],
      "payable": false,
      "stateMutability": "view",
      "type": "function"
    },
    {
      "constant": true,
      "inputs": [],
      "name": "maintainer",
      "outputs": [
        {
          "name": "",
          "type": "address"
        }
      ],
      "payable": false,
      "stateMutability": "view",
      "type": "function"
    },
    {
      "constant": true,
      "inputs": [],
      "name": "icoContract",
      "outputs": [
        {
          "name": "",
          "type": "address"
        }
      ],
      "payable": false,
      "stateMutability": "view",
      "type": "function"
    },
    {
      "constant": true,
      "inputs": [],
      "name": "Transfer_data_enabled",
      "outputs": [
        {
          "name": "",
          "type": "bool"
        }
      ],
      "payable": false,
      "stateMutability": "view",
      "type": "function"
    },
    {
      "constant": true,
      "inputs": [],
      "name": "ERC223Transfer_enabled",
      "outputs": [
        {
          "name": "",
          "type": "bool"
        }
      ],
      "payable": false,
      "stateMutability": "view",
      "type": "function"
    },
    {
      "inputs": [
        {
          "name": "_lockupEndTime",
          "type": "uint256"
        }
      ],
      "payable": false,
      "stateMutability": "nonpayable",
      "type": "constructor"
    },
    {
      "anonymous": false,
      "inputs": [
        {
          "indexed": true,
          "name": "from",
          "type": "address"
        },
        {
          "indexed": true,
          "name": "to",
          "type": "address"
        },
        {
          "indexed": false,
          "name": "value",
          "type": "uint256"
        },
        {
          "indexed": false,
          "name": "data",
          "type": "bytes"
        }
      ],
      "name": "Transfer",
      "type": "event"
    },
    {
      "anonymous": false,
      "inputs": [
        {
          "indexed": true,
          "name": "from",
          "type": "address"
        },
        {
          "indexed": true,
          "name": "to",
          "type": "address"
        },
        {
          "indexed": false,
          "name": "value",
          "type": "uint256"
        },
        {
          "indexed": false,
          "name": "data",
          "type": "bytes"
        }
      ],
      "name": "ERC223Transfer",
      "type": "event"
    },
    {
      "anonymous": false,
      "inputs": [
        {
          "indexed": true,
          "name": "from",
          "type": "address"
        },
        {
          "indexed": true,
          "name": "to",
          "type": "address"
        },
        {
          "indexed": false,
          "name": "value",
          "type": "uint256"
        }
      ],
      "name": "Transfer",
      "type": "event"
    },
    {
      "anonymous": false,
      "inputs": [
        {
          "indexed": true,
          "name": "_from",
          "type": "address"
        },
        {
          "indexed": true,
          "name": "_spender",
          "type": "address"
        },
        {
          "indexed": true,
          "name": "_amount",
          "type": "uint256"
        }
      ],
      "name": "Approval",
      "type": "event"
    },
    {
      "constant": false,
      "inputs": [
        {
          "name": "_to",
          "type": "address"
        },
        {
          "name": "_value",
          "type": "uint256"
        },
        {
          "name": "_data",
          "type": "bytes"
        }
      ],
      "name": "ERC20transfer",
      "outputs": [
        {
          "name": "success",
          "type": "bool"
        }
      ],
      "payable": false,
      "stateMutability": "nonpayable",
      "type": "function"
    },
    {
      "constant": false,
      "inputs": [
        {
          "name": "_to",
          "type": "address"
        },
        {
          "name": "_value",
          "type": "uint256"
        }
      ],
      "name": "transfer",
      "outputs": [
        {
          "name": "success",
          "type": "bool"
        }
      ],
      "payable": false,
      "stateMutability": "nonpayable",
      "type": "function"
    },
    {
      "constant": false,
      "inputs": [
        {
          "name": "_to",
          "type": "address"
        },
        {
          "name": "_value",
          "type": "uint256"
        },
        {
          "name": "_data",
          "type": "bytes"
        }
      ],
      "name": "transfer",
      "outputs": [
        {
          "name": "success",
          "type": "bool"
        }
      ],
      "payable": false,
      "stateMutability": "nonpayable",
      "type": "function"
    },
    {
      "constant": false,
      "inputs": [
        {
          "name": "_to",
          "type": "address"
        },
        {
          "name": "_value",
          "type": "uint256"
        },
        {
          "name": "_data",
          "type": "bytes"
        },
        {
          "name": "_custom_fallback",
          "type": "string"
        }
      ],
      "name": "transfer",
      "outputs": [
        {
          "name": "success",
          "type": "bool"
        }
      ],
      "payable": false,
      "stateMutability": "nonpayable",
      "type": "function"
    },
    {
      "constant": false,
      "inputs": [
        {
          "name": "_addr",
          "type": "address"
        }
      ],
      "name": "isContract",
      "outputs": [
        {
          "name": "is_contract",
          "type": "bool"
        }
      ],
      "payable": false,
      "stateMutability": "nonpayable",
      "type": "function"
    },
    {
      "constant": true,
      "inputs": [
        {
          "name": "_owner",
          "type": "address"
        }
      ],
      "name": "balanceOf",
      "outputs": [
        {
          "name": "balance",
          "type": "uint256"
        }
      ],
      "payable": false,
      "stateMutability": "view",
      "type": "function"
    },
    {
      "constant": false,
      "inputs": [
        {
          "name": "_from",
          "type": "address"
        },
        {
          "name": "_to",
          "type": "address"
        },
        {
          "name": "_amount",
          "type": "uint256"
        }
      ],
      "name": "transferFrom",
      "outputs": [
        {
          "name": "success",
          "type": "bool"
        }
      ],
      "payable": false,
      "stateMutability": "nonpayable",
      "type": "function"
    },
    {
      "constant": false,
      "inputs": [
        {
          "name": "_spender",
          "type": "address"
        },
        {
          "name": "_amount",
          "type": "uint256"
        }
      ],
      "name": "approve",
      "outputs": [],
      "payable": false,
      "stateMutability": "nonpayable",
      "type": "function"
    },
    {
      "constant": false,
      "inputs": [
        {
          "name": "_tokenContract",
          "type": "address"
        }
      ],
      "name": "token_escape",
      "outputs": [],
      "payable": false,
      "stateMutability": "nonpayable",
      "type": "function"
    },
    {
      "constant": false,
      "inputs": [
        {
          "name": "_icoContract",
          "type": "address"
        }
      ],
      "name": "setIcoContract",
      "outputs": [],
      "payable": false,
      "stateMutability": "nonpayable",
      "type": "function"
    },
    {
      "constant": true,
      "inputs": [
        {
          "name": "_owner",
          "type": "address"
        },
        {
          "name": "_spender",
          "type": "address"
        }
      ],
      "name": "allowance",
      "outputs": [
        {
          "name": "",
          "type": "uint256"
        }
      ],
      "payable": false,
      "stateMutability": "view",
      "type": "function"
    },
    {
      "constant": false,
      "inputs": [
        {
          "name": "_value",
          "type": "bool"
        }
      ],
      "name": "adjust_ERC223Transfer",
      "outputs": [],
      "payable": false,
      "stateMutability": "nonpayable",
      "type": "function"
    },
    {
      "constant": false,
      "inputs": [
        {
          "name": "_value",
          "type": "bool"
        }
      ],
      "name": "adjust_Transfer_nodata",
      "outputs": [],
      "payable": false,
      "stateMutability": "nonpayable",
      "type": "function"
    },
    {
      "constant": false,
      "inputs": [
        {
          "name": "_value",
          "type": "bool"
        }
      ],
      "name": "adjust_Transfer_data",
      "outputs": [],
      "payable": false,
      "stateMutability": "nonpayable",
      "type": "function"
    },
    {
      "constant": false,
      "inputs": [
        {
          "name": "newMaintainer",
          "type": "address"
        }
      ],
      "name": "transferMaintainer",
      "outputs": [],
      "payable": false,
      "stateMutability": "nonpayable",
      "type": "function"
    }
  ],
  "bytecode": "0x60806040526000600360006101000a81548160ff0219169083151502179055506000600360016101000a81548160ff0219169083151502179055506001600360026101000a81548160ff0219169083151502179055506a58a061ea91aa7f2584000060065534801561007057600080fd5b5060405160208061288f83398101806040528101908080519060200190929190505050600654600460003373ffffffffffffffffffffffffffffffffffffffff1673ffffffffffffffffffffffffffffffffffffffff1681526020019081526020016000208190555080600281905550336000806101000a81548173ffffffffffffffffffffffffffffffffffffffff021916908373ffffffffffffffffffffffffffffffffffffffff1602179055505061275f806101306000396000f300608060405260043610610154576000357c0100000000000000000000000000000000000000000000000000000000900463ffffffff16806306fdde0314610159578063095ea7b3146101e9578063162790551461023657806318160ddd146102915780631e6f9c1e146102bc57806323b872dd146102eb578063266d7bda14610370578063313ce5671461039b57806333a581d2146103cc5780634511cc7d146103f757806349beee4f1461042657806370a082311461045557806374de8caf146104ac57806395d89b41146105575780639850d32b146105e7578063a9059cbb1461063e578063be45fd62146106a3578063bffd952a1461074e578063c66e409514610791578063cda8300e146107e8578063d035e45f14610817578063dd62ed3e1461085a578063de1f892a146108d1578063e09678fd14610900578063f6368f8a14610943578063fb471ce514610a34575b600080fd5b34801561016557600080fd5b5061016e610a63565b6040518080602001828103825283818151815260200191508051906020019080838360005b838110156101ae578082015181840152602081019050610193565b50505050905090810190601f1680156101db5780820380516001836020036101000a031916815260200191505b509250505060405180910390f35b3480156101f557600080fd5b50610234600480360381019080803573ffffffffffffffffffffffffffffffffffffffff16906020019092919080359060200190929190505050610a9c565b005b34801561024257600080fd5b50610277600480360381019080803573ffffffffffffffffffffffffffffffffffffffff169060200190929190505050610c88565b604051808215151515815260200191505060405180910390f35b34801561029d57600080fd5b506102a6610c9b565b6040518082815260200191505060405180910390f35b3480156102c857600080fd5b506102e9600480360381019080803515159060200190929190505050610ca1565b005b3480156102f757600080fd5b50610356600480360381019080803573ffffffffffffffffffffffffffffffffffffffff169060200190929190803573ffffffffffffffffffffffffffffffffffffffff16906020019092919080359060200190929190505050610d16565b604051808215151515815260200191505060405180910390f35b34801561037c57600080fd5b506103856110b0565b6040518082815260200191505060405180910390f35b3480156103a757600080fd5b506103b06110b6565b604051808260ff1660ff16815260200191505060405180910390f35b3480156103d857600080fd5b506103e16110bb565b6040518082815260200191505060405180910390f35b34801561040357600080fd5b5061040c6110df565b604051808215151515815260200191505060405180910390f35b34801561043257600080fd5b506104536004803603810190808035151590602001909291905050506110f2565b005b34801561046157600080fd5b50610496600480360381019080803573ffffffffffffffffffffffffffffffffffffffff169060200190929190505050611167565b6040518082815260200191505060405180910390f35b3480156104b857600080fd5b5061053d600480360381019080803573ffffffffffffffffffffffffffffffffffffffff16906020019092919080359060200190929190803590602001908201803590602001908080601f01602080910402602001604051908101604052809392919081815260200183838082843782019150505050505091929192905050506111b0565b604051808215151515815260200191505060405180910390f35b34801561056357600080fd5b5061056c611287565b6040518080602001828103825283818151815260200191508051906020019080838360005b838110156105ac578082015181840152602081019050610591565b50505050905090810190601f1680156105d95780820380516001836020036101000a031916815260200191505b509250505060405180910390f35b3480156105f357600080fd5b506105fc6112c0565b604051808273ffffffffffffffffffffffffffffffffffffffff1673ffffffffffffffffffffffffffffffffffffffff16815260200191505060405180910390f35b34801561064a57600080fd5b50610689600480360381019080803573ffffffffffffffffffffffffffffffffffffffff169060200190929190803590602001909291905050506112e5565b604051808215151515815260200191505060405180910390f35b3480156106af57600080fd5b50610734600480360381019080803573ffffffffffffffffffffffffffffffffffffffff16906020019092919080359060200190929190803590602001908201803590602001908080601f01602080910402602001604051908101604052809392919081815260200183838082843782019150505050505091929192905050506113dc565b604051808215151515815260200191505060405180910390f35b34801561075a57600080fd5b5061078f600480360381019080803573ffffffffffffffffffffffffffffffffffffffff1690602001909291905050506114d1565b005b34801561079d57600080fd5b506107a66115a8565b604051808273ffffffffffffffffffffffffffffffffffffffff1673ffffffffffffffffffffffffffffffffffffffff16815260200191505060405180910390f35b3480156107f457600080fd5b506107fd6115ce565b604051808215151515815260200191505060405180910390f35b34801561082357600080fd5b50610858600480360381019080803573ffffffffffffffffffffffffffffffffffffffff1690602001909291905050506115e1565b005b34801561086657600080fd5b506108bb600480360381019080803573ffffffffffffffffffffffffffffffffffffffff169060200190929190803573ffffffffffffffffffffffffffffffffffffffff16906020019092919050505061181c565b6040518082815260200191505060405180910390f35b3480156108dd57600080fd5b506108fe6004803603810190808035151590602001909291905050506118a3565b005b34801561090c57600080fd5b50610941600480360381019080803573ffffffffffffffffffffffffffffffffffffffff169060200190929190505050611918565b005b34801561094f57600080fd5b50610a1a600480360381019080803573ffffffffffffffffffffffffffffffffffffffff16906020019092919080359060200190929190803590602001908201803590602001908080601f0160208091040260200160405190810160405280939291908181526020018383808284378201915050505050509192919290803590602001908201803590602001908080601f01602080910402602001604051908101604052809392919081815260200183838082843782019150505050505091929192905050506119fb565b604051808215151515815260200191505060405180910390f35b348015610a4057600080fd5b50610a49611f6f565b604051808215151515815260200191505060405180910390f35b6040805190810160405280601381526020017f436f696e7665737420434f494e20546f6b656e0000000000000000000000000081525081565b600254421015610b5a576000809054906101000a900473ffffffffffffffffffffffffffffffffffffffff1673ffffffffffffffffffffffffffffffffffffffff163373ffffffffffffffffffffffffffffffffffffffff161480610b4e5750600160009054906101000a900473ffffffffffffffffffffffffffffffffffffffff1673ffffffffffffffffffffffffffffffffffffffff163373ffffffffffffffffffffffffffffffffffffffff16145b1515610b5957600080fd5b5b80600460003373ffffffffffffffffffffffffffffffffffffffff1673ffffffffffffffffffffffffffffffffffffffff1681526020019081526020016000205410151515610ba857600080fd5b80600560003373ffffffffffffffffffffffffffffffffffffffff1673ffffffffffffffffffffffffffffffffffffffff16815260200190815260200160002060008473ffffffffffffffffffffffffffffffffffffffff1673ffffffffffffffffffffffffffffffffffffffff16815260200190815260200160002081905550808273ffffffffffffffffffffffffffffffffffffffff163373ffffffffffffffffffffffffffffffffffffffff167f8c5be1e5ebec7d5bd14f71427d1e84f3dd0314c0f7b2291e5b200ac8c7c3b92560405160405180910390a45050565b600080823b905060008111915050919050565b60065481565b6000809054906101000a900473ffffffffffffffffffffffffffffffffffffffff1673ffffffffffffffffffffffffffffffffffffffff163373ffffffffffffffffffffffffffffffffffffffff16141515610cf957fe5b80600360016101000a81548160ff02191690831515021790555050565b60006060600254421015610dd8576000809054906101000a900473ffffffffffffffffffffffffffffffffffffffff1673ffffffffffffffffffffffffffffffffffffffff163373ffffffffffffffffffffffffffffffffffffffff161480610dcc5750600160009054906101000a900473ffffffffffffffffffffffffffffffffffffffff1673ffffffffffffffffffffffffffffffffffffffff163373ffffffffffffffffffffffffffffffffffffffff16145b1515610dd757600080fd5b5b82600460008773ffffffffffffffffffffffffffffffffffffffff1673ffffffffffffffffffffffffffffffffffffffff1681526020019081526020016000205410158015610ea3575082600560008773ffffffffffffffffffffffffffffffffffffffff1673ffffffffffffffffffffffffffffffffffffffff16815260200190815260200160002060003373ffffffffffffffffffffffffffffffffffffffff1673ffffffffffffffffffffffffffffffffffffffff1681526020019081526020016000205410155b1515610eae57600080fd5b82600560008773ffffffffffffffffffffffffffffffffffffffff1673ffffffffffffffffffffffffffffffffffffffff16815260200190815260200160002060003373ffffffffffffffffffffffffffffffffffffffff1673ffffffffffffffffffffffffffffffffffffffff1681526020019081526020016000206000828254039250508190555082600460008773ffffffffffffffffffffffffffffffffffffffff1673ffffffffffffffffffffffffffffffffffffffff1681526020019081526020016000206000828254039250508190555082600460008673ffffffffffffffffffffffffffffffffffffffff1673ffffffffffffffffffffffffffffffffffffffff168152602001908152602001600020600082825401925050819055508373ffffffffffffffffffffffffffffffffffffffff168573ffffffffffffffffffffffffffffffffffffffff167fe19260aff97b920c7df27010903aeb9c8d2be5d310a2c67824cf3f15396e4c1685846040518083815260200180602001828103825283818151815260200191508051906020019080838360005b8381101561106957808201518184015260208101905061104e565b50505050905090810190601f1680156110965780820380516001836020036101000a031916815260200191505b50935050505060405180910390a360019150509392505050565b60025481565b601281565b7fffffffffffffffffffffffffffffffffffffffffffffffffffffffffffffffff81565b600360029054906101000a900460ff1681565b6000809054906101000a900473ffffffffffffffffffffffffffffffffffffffff1673ffffffffffffffffffffffffffffffffffffffff163373ffffffffffffffffffffffffffffffffffffffff1614151561114a57fe5b80600360026101000a81548160ff02191690831515021790555050565b6000600460008373ffffffffffffffffffffffffffffffffffffffff1673ffffffffffffffffffffffffffffffffffffffff168152602001908152602001600020549050919050565b60006060600254421015611272576000809054906101000a900473ffffffffffffffffffffffffffffffffffffffff1673ffffffffffffffffffffffffffffffffffffffff163373ffffffffffffffffffffffffffffffffffffffff1614806112665750600160009054906101000a900473ffffffffffffffffffffffffffffffffffffffff1673ffffffffffffffffffffffffffffffffffffffff163373ffffffffffffffffffffffffffffffffffffffff16145b151561127157600080fd5b5b61127d858583611f82565b9150509392505050565b6040805190810160405280600481526020017f434f494e0000000000000000000000000000000000000000000000000000000081525081565b6000809054906101000a900473ffffffffffffffffffffffffffffffffffffffff1681565b600060606002544210156113a7576000809054906101000a900473ffffffffffffffffffffffffffffffffffffffff1673ffffffffffffffffffffffffffffffffffffffff163373ffffffffffffffffffffffffffffffffffffffff16148061139b5750600160009054906101000a900473ffffffffffffffffffffffffffffffffffffffff1673ffffffffffffffffffffffffffffffffffffffff163373ffffffffffffffffffffffffffffffffffffffff16145b15156113a657600080fd5b5b6113b084610c88565b156113c7576113c0848483612299565b91506113d5565b6113d2848483611f82565b91505b5092915050565b600060025442101561149c576000809054906101000a900473ffffffffffffffffffffffffffffffffffffffff1673ffffffffffffffffffffffffffffffffffffffff163373ffffffffffffffffffffffffffffffffffffffff1614806114905750600160009054906101000a900473ffffffffffffffffffffffffffffffffffffffff1673ffffffffffffffffffffffffffffffffffffffff163373ffffffffffffffffffffffffffffffffffffffff16145b151561149b57600080fd5b5b6114a584610c88565b156114bc576114b5848484612299565b90506114ca565b6114c7848484611f82565b90505b9392505050565b6000809054906101000a900473ffffffffffffffffffffffffffffffffffffffff1673ffffffffffffffffffffffffffffffffffffffff163373ffffffffffffffffffffffffffffffffffffffff1614151561152957fe5b600073ffffffffffffffffffffffffffffffffffffffff168173ffffffffffffffffffffffffffffffffffffffff161415151561156557600080fd5b806000806101000a81548173ffffffffffffffffffffffffffffffffffffffff021916908373ffffffffffffffffffffffffffffffffffffffff16021790555050565b600160009054906101000a900473ffffffffffffffffffffffffffffffffffffffff1681565b600360019054906101000a900460ff1681565b6000806000809054906101000a900473ffffffffffffffffffffffffffffffffffffffff1673ffffffffffffffffffffffffffffffffffffffff163373ffffffffffffffffffffffffffffffffffffffff1614151561163c57fe5b8291508173ffffffffffffffffffffffffffffffffffffffff166370a08231306040518263ffffffff167c0100000000000000000000000000000000000000000000000000000000028152600401808273ffffffffffffffffffffffffffffffffffffffff1673ffffffffffffffffffffffffffffffffffffffff168152602001915050602060405180830381600087803b1580156116da57600080fd5b505af11580156116ee573d6000803e3d6000fd5b505050506040513d602081101561170457600080fd5b810190808051906020019092919050505090508173ffffffffffffffffffffffffffffffffffffffff1663a9059cbb6000809054906101000a900473ffffffffffffffffffffffffffffffffffffffff16836040518363ffffffff167c0100000000000000000000000000000000000000000000000000000000028152600401808373ffffffffffffffffffffffffffffffffffffffff1673ffffffffffffffffffffffffffffffffffffffff16815260200182815260200192505050602060405180830381600087803b1580156117db57600080fd5b505af11580156117ef573d6000803e3d6000fd5b505050506040513d602081101561180557600080fd5b810190808051906020019092919050505050505050565b6000600560008473ffffffffffffffffffffffffffffffffffffffff1673ffffffffffffffffffffffffffffffffffffffff16815260200190815260200160002060008373ffffffffffffffffffffffffffffffffffffffff1673ffffffffffffffffffffffffffffffffffffffff16815260200190815260200160002054905092915050565b6000809054906101000a900473ffffffffffffffffffffffffffffffffffffffff1673ffffffffffffffffffffffffffffffffffffffff163373ffffffffffffffffffffffffffffffffffffffff161415156118fb57fe5b80600360006101000a81548160ff02191690831515021790555050565b6000809054906101000a900473ffffffffffffffffffffffffffffffffffffffff1673ffffffffffffffffffffffffffffffffffffffff163373ffffffffffffffffffffffffffffffffffffffff1614151561197057fe5b6000600160009054906101000a900473ffffffffffffffffffffffffffffffffffffffff1673ffffffffffffffffffffffffffffffffffffffff161415156119b757600080fd5b80600160006101000a81548173ffffffffffffffffffffffffffffffffffffffff021916908373ffffffffffffffffffffffffffffffffffffffff16021790555050565b6000600254421015611abb576000809054906101000a900473ffffffffffffffffffffffffffffffffffffffff1673ffffffffffffffffffffffffffffffffffffffff163373ffffffffffffffffffffffffffffffffffffffff161480611aaf5750600160009054906101000a900473ffffffffffffffffffffffffffffffffffffffff1673ffffffffffffffffffffffffffffffffffffffff163373ffffffffffffffffffffffffffffffffffffffff16145b1515611aba57600080fd5b5b611ac485610c88565b15611f595783611ad333611167565b1015611ade57600080fd5b611af0611aea33611167565b856126dd565b600460003373ffffffffffffffffffffffffffffffffffffffff1673ffffffffffffffffffffffffffffffffffffffff16815260200190815260200160002081905550611b45611b3f86611167565b856126f7565b600460008773ffffffffffffffffffffffffffffffffffffffff1673ffffffffffffffffffffffffffffffffffffffff168152602001908152602001600020819055508473ffffffffffffffffffffffffffffffffffffffff166000836040518082805190602001908083835b602083101515611bd75780518252602082019150602081019050602083039250611bb2565b6001836020036101000a03801982511681845116808217855250505050505090500191505060405180910390207c01000000000000000000000000000000000000000000000000000000009004903387876040518563ffffffff167c0100000000000000000000000000000000000000000000000000000000028152600401808473ffffffffffffffffffffffffffffffffffffffff1673ffffffffffffffffffffffffffffffffffffffff168152602001838152602001828051906020019080838360005b83811015611cb8578082015181840152602081019050611c9d565b50505050905090810190601f168015611ce55780820380516001836020036101000a031916815260200191505b50935050505060006040518083038185885af193505050501515611d0557fe5b600360019054906101000a900460ff1615611ded578473ffffffffffffffffffffffffffffffffffffffff163373ffffffffffffffffffffffffffffffffffffffff167fe19260aff97b920c7df27010903aeb9c8d2be5d310a2c67824cf3f15396e4c1686866040518083815260200180602001828103825283818151815260200191508051906020019080838360005b83811015611db1578082015181840152602081019050611d96565b50505050905090810190601f168015611dde5780820380516001836020036101000a031916815260200191505b50935050505060405180910390a35b600360029054906101000a900460ff1615611e68578473ffffffffffffffffffffffffffffffffffffffff163373ffffffffffffffffffffffffffffffffffffffff167fddf252ad1be2c89b69c2b068fc378daa952ba7f163c4a11628f55a4df523b3ef866040518082815260200191505060405180910390a35b600360009054906101000a900460ff1615611f50578473ffffffffffffffffffffffffffffffffffffffff163373ffffffffffffffffffffffffffffffffffffffff167f9bfafdc2ae8835972d7b64ef3f8f307165ac22ceffde4a742c52da5487f45fd186866040518083815260200180602001828103825283818151815260200191508051906020019080838360005b83811015611f14578082015181840152602081019050611ef9565b50505050905090810190601f168015611f415780820380516001836020036101000a031916815260200191505b50935050505060405180910390a35b60019050611f67565b611f64858585611f82565b90505b949350505050565b600360009054906101000a900460ff1681565b600082611f8e33611167565b1015611f9957600080fd5b611fab611fa533611167565b846126dd565b600460003373ffffffffffffffffffffffffffffffffffffffff1673ffffffffffffffffffffffffffffffffffffffff16815260200190815260200160002081905550612000611ffa85611167565b846126f7565b600460008673ffffffffffffffffffffffffffffffffffffffff1673ffffffffffffffffffffffffffffffffffffffff16815260200190815260200160002081905550600360019054906101000a900460ff161561212b578373ffffffffffffffffffffffffffffffffffffffff163373ffffffffffffffffffffffffffffffffffffffff167fe19260aff97b920c7df27010903aeb9c8d2be5d310a2c67824cf3f15396e4c1685856040518083815260200180602001828103825283818151815260200191508051906020019080838360005b838110156120ef5780820151818401526020810190506120d4565b50505050905090810190601f16801561211c5780820380516001836020036101000a031916815260200191505b50935050505060405180910390a35b600360029054906101000a900460ff16156121a6578373ffffffffffffffffffffffffffffffffffffffff163373ffffffffffffffffffffffffffffffffffffffff167fddf252ad1be2c89b69c2b068fc378daa952ba7f163c4a11628f55a4df523b3ef856040518082815260200191505060405180910390a35b600360009054906101000a900460ff161561228e578373ffffffffffffffffffffffffffffffffffffffff163373ffffffffffffffffffffffffffffffffffffffff167f9bfafdc2ae8835972d7b64ef3f8f307165ac22ceffde4a742c52da5487f45fd185856040518083815260200180602001828103825283818151815260200191508051906020019080838360005b83811015612252578082015181840152602081019050612237565b50505050905090810190601f16801561227f5780820380516001836020036101000a031916815260200191505b50935050505060405180910390a35b600190509392505050565b600080836122a633611167565b10156122b157600080fd5b6122c36122bd33611167565b856126dd565b600460003373ffffffffffffffffffffffffffffffffffffffff1673ffffffffffffffffffffffffffffffffffffffff1681526020019081526020016000208190555061231861231286611167565b856126f7565b600460008773ffffffffffffffffffffffffffffffffffffffff1673ffffffffffffffffffffffffffffffffffffffff168152602001908152602001600020819055508490508073ffffffffffffffffffffffffffffffffffffffff1663c0ee0b8a3386866040518463ffffffff167c0100000000000000000000000000000000000000000000000000000000028152600401808473ffffffffffffffffffffffffffffffffffffffff1673ffffffffffffffffffffffffffffffffffffffff16815260200183815260200180602001828103825283818151815260200191508051906020019080838360005b83811015612420578082015181840152602081019050612405565b50505050905090810190601f16801561244d5780820380516001836020036101000a031916815260200191505b50945050505050600060405180830381600087803b15801561246e57600080fd5b505af1158015612482573d6000803e3d6000fd5b50505050600360019054906101000a900460ff161561256e578473ffffffffffffffffffffffffffffffffffffffff163373ffffffffffffffffffffffffffffffffffffffff167fe19260aff97b920c7df27010903aeb9c8d2be5d310a2c67824cf3f15396e4c1686866040518083815260200180602001828103825283818151815260200191508051906020019080838360005b83811015612532578082015181840152602081019050612517565b50505050905090810190601f16801561255f5780820380516001836020036101000a031916815260200191505b50935050505060405180910390a35b600360029054906101000a900460ff16156125e9578473ffffffffffffffffffffffffffffffffffffffff163373ffffffffffffffffffffffffffffffffffffffff167fddf252ad1be2c89b69c2b068fc378daa952ba7f163c4a11628f55a4df523b3ef866040518082815260200191505060405180910390a35b600360009054906101000a900460ff16156126d1578473ffffffffffffffffffffffffffffffffffffffff163373ffffffffffffffffffffffffffffffffffffffff167f9bfafdc2ae8835972d7b64ef3f8f307165ac22ceffde4a742c52da5487f45fd186866040518083815260200180602001828103825283818151815260200191508051906020019080838360005b8381101561269557808201518184015260208101905061267a565b50505050905090810190601f1680156126c25780820380516001836020036101000a031916815260200191505b50935050505060405180910390a35b60019150509392505050565b6000818310156126ec57600080fd5b818303905092915050565b6000817fffffffffffffffffffffffffffffffffffffffffffffffffffffffffffffffff0383111561272857600080fd5b8183019050929150505600a165627a7a7230582031808af338f18faaf89917e9c411fcabbcb6a69b7f7d67af827e537375d5f3830029",
  "source": "pragma solidity ^0.4.9;\r\n\r\n /*\r\n * Contract that is working with ERC223 tokens\r\n */\r\n \r\ncontract ContractReceiver {\r\n    function tokenFallback(address _from, uint _value, bytes _data) public;\r\n} \r\n\r\n /**\r\n * ERC223 token by Dexaran\r\n *\r\n * https://github.com/Dexaran/ERC223-tokens\r\n */\r\n \r\n \r\n /* https://github.com/LykkeCity/EthereumApiDotNetCore/blob/master/src/ContractBuilder/contracts/token/SafeMath.sol */\r\ncontract SafeMath {\r\n    uint256 constant public MAX_UINT256 =\r\n    0xFFFFFFFFFFFFFFFFFFFFFFFFFFFFFFFFFFFFFFFFFFFFFFFFFFFFFFFFFFFFFFFF;\r\n\r\n    function safeAdd(uint256 x, uint256 y) constant internal returns (uint256 z) {\r\n        if (x > MAX_UINT256 - y) throw;\r\n        return x + y;\r\n    }\r\n\r\n    function safeSub(uint256 x, uint256 y) constant internal returns (uint256 z) {\r\n        if (x < y) throw;\r\n        return x - y;\r\n    }\r\n\r\n    function safeMul(uint256 x, uint256 y) constant internal returns (uint256 z) {\r\n        if (y == 0) return 0;\r\n        if (x > MAX_UINT256 / y) throw;\r\n        return x * y;\r\n    }\r\n}\r\n \r\ncontract Coinvest223 is SafeMath {\r\n    \r\n    address public maintainer;\r\n    address public icoContract; // icoContract is needed to allow it to transfer tokens during crowdsale.\r\n    uint256 public lockupEndTime; // lockupEndTime is needed to determine when users may start transferring.\r\n    \r\n    bool public ERC223Transfer_enabled = false;\r\n    bool public Transfer_data_enabled = false;\r\n    bool public Transfer_nodata_enabled = true;\r\n\r\n    event Transfer(address indexed from, address indexed to, uint value, bytes data);\r\n    event ERC223Transfer(address indexed from, address indexed to, uint value, bytes data);\r\n    event Transfer(address indexed from, address indexed to, uint value);\r\n    event Approval(address indexed _from, address indexed _spender, uint indexed _amount);\r\n\r\n    mapping(address => uint) balances;\r\n\r\n    // Owner of account approves the transfer of an amount to another account\r\n    mapping(address => mapping (address => uint256)) allowed;\r\n  \r\n\r\n    string public constant symbol = \"COIN\";\r\n    string public constant name = \"Coinvest COIN Token\";\r\n    \r\n    uint8 public constant decimals = 18;\r\n    uint256 public totalSupply = 107142857 * (10 ** 18);\r\n    \r\n    /**\r\n     * @dev Set owner and beginning balance.\r\n     * @param _lockupEndTime The time at which the token may be traded.\r\n    **/\r\n    function Coinvest223(uint256 _lockupEndTime)\r\n      public\r\n    {\r\n        balances[msg.sender] = totalSupply;\r\n        lockupEndTime = _lockupEndTime;\r\n        maintainer = msg.sender;\r\n    }\r\n  \r\n  \r\n    // Function that is called when a user or another contract wants to transfer funds .\r\n    function transfer(address _to, uint _value, bytes _data, string _custom_fallback) transferable returns (bool success) {\r\n      \r\n        if(isContract(_to)) {\r\n            if (balanceOf(msg.sender) < _value) throw;\r\n            balances[msg.sender] = safeSub(balanceOf(msg.sender), _value);\r\n            balances[_to] = safeAdd(balanceOf(_to), _value);\r\n            assert(_to.call.value(0)(bytes4(sha3(_custom_fallback)), msg.sender, _value, _data));\r\n            if(Transfer_data_enabled)\r\n            {\r\n                Transfer(msg.sender, _to, _value, _data);\r\n            }\r\n            if(Transfer_nodata_enabled)\r\n            {\r\n                Transfer(msg.sender, _to, _value);\r\n            }\r\n            if(ERC223Transfer_enabled)\r\n            {\r\n                ERC223Transfer(msg.sender, _to, _value, _data);\r\n            }\r\n            return true;\r\n        }\r\n        else {\r\n            return transferToAddress(_to, _value, _data);\r\n        }\r\n    }\r\n\r\n    function ERC20transfer(address _to, uint _value, bytes _data) transferable returns (bool success) {\r\n        bytes memory empty;\r\n        return transferToAddress(_to, _value, empty);\r\n    }\r\n\r\n    // Function that is called when a user or another contract wants to transfer funds .\r\n    function transfer(address _to, uint _value, bytes _data) transferable returns (bool success) {\r\n        if(isContract(_to)) {\r\n            return transferToContract(_to, _value, _data);\r\n        }\r\n        else {\r\n            return transferToAddress(_to, _value, _data);\r\n        }\r\n    }\r\n  \r\n    // Standard function transfer similar to ERC20 transfer with no _data .\r\n    // Added due to backwards compatibility reasons .\r\n    function transfer(address _to, uint _value) transferable returns (bool success) {\r\n      \r\n        //standard function transfer similar to ERC20 transfer with no _data\r\n        //added due to backwards compatibility reasons\r\n        bytes memory empty;\r\n        if(isContract(_to)) {\r\n            return transferToContract(_to, _value, empty);\r\n        }\r\n        else {\r\n            return transferToAddress(_to, _value, empty);\r\n        }\r\n    }\r\n\r\n    //assemble the given address bytecode. If bytecode exists then the _addr is a contract.\r\n    function isContract(address _addr) public returns (bool is_contract) {\r\n        uint length;\r\n        assembly {\r\n            //retrieve the size of the code on target address, this needs assembly\r\n            length := extcodesize(_addr)\r\n        }\r\n        return (length>0);\r\n    }\r\n\r\n    //function that is called when transaction target is an address\r\n    function transferToAddress(address _to, uint _value, bytes _data) private returns (bool success) {\r\n        if (balanceOf(msg.sender) < _value) throw;\r\n        balances[msg.sender] = safeSub(balanceOf(msg.sender), _value);\r\n        balances[_to] = safeAdd(balanceOf(_to), _value);\r\n        if(Transfer_data_enabled)\r\n        {\r\n            Transfer(msg.sender, _to, _value, _data);\r\n        }\r\n        if(Transfer_nodata_enabled)\r\n        {\r\n            Transfer(msg.sender, _to, _value);\r\n        }\r\n        if(ERC223Transfer_enabled)\r\n        {\r\n            ERC223Transfer(msg.sender, _to, _value, _data);\r\n        }\r\n        return true;\r\n    }\r\n  \r\n    //function that is called when transaction target is a contract\r\n    function transferToContract(address _to, uint _value, bytes _data) private returns (bool success) {\r\n        if (balanceOf(msg.sender) < _value) throw;\r\n        balances[msg.sender] = safeSub(balanceOf(msg.sender), _value);\r\n        balances[_to] = safeAdd(balanceOf(_to), _value);\r\n        ContractReceiver receiver = ContractReceiver(_to);\r\n        receiver.tokenFallback(msg.sender, _value, _data);\r\n        if(Transfer_data_enabled)\r\n        {\r\n            Transfer(msg.sender, _to, _value, _data);\r\n        }\r\n        if(Transfer_nodata_enabled)\r\n        {\r\n            Transfer(msg.sender, _to, _value);\r\n        }\r\n        if(ERC223Transfer_enabled)\r\n        {\r\n            ERC223Transfer(msg.sender, _to, _value, _data);\r\n        }\r\n        return true;\r\n    }\r\n\r\n\r\n    function balanceOf(address _owner) constant returns (uint balance) {\r\n        return balances[_owner];\r\n    }\r\n\r\n    /**\r\n     * @dev An allowed address can transfer tokens from another's address.\r\n     * @param _from The owner of the tokens to be transferred.\r\n     * @param _to The address to which the tokens will be transferred.\r\n     * @param _amount The amount of tokens to be transferred.\r\n    **/\r\n    function transferFrom(address _from, address _to, uint _amount)\r\n      external\r\n      transferable\r\n    returns (bool success)\r\n    {\r\n        require(balances[_from] >= _amount && allowed[_from][msg.sender] >= _amount);\r\n\r\n        allowed[_from][msg.sender] -= _amount;\r\n        balances[_from] -= _amount;\r\n        balances[_to] += _amount;\r\n        bytes memory empty;\r\n        \r\n        Transfer(_from, _to, _amount, empty);\r\n        return true;\r\n    }\r\n\r\n    /**\r\n     * @dev Approves a wallet to transfer tokens on one's behalf.\r\n     * @param _spender The wallet approved to spend tokens.\r\n     * @param _amount The amount of tokens approved to spend.\r\n    **/\r\n    function approve(address _spender, uint256 _amount) \r\n      external\r\n      transferable // Protect from unlikely maintainer-receiver trickery\r\n    {\r\n        require(balances[msg.sender] >= _amount);\r\n        \r\n        allowed[msg.sender][_spender] = _amount;\r\n        Approval(msg.sender, _spender, _amount);\r\n    }\r\n    \r\n    /**\r\n     * @dev Allow the owner to take ERC20 tokens off of this contract if they are accidentally sent.\r\n    **/\r\n    function token_escape(address _tokenContract)\r\n      external\r\n      only_maintainer\r\n    {\r\n        Coinvest223 lostToken = Coinvest223(_tokenContract);\r\n        \r\n        uint256 stuckTokens = lostToken.balanceOf(address(this));\r\n        lostToken.transfer(maintainer, stuckTokens);\r\n    }\r\n\r\n    /**\r\n     * @dev Allow maintainer to set the ico contract for transferable permissions.\r\n    **/\r\n    function setIcoContract(address _icoContract)\r\n      external\r\n      only_maintainer\r\n    {\r\n        require(icoContract == 0);\r\n        icoContract = _icoContract;\r\n    }\r\n\r\n    /**\r\n     * @dev Allowed amount for a user to spend of another's tokens.\r\n     * @param _owner The owner of the tokens approved to spend.\r\n     * @param _spender The address of the user allowed to spend the tokens.\r\n    **/\r\n    function allowance(address _owner, address _spender) \r\n      external\r\n      constant \r\n    returns (uint256) \r\n    {\r\n        return allowed[_owner][_spender];\r\n    }\r\n    \r\n    function adjust_ERC223Transfer(bool _value) only_maintainer\r\n    {\r\n        ERC223Transfer_enabled = _value;\r\n    }\r\n    \r\n    function adjust_Transfer_nodata(bool _value) only_maintainer\r\n    {\r\n        Transfer_nodata_enabled = _value;\r\n    }\r\n    \r\n    function adjust_Transfer_data(bool _value) only_maintainer\r\n    {\r\n        Transfer_data_enabled = _value;\r\n    }\r\n    \r\n    modifier only_maintainer\r\n    {\r\n        assert(msg.sender == maintainer);\r\n        _;\r\n    }\r\n    \r\n    /**\r\n     * @dev Allows the current maintainer to transfer maintenance of the contract to a new maintainer.\r\n     * @param newMaintainer The address to transfer ownership to.\r\n     */\r\n    function transferMaintainer(address newMaintainer) only_maintainer public {\r\n        require(newMaintainer != address(0));\r\n        maintainer = newMaintainer;\r\n    }\r\n    \r\n    modifier transferable\r\n    {\r\n        if (block.timestamp < lockupEndTime) {\r\n            require(msg.sender == maintainer || msg.sender == icoContract);\r\n        }\r\n        _;\r\n    }\r\n    \r\n}",
  "sourcePath": "/root/Coinvest2/contracts/Coinvest223.sol",
  "compiler": {
    "name": "solc",
    "version": "0.4.24+commit.e67f0147.Emscripten.clang"
  },
  "schemaVersion": "2.0.1",
  "updatedAt": "2018-09-25T16:58:13.046Z"
}