{
  "contractName": "Investment",
  "abi": [
    {
      "constant": true,
      "inputs": [],
      "name": "coinvest",
      "outputs": [
        {
          "name": "",
          "type": "address"
        }
      ],
      "payable": false,
      "stateMutability": "view",
      "type": "function"
    },
    {
      "constant": true,
      "inputs": [
        {
          "name": "",
          "type": "uint256"
        }
      ],
      "name": "cryptoSymbols",
      "outputs": [
        {
          "name": "",
          "type": "string"
        }
      ],
      "payable": false,
      "stateMutability": "view",
      "type": "function"
    },
    {
      "constant": true,
      "inputs": [],
      "name": "customGasPrice",
      "outputs": [
        {
          "name": "",
          "type": "uint256"
        }
      ],
      "payable": false,
      "stateMutability": "view",
      "type": "function"
    },
    {
      "constant": true,
      "inputs": [],
      "name": "coinToken",
      "outputs": [
        {
          "name": "",
          "type": "address"
        }
      ],
      "payable": false,
      "stateMutability": "view",
      "type": "function"
    },
    {
      "constant": true,
      "inputs": [],
      "name": "bank",
      "outputs": [
        {
          "name": "",
          "type": "address"
        }
      ],
      "payable": false,
      "stateMutability": "view",
      "type": "function"
    },
    {
      "constant": true,
      "inputs": [],
      "name": "owner",
      "outputs": [
        {
          "name": "",
          "type": "address"
        }
      ],
      "payable": false,
      "stateMutability": "view",
      "type": "function"
    },
    {
      "constant": true,
      "inputs": [
        {
          "name": "",
          "type": "uint256"
        }
      ],
      "name": "isInverse",
      "outputs": [
        {
          "name": "",
          "type": "bool"
        }
      ],
      "payable": false,
      "stateMutability": "view",
      "type": "function"
    },
    {
      "constant": true,
      "inputs": [],
      "name": "cashToken",
      "outputs": [
        {
          "name": "",
          "type": "address"
        }
      ],
      "payable": false,
      "stateMutability": "view",
      "type": "function"
    },
    {
      "constant": true,
      "inputs": [],
      "name": "userData",
      "outputs": [
        {
          "name": "",
          "type": "address"
        }
      ],
      "payable": false,
      "stateMutability": "view",
      "type": "function"
    },
    {
      "constant": true,
      "inputs": [
        {
          "name": "",
          "type": "uint256"
        }
      ],
      "name": "tiedInverse",
      "outputs": [
        {
          "name": "",
          "type": "uint256"
        }
      ],
      "payable": false,
      "stateMutability": "view",
      "type": "function"
    },
    {
      "constant": true,
      "inputs": [
        {
          "name": "",
          "type": "address"
        }
      ],
      "name": "freeTrades",
      "outputs": [
        {
          "name": "",
          "type": "uint256"
        }
      ],
      "payable": false,
      "stateMutability": "view",
      "type": "function"
    },
    {
      "constant": false,
      "inputs": [
        {
          "name": "_newCoinvest",
          "type": "address"
        }
      ],
      "name": "transferCoinvest",
      "outputs": [],
      "payable": false,
      "stateMutability": "nonpayable",
      "type": "function"
    },
    {
      "constant": true,
      "inputs": [],
      "name": "marketUrl",
      "outputs": [
        {
          "name": "",
          "type": "string"
        }
      ],
      "payable": false,
      "stateMutability": "view",
      "type": "function"
    },
    {
      "constant": false,
      "inputs": [
        {
          "name": "newOwner",
          "type": "address"
        }
      ],
      "name": "transferOwnership",
      "outputs": [],
      "payable": false,
      "stateMutability": "nonpayable",
      "type": "function"
    },
    {
      "inputs": [
        {
          "name": "_coinToken",
          "type": "address"
        },
        {
          "name": "_cashToken",
          "type": "address"
        },
        {
          "name": "_bank",
          "type": "address"
        },
        {
          "name": "_userData",
          "type": "address"
        }
      ],
      "payable": true,
      "stateMutability": "payable",
      "type": "constructor"
    },
    {
      "payable": true,
      "stateMutability": "payable",
      "type": "fallback"
    },
    {
      "anonymous": false,
      "inputs": [
        {
          "indexed": false,
          "name": "description",
          "type": "string"
        }
      ],
      "name": "newOraclizeQuery",
      "type": "event"
    },
    {
      "anonymous": false,
      "inputs": [
        {
          "indexed": true,
          "name": "buyer",
          "type": "address"
        },
        {
          "indexed": false,
          "name": "cryptoIds",
          "type": "uint256[]"
        },
        {
          "indexed": false,
          "name": "amounts",
          "type": "uint256[]"
        },
        {
          "indexed": false,
          "name": "prices",
          "type": "uint256[]"
        },
        {
          "indexed": false,
          "name": "isCoin",
          "type": "bool"
        }
      ],
      "name": "Buy",
      "type": "event"
    },
    {
      "anonymous": false,
      "inputs": [
        {
          "indexed": true,
          "name": "seller",
          "type": "address"
        },
        {
          "indexed": false,
          "name": "cryptoIds",
          "type": "uint256[]"
        },
        {
          "indexed": false,
          "name": "amounts",
          "type": "uint256[]"
        },
        {
          "indexed": false,
          "name": "prices",
          "type": "uint256[]"
        },
        {
          "indexed": false,
          "name": "isCoin",
          "type": "bool"
        }
      ],
      "name": "Sell",
      "type": "event"
    },
    {
      "anonymous": false,
      "inputs": [
        {
          "indexed": true,
          "name": "previousOwner",
          "type": "address"
        },
        {
          "indexed": true,
          "name": "newOwner",
          "type": "address"
        }
      ],
      "name": "OwnershipTransferred",
      "type": "event"
    },
    {
      "constant": false,
      "inputs": [
        {
          "name": "_from",
          "type": "address"
        },
        {
          "name": "_amount",
          "type": "uint256"
        },
        {
          "name": "_token",
          "type": "address"
        },
        {
          "name": "_data",
          "type": "bytes"
        }
      ],
      "name": "receiveApproval",
      "outputs": [],
      "payable": false,
      "stateMutability": "nonpayable",
      "type": "function"
    },
    {
      "constant": false,
      "inputs": [
        {
          "name": "_beneficiary",
          "type": "address"
        },
        {
          "name": "_cryptoIds",
          "type": "uint256[]"
        },
        {
          "name": "_amounts",
          "type": "uint256[]"
        },
        {
          "name": "_isCoin",
          "type": "bool"
        }
      ],
      "name": "buy",
      "outputs": [
        {
          "name": "success",
          "type": "bool"
        }
      ],
      "payable": false,
      "stateMutability": "nonpayable",
      "type": "function"
    },
    {
      "constant": false,
      "inputs": [
        {
          "name": "_beneficiary",
          "type": "address"
        },
        {
          "name": "_cryptoIds",
          "type": "uint256[]"
        },
        {
          "name": "_amounts",
          "type": "uint256[]"
        },
        {
          "name": "_isCoin",
          "type": "bool"
        }
      ],
      "name": "sell",
      "outputs": [
        {
          "name": "success",
          "type": "bool"
        }
      ],
      "payable": false,
      "stateMutability": "nonpayable",
      "type": "function"
    },
    {
      "constant": false,
      "inputs": [
        {
          "name": "_id",
          "type": "uint256"
        },
        {
          "name": "_symbol",
          "type": "string"
        },
        {
          "name": "_inverse",
          "type": "uint256"
        },
        {
          "name": "_isInverse",
          "type": "bool"
        }
      ],
      "name": "addCryptos",
      "outputs": [
        {
          "name": "success",
          "type": "bool"
        }
      ],
      "payable": false,
      "stateMutability": "nonpayable",
      "type": "function"
    },
    {
      "constant": false,
      "inputs": [
        {
          "name": "_users",
          "type": "address[]"
        },
        {
          "name": "_trades",
          "type": "uint256[]"
        }
      ],
      "name": "addTrades",
      "outputs": [],
      "payable": false,
      "stateMutability": "nonpayable",
      "type": "function"
    },
    {
      "constant": false,
      "inputs": [
        {
          "name": "_newUrl",
          "type": "string"
        }
      ],
      "name": "changeMarketUrl",
      "outputs": [
        {
          "name": "success",
          "type": "bool"
        }
      ],
      "payable": false,
      "stateMutability": "nonpayable",
      "type": "function"
    },
    {
      "constant": false,
      "inputs": [
        {
          "name": "_coinToken",
          "type": "address"
        },
        {
          "name": "_cashToken",
          "type": "address"
        },
        {
          "name": "_bank",
          "type": "address"
        },
        {
          "name": "_userData",
          "type": "address"
        }
      ],
      "name": "changeContracts",
      "outputs": [
        {
          "name": "success",
          "type": "bool"
        }
      ],
      "payable": false,
      "stateMutability": "nonpayable",
      "type": "function"
    },
    {
      "constant": false,
      "inputs": [
        {
          "name": "myid",
          "type": "bytes32"
        },
        {
          "name": "result",
          "type": "string"
        },
        {
          "name": "proof",
          "type": "bytes"
        }
      ],
      "name": "__callback",
      "outputs": [],
      "payable": false,
      "stateMutability": "nonpayable",
      "type": "function"
    },
    {
      "constant": false,
      "inputs": [
        {
          "name": "_newGasPrice",
          "type": "uint256"
        }
      ],
      "name": "changeGas",
      "outputs": [
        {
          "name": "success",
          "type": "bool"
        }
      ],
      "payable": false,
      "stateMutability": "nonpayable",
      "type": "function"
    },
    {
      "constant": false,
      "inputs": [
        {
          "name": "_tokenContract",
          "type": "address"
        },
        {
          "name": "_amount",
          "type": "uint256"
        }
      ],
      "name": "tokenEscape",
      "outputs": [],
      "payable": false,
      "stateMutability": "nonpayable",
      "type": "function"
    }
  ],
  "bytecode": "0x6080604052604051608080620048ce83398101806040528101908080519060200190929190805190602001909291908051906020019092919080519060200190929190505050336000806101000a81548173ffffffffffffffffffffffffffffffffffffffff021916908373ffffffffffffffffffffffffffffffffffffffff16021790555033600160006101000a81548173ffffffffffffffffffffffffffffffffffffffff021916908373ffffffffffffffffffffffffffffffffffffffff16021790555083600460006101000a81548173ffffffffffffffffffffffffffffffffffffffff021916908373ffffffffffffffffffffffffffffffffffffffff16021790555082600560006101000a81548173ffffffffffffffffffffffffffffffffffffffff021916908373ffffffffffffffffffffffffffffffffffffffff16021790555081600260006101000a81548173ffffffffffffffffffffffffffffffffffffffff021916908373ffffffffffffffffffffffffffffffffffffffff16021790555080600360006101000a81548173ffffffffffffffffffffffffffffffffffffffff021916908373ffffffffffffffffffffffffffffffffffffffff160217905550606060405190810160405280603d81526020017f68747470733a2f2f6d696e2d6170692e63727970746f636f6d706172652e636f81526020017f6d2f646174612f70726963656d756c74693f6673796d733d434f494e2c000000815250600790805190602001906200023e929190620009e1565b506200029360006040805190810160405280600481526020017f434f494e000000000000000000000000000000000000000000000000000000008152506000806200090a640100000000026401000000009004565b50620002e960016040805190810160405280600381526020017f4254430000000000000000000000000000000000000000000000000000000000815250600b60006200090a640100000000026401000000009004565b506200033f60026040805190810160405280600381526020017f4554480000000000000000000000000000000000000000000000000000000000815250600c60006200090a640100000000026401000000009004565b506200039560036040805190810160405280600381526020017f5852500000000000000000000000000000000000000000000000000000000000815250600d60006200090a640100000000026401000000009004565b50620003eb60046040805190810160405280600381526020017f4c54430000000000000000000000000000000000000000000000000000000000815250600e60006200090a640100000000026401000000009004565b506200044160056040805190810160405280600481526020017f4441534800000000000000000000000000000000000000000000000000000000815250600f60006200090a640100000000026401000000009004565b506200049760066040805190810160405280600381526020017f4243480000000000000000000000000000000000000000000000000000000000815250601060006200090a640100000000026401000000009004565b50620004ed60076040805190810160405280600381526020017f584d520000000000000000000000000000000000000000000000000000000000815250601160006200090a640100000000026401000000009004565b506200054360086040805190810160405280600381526020017f58454d0000000000000000000000000000000000000000000000000000000000815250601260006200090a640100000000026401000000009004565b506200059960096040805190810160405280600381526020017f454f530000000000000000000000000000000000000000000000000000000000815250601360006200090a640100000000026401000000009004565b50620005ee600a6040805190810160405280600481526020017f43415348000000000000000000000000000000000000000000000000000000008152506000806200090a640100000000026401000000009004565b5062000643600b6040805190810160405280600381526020017f42544300000000000000000000000000000000000000000000000000000000008152506001806200090a640100000000026401000000009004565b5062000699600c6040805190810160405280600381526020017f4554480000000000000000000000000000000000000000000000000000000000815250600260016200090a640100000000026401000000009004565b50620006ef600d6040805190810160405280600381526020017f5852500000000000000000000000000000000000000000000000000000000000815250600360016200090a640100000000026401000000009004565b5062000745600e6040805190810160405280600381526020017f4c54430000000000000000000000000000000000000000000000000000000000815250600460016200090a640100000000026401000000009004565b506200079b600f6040805190810160405280600481526020017f4441534800000000000000000000000000000000000000000000000000000000815250600560016200090a640100000000026401000000009004565b50620007f160106040805190810160405280600381526020017f4243480000000000000000000000000000000000000000000000000000000000815250600660016200090a640100000000026401000000009004565b506200084760116040805190810160405280600381526020017f584d520000000000000000000000000000000000000000000000000000000000815250600760016200090a640100000000026401000000009004565b506200089d60126040805190810160405280600381526020017f58454d0000000000000000000000000000000000000000000000000000000000815250600860016200090a640100000000026401000000009004565b50620008f360136040805190810160405280600381526020017f454f530000000000000000000000000000000000000000000000000000000000815250600960016200090a640100000000026401000000009004565b506404a817c8006006819055505050505062000a90565b60008060009054906101000a900473ffffffffffffffffffffffffffffffffffffffff1673ffffffffffffffffffffffffffffffffffffffff163373ffffffffffffffffffffffffffffffffffffffff161415156200096857600080fd5b8360096000878152602001908152602001600020908051906020019062000991929190620009e1565b5082600a60008781526020019081526020016000208190555081600b600087815260200190815260200160002060006101000a81548160ff02191690831515021790555060019050949350505050565b828054600181600116156101000203166002900490600052602060002090601f016020900481019282601f1062000a2457805160ff191683800117855562000a55565b8280016001018555821562000a55579182015b8281111562000a5457825182559160200191906001019062000a37565b5b50905062000a64919062000a68565b5090565b62000a8d91905b8082111562000a8957600081600090555060010162000a6f565b5090565b90565b613e2e8062000aa06000396000f30060806040526004361061013e576000357c0100000000000000000000000000000000000000000000000000000000900463ffffffff1680630958a9f3146101405780631833a5481461019757806338bbfa50146101dc57806349c38b0a146102995780634b0720a71461033f57806358797cb61461036a57806362e6a440146103c157806368e09ab51461041457806376cdb03b146104615780638da5cb5b146104b85780638f4ffcb11461050f57806393911ff8146105c257806397ac4e501461061557806398b6db14146106b6578063a7224687146106fb578063bea6998f14610752578063c0eb2e70146107a9578063c118453714610896578063ca1d4a5e14610951578063cca7322814610992578063dfb6c468146109e9578063e06572ec14610a2c578063ec33073714610b19578063f2fde38b14610ba9575b005b34801561014c57600080fd5b50610155610bec565b604051808273ffffffffffffffffffffffffffffffffffffffff1673ffffffffffffffffffffffffffffffffffffffff16815260200191505060405180910390f35b3480156101a357600080fd5b506101c260048036038101908080359060200190929190505050610c12565b604051808215151515815260200191505060405180910390f35b3480156101e857600080fd5b506102976004803603810190808035600019169060200190929190803590602001908201803590602001908080601f0160208091040260200160405190810160405280939291908181526020018383808284378201915050505050509192919290803590602001908201803590602001908080601f0160208091040260200160405190810160405280939291908181526020018383808284378201915050505050509192919290505050610c7f565b005b3480156102a557600080fd5b506102c460048036038101908080359060200190929190505050610e35565b6040518080602001828103825283818151815260200191508051906020019080838360005b838110156103045780820151818401526020810190506102e9565b50505050905090810190601f1680156103315780820380516001836020036101000a031916815260200191505b509250505060405180910390f35b34801561034b57600080fd5b50610354610ee5565b6040518082815260200191505060405180910390f35b34801561037657600080fd5b5061037f610eeb565b604051808273ffffffffffffffffffffffffffffffffffffffff1673ffffffffffffffffffffffffffffffffffffffff16815260200191505060405180910390f35b3480156103cd57600080fd5b506103fa600480360381019080803590602001908201803590602001919091929391929390505050610f11565b604051808215151515815260200191505060405180910390f35b34801561042057600080fd5b5061045f600480360381019080803573ffffffffffffffffffffffffffffffffffffffff16906020019092919080359060200190929190505050610f8a565b005b34801561046d57600080fd5b5061047661126f565b604051808273ffffffffffffffffffffffffffffffffffffffff1673ffffffffffffffffffffffffffffffffffffffff16815260200191505060405180910390f35b3480156104c457600080fd5b506104cd611295565b604051808273ffffffffffffffffffffffffffffffffffffffff1673ffffffffffffffffffffffffffffffffffffffff16815260200191505060405180910390f35b34801561051b57600080fd5b506105c0600480360381019080803573ffffffffffffffffffffffffffffffffffffffff16906020019092919080359060200190929190803573ffffffffffffffffffffffffffffffffffffffff169060200190929190803590602001908201803590602001908080601f01602080910402602001604051908101604052809392919081815260200183838082843782019150505050505091929192905050506112ba565b005b3480156105ce57600080fd5b50610613600480360381019080803590602001908201803590602001919091929391929390803590602001908201803590602001919091929391929390505050611448565b005b34801561062157600080fd5b5061069c60048036038101908080359060200190929190803590602001908201803590602001908080601f0160208091040260200160405190810160405280939291908181526020018383808284378201915050505050509192919290803590602001909291908035151590602001909291905050506115db565b604051808215151515815260200191505060405180910390f35b3480156106c257600080fd5b506106e1600480360381019080803590602001909291905050506116af565b604051808215151515815260200191505060405180910390f35b34801561070757600080fd5b506107106116cf565b604051808273ffffffffffffffffffffffffffffffffffffffff1673ffffffffffffffffffffffffffffffffffffffff16815260200191505060405180910390f35b34801561075e57600080fd5b506107676116f5565b604051808273ffffffffffffffffffffffffffffffffffffffff1673ffffffffffffffffffffffffffffffffffffffff16815260200191505060405180910390f35b3480156107b557600080fd5b5061087c600480360381019080803573ffffffffffffffffffffffffffffffffffffffff169060200190929190803590602001908201803590602001908080602002602001604051908101604052809392919081815260200183836020028082843782019150505050505091929192908035906020019082018035906020019080806020026020016040519081016040528093929190818152602001838360200280828437820191505050505050919291929080351515906020019092919050505061171b565b604051808215151515815260200191505060405180910390f35b3480156108a257600080fd5b50610937600480360381019080803573ffffffffffffffffffffffffffffffffffffffff169060200190929190803573ffffffffffffffffffffffffffffffffffffffff169060200190929190803573ffffffffffffffffffffffffffffffffffffffff169060200190929190803573ffffffffffffffffffffffffffffffffffffffff16906020019092919050505061183e565b604051808215151515815260200191505060405180910390f35b34801561095d57600080fd5b5061097c600480360381019080803590602001909291905050506119ab565b6040518082815260200191505060405180910390f35b34801561099e57600080fd5b506109d3600480360381019080803573ffffffffffffffffffffffffffffffffffffffff1690602001909291905050506119c3565b6040518082815260200191505060405180910390f35b3480156109f557600080fd5b50610a2a600480360381019080803573ffffffffffffffffffffffffffffffffffffffff1690602001909291905050506119db565b005b348015610a3857600080fd5b50610aff600480360381019080803573ffffffffffffffffffffffffffffffffffffffff1690602001909291908035906020019082018035906020019080806020026020016040519081016040528093929190818152602001838360200280828437820191505050505050919291929080359060200190820180359060200190808060200260200160405190810160405280939291908181526020018383602002808284378201915050505050509192919290803515159060200190929190505050611ab7565b604051808215151515815260200191505060405180910390f35b348015610b2557600080fd5b50610b2e611bda565b6040518080602001828103825283818151815260200191508051906020019080838360005b83811015610b6e578082015181840152602081019050610b53565b50505050905090810190601f168015610b9b5780820380516001836020036101000a031916815260200191505b509250505060405180910390f35b348015610bb557600080fd5b50610bea600480360381019080803573ffffffffffffffffffffffffffffffffffffffff169060200190929190505050611c78565b005b600160009054906101000a900473ffffffffffffffffffffffffffffffffffffffff1681565b60008060009054906101000a900473ffffffffffffffffffffffffffffffffffffffff1673ffffffffffffffffffffffffffffffffffffffff163373ffffffffffffffffffffffffffffffffffffffff16141515610c6f57600080fd5b8160068190555060019050919050565b610c87613c33565b606080606080600080600060606000600860008e600019166000191681526020019081526020016000206080604051908101604052908160008201805480602002602001604051908101604052809291908181526020018280548015610d0c57602002820191906000526020600020905b815481526020019060010190808311610cf8575b505050505081526020016001820160009054906101000a900473ffffffffffffffffffffffffffffffffffffffff1673ffffffffffffffffffffffffffffffffffffffff1673ffffffffffffffffffffffffffffffffffffffff1681526020016001820160149054906101000a900460ff161515151581526020016001820160159054906101000a900460ff1615151515815250509950610db08a60000151611dcd565b98509850889650879550896020015194508960400151935089606001519250610dd9878d611ef8565b9150610de68683856121eb565b90508315610e0c57610dfc858888858588612293565b1515610e0757600080fd5b610e26565b610e1a858888858588612ad9565b1515610e2557600080fd5b5b50505050505050505050505050565b60096020528060005260406000206000915090508054600181600116156101000203166002900480601f016020809104026020016040519081016040528092919081815260200182805460018160011615610100020316600290048015610edd5780601f10610eb257610100808354040283529160200191610edd565b820191906000526020600020905b815481529060010190602001808311610ec057829003601f168201915b505050505081565b60065481565b600460009054906101000a900473ffffffffffffffffffffffffffffffffffffffff1681565b60008060009054906101000a900473ffffffffffffffffffffffffffffffffffffffff1673ffffffffffffffffffffffffffffffffffffffff163373ffffffffffffffffffffffffffffffffffffffff16141515610f6e57600080fd5b828260079190610f7f929190613c76565b506001905092915050565b600080600160009054906101000a900473ffffffffffffffffffffffffffffffffffffffff1673ffffffffffffffffffffffffffffffffffffffff163373ffffffffffffffffffffffffffffffffffffffff16141515610fe957600080fd5b600073ffffffffffffffffffffffffffffffffffffffff168473ffffffffffffffffffffffffffffffffffffffff16141561108c57600160009054906101000a900473ffffffffffffffffffffffffffffffffffffffff1673ffffffffffffffffffffffffffffffffffffffff166108fc849081150290604051600060405180830381858888f19350505050158015611086573d6000803e3d6000fd5b50611269565b8391508173ffffffffffffffffffffffffffffffffffffffff166370a08231306040518263ffffffff167c0100000000000000000000000000000000000000000000000000000000028152600401808273ffffffffffffffffffffffffffffffffffffffff1673ffffffffffffffffffffffffffffffffffffffff168152602001915050602060405180830381600087803b15801561112a57600080fd5b505af115801561113e573d6000803e3d6000fd5b505050506040513d602081101561115457600080fd5b810190808051906020019092919050505090508173ffffffffffffffffffffffffffffffffffffffff1663a9059cbb600160009054906101000a900473ffffffffffffffffffffffffffffffffffffffff16836040518363ffffffff167c0100000000000000000000000000000000000000000000000000000000028152600401808373ffffffffffffffffffffffffffffffffffffffff1673ffffffffffffffffffffffffffffffffffffffff16815260200182815260200192505050602060405180830381600087803b15801561122c57600080fd5b505af1158015611240573d6000803e3d6000fd5b505050506040513d602081101561125657600080fd5b8101908080519060200190929190505050505b50505050565b600260009054906101000a900473ffffffffffffffffffffffffffffffffffffffff1681565b6000809054906101000a900473ffffffffffffffffffffffffffffffffffffffff1681565b6000600460009054906101000a900473ffffffffffffffffffffffffffffffffffffffff1673ffffffffffffffffffffffffffffffffffffffff163373ffffffffffffffffffffffffffffffffffffffff1614806113655750600560009054906101000a900473ffffffffffffffffffffffffffffffffffffffff1673ffffffffffffffffffffffffffffffffffffffff163373ffffffffffffffffffffffffffffffffffffffff16145b151561137057600080fd5b602482015190508073ffffffffffffffffffffffffffffffffffffffff168573ffffffffffffffffffffffffffffffffffffffff161415156113b157600080fd5b3073ffffffffffffffffffffffffffffffffffffffff168260405180828051906020019080838360005b838110156113f65780820151818401526020810190506113db565b50505050905090810190601f1680156114235780820380516001836020036101000a031916815260200191505b50915050600060405180830381855af4915050151561144157600080fd5b5050505050565b6000600160009054906101000a900473ffffffffffffffffffffffffffffffffffffffff1673ffffffffffffffffffffffffffffffffffffffff163373ffffffffffffffffffffffffffffffffffffffff161415156114a657600080fd5b82829050858590501415156114ba57600080fd5b600090505b848490508110156115d45761155a83838381811015156114db57fe5b90506020020135600c600088888681811015156114f457fe5b9050602002013573ffffffffffffffffffffffffffffffffffffffff1673ffffffffffffffffffffffffffffffffffffffff1673ffffffffffffffffffffffffffffffffffffffff1681526020019081526020016000205461314790919063ffffffff16565b600c6000878785818110151561156c57fe5b9050602002013573ffffffffffffffffffffffffffffffffffffffff1673ffffffffffffffffffffffffffffffffffffffff1673ffffffffffffffffffffffffffffffffffffffff1681526020019081526020016000208190555080806001019150506114bf565b5050505050565b60008060009054906101000a900473ffffffffffffffffffffffffffffffffffffffff1673ffffffffffffffffffffffffffffffffffffffff163373ffffffffffffffffffffffffffffffffffffffff1614151561163857600080fd5b8360096000878152602001908152602001600020908051906020019061165f929190613cf6565b5082600a60008781526020019081526020016000208190555081600b600087815260200190815260200160002060006101000a81548160ff02191690831515021790555060019050949350505050565b600b6020528060005260406000206000915054906101000a900460ff1681565b600560009054906101000a900473ffffffffffffffffffffffffffffffffffffffff1681565b600360009054906101000a900473ffffffffffffffffffffffffffffffffffffffff1681565b6000848073ffffffffffffffffffffffffffffffffffffffff163373ffffffffffffffffffffffffffffffffffffffff1614806117a55750600460009054906101000a900473ffffffffffffffffffffffffffffffffffffffff1673ffffffffffffffffffffffffffffffffffffffff163373ffffffffffffffffffffffffffffffffffffffff16145b806117fd5750600560009054906101000a900473ffffffffffffffffffffffffffffffffffffffff1673ffffffffffffffffffffffffffffffffffffffff163373ffffffffffffffffffffffffffffffffffffffff16145b151561180857600080fd5b8351855114151561181857600080fd5b611826868686866001613165565b151561183157600080fd5b6001915050949350505050565b60008060009054906101000a900473ffffffffffffffffffffffffffffffffffffffff1673ffffffffffffffffffffffffffffffffffffffff163373ffffffffffffffffffffffffffffffffffffffff1614151561189b57600080fd5b84600460006101000a81548173ffffffffffffffffffffffffffffffffffffffff021916908373ffffffffffffffffffffffffffffffffffffffff16021790555083600560006101000a81548173ffffffffffffffffffffffffffffffffffffffff021916908373ffffffffffffffffffffffffffffffffffffffff16021790555082600260006101000a81548173ffffffffffffffffffffffffffffffffffffffff021916908373ffffffffffffffffffffffffffffffffffffffff16021790555081600360006101000a81548173ffffffffffffffffffffffffffffffffffffffff021916908373ffffffffffffffffffffffffffffffffffffffff16021790555060019050949350505050565b600a6020528060005260406000206000915090505481565b600c6020528060005260406000206000915090505481565b600160009054906101000a900473ffffffffffffffffffffffffffffffffffffffff1673ffffffffffffffffffffffffffffffffffffffff163373ffffffffffffffffffffffffffffffffffffffff16141515611a3757600080fd5b600073ffffffffffffffffffffffffffffffffffffffff168173ffffffffffffffffffffffffffffffffffffffff1614151515611a7357600080fd5b80600160006101000a81548173ffffffffffffffffffffffffffffffffffffffff021916908373ffffffffffffffffffffffffffffffffffffffff16021790555050565b6000848073ffffffffffffffffffffffffffffffffffffffff163373ffffffffffffffffffffffffffffffffffffffff161480611b415750600460009054906101000a900473ffffffffffffffffffffffffffffffffffffffff1673ffffffffffffffffffffffffffffffffffffffff163373ffffffffffffffffffffffffffffffffffffffff16145b80611b995750600560009054906101000a900473ffffffffffffffffffffffffffffffffffffffff1673ffffffffffffffffffffffffffffffffffffffff163373ffffffffffffffffffffffffffffffffffffffff16145b1515611ba457600080fd5b83518551141515611bb457600080fd5b611bc2868686866000613165565b1515611bcd57600080fd5b6001915050949350505050565b60078054600181600116156101000203166002900480601f016020809104026020016040519081016040528092919081815260200182805460018160011615610100020316600290048015611c705780601f10611c4557610100808354040283529160200191611c70565b820191906000526020600020905b815481529060010190602001808311611c5357829003601f168201915b505050505081565b6000809054906101000a900473ffffffffffffffffffffffffffffffffffffffff1673ffffffffffffffffffffffffffffffffffffffff163373ffffffffffffffffffffffffffffffffffffffff16141515611cd357600080fd5b600073ffffffffffffffffffffffffffffffffffffffff168173ffffffffffffffffffffffffffffffffffffffff1614151515611d0f57600080fd5b8073ffffffffffffffffffffffffffffffffffffffff166000809054906101000a900473ffffffffffffffffffffffffffffffffffffffff1673ffffffffffffffffffffffffffffffffffffffff167f8be0079c531659141344cd1fd0a4f28419497f9722a3daafe3b4186f6b6457e060405160405180910390a3806000806101000a81548173ffffffffffffffffffffffffffffffffffffffff021916908373ffffffffffffffffffffffffffffffffffffffff16021790555050565b60608060608060008551604051908082528060200260200182016040528015611e055781602001602082028038833980820191505090505b5092508551604051908082528060200260200182016040528015611e385781602001602082028038833980820191505090505b509150600090505b8551811015611eea578581815181101515611e5757fe5b9060200190602002015160ff168382815181101515611e7257fe5b906020019060200201818152505060088682815181101515611e9057fe5b906020019060200201519060020a90047effffffffffffffffffffffffffffffffffffffffffffffffffffffffffffff168282815181101515611ecf57fe5b90602001906020020181815250508080600101915050611e40565b828294509450505050915091565b6060611f02613d76565b611f0a613d76565b6060806060600080600060606000611f218c613293565b9950611f616040805190810160405280600381526020017f5553440000000000000000000000000000000000000000000000000000000000815250613293565b9850611f7e611f798a8c6132c190919063ffffffff16565b6132db565b975060018d5101604051908082528060200260200182016040528015611fb35781602001602082028038833980820191505090505b509650611fd1611fcc8a8c6132c190919063ffffffff16565b6132db565b9550611fde86601261333d565b876000815181101515611fed57fe5b9060200190602002018181525050600094505b8c518510156121d857600a600086815260200190815260200160002054935060008411156120c957600092505b8c518310156120c85784831415612043576120c8565b838d8481518110151561205257fe5b9060200190602002015114156120bb57866001840181518110151561207357fe5b906020019060200201516ec097ce7bc90715b34b9f100000000081151561209657fe5b0487600187018151811015156120a857fe5b90602001906020020181815250506120c8565b828060010193505061202d565b5b600087600187018151811015156120dc57fe5b9060200190602002015114156121cb576121076121028a8c6132c190919063ffffffff16565b6132db565b915061211482601261333d565b905060008111801561215b5750600b60008e8781518110151561213357fe5b90602001906020020151815260200190815260200160002060009054906101000a900460ff16155b156121855780876001870181518110151561217257fe5b90602001906020020181815250506121ca565b60008111156121c957806ec097ce7bc90715b34b9f10000000008115156121a857fe5b0487600187018151811015156121ba57fe5b90602001906020020181815250505b5b5b8480600101955050612000565b869a505050505050505050505092915050565b600080600090505b845181101561228b5761227c61226d85600081518110151561221157fe5b9060200190602002015161225f888581518110151561222c57fe5b90602001906020020151886001870181518110151561224757fe5b9060200190602002015161363190919063ffffffff16565b61366490919063ffffffff16565b8361314790919063ffffffff16565b915080806001019150506121f3565b509392505050565b600080600083156122c857600460009054906101000a900473ffffffffffffffffffffffffffffffffffffffff1691506122ee565b600560009054906101000a900473ffffffffffffffffffffffffffffffffffffffff1691505b8560008151811015156122fd57fe5b906020019060200201516f03c109feac3f9bac48ec8cec0000000081151561232157fe5b0490506000600c60008b73ffffffffffffffffffffffffffffffffffffffff1673ffffffffffffffffffffffffffffffffffffffff168152602001908152602001600020541115612407576123bf6001600c60008c73ffffffffffffffffffffffffffffffffffffffff1673ffffffffffffffffffffffffffffffffffffffff1681526020019081526020016000205461367f90919063ffffffff16565b600c60008b73ffffffffffffffffffffffffffffffffffffffff1673ffffffffffffffffffffffffffffffffffffffff16815260200190815260200160002081905550612547565b8173ffffffffffffffffffffffffffffffffffffffff166323b872dd8a600160009054906101000a900473ffffffffffffffffffffffffffffffffffffffff16846040518463ffffffff167c0100000000000000000000000000000000000000000000000000000000028152600401808473ffffffffffffffffffffffffffffffffffffffff1673ffffffffffffffffffffffffffffffffffffffff1681526020018373ffffffffffffffffffffffffffffffffffffffff1673ffffffffffffffffffffffffffffffffffffffff1681526020018281526020019350505050602060405180830381600087803b15801561250057600080fd5b505af1158015612514573d6000803e3d6000fd5b505050506040513d602081101561252a57600080fd5b8101908080519060200190929190505050151561254657600080fd5b5b8173ffffffffffffffffffffffffffffffffffffffff166323b872dd8a600260009054906101000a900473ffffffffffffffffffffffffffffffffffffffff16886040518463ffffffff167c0100000000000000000000000000000000000000000000000000000000028152600401808473ffffffffffffffffffffffffffffffffffffffff1673ffffffffffffffffffffffffffffffffffffffff1681526020018373ffffffffffffffffffffffffffffffffffffffff1673ffffffffffffffffffffffffffffffffffffffff1681526020018281526020019350505050602060405180830381600087803b15801561264057600080fd5b505af1158015612654573d6000803e3d6000fd5b505050506040513d602081101561266a57600080fd5b8101908080519060200190929190505050151561268657600080fd5b600088600081518110151561269757fe5b9060200190602002015114806126c55750600a8860008151811015156126b957fe5b90602001906020020151145b156127fa57600260009054906101000a900473ffffffffffffffffffffffffffffffffffffffff1673ffffffffffffffffffffffffffffffffffffffff1663e1ad11628a89600081518110151561271857fe5b90602001906020020151876040518463ffffffff167c0100000000000000000000000000000000000000000000000000000000028152600401808473ffffffffffffffffffffffffffffffffffffffff1673ffffffffffffffffffffffffffffffffffffffff168152602001838152602001821515151581526020019350505050602060405180830381600087803b1580156127b357600080fd5b505af11580156127c7573d6000803e3d6000fd5b505050506040513d60208110156127dd57600080fd5b810190808051906020019092919050505015156127f957600080fd5b5b600360009054906101000a900473ffffffffffffffffffffffffffffffffffffffff1673ffffffffffffffffffffffffffffffffffffffff166348663e7d8a8a8a60016040518563ffffffff167c0100000000000000000000000000000000000000000000000000000000028152600401808573ffffffffffffffffffffffffffffffffffffffff1673ffffffffffffffffffffffffffffffffffffffff168152602001806020018060200184151515158152602001838103835286818151815260200191508051906020019060200280838360005b838110156128eb5780820151818401526020810190506128d0565b50505050905001838103825285818151815260200191508051906020019060200280838360005b8381101561292d578082015181840152602081019050612912565b505050509050019650505050505050602060405180830381600087803b15801561295657600080fd5b505af115801561296a573d6000803e3d6000fd5b505050506040513d602081101561298057600080fd5b8101908080519060200190929190505050151561299c57600080fd5b8873ffffffffffffffffffffffffffffffffffffffff167f895ef9c96d74ac11a2e32168368a763090669cc42fb30692c31b3242be99637d898989886040518080602001806020018060200185151515158152602001848103845288818151815260200191508051906020019060200280838360005b83811015612a2d578082015181840152602081019050612a12565b50505050905001848103835287818151815260200191508051906020019060200280838360005b83811015612a6f578082015181840152602081019050612a54565b50505050905001848103825286818151815260200191508051906020019060200280838360005b83811015612ab1578082015181840152602081019050612a96565b5050505090500197505050505050505060405180910390a26001925050509695505050505050565b600080846000815181101515612aeb57fe5b906020019060200201516f03c109feac3f9bac48ec8cec00000000811515612b0f57fe5b0490506000600c60008a73ffffffffffffffffffffffffffffffffffffffff1673ffffffffffffffffffffffffffffffffffffffff168152602001908152602001600020541115612bf557612bad6001600c60008b73ffffffffffffffffffffffffffffffffffffffff1673ffffffffffffffffffffffffffffffffffffffff1681526020019081526020016000205461367f90919063ffffffff16565b600c60008a73ffffffffffffffffffffffffffffffffffffffff1673ffffffffffffffffffffffffffffffffffffffff16815260200190815260200160002081905550612d52565b8084111515612c0357600080fd5b600260009054906101000a900473ffffffffffffffffffffffffffffffffffffffff1673ffffffffffffffffffffffffffffffffffffffff1663e1ad1162600160009054906101000a900473ffffffffffffffffffffffffffffffffffffffff1683866040518463ffffffff167c0100000000000000000000000000000000000000000000000000000000028152600401808473ffffffffffffffffffffffffffffffffffffffff1673ffffffffffffffffffffffffffffffffffffffff168152602001838152602001821515151581526020019350505050602060405180830381600087803b158015612cf657600080fd5b505af1158015612d0a573d6000803e3d6000fd5b505050506040513d6020811015612d2057600080fd5b81019080805190602001909291905050501515612d3c57600080fd5b612d4f818561367f90919063ffffffff16565b93505b600260009054906101000a900473ffffffffffffffffffffffffffffffffffffffff1673ffffffffffffffffffffffffffffffffffffffff1663e1ad11628986866040518463ffffffff167c0100000000000000000000000000000000000000000000000000000000028152600401808473ffffffffffffffffffffffffffffffffffffffff1673ffffffffffffffffffffffffffffffffffffffff168152602001838152602001821515151581526020019350505050602060405180830381600087803b158015612e2357600080fd5b505af1158015612e37573d6000803e3d6000fd5b505050506040513d6020811015612e4d57600080fd5b81019080805190602001909291905050501515612e6957600080fd5b600360009054906101000a900473ffffffffffffffffffffffffffffffffffffffff1673ffffffffffffffffffffffffffffffffffffffff166348663e7d89898960006040518563ffffffff167c0100000000000000000000000000000000000000000000000000000000028152600401808573ffffffffffffffffffffffffffffffffffffffff1673ffffffffffffffffffffffffffffffffffffffff168152602001806020018060200184151515158152602001838103835286818151815260200191508051906020019060200280838360005b83811015612f5a578082015181840152602081019050612f3f565b50505050905001838103825285818151815260200191508051906020019060200280838360005b83811015612f9c578082015181840152602081019050612f81565b505050509050019650505050505050602060405180830381600087803b158015612fc557600080fd5b505af1158015612fd9573d6000803e3d6000fd5b505050506040513d6020811015612fef57600080fd5b8101908080519060200190929190505050151561300b57600080fd5b8773ffffffffffffffffffffffffffffffffffffffff167f9e2c65ef7d25bc0a96884607a1683a8db0dc8f84bf3ce8905cdfe326b2742339888888876040518080602001806020018060200185151515158152602001848103845288818151815260200191508051906020019060200280838360005b8381101561309c578082015181840152602081019050613081565b50505050905001848103835287818151815260200191508051906020019060200280838360005b838110156130de5780820151818401526020810190506130c3565b50505050905001848103825286818151815260200191508051906020019060200280838360005b83811015613120578082015181840152602081019050613105565b5050505090500197505050505050505060405180910390a260019150509695505050505050565b600080828401905083811015151561315b57fe5b8091505092915050565b6000606060006131758786613698565b91506001800290506080604051908101604052806131938989613909565b81526020018973ffffffffffffffffffffffffffffffffffffffff168152602001851515815260200186151581525060086000836000191660001916815260200190815260200160002060008201518160000190805190602001906131f9929190613d90565b5060208201518160010160006101000a81548173ffffffffffffffffffffffffffffffffffffffff021916908373ffffffffffffffffffffffffffffffffffffffff16021790555060408201518160010160146101000a81548160ff02191690831515021790555060608201518160010160156101000a81548160ff02191690831515021790555090505060019250505095945050505050565b61329b613d76565b600060208301905060408051908101604052808451815260200182815250915050919050565b6132c9613d76565b6132d48383836139e2565b5092915050565b606080600083600001516040519080825280601f01601f1916602001820160405280156133175781602001602082028038833980820191505090505b5091506020820190506133338185602001518660000151613a80565b8192505050919050565b6000606060008060008693506000925060009150600090505b83518110156136125760307f010000000000000000000000000000000000000000000000000000000000000002848281518110151561339157fe5b9060200101517f010000000000000000000000000000000000000000000000000000000000000090047f0100000000000000000000000000000000000000000000000000000000000000027effffffffffffffffffffffffffffffffffffffffffffffffffffffffffffff1916101580156134a9575060397f010000000000000000000000000000000000000000000000000000000000000002848281518110151561343957fe5b9060200101517f010000000000000000000000000000000000000000000000000000000000000090047f0100000000000000000000000000000000000000000000000000000000000000027effffffffffffffffffffffffffffffffffffffffffffffffffffffffffffff191611155b1561355a5781156134cc5760008614156134c257613612565b8580600190039650505b600a83029250603084828151811015156134e257fe5b9060200101517f010000000000000000000000000000000000000000000000000000000000000090047f0100000000000000000000000000000000000000000000000000000000000000027f010000000000000000000000000000000000000000000000000000000000000090040383019250613605565b602e7f010000000000000000000000000000000000000000000000000000000000000002848281518110151561358c57fe5b9060200101517f010000000000000000000000000000000000000000000000000000000000000090047f0100000000000000000000000000000000000000000000000000000000000000027effffffffffffffffffffffffffffffffffffffffffffffffffffffffffffff1916141561360457600191505b5b8080600101915050613356565b60008611156136245785600a0a830292505b8294505050505092915050565b60008082840290506000841480613652575082848281151561364f57fe5b04145b151561365a57fe5b8091505092915050565b600080828481151561367257fe5b0490508091505092915050565b600082821115151561368d57fe5b818303905092915050565b606080600080841561370857606060405190810160405280603d81526020017f68747470733a2f2f6d696e2d6170692e63727970746f636f6d706172652e636f81526020017f6d2f646174612f70726963656d756c74693f6673796d733d434f494e2c0000008152509250613768565b606060405190810160405280603d81526020017f68747470733a2f2f6d696e2d6170692e63727970746f636f6d706172652e636f81526020017f6d2f646174612f70726963656d756c74693f6673796d733d434153482c00000081525092505b600091505b85518210156138a357858281518110151561378457fe5b9060200190602002015190506000600960008381526020019081526020016000208054600181600116156101000203166002900490501115156137c657600080fd5b61389461387d600960008481526020019081526020016000208054600181600116156101000203166002900480601f0160208091040260200160405190810160405280929190818152602001828054600181600116156101000203166002900480156138735780601f1061384857610100808354040283529160200191613873565b820191906000526020600020905b81548152906001019060200180831161385657829003601f168201915b5050505050613293565b61388685613293565b613acb90919063ffffffff16565b9250818060010192505061376d565b6138fb6138e46040805190810160405280600a81526020017f267473796d733d55534400000000000000000000000000000000000000000000815250613293565b6138ed85613293565b613acb90919063ffffffff16565b925082935050505092915050565b6060806000845160405190808252806020026020018201604052801561393e5781602001602082028038833980820191505090505b509150600090505b84518110156139d757848181518110151561395d57fe5b90602001906020020151828281518110151561397557fe5b90602001906020020181815117915081815250506008848281518110151561399957fe5b906020019060200201519060020a0282828151811015156139b657fe5b90602001906020020181815117915081815250508080600101915050613946565b819250505092915050565b6139ea613d76565b6000613a088560000151866020015186600001518760200151613b4d565b90508460200151836020018181525050846020015181038360000181815250508460000151856020015101811415613a4a576000856000018181525050613a75565b8360000151836000015101856000018181510391508181525050836000015181018560200181815250505b829150509392505050565b60005b602082101515613aa85782518452602084019350602083019250602082039150613a83565b6001826020036101000a0390508019835116818551168181178652505050505050565b606080600083600001518560000151016040519080825280601f01601f191660200182016040528015613b0d5781602001602082028038833980820191505090505b509150602082019050613b298186602001518760000151613a80565b613b428560000151820185602001518660000151613a80565b819250505092915050565b60008060008060008060008060008b97508c8b111515613c1d5760208b111515613bd75760018b60200360080260020a03196001029550858a511694508a8d8d010393508588511692505b84600019168360001916141515613bcf578388101515613bbc578c8c019850613c23565b8780600101985050858851169250613b98565b879850613c23565b8a8a209150600096505b8a8d0387111515613c1c578a88209050806000191682600019161415613c0957879850613c23565b6001880197508680600101975050613be1565b5b8c8c0198505b5050505050505050949350505050565b60806040519081016040528060608152602001600073ffffffffffffffffffffffffffffffffffffffff1681526020016000151581526020016000151581525090565b828054600181600116156101000203166002900490600052602060002090601f016020900481019282601f10613cb757803560ff1916838001178555613ce5565b82800160010185558215613ce5579182015b82811115613ce4578235825591602001919060010190613cc9565b5b509050613cf29190613ddd565b5090565b828054600181600116156101000203166002900490600052602060002090601f016020900481019282601f10613d3757805160ff1916838001178555613d65565b82800160010185558215613d65579182015b82811115613d64578251825591602001919060010190613d49565b5b509050613d729190613ddd565b5090565b604080519081016040528060008152602001600081525090565b828054828255906000526020600020908101928215613dcc579160200282015b82811115613dcb578251825591602001919060010190613db0565b5b509050613dd99190613ddd565b5090565b613dff91905b80821115613dfb576000816000905550600101613de3565b5090565b905600a165627a7a723058208e532a7a2afa44fd5268de0ff0a26ad331b1ea1e44bcc29bdf3132119fc190bf0029",
  "source": "pragma solidity ^0.4.23;\nimport './SafeMathLib.sol';\nimport './Ownable.sol';\nimport './Strings.sol';\nimport './UserData.sol';\nimport './Bank.sol';\nimport './ERC20Interface.sol';\n//import \"github.com/oraclize/ethereum-api/oraclizeAPI.sol\";\n\n\n/**\n * @dev This contract accepts COIN deposit with a list of every crypto in desired portfolio\n * @dev (and the % of each) stores this information, then disburses withdrawals when requested\n * @dev in COIN depending on the new price of the coins in the portfolio\n**/\n\ncontract Investment is Ownable {//, usingOraclize { \n\n    using SafeMathLib for uint256;\n    using strings for *;\n    \n    Bank public bank;\n    UserData public userData;\n    address public coinToken;\n    address public cashToken;\n    uint256 public customGasPrice;\n    string public marketUrl;\n    \n    // Stores all trade info so Oraclize can return and update.\n    // idsAndAmts stores both the crypto ID and amounts with a uint8 and uint248 respectively.\n    struct TradeInfo {\n        uint256[] idsAndAmts;\n        address beneficiary;\n        bool isBuy;\n        bool isCoin;\n    }\n    \n    // Oraclize ID => TradeInfo.\n    mapping(bytes32 => TradeInfo) trades;\n    \n    // Crypto Id => string symbol used for crafting Oraclize URL.\n    mapping(uint256 => string) public cryptoSymbols;\n    \n    // Crypto Id => the inverse (or regular) crypto this id is tied to, if any.\n    mapping(uint256 => uint256) public tiedInverse;\n    \n    // Crypto Id => whether or not this crypto is an inverse.\n    mapping (uint256 => bool) public isInverse;\n\n    // Balances of a user's free trades, generally given as reward for DAO voting.\n    mapping(address => uint256) public freeTrades;\n\n    event newOraclizeQuery(string description);\n    event Buy(address indexed buyer, uint256[] cryptoIds, uint256[] amounts, uint256[] prices, bool isCoin);\n    event Sell(address indexed seller, uint256[] cryptoIds, uint256[] amounts, uint256[] prices, bool isCoin);\n\n/** ********************************** Defaults ************************************* **/\n    \n    /**\n     * @dev Constructor function, construct with coinvest token.\n     * @param _coinToken The address of the Coinvest token.\n     * @param _bank Contract where all of the user Coinvest tokens will be stored.\n     * @param _userData Contract where all of the user balances will be stored.\n    **/\n    constructor(address _coinToken, address _cashToken, address _bank, address _userData)\n      public\n      payable\n    {\n        coinToken = _coinToken;\n        cashToken = _cashToken;\n        bank = Bank(_bank);\n        userData = UserData(_userData);\n        marketUrl = \"https://min-api.cryptocompare.com/data/pricemulti?fsyms=COIN,\";\n\n        //oraclize_setProof(proofType_TLSNotary | proofStorage_IPFS);\n        \n        addCryptos(0, \"COIN\", 0, false);\n        addCryptos(1, \"BTC\", 11, false);\n        addCryptos(2, \"ETH\", 12, false);\n        addCryptos(3, \"XRP\", 13, false);\n        addCryptos(4, \"LTC\", 14, false);\n        addCryptos(5, \"DASH\", 15, false);\n        addCryptos(6, \"BCH\", 16, false);\n        addCryptos(7, \"XMR\", 17, false);\n        addCryptos(8, \"XEM\", 18, false);\n        addCryptos(9, \"EOS\", 19, false);\n        addCryptos(10, \"CASH\", 0, false);\n        addCryptos(11, \"BTC\", 1, true);\n        addCryptos(12, \"ETH\", 2, true);\n        addCryptos(13, \"XRP\", 3, true);\n        addCryptos(14, \"LTC\", 4, true);\n        addCryptos(15, \"DASH\", 5, true);\n        addCryptos(16, \"BCH\", 6, true);\n        addCryptos(17, \"XMR\", 7, true);\n        addCryptos(18, \"XEM\", 8, true);\n        addCryptos(19, \"EOS\", 9, true);\n     \n        customGasPrice = 20000000000;\n        //oraclize_setCustomGasPrice(customGasPrice);\n    }\n  \n    function()\n      external\n      payable\n    {\n        \n    }\n  \n/** *************************** ApproveAndCall FallBack **************************** **/\n  \n    /**\n     * @dev ApproveAndCall will send us data, we'll determine if the beneficiary is the sender, then we'll call this contract.\n    **/\n    function receiveApproval(address _from, uint256 _amount, address _token, bytes _data) \n      public\n    {\n        require(msg.sender == coinToken || msg.sender == cashToken);\n        \n        // check here to make sure _from == beneficiary in data\n        address beneficiary;\n        assembly {\n            beneficiary := mload(add(_data,36))\n        }\n        require(_from == beneficiary);\n        \n        require(address(this).delegatecall(_data));\n    }\n  \n/** ********************************** External ************************************* **/\n    \n    /**\n     * @dev User calls to invest, will then call Oraclize and Oraclize adds holdings.\n     * @dev User must first approve this contract to transfer enough tokens to buy.\n     * @param _beneficiary The user making the call whose balance will be updated.\n     * @param _cryptoIds The Ids of the cryptos to invest in.\n     * @param _amounts The amount of each crypto the user wants to buy, delineated in 10 ^ 18 wei.\n    **/\n    function buy(address _beneficiary, uint256[] _cryptoIds, uint256[] _amounts, bool _isCoin)\n      public\n      onlySenderOrToken(_beneficiary)\n    returns (bool success)\n    {\n        require(_cryptoIds.length == _amounts.length);\n        require(getPrices(_beneficiary, _cryptoIds, _amounts, _isCoin, true));\n        return true;\n    }\n    \n    /**\n     * @dev User calls to sell holdings with same parameters as buy.\n    **/\n    function sell(address _beneficiary, uint256[] _cryptoIds, uint256[] _amounts, bool _isCoin)\n      public\n      onlySenderOrToken(_beneficiary)\n    returns (bool success)\n    {\n        require(_cryptoIds.length == _amounts.length);\n        require(getPrices(_beneficiary, _cryptoIds, _amounts, _isCoin, false));\n        return true;\n    }\n    \n/** ********************************** Internal ************************************ **/\n    \n    /**\n     * @dev Broker will call this for an investor to invest in one or multiple assets\n     * @param _beneficiary The address that is being bought for\n     * @param _cryptoIds The list of uint IDs for each crypto to buy\n     * @param _amounts The amounts of each crypto to buy (measured in 10 ** 18 wei!)\n     * @param _prices The price of each bought crypto at time of callback.\n     * @param _coinValue The amount of coin to transferFrom from user.\n    **/\n    function finalizeBuy(address _beneficiary, uint256[] _cryptoIds, uint256[] _amounts, uint256[] _prices, uint256 _coinValue, bool _isCoin)\n      internal\n    returns (bool success)\n    {\n        ERC20Interface token;\n        if (_isCoin) token = ERC20Interface(coinToken);\n        else token = ERC20Interface(cashToken);\n\n        uint256 fee = 4990000000000000000 * (10 ** 18) / _prices[0];\n        if (freeTrades[_beneficiary] >  0) freeTrades[_beneficiary] = freeTrades[_beneficiary].sub(1);\n        else require(token.transferFrom(_beneficiary, coinvest, fee));\n        \n        require(token.transferFrom(_beneficiary, bank, _coinValue));\n\n        // We want to allow actual COIN/CASH exchange so users have easy access and we can \"CASH\" out fees\n        if (_cryptoIds[0] == 0 || _cryptoIds[0] == 10) {\n            require(bank.transfer(_beneficiary, _amounts[0], _isCoin));\n        }\n        require(userData.modifyHoldings(_beneficiary, _cryptoIds, _amounts, true));\n\n        emit Buy(_beneficiary, _cryptoIds, _amounts, _prices, _isCoin);\n        return true;\n    }\n    \n    /**\n     * @param _beneficiary The address that is being sold for\n     * @param _cryptoIds The list of uint IDs for each crypto\n     * @param _amounts The amounts of each crypto to sell (measured in 10 ** 18 wei!)\n     * @param _prices The prices of each crypto at time of callback.\n     * @param _coinValue The amount of COIN to be transferred to user.\n    **/\n    function finalizeSell(address _beneficiary, uint256[] _cryptoIds, uint256[] _amounts, uint256[] _prices, uint256 _coinValue, bool _isCoin)\n      internal\n    returns (bool success)\n    {   \n        uint256 fee = 4990000000000000000 * (10 ** 18) / _prices[0];\n        if (freeTrades[_beneficiary] > 0) freeTrades[_beneficiary] = freeTrades[_beneficiary].sub(1);\n        else {\n            require(_coinValue > fee);\n            require(bank.transfer(coinvest, fee, _isCoin));\n            _coinValue = _coinValue.sub(fee);\n        }\n\n        require(bank.transfer(_beneficiary, _coinValue, _isCoin));\n        \n        // Subtract from balance of each held crypto for user.\n        require(userData.modifyHoldings(_beneficiary, _cryptoIds, _amounts, false));\n        \n        emit Sell(_beneficiary, _cryptoIds, _amounts, _prices, _isCoin);\n        return true;\n    }\n    \n/** ******************************** Only Owner ************************************* **/\n    \n    /**\n     * @dev Owner may add a crypto to the investment contract.\n     * @param _id Id of the new crypto.\n     * @param _symbol Symbol of the new crypto.\n     * @param _inverse The inverse crypto id, if any, that this crypto is tied to\n     * @param _isInverse Whether or not this crypto is an inverse.\n    **/\n    function addCryptos(uint256 _id, string _symbol, uint256 _inverse, bool _isInverse)\n      public\n      onlyOwner\n    returns (bool success)\n    {\n\n        cryptoSymbols[_id] = _symbol;\n        tiedInverse[_id] = _inverse;\n        isInverse[_id] = _isInverse;\n        return true;\n    }\n    \n    /**\n     * @dev Allows Coinvest to reward users with free platform trades.\n     * @param _users List of users to reward.\n     * @param _trades List of free trades to give to each.\n    **/\n    function addTrades(address[] _users, uint256[] _trades)\n      external\n      onlyCoinvest\n    {\n        require(_users.length == _trades.length);\n        \n        for (uint256 i = 0; i < _users.length; i++) {\n            freeTrades[_users[i]] = freeTrades[_users[i]].add(_trades[i]);\n        }     \n    }\n\n    /**\n     * @dev Change the URL Oraclize uses to get price information. addCrypto can change the parameters.\n     * @param _newUrl The new url to use for Oraclize.\n    **/\n    function changeMarketUrl(string _newUrl)\n      external\n      onlyOwner\n    returns (bool success)\n    {\n        marketUrl = _newUrl;\n        return true;\n    }\n\n    /**\n     * @dev Allows owner to change address of other contracts in the system.\n     * @param _coinToken Address of the COIN token contract.\n     * @param _bank Address of the bank contract.\n     * @param _userData Address of the user data contract.\n    **/\n    function changeContracts(address _coinToken, address _cashToken, address _bank, address _userData)\n      external\n      onlyOwner\n    returns (bool success)\n    {\n        coinToken = _coinToken;\n        cashToken = _cashToken;\n        bank = Bank(_bank);\n        userData = UserData(_userData);\n        return true;\n    }\n    \n/** ********************************* Modifiers ************************************* **/\n    \n    /**\n     * @dev For buys and sells we only want an approved broker or the buyer/seller\n     * @dev themselves to mess with the buyer/seller's portfolio\n     * @param _beneficiary The buyer or seller whose portfolio is being modified\n    **/\n    modifier onlySenderOrToken(address _beneficiary)\n    {\n        require(msg.sender == _beneficiary || msg.sender == coinToken || msg.sender == cashToken);\n        _;\n    }\n    \n/** ******************************************************************************** **/\n/** ******************************* Oracle Logic *********************************** **/\n/** ******************************************************************************** **/\n\n    /**\n     * @dev Here we Oraclize to CryptoCompare to get prices for these cryptos.\n     * @param _cryptos The IDs of the cryptos to get prices for.\n     * @param _amounts Amount of each crypto to buy.\n     * @param _buy Whether or not this is a buy (as opposed to sell).\n    **/\n    function getPrices(address _beneficiary, uint256[] _cryptos, uint256[] _amounts, bool _isCoin, bool _buy) \n      internal\n    returns (bool success)\n    {\n        //if (oraclize_getPrice(\"URL\") > this.balance) {\n        //    emit newOraclizeQuery(\"Oraclize query was NOT sent, please add some ETH to cover for the query fee\");\n        //} else {\n        //    emit newOraclizeQuery(\"Oraclize query was sent, standing by for the answer..\");\n            string memory fullUrl = craftUrl(_cryptos, _isCoin);\n            \n        //    bytes32 queryId = oraclize_query(\"URL\", fullUrl, 150000 + 50000 * _cryptos.length);\n            bytes32 queryId = 0x0000000000000000000000000000000000000000000000000000000000000001;\n            trades[queryId] = TradeInfo(bitConv(_cryptos, _amounts), _beneficiary, _buy, _isCoin);\n        //}\n        return true;\n    }\n    \n    /**\n     * @dev Oraclize calls and should simply set the query array to the int results.\n    **/\n    function __callback(bytes32 myid, string result, bytes proof)\n      public\n    {\n        //if (msg.sender != oraclize_cbAddress()) throw;\n    \n        TradeInfo memory tradeInfo = trades[myid];\n        var (a,b) = bitRec(tradeInfo.idsAndAmts);\n        uint256[] memory cryptos = a;\n        uint256[] memory amounts = b;\n\n        address beneficiary = tradeInfo.beneficiary;\n        bool isBuy = tradeInfo.isBuy;\n        bool isCoin = tradeInfo.isCoin;\n    \n        uint256[] memory cryptoValues = decodePrices(cryptos, result);\n        uint256 value = calculateValue(amounts, cryptoValues, isCoin);\n        \n        if (isBuy) require(finalizeBuy(beneficiary, cryptos, amounts, cryptoValues, value, isCoin));\n        else require(finalizeSell(beneficiary, cryptos, amounts, cryptoValues, value, isCoin));\n    }\n    \n/** ******************************* Constants ************************************ **/\n    \n    /**\n     * @dev Crafts URL for Oraclize to grab data from.\n     * @param _cryptos The uint256 crypto ID of the cryptos to search.\n    **/\n    function craftUrl(uint256[] _cryptos, bool _isCoin)\n      internal\n      view\n    returns (string)\n    {\n        if (_isCoin) var url = \"https://min-api.cryptocompare.com/data/pricemulti?fsyms=COIN,\";\n        else url = \"https://min-api.cryptocompare.com/data/pricemulti?fsyms=CASH,\";\n\n        for (uint256 i = 0; i < _cryptos.length; i++) {\n            uint256 id = _cryptos[i];\n\n            require(bytes(cryptoSymbols[id]).length > 0);\n            url = url.toSlice().concat(cryptoSymbols[id].toSlice());\n        }\n        url = url.toSlice().concat(\"&tsyms=USD\".toSlice());\n        return url;\n    }\n\n    /**\n     * @dev Cycles through a list of separators to split the api\n     * @dev result string. Returns list so that we can update invest contract with values.\n     * @param _result The raw string returned from the cryptocompare api with all crypto prices.\n    **/\n    function decodePrices(uint256[] _cryptos, string _result) \n      internal\n      view\n    returns (uint256[])\n    {\n        var s = _result.toSlice();\n        var delim = 'USD'.toSlice();\n        var breakPart = s.split(delim).toString();\n\n        uint256[] memory prices = new uint256[](_cryptos.length + 1);\n        \n        //Find price of COIN first.\n        var coinPart = s.split(delim).toString();\n        prices[0] = parseInt(coinPart,18);\n\n        for(uint256 i = 0; i < _cryptos.length; i++) {\n            // This loop is necessary because cryptocompare will only return 1 value when the same crypto is queried twice.\n            uint256 inverse = tiedInverse[i];\n            if (inverse > 0) {\n                for (uint256 j = 0; j < _cryptos.length; j++) {\n                    if (j == i) break;\n                    if (_cryptos[j] == inverse) {\n                        prices[i+1] = (10 ** 36) / prices[j+1];\n                        break;\n                    }\n                }\n            }\n            if (prices[i+1] == 0) {\n                var part = s.split(delim).toString();\n        \n                uint256 price = parseInt(part,18);\n                if (price > 0 && !isInverse[_cryptos[i]]) prices[i+1] = price;\n                else if (price > 0) prices[i+1] = (10 ** 36) / price;\n            }\n        }\n        return prices;\n    }\n\n    /**\n     * @dev Calculate the COIN value of the cryptos to be bought/sold.\n     * @param _cryptoValues The value of the cryptos at time of call.\n    **/\n    function calculateValue(uint256[] _amounts, uint256[] _cryptoValues, bool _isCoin)\n      internal\n      pure\n    returns (uint256 value)\n    {\n        for (uint256 i = 0; i < _amounts.length; i++) {\n            value = value.add(_cryptoValues[i+1].mul(_amounts[i]).div(_cryptoValues[0]));\n        }\n    }\n    \n    /**\n     * @dev Converts given cryptos and amounts into a single uint256[] array.\n     * @param _cryptos Array of the crypto Ids to be bought.\n     * @param _amounts Array containing the amounts of each crypto to buy.\n    **/\n    function bitConv(uint256[] _cryptos, uint256[] _amounts)\n      internal\n      pure\n    returns (uint256[])\n    {\n        uint256[] memory combined = new uint256[](_cryptos.length); \n        for (uint256 i = 0; i < _cryptos.length; i++) {\n            combined[i] |= _cryptos[i];\n            combined[i] |= _amounts[i] << 8;\n        }\n        return combined;\n    }\n    \n    /**\n     * @dev Recovers the cryptos and amounts from combined array.\n     * @param _idsAndAmts Array of uints containing both crypto Id and amount.\n    **/\n    function bitRec(uint256[] _idsAndAmts) \n      internal\n      pure\n    returns (uint256[], uint256[]) \n    {\n        uint256[] memory cryptos = new uint256[](_idsAndAmts.length);\n        uint256[] memory amounts = new uint256[](_idsAndAmts.length);\n\n        for (uint256 i = 0; i < _idsAndAmts.length; i++) {\n            cryptos[i] = uint256(uint8(_idsAndAmts[i]));\n            amounts[i] = uint256(uint248(_idsAndAmts[i] >> 8));\n        }\n        return (cryptos, amounts);\n    }\n\n    function getTrade(bytes32 _id)\n      internal\n      view\n    returns (uint256[], address, bool)\n    {\n        TradeInfo memory trade = trades[_id];\n        return (trade.idsAndAmts, trade.beneficiary, trade.isBuy);\n    }\n    \n/** *************************** Only Owner *********************************** **/\n\n    /**\n     * @dev Change Oraclize gas limit and price.\n     * @param _newGasPrice New gas price to use in wei.\n    **/\n    function changeGas(uint256 _newGasPrice)\n      external\n      onlyOwner\n    returns (bool success)\n    {\n        customGasPrice = _newGasPrice;\n        //oraclize_setCustomGasPrice(_newGasPrice);\n        return true;\n    }\n    \n/** ************************** Only Coinvest ******************************* **/\n\n    /**\n     * @dev Allow the owner to take ERC20 tokens off of this contract if they are accidentally sent.\n     * @param _tokenContract The address of the token to withdraw (0x0 if Ether).\n     * @param _amount The amount of Ether to withdraw (because some needs to be left for Oraclize).\n    **/\n    function tokenEscape(address _tokenContract, uint256 _amount)\n      external\n      onlyCoinvest\n    {\n        if (_tokenContract == address(0)) coinvest.transfer(_amount);\n        else {\n            ERC20Interface lostToken = ERC20Interface(_tokenContract);\n        \n            uint256 stuckTokens = lostToken.balanceOf(address(this));\n            lostToken.transfer(coinvest, stuckTokens);\n        }\n    }\n\n /** ************************** Temp ************************************ **/\n    \n    // parseInt\n    function parseInt(string _a) internal pure returns (uint) {\n        return parseInt(_a, 0);\n    }\n\n    // parseInt(parseFloat*10^_b)\n    function parseInt(string _a, uint _b) internal pure returns (uint) {\n        bytes memory bresult = bytes(_a);\n        uint mint = 0;\n        bool decimals = false;\n        for (uint i=0; i<bresult.length; i++){\n            if ((bresult[i] >= 48)&&(bresult[i] <= 57)){\n                if (decimals){\n                   if (_b == 0) break;\n                    else _b--;\n                }\n                mint *= 10;\n                mint += uint(bresult[i]) - 48;\n            } else if (bresult[i] == 46) decimals = true;\n        }\n        if (_b > 0) mint *= 10**_b;\n        return mint;\n    }\n    \n}\n\n\n\n\n\n\n",
  "sourcePath": "/home/robert/coding/Coinvest/contracts/Investment.sol",
  "compiler": {
    "name": "solc",
    "version": "0.4.23+commit.124ca40d.Emscripten.clang"
  },
  "schemaVersion": "2.0.0",
  "updatedAt": "2018-08-15T17:43:43.916Z"
}