{
  "contractName": "InvestmentTest",
  "abi": [
    {
      "constant": true,
      "inputs": [],
      "name": "coinvest",
      "outputs": [
        {
          "name": "",
          "type": "address"
        }
      ],
      "payable": false,
      "stateMutability": "view",
      "type": "function"
    },
    {
      "constant": true,
      "inputs": [
        {
          "name": "",
          "type": "uint256"
        }
      ],
      "name": "cryptoSymbols",
      "outputs": [
        {
          "name": "",
          "type": "string"
        }
      ],
      "payable": false,
      "stateMutability": "view",
      "type": "function"
    },
    {
      "constant": true,
      "inputs": [],
      "name": "customGasPrice",
      "outputs": [
        {
          "name": "",
          "type": "uint256"
        }
      ],
      "payable": false,
      "stateMutability": "view",
      "type": "function"
    },
    {
      "constant": true,
      "inputs": [],
      "name": "coinToken",
      "outputs": [
        {
          "name": "",
          "type": "address"
        }
      ],
      "payable": false,
      "stateMutability": "view",
      "type": "function"
    },
    {
      "constant": true,
      "inputs": [],
      "name": "bank",
      "outputs": [
        {
          "name": "",
          "type": "address"
        }
      ],
      "payable": false,
      "stateMutability": "view",
      "type": "function"
    },
    {
      "constant": true,
      "inputs": [],
      "name": "owner",
      "outputs": [
        {
          "name": "",
          "type": "address"
        }
      ],
      "payable": false,
      "stateMutability": "view",
      "type": "function"
    },
    {
      "constant": true,
      "inputs": [
        {
          "name": "",
          "type": "uint256"
        }
      ],
      "name": "isInverse",
      "outputs": [
        {
          "name": "",
          "type": "bool"
        }
      ],
      "payable": false,
      "stateMutability": "view",
      "type": "function"
    },
    {
      "constant": true,
      "inputs": [],
      "name": "cashToken",
      "outputs": [
        {
          "name": "",
          "type": "address"
        }
      ],
      "payable": false,
      "stateMutability": "view",
      "type": "function"
    },
    {
      "constant": true,
      "inputs": [],
      "name": "userData",
      "outputs": [
        {
          "name": "",
          "type": "address"
        }
      ],
      "payable": false,
      "stateMutability": "view",
      "type": "function"
    },
    {
      "constant": true,
      "inputs": [
        {
          "name": "",
          "type": "uint256"
        }
      ],
      "name": "tiedInverse",
      "outputs": [
        {
          "name": "",
          "type": "uint256"
        }
      ],
      "payable": false,
      "stateMutability": "view",
      "type": "function"
    },
    {
      "constant": true,
      "inputs": [
        {
          "name": "",
          "type": "address"
        }
      ],
      "name": "freeTrades",
      "outputs": [
        {
          "name": "",
          "type": "uint256"
        }
      ],
      "payable": false,
      "stateMutability": "view",
      "type": "function"
    },
    {
      "constant": false,
      "inputs": [
        {
          "name": "_newCoinvest",
          "type": "address"
        }
      ],
      "name": "transferCoinvest",
      "outputs": [],
      "payable": false,
      "stateMutability": "nonpayable",
      "type": "function"
    },
    {
      "constant": false,
      "inputs": [
        {
          "name": "newOwner",
          "type": "address"
        }
      ],
      "name": "transferOwnership",
      "outputs": [],
      "payable": false,
      "stateMutability": "nonpayable",
      "type": "function"
    },
    {
      "inputs": [
        {
          "name": "_coinToken",
          "type": "address"
        },
        {
          "name": "_cashToken",
          "type": "address"
        },
        {
          "name": "_bank",
          "type": "address"
        },
        {
          "name": "_userData",
          "type": "address"
        }
      ],
      "payable": true,
      "stateMutability": "payable",
      "type": "constructor"
    },
    {
      "payable": true,
      "stateMutability": "payable",
      "type": "fallback"
    },
    {
      "anonymous": false,
      "inputs": [
        {
          "indexed": false,
          "name": "description",
          "type": "string"
        }
      ],
      "name": "newOraclizeQuery",
      "type": "event"
    },
    {
      "anonymous": false,
      "inputs": [
        {
          "indexed": true,
          "name": "buyer",
          "type": "address"
        },
        {
          "indexed": false,
          "name": "cryptoIds",
          "type": "uint256[]"
        },
        {
          "indexed": false,
          "name": "amounts",
          "type": "uint256[]"
        },
        {
          "indexed": false,
          "name": "prices",
          "type": "uint256[]"
        },
        {
          "indexed": false,
          "name": "isCoin",
          "type": "bool"
        }
      ],
      "name": "Buy",
      "type": "event"
    },
    {
      "anonymous": false,
      "inputs": [
        {
          "indexed": true,
          "name": "seller",
          "type": "address"
        },
        {
          "indexed": false,
          "name": "cryptoIds",
          "type": "uint256[]"
        },
        {
          "indexed": false,
          "name": "amounts",
          "type": "uint256[]"
        },
        {
          "indexed": false,
          "name": "prices",
          "type": "uint256[]"
        },
        {
          "indexed": false,
          "name": "isCoin",
          "type": "bool"
        }
      ],
      "name": "Sell",
      "type": "event"
    },
    {
      "anonymous": false,
      "inputs": [
        {
          "indexed": true,
          "name": "previousOwner",
          "type": "address"
        },
        {
          "indexed": true,
          "name": "newOwner",
          "type": "address"
        }
      ],
      "name": "OwnershipTransferred",
      "type": "event"
    },
    {
      "constant": false,
      "inputs": [
        {
          "name": "_from",
          "type": "address"
        },
        {
          "name": "_amount",
          "type": "uint256"
        },
        {
          "name": "_token",
          "type": "address"
        },
        {
          "name": "_data",
          "type": "bytes"
        }
      ],
      "name": "receiveApproval",
      "outputs": [],
      "payable": false,
      "stateMutability": "nonpayable",
      "type": "function"
    },
    {
      "constant": false,
      "inputs": [
        {
          "name": "_beneficiary",
          "type": "address"
        },
        {
          "name": "_cryptoIds",
          "type": "uint256[]"
        },
        {
          "name": "_amounts",
          "type": "uint256[]"
        },
        {
          "name": "_isCoin",
          "type": "bool"
        }
      ],
      "name": "buy",
      "outputs": [
        {
          "name": "success",
          "type": "bool"
        }
      ],
      "payable": false,
      "stateMutability": "nonpayable",
      "type": "function"
    },
    {
      "constant": false,
      "inputs": [
        {
          "name": "_beneficiary",
          "type": "address"
        },
        {
          "name": "_cryptoIds",
          "type": "uint256[]"
        },
        {
          "name": "_amounts",
          "type": "uint256[]"
        },
        {
          "name": "_isCoin",
          "type": "bool"
        }
      ],
      "name": "sell",
      "outputs": [
        {
          "name": "success",
          "type": "bool"
        }
      ],
      "payable": false,
      "stateMutability": "nonpayable",
      "type": "function"
    },
    {
      "constant": false,
      "inputs": [
        {
          "name": "_id",
          "type": "uint256"
        },
        {
          "name": "_symbol",
          "type": "string"
        },
        {
          "name": "_inverse",
          "type": "uint256"
        },
        {
          "name": "_isInverse",
          "type": "bool"
        }
      ],
      "name": "addCrypto",
      "outputs": [
        {
          "name": "success",
          "type": "bool"
        }
      ],
      "payable": false,
      "stateMutability": "nonpayable",
      "type": "function"
    },
    {
      "constant": false,
      "inputs": [
        {
          "name": "_users",
          "type": "address[]"
        },
        {
          "name": "_trades",
          "type": "uint256[]"
        }
      ],
      "name": "addTrades",
      "outputs": [],
      "payable": false,
      "stateMutability": "nonpayable",
      "type": "function"
    },
    {
      "constant": false,
      "inputs": [
        {
          "name": "_coinToken",
          "type": "address"
        },
        {
          "name": "_cashToken",
          "type": "address"
        },
        {
          "name": "_bank",
          "type": "address"
        },
        {
          "name": "_userData",
          "type": "address"
        }
      ],
      "name": "changeContracts",
      "outputs": [
        {
          "name": "success",
          "type": "bool"
        }
      ],
      "payable": false,
      "stateMutability": "nonpayable",
      "type": "function"
    },
    {
      "constant": false,
      "inputs": [
        {
          "name": "myid",
          "type": "bytes32"
        },
        {
          "name": "result",
          "type": "string"
        },
        {
          "name": "proof",
          "type": "bytes"
        }
      ],
      "name": "__callback",
      "outputs": [],
      "payable": false,
      "stateMutability": "nonpayable",
      "type": "function"
    },
    {
      "constant": true,
      "inputs": [
        {
          "name": "_cryptos",
          "type": "uint256[]"
        },
        {
          "name": "_isCoin",
          "type": "bool"
        }
      ],
      "name": "craftUrl",
      "outputs": [
        {
          "name": "",
          "type": "string"
        }
      ],
      "payable": false,
      "stateMutability": "view",
      "type": "function"
    },
    {
      "constant": true,
      "inputs": [
        {
          "name": "_cryptos",
          "type": "uint256[]"
        },
        {
          "name": "_result",
          "type": "string"
        },
        {
          "name": "_isCoin",
          "type": "bool"
        }
      ],
      "name": "decodePrices",
      "outputs": [
        {
          "name": "",
          "type": "uint256[]"
        }
      ],
      "payable": false,
      "stateMutability": "view",
      "type": "function"
    },
    {
      "constant": true,
      "inputs": [
        {
          "name": "_amounts",
          "type": "uint256[]"
        },
        {
          "name": "_cryptoValues",
          "type": "uint256[]"
        }
      ],
      "name": "calculateValue",
      "outputs": [
        {
          "name": "value",
          "type": "uint256"
        }
      ],
      "payable": false,
      "stateMutability": "pure",
      "type": "function"
    },
    {
      "constant": true,
      "inputs": [
        {
          "name": "_cryptos",
          "type": "uint256[]"
        },
        {
          "name": "_amounts",
          "type": "uint256[]"
        }
      ],
      "name": "bitConv",
      "outputs": [
        {
          "name": "",
          "type": "uint256[]"
        }
      ],
      "payable": false,
      "stateMutability": "pure",
      "type": "function"
    },
    {
      "constant": true,
      "inputs": [
        {
          "name": "_idsAndAmts",
          "type": "uint256[]"
        }
      ],
      "name": "bitRec",
      "outputs": [
        {
          "name": "",
          "type": "uint256[]"
        },
        {
          "name": "",
          "type": "uint256[]"
        }
      ],
      "payable": false,
      "stateMutability": "pure",
      "type": "function"
    },
    {
      "constant": false,
      "inputs": [
        {
          "name": "_newGasPrice",
          "type": "uint256"
        }
      ],
      "name": "changeGas",
      "outputs": [
        {
          "name": "success",
          "type": "bool"
        }
      ],
      "payable": false,
      "stateMutability": "nonpayable",
      "type": "function"
    },
    {
      "constant": false,
      "inputs": [
        {
          "name": "_tokenContract",
          "type": "address"
        },
        {
          "name": "_amount",
          "type": "uint256"
        }
      ],
      "name": "tokenEscape",
      "outputs": [],
      "payable": false,
      "stateMutability": "nonpayable",
      "type": "function"
    }
  ],
  "bytecode": "0x608060405260405160808062004f3983398101806040528101908080519060200190929190805190602001909291908051906020019092919080519060200190929190505050336000806101000a81548173ffffffffffffffffffffffffffffffffffffffff021916908373ffffffffffffffffffffffffffffffffffffffff16021790555033600160006101000a81548173ffffffffffffffffffffffffffffffffffffffff021916908373ffffffffffffffffffffffffffffffffffffffff16021790555083600460006101000a81548173ffffffffffffffffffffffffffffffffffffffff021916908373ffffffffffffffffffffffffffffffffffffffff16021790555082600560006101000a81548173ffffffffffffffffffffffffffffffffffffffff021916908373ffffffffffffffffffffffffffffffffffffffff16021790555081600260006101000a81548173ffffffffffffffffffffffffffffffffffffffff021916908373ffffffffffffffffffffffffffffffffffffffff16021790555080600360006101000a81548173ffffffffffffffffffffffffffffffffffffffff021916908373ffffffffffffffffffffffffffffffffffffffff1602179055506200021f60016040805190810160405280600481526020017f4254432c00000000000000000000000000000000000000000000000000000000815250600b600062000943640100000000026401000000009004565b506200027560026040805190810160405280600481526020017f4554482c00000000000000000000000000000000000000000000000000000000815250600c600062000943640100000000026401000000009004565b50620002cb60036040805190810160405280600481526020017f5852502c00000000000000000000000000000000000000000000000000000000815250600d600062000943640100000000026401000000009004565b506200032160046040805190810160405280600481526020017f4c54432c00000000000000000000000000000000000000000000000000000000815250600e600062000943640100000000026401000000009004565b506200037760056040805190810160405280600581526020017f444153482c000000000000000000000000000000000000000000000000000000815250600f600062000943640100000000026401000000009004565b50620003cd60066040805190810160405280600481526020017f4243482c000000000000000000000000000000000000000000000000000000008152506010600062000943640100000000026401000000009004565b506200042360076040805190810160405280600481526020017f584d522c000000000000000000000000000000000000000000000000000000008152506011600062000943640100000000026401000000009004565b506200047960086040805190810160405280600481526020017f58454d2c000000000000000000000000000000000000000000000000000000008152506012600062000943640100000000026401000000009004565b50620004cf60096040805190810160405280600481526020017f454f532c000000000000000000000000000000000000000000000000000000008152506013600062000943640100000000026401000000009004565b5062000525600a6040805190810160405280600581526020017f434f494e2c0000000000000000000000000000000000000000000000000000008152506014600062000943640100000000026401000000009004565b506200057a600b6040805190810160405280600481526020017f4254432c0000000000000000000000000000000000000000000000000000000081525060018062000943640100000000026401000000009004565b50620005d0600c6040805190810160405280600481526020017f4554482c000000000000000000000000000000000000000000000000000000008152506002600162000943640100000000026401000000009004565b5062000626600d6040805190810160405280600481526020017f5852502c000000000000000000000000000000000000000000000000000000008152506003600162000943640100000000026401000000009004565b506200067c600e6040805190810160405280600481526020017f4c54432c000000000000000000000000000000000000000000000000000000008152506004600162000943640100000000026401000000009004565b50620006d2600f6040805190810160405280600581526020017f444153482c0000000000000000000000000000000000000000000000000000008152506005600162000943640100000000026401000000009004565b506200072860106040805190810160405280600481526020017f4243482c000000000000000000000000000000000000000000000000000000008152506006600162000943640100000000026401000000009004565b506200077e60116040805190810160405280600481526020017f584d522c000000000000000000000000000000000000000000000000000000008152506007600162000943640100000000026401000000009004565b50620007d460126040805190810160405280600481526020017f58454d2c000000000000000000000000000000000000000000000000000000008152506008600162000943640100000000026401000000009004565b506200082a60136040805190810160405280600481526020017f454f532c000000000000000000000000000000000000000000000000000000008152506009600162000943640100000000026401000000009004565b506200088060146040805190810160405280600581526020017f434f494e2c000000000000000000000000000000000000000000000000000000815250600a600162000943640100000000026401000000009004565b50620008d660156040805190810160405280600581526020017f434153482c0000000000000000000000000000000000000000000000000000008152506016600062000943640100000000026401000000009004565b506200092c60166040805190810160405280600581526020017f434153482c0000000000000000000000000000000000000000000000000000008152506015600162000943640100000000026401000000009004565b506404a817c8006006819055505050505062000ac9565b60008060009054906101000a900473ffffffffffffffffffffffffffffffffffffffff1673ffffffffffffffffffffffffffffffffffffffff163373ffffffffffffffffffffffffffffffffffffffff16141515620009a157600080fd5b83600860008781526020019081526020016000209080519060200190620009ca92919062000a1a565b5082600960008781526020019081526020016000208190555081600a600087815260200190815260200160002060006101000a81548160ff02191690831515021790555060019050949350505050565b828054600181600116156101000203166002900490600052602060002090601f016020900481019282601f1062000a5d57805160ff191683800117855562000a8e565b8280016001018555821562000a8e579182015b8281111562000a8d57825182559160200191906001019062000a70565b5b50905062000a9d919062000aa1565b5090565b62000ac691905b8082111562000ac257600081600090555060010162000aa8565b5090565b90565b6144608062000ad96000396000f30060806040526004361061015f576000357c0100000000000000000000000000000000000000000000000000000000900463ffffffff1680630958a9f3146101615780631833a548146101b857806338bbfa50146101fd57806349c38b0a146102ba5780634b0720a714610360578063519e7e4f1461038b57806358797cb61461048e57806368e09ab5146104e557806376cdb03b146105325780638da5cb5b146105895780638f4ffcb1146105e05780639110ca561461069357806393911ff81461073457806398b6db14146107875780639d4870ba146107cc578063a7224687146108d9578063aa88a57c14610930578063ad3213e014610a1b578063bea6998f14610ad8578063c0eb2e7014610b2f578063c118453714610c1c578063ca1d4a5e14610cd7578063cca7322814610d18578063dfb6c46814610d6f578063e06572ec14610db2578063f2fde38b14610e9f578063f57cf3d214610ee2575b005b34801561016d57600080fd5b50610176610fe0565b604051808273ffffffffffffffffffffffffffffffffffffffff1673ffffffffffffffffffffffffffffffffffffffff16815260200191505060405180910390f35b3480156101c457600080fd5b506101e360048036038101908080359060200190929190505050611006565b604051808215151515815260200191505060405180910390f35b34801561020957600080fd5b506102b86004803603810190808035600019169060200190929190803590602001908201803590602001908080601f0160208091040260200160405190810160405280939291908181526020018383808284378201915050505050509192919290803590602001908201803590602001908080601f0160208091040260200160405190810160405280939291908181526020018383808284378201915050505050509192919290505050611073565b005b3480156102c657600080fd5b506102e560048036038101908080359060200190929190505050611229565b6040518080602001828103825283818151815260200191508051906020019080838360005b8381101561032557808201518184015260208101905061030a565b50505050905090810190601f1680156103525780820380516001836020036101000a031916815260200191505b509250505060405180910390f35b34801561036c57600080fd5b506103756112d9565b6040518082815260200191505060405180910390f35b34801561039757600080fd5b506103ef600480360381019080803590602001908201803590602001908080602002602001604051908101604052809392919081815260200183836020028082843782019150505050505091929192905050506112df565b604051808060200180602001838103835285818151815260200191508051906020019060200280838360005b8381101561043657808201518184015260208101905061041b565b50505050905001838103825284818151815260200191508051906020019060200280838360005b8381101561047857808201518184015260208101905061045d565b5050505090500194505050505060405180910390f35b34801561049a57600080fd5b506104a361140a565b604051808273ffffffffffffffffffffffffffffffffffffffff1673ffffffffffffffffffffffffffffffffffffffff16815260200191505060405180910390f35b3480156104f157600080fd5b50610530600480360381019080803573ffffffffffffffffffffffffffffffffffffffff16906020019092919080359060200190929190505050611430565b005b34801561053e57600080fd5b50610547611715565b604051808273ffffffffffffffffffffffffffffffffffffffff1673ffffffffffffffffffffffffffffffffffffffff16815260200191505060405180910390f35b34801561059557600080fd5b5061059e61173b565b604051808273ffffffffffffffffffffffffffffffffffffffff1673ffffffffffffffffffffffffffffffffffffffff16815260200191505060405180910390f35b3480156105ec57600080fd5b50610691600480360381019080803573ffffffffffffffffffffffffffffffffffffffff16906020019092919080359060200190929190803573ffffffffffffffffffffffffffffffffffffffff169060200190929190803590602001908201803590602001908080601f0160208091040260200160405190810160405280939291908181526020018383808284378201915050505050509192919290505050611760565b005b34801561069f57600080fd5b5061071a60048036038101908080359060200190929190803590602001908201803590602001908080601f0160208091040260200160405190810160405280939291908181526020018383808284378201915050505050509192919290803590602001909291908035151590602001909291905050506118ee565b604051808215151515815260200191505060405180910390f35b34801561074057600080fd5b506107856004803603810190808035906020019082018035906020019190919293919293908035906020019082018035906020019190919293919293905050506119c2565b005b34801561079357600080fd5b506107b260048036038101908080359060200190929190505050611b55565b604051808215151515815260200191505060405180910390f35b3480156107d857600080fd5b5061088260048036038101908080359060200190820180359060200190808060200260200160405190810160405280939291908181526020018383602002808284378201915050505050509192919290803590602001908201803590602001908080601f0160208091040260200160405190810160405280939291908181526020018383808284378201915050505050509192919290803515159060200190929190505050611b75565b6040518080602001828103825283818151815260200191508051906020019060200280838360005b838110156108c55780820151818401526020810190506108aa565b505050509050019250505060405180910390f35b3480156108e557600080fd5b506108ee6120ea565b604051808273ffffffffffffffffffffffffffffffffffffffff1673ffffffffffffffffffffffffffffffffffffffff16815260200191505060405180910390f35b34801561093c57600080fd5b506109a060048036038101908080359060200190820180359060200190808060200260200160405190810160405280939291908181526020018383602002808284378201915050505050509192919290803515159060200190929190505050612110565b6040518080602001828103825283818151815260200191508051906020019080838360005b838110156109e05780820151818401526020810190506109c5565b50505050905090810190601f168015610a0d5780820380516001836020036101000a031916815260200191505b509250505060405180910390f35b348015610a2757600080fd5b50610ac26004803603810190808035906020019082018035906020019080806020026020016040519081016040528093929190818152602001838360200280828437820191505050505050919291929080359060200190820180359060200190808060200260200160405190810160405280939291908181526020018383602002808284378201915050505050509192919290505050612381565b6040518082815260200191505060405180910390f35b348015610ae457600080fd5b50610aed612428565b604051808273ffffffffffffffffffffffffffffffffffffffff1673ffffffffffffffffffffffffffffffffffffffff16815260200191505060405180910390f35b348015610b3b57600080fd5b50610c02600480360381019080803573ffffffffffffffffffffffffffffffffffffffff169060200190929190803590602001908201803590602001908080602002602001604051908101604052809392919081815260200183836020028082843782019150505050505091929192908035906020019082018035906020019080806020026020016040519081016040528093929190818152602001838360200280828437820191505050505050919291929080351515906020019092919050505061244e565b604051808215151515815260200191505060405180910390f35b348015610c2857600080fd5b50610cbd600480360381019080803573ffffffffffffffffffffffffffffffffffffffff169060200190929190803573ffffffffffffffffffffffffffffffffffffffff169060200190929190803573ffffffffffffffffffffffffffffffffffffffff169060200190929190803573ffffffffffffffffffffffffffffffffffffffff169060200190929190505050612571565b604051808215151515815260200191505060405180910390f35b348015610ce357600080fd5b50610d02600480360381019080803590602001909291905050506126de565b6040518082815260200191505060405180910390f35b348015610d2457600080fd5b50610d59600480360381019080803573ffffffffffffffffffffffffffffffffffffffff1690602001909291905050506126f6565b6040518082815260200191505060405180910390f35b348015610d7b57600080fd5b50610db0600480360381019080803573ffffffffffffffffffffffffffffffffffffffff16906020019092919050505061270e565b005b348015610dbe57600080fd5b50610e85600480360381019080803573ffffffffffffffffffffffffffffffffffffffff16906020019092919080359060200190820180359060200190808060200260200160405190810160405280939291908181526020018383602002808284378201915050505050509192919290803590602001908201803590602001908080602002602001604051908101604052809392919081815260200183836020028082843782019150505050505091929192908035151590602001909291905050506127ea565b604051808215151515815260200191505060405180910390f35b348015610eab57600080fd5b50610ee0600480360381019080803573ffffffffffffffffffffffffffffffffffffffff16906020019092919050505061290d565b005b348015610eee57600080fd5b50610f896004803603810190808035906020019082018035906020019080806020026020016040519081016040528093929190818152602001838360200280828437820191505050505050919291929080359060200190820180359060200190808060200260200160405190810160405280939291908181526020018383602002808284378201915050505050509192919290505050612a62565b6040518080602001828103825283818151815260200191508051906020019060200280838360005b83811015610fcc578082015181840152602081019050610fb1565b505050509050019250505060405180910390f35b600160009054906101000a900473ffffffffffffffffffffffffffffffffffffffff1681565b60008060009054906101000a900473ffffffffffffffffffffffffffffffffffffffff1673ffffffffffffffffffffffffffffffffffffffff163373ffffffffffffffffffffffffffffffffffffffff1614151561106357600080fd5b8160068190555060019050919050565b61107b6142e5565b606080606080600080600060606000600760008e60001916600019168152602001908152602001600020608060405190810160405290816000820180548060200260200160405190810160405280929190818152602001828054801561110057602002820191906000526020600020905b8154815260200190600101908083116110ec575b505050505081526020016001820160009054906101000a900473ffffffffffffffffffffffffffffffffffffffff1673ffffffffffffffffffffffffffffffffffffffff1673ffffffffffffffffffffffffffffffffffffffff1681526020016001820160149054906101000a900460ff161515151581526020016001820160159054906101000a900460ff16151515158152505099506111a48a600001516112df565b985098508896508795508960200151945089604001519350896060015192506111ce878d85611b75565b91506111da8683612381565b90508315611200576111f0858888858588612b3b565b15156111fb57600080fd5b61121a565b61120e8588888585886134d5565b151561121957600080fd5b5b50505050505050505050505050565b60086020528060005260406000206000915090508054600181600116156101000203166002900480601f0160208091040260200160405190810160405280929190818152602001828054600181600116156101000203166002900480156112d15780601f106112a6576101008083540402835291602001916112d1565b820191906000526020600020905b8154815290600101906020018083116112b457829003601f168201915b505050505081565b60065481565b606080606080600085516040519080825280602002602001820160405280156113175781602001602082028038833980820191505090505b509250855160405190808252806020026020018201604052801561134a5781602001602082028038833980820191505090505b509150600090505b85518110156113fc57858181518110151561136957fe5b9060200190602002015160ff16838281518110151561138457fe5b9060200190602002018181525050600886828151811015156113a257fe5b906020019060200201519060020a90047effffffffffffffffffffffffffffffffffffffffffffffffffffffffffffff1682828151811015156113e157fe5b90602001906020020181815250508080600101915050611352565b828294509450505050915091565b600460009054906101000a900473ffffffffffffffffffffffffffffffffffffffff1681565b600080600160009054906101000a900473ffffffffffffffffffffffffffffffffffffffff1673ffffffffffffffffffffffffffffffffffffffff163373ffffffffffffffffffffffffffffffffffffffff1614151561148f57600080fd5b600073ffffffffffffffffffffffffffffffffffffffff168473ffffffffffffffffffffffffffffffffffffffff16141561153257600160009054906101000a900473ffffffffffffffffffffffffffffffffffffffff1673ffffffffffffffffffffffffffffffffffffffff166108fc849081150290604051600060405180830381858888f1935050505015801561152c573d6000803e3d6000fd5b5061170f565b8391508173ffffffffffffffffffffffffffffffffffffffff166370a08231306040518263ffffffff167c0100000000000000000000000000000000000000000000000000000000028152600401808273ffffffffffffffffffffffffffffffffffffffff1673ffffffffffffffffffffffffffffffffffffffff168152602001915050602060405180830381600087803b1580156115d057600080fd5b505af11580156115e4573d6000803e3d6000fd5b505050506040513d60208110156115fa57600080fd5b810190808051906020019092919050505090508173ffffffffffffffffffffffffffffffffffffffff1663a9059cbb600160009054906101000a900473ffffffffffffffffffffffffffffffffffffffff16836040518363ffffffff167c0100000000000000000000000000000000000000000000000000000000028152600401808373ffffffffffffffffffffffffffffffffffffffff1673ffffffffffffffffffffffffffffffffffffffff16815260200182815260200192505050602060405180830381600087803b1580156116d257600080fd5b505af11580156116e6573d6000803e3d6000fd5b505050506040513d60208110156116fc57600080fd5b8101908080519060200190929190505050505b50505050565b600260009054906101000a900473ffffffffffffffffffffffffffffffffffffffff1681565b6000809054906101000a900473ffffffffffffffffffffffffffffffffffffffff1681565b6000600460009054906101000a900473ffffffffffffffffffffffffffffffffffffffff1673ffffffffffffffffffffffffffffffffffffffff163373ffffffffffffffffffffffffffffffffffffffff16148061180b5750600560009054906101000a900473ffffffffffffffffffffffffffffffffffffffff1673ffffffffffffffffffffffffffffffffffffffff163373ffffffffffffffffffffffffffffffffffffffff16145b151561181657600080fd5b602482015190508073ffffffffffffffffffffffffffffffffffffffff168573ffffffffffffffffffffffffffffffffffffffff1614151561185757600080fd5b3073ffffffffffffffffffffffffffffffffffffffff168260405180828051906020019080838360005b8381101561189c578082015181840152602081019050611881565b50505050905090810190601f1680156118c95780820380516001836020036101000a031916815260200191505b50915050600060405180830381855af491505015156118e757600080fd5b5050505050565b60008060009054906101000a900473ffffffffffffffffffffffffffffffffffffffff1673ffffffffffffffffffffffffffffffffffffffff163373ffffffffffffffffffffffffffffffffffffffff1614151561194b57600080fd5b83600860008781526020019081526020016000209080519060200190611972929190614328565b5082600960008781526020019081526020016000208190555081600a600087815260200190815260200160002060006101000a81548160ff02191690831515021790555060019050949350505050565b6000600160009054906101000a900473ffffffffffffffffffffffffffffffffffffffff1673ffffffffffffffffffffffffffffffffffffffff163373ffffffffffffffffffffffffffffffffffffffff16141515611a2057600080fd5b8282905085859050141515611a3457600080fd5b600090505b84849050811015611b4e57611ad48383838181101515611a5557fe5b90506020020135600b60008888868181101515611a6e57fe5b9050602002013573ffffffffffffffffffffffffffffffffffffffff1673ffffffffffffffffffffffffffffffffffffffff1673ffffffffffffffffffffffffffffffffffffffff16815260200190815260200160002054613b4390919063ffffffff16565b600b60008787858181101515611ae657fe5b9050602002013573ffffffffffffffffffffffffffffffffffffffff1673ffffffffffffffffffffffffffffffffffffffff1673ffffffffffffffffffffffffffffffffffffffff168152602001908152602001600020819055508080600101915050611a39565b5050505050565b600a6020528060005260406000206000915054906101000a900460ff1681565b6060611b7f6143a8565b611b876143a8565b6060806060600080600060606000611b9e8d613b61565b9950611bde6040805190810160405280600381526020017f5553440000000000000000000000000000000000000000000000000000000000815250613b61565b9850611bfb611bf68a8c613b8f90919063ffffffff16565b613ba9565b975060018e5101604051908082528060200260200182016040528015611c305781602001602082028038833980820191505090505b509650611c4e611c498a8c613b8f90919063ffffffff16565b613ba9565b9550611c5b866012613c0b565b876000815181101515611c6a57fe5b9060200190602002018181525050600094505b8d518510156120d65760096000868152602001908152602001600020549350600092505b8d51831015611d3c5784831415611cb757611d3c565b838e84815181101515611cc657fe5b906020019060200201511415611d2f578660018401815181101515611ce757fe5b906020019060200201516ec097ce7bc90715b34b9f1000000000811515611d0a57fe5b048760018701815181101515611d1c57fe5b9060200190602002018181525050611d3c565b8280600101935050611ca1565b60008760018701815181101515611d4f57fe5b90602001906020020151148015611d6357508b5b8015611da85750600a8e86815181101515611d7a57fe5b906020019060200201511480611da7575060148e86815181101515611d9b57fe5b90602001906020020151145b5b15611e8057600a60008f87815181101515611dbf57fe5b90602001906020020151815260200190815260200160002060009054906101000a900460ff161515611e2857866000815181101515611dfa57fe5b906020019060200201518760018701815181101515611e1557fe5b9060200190602002018181525050611e7b565b866000815181101515611e3757fe5b906020019060200201516ec097ce7bc90715b34b9f1000000000811515611e5a57fe5b048760018701815181101515611e6c57fe5b90602001906020020181815250505b6120c9565b60008760018701815181101515611e9357fe5b90602001906020020151148015611ea857508b155b8015611eed575060148e86815181101515611ebf57fe5b906020019060200201511480611eec575060158e86815181101515611ee057fe5b90602001906020020151145b5b15611fc557600a60008f87815181101515611f0457fe5b90602001906020020151815260200190815260200160002060009054906101000a900460ff161515611f6d57866000815181101515611f3f57fe5b906020019060200201518760018701815181101515611f5a57fe5b9060200190602002018181525050611fc0565b866000815181101515611f7c57fe5b906020019060200201516ec097ce7bc90715b34b9f1000000000811515611f9f57fe5b048760018701815181101515611fb157fe5b90602001906020020181815250505b6120c8565b60008760018701815181101515611fd857fe5b9060200190602002015114156120c757612003611ffe8a8c613b8f90919063ffffffff16565b613ba9565b9150612010826012613c0b565b90506000811180156120575750600a60008f8781518110151561202f57fe5b90602001906020020151815260200190815260200160002060009054906101000a900460ff16155b156120815780876001870181518110151561206e57fe5b90602001906020020181815250506120c6565b60008111156120c557806ec097ce7bc90715b34b9f10000000008115156120a457fe5b0487600187018151811015156120b657fe5b90602001906020020181815250505b5b5b5b5b8480600101955050611c7d565b869a50505050505050505050509392505050565b600560009054906101000a900473ffffffffffffffffffffffffffffffffffffffff1681565b606080600080841561218057606060405190810160405280603d81526020017f68747470733a2f2f6d696e2d6170692e63727970746f636f6d706172652e636f81526020017f6d2f646174612f70726963656d756c74693f6673796d733d434f494e2c00000081525092506121e0565b606060405190810160405280603d81526020017f68747470733a2f2f6d696e2d6170692e63727970746f636f6d706172652e636f81526020017f6d2f646174612f70726963656d756c74693f6673796d733d434153482c00000081525092505b600091505b855182101561231b5785828151811015156121fc57fe5b90602001906020020151905060006008600083815260200190815260200160002080546001816001161561010002031660029004905011151561223e57600080fd5b61230c6122f5600860008481526020019081526020016000208054600181600116156101000203166002900480601f0160208091040260200160405190810160405280929190818152602001828054600181600116156101000203166002900480156122eb5780601f106122c0576101008083540402835291602001916122eb565b820191906000526020600020905b8154815290600101906020018083116122ce57829003601f168201915b5050505050613b61565b6122fe85613b61565b613eff90919063ffffffff16565b925081806001019250506121e5565b61237361235c6040805190810160405280600a81526020017f267473796d733d55534400000000000000000000000000000000000000000000815250613b61565b61236585613b61565b613eff90919063ffffffff16565b925082935050505092915050565b600080600090505b8351811015612421576124126124038460008151811015156123a757fe5b906020019060200201516123f587858151811015156123c257fe5b9060200190602002015187600187018151811015156123dd57fe5b90602001906020020151613f8190919063ffffffff16565b613fb490919063ffffffff16565b83613b4390919063ffffffff16565b91508080600101915050612389565b5092915050565b600360009054906101000a900473ffffffffffffffffffffffffffffffffffffffff1681565b6000848073ffffffffffffffffffffffffffffffffffffffff163373ffffffffffffffffffffffffffffffffffffffff1614806124d85750600460009054906101000a900473ffffffffffffffffffffffffffffffffffffffff1673ffffffffffffffffffffffffffffffffffffffff163373ffffffffffffffffffffffffffffffffffffffff16145b806125305750600560009054906101000a900473ffffffffffffffffffffffffffffffffffffffff1673ffffffffffffffffffffffffffffffffffffffff163373ffffffffffffffffffffffffffffffffffffffff16145b151561253b57600080fd5b8351855114151561254b57600080fd5b612559868686866001613fcf565b151561256457600080fd5b6001915050949350505050565b60008060009054906101000a900473ffffffffffffffffffffffffffffffffffffffff1673ffffffffffffffffffffffffffffffffffffffff163373ffffffffffffffffffffffffffffffffffffffff161415156125ce57600080fd5b84600460006101000a81548173ffffffffffffffffffffffffffffffffffffffff021916908373ffffffffffffffffffffffffffffffffffffffff16021790555083600560006101000a81548173ffffffffffffffffffffffffffffffffffffffff021916908373ffffffffffffffffffffffffffffffffffffffff16021790555082600260006101000a81548173ffffffffffffffffffffffffffffffffffffffff021916908373ffffffffffffffffffffffffffffffffffffffff16021790555081600360006101000a81548173ffffffffffffffffffffffffffffffffffffffff021916908373ffffffffffffffffffffffffffffffffffffffff16021790555060019050949350505050565b60096020528060005260406000206000915090505481565b600b6020528060005260406000206000915090505481565b600160009054906101000a900473ffffffffffffffffffffffffffffffffffffffff1673ffffffffffffffffffffffffffffffffffffffff163373ffffffffffffffffffffffffffffffffffffffff1614151561276a57600080fd5b600073ffffffffffffffffffffffffffffffffffffffff168173ffffffffffffffffffffffffffffffffffffffff16141515156127a657600080fd5b80600160006101000a81548173ffffffffffffffffffffffffffffffffffffffff021916908373ffffffffffffffffffffffffffffffffffffffff16021790555050565b6000848073ffffffffffffffffffffffffffffffffffffffff163373ffffffffffffffffffffffffffffffffffffffff1614806128745750600460009054906101000a900473ffffffffffffffffffffffffffffffffffffffff1673ffffffffffffffffffffffffffffffffffffffff163373ffffffffffffffffffffffffffffffffffffffff16145b806128cc5750600560009054906101000a900473ffffffffffffffffffffffffffffffffffffffff1673ffffffffffffffffffffffffffffffffffffffff163373ffffffffffffffffffffffffffffffffffffffff16145b15156128d757600080fd5b835185511415156128e757600080fd5b6128f5868686866000613fcf565b151561290057600080fd5b6001915050949350505050565b6000809054906101000a900473ffffffffffffffffffffffffffffffffffffffff1673ffffffffffffffffffffffffffffffffffffffff163373ffffffffffffffffffffffffffffffffffffffff1614151561296857600080fd5b600073ffffffffffffffffffffffffffffffffffffffff168173ffffffffffffffffffffffffffffffffffffffff16141515156129a457600080fd5b8073ffffffffffffffffffffffffffffffffffffffff166000809054906101000a900473ffffffffffffffffffffffffffffffffffffffff1673ffffffffffffffffffffffffffffffffffffffff167f8be0079c531659141344cd1fd0a4f28419497f9722a3daafe3b4186f6b6457e060405160405180910390a3806000806101000a81548173ffffffffffffffffffffffffffffffffffffffff021916908373ffffffffffffffffffffffffffffffffffffffff16021790555050565b60608060008451604051908082528060200260200182016040528015612a975781602001602082028038833980820191505090505b509150600090505b8451811015612b30578481815181101515612ab657fe5b906020019060200201518282815181101515612ace57fe5b906020019060200201818151179150818152505060088482815181101515612af257fe5b906020019060200201519060020a028282815181101515612b0f57fe5b90602001906020020181815117915081815250508080600101915050612a9f565b819250505092915050565b60008060008315612b7057600460009054906101000a900473ffffffffffffffffffffffffffffffffffffffff169150612b96565b600560009054906101000a900473ffffffffffffffffffffffffffffffffffffffff1691505b856000815181101515612ba557fe5b906020019060200201516f03c109feac3f9bac48ec8cec00000000811515612bc957fe5b0490506000600b60008b73ffffffffffffffffffffffffffffffffffffffff1673ffffffffffffffffffffffffffffffffffffffff168152602001908152602001600020541115612caf57612c676001600b60008c73ffffffffffffffffffffffffffffffffffffffff1673ffffffffffffffffffffffffffffffffffffffff168152602001908152602001600020546140fd90919063ffffffff16565b600b60008b73ffffffffffffffffffffffffffffffffffffffff1673ffffffffffffffffffffffffffffffffffffffff16815260200190815260200160002081905550612def565b8173ffffffffffffffffffffffffffffffffffffffff166323b872dd8a600160009054906101000a900473ffffffffffffffffffffffffffffffffffffffff16846040518463ffffffff167c0100000000000000000000000000000000000000000000000000000000028152600401808473ffffffffffffffffffffffffffffffffffffffff1673ffffffffffffffffffffffffffffffffffffffff1681526020018373ffffffffffffffffffffffffffffffffffffffff1673ffffffffffffffffffffffffffffffffffffffff1681526020018281526020019350505050602060405180830381600087803b158015612da857600080fd5b505af1158015612dbc573d6000803e3d6000fd5b505050506040513d6020811015612dd257600080fd5b81019080805190602001909291905050501515612dee57600080fd5b5b8173ffffffffffffffffffffffffffffffffffffffff166323b872dd8a600260009054906101000a900473ffffffffffffffffffffffffffffffffffffffff16886040518463ffffffff167c0100000000000000000000000000000000000000000000000000000000028152600401808473ffffffffffffffffffffffffffffffffffffffff1673ffffffffffffffffffffffffffffffffffffffff1681526020018373ffffffffffffffffffffffffffffffffffffffff1673ffffffffffffffffffffffffffffffffffffffff1681526020018281526020019350505050602060405180830381600087803b158015612ee857600080fd5b505af1158015612efc573d6000803e3d6000fd5b505050506040513d6020811015612f1257600080fd5b81019080805190602001909291905050501515612f2e57600080fd5b600a886000815181101515612f3f57fe5b90602001906020020151148015612f57575060018851145b1561309157600260009054906101000a900473ffffffffffffffffffffffffffffffffffffffff1673ffffffffffffffffffffffffffffffffffffffff1663e1ad11628a896000815181101515612faa57fe5b9060200190602002015160016040518463ffffffff167c0100000000000000000000000000000000000000000000000000000000028152600401808473ffffffffffffffffffffffffffffffffffffffff1673ffffffffffffffffffffffffffffffffffffffff168152602001838152602001821515151581526020019350505050602060405180830381600087803b15801561304657600080fd5b505af115801561305a573d6000803e3d6000fd5b505050506040513d602081101561307057600080fd5b8101908080519060200190929190505050151561308c57600080fd5b613398565b60158860008151811015156130a257fe5b906020019060200201511480156130ba575060018851145b156131f457600260009054906101000a900473ffffffffffffffffffffffffffffffffffffffff1673ffffffffffffffffffffffffffffffffffffffff1663e1ad11628a89600081518110151561310d57fe5b9060200190602002015160006040518463ffffffff167c0100000000000000000000000000000000000000000000000000000000028152600401808473ffffffffffffffffffffffffffffffffffffffff1673ffffffffffffffffffffffffffffffffffffffff168152602001838152602001821515151581526020019350505050602060405180830381600087803b1580156131a957600080fd5b505af11580156131bd573d6000803e3d6000fd5b505050506040513d60208110156131d357600080fd5b810190808051906020019092919050505015156131ef57600080fd5b613397565b600360009054906101000a900473ffffffffffffffffffffffffffffffffffffffff1673ffffffffffffffffffffffffffffffffffffffff166348663e7d8a8a8a60016040518563ffffffff167c0100000000000000000000000000000000000000000000000000000000028152600401808573ffffffffffffffffffffffffffffffffffffffff1673ffffffffffffffffffffffffffffffffffffffff168152602001806020018060200184151515158152602001838103835286818151815260200191508051906020019060200280838360005b838110156132e55780820151818401526020810190506132ca565b50505050905001838103825285818151815260200191508051906020019060200280838360005b8381101561332757808201518184015260208101905061330c565b505050509050019650505050505050602060405180830381600087803b15801561335057600080fd5b505af1158015613364573d6000803e3d6000fd5b505050506040513d602081101561337a57600080fd5b8101908080519060200190929190505050151561339657600080fd5b5b5b8873ffffffffffffffffffffffffffffffffffffffff167f895ef9c96d74ac11a2e32168368a763090669cc42fb30692c31b3242be99637d898989886040518080602001806020018060200185151515158152602001848103845288818151815260200191508051906020019060200280838360005b8381101561342957808201518184015260208101905061340e565b50505050905001848103835287818151815260200191508051906020019060200280838360005b8381101561346b578082015181840152602081019050613450565b50505050905001848103825286818151815260200191508051906020019060200280838360005b838110156134ad578082015181840152602081019050613492565b5050505090500197505050505050505060405180910390a26001925050509695505050505050565b6000808460008151811015156134e757fe5b906020019060200201516f03c109feac3f9bac48ec8cec0000000081151561350b57fe5b0490506000600b60008a73ffffffffffffffffffffffffffffffffffffffff1673ffffffffffffffffffffffffffffffffffffffff1681526020019081526020016000205411156135f1576135a96001600b60008b73ffffffffffffffffffffffffffffffffffffffff1673ffffffffffffffffffffffffffffffffffffffff168152602001908152602001600020546140fd90919063ffffffff16565b600b60008a73ffffffffffffffffffffffffffffffffffffffff1673ffffffffffffffffffffffffffffffffffffffff1681526020019081526020016000208190555061374e565b80841115156135ff57600080fd5b600260009054906101000a900473ffffffffffffffffffffffffffffffffffffffff1673ffffffffffffffffffffffffffffffffffffffff1663e1ad1162600160009054906101000a900473ffffffffffffffffffffffffffffffffffffffff1683866040518463ffffffff167c0100000000000000000000000000000000000000000000000000000000028152600401808473ffffffffffffffffffffffffffffffffffffffff1673ffffffffffffffffffffffffffffffffffffffff168152602001838152602001821515151581526020019350505050602060405180830381600087803b1580156136f257600080fd5b505af1158015613706573d6000803e3d6000fd5b505050506040513d602081101561371c57600080fd5b8101908080519060200190929190505050151561373857600080fd5b61374b81856140fd90919063ffffffff16565b93505b600260009054906101000a900473ffffffffffffffffffffffffffffffffffffffff1673ffffffffffffffffffffffffffffffffffffffff1663e1ad11628986866040518463ffffffff167c0100000000000000000000000000000000000000000000000000000000028152600401808473ffffffffffffffffffffffffffffffffffffffff1673ffffffffffffffffffffffffffffffffffffffff168152602001838152602001821515151581526020019350505050602060405180830381600087803b15801561381f57600080fd5b505af1158015613833573d6000803e3d6000fd5b505050506040513d602081101561384957600080fd5b8101908080519060200190929190505050151561386557600080fd5b600360009054906101000a900473ffffffffffffffffffffffffffffffffffffffff1673ffffffffffffffffffffffffffffffffffffffff166348663e7d89898960006040518563ffffffff167c0100000000000000000000000000000000000000000000000000000000028152600401808573ffffffffffffffffffffffffffffffffffffffff1673ffffffffffffffffffffffffffffffffffffffff168152602001806020018060200184151515158152602001838103835286818151815260200191508051906020019060200280838360005b8381101561395657808201518184015260208101905061393b565b50505050905001838103825285818151815260200191508051906020019060200280838360005b8381101561399857808201518184015260208101905061397d565b505050509050019650505050505050602060405180830381600087803b1580156139c157600080fd5b505af11580156139d5573d6000803e3d6000fd5b505050506040513d60208110156139eb57600080fd5b81019080805190602001909291905050501515613a0757600080fd5b8773ffffffffffffffffffffffffffffffffffffffff167f9e2c65ef7d25bc0a96884607a1683a8db0dc8f84bf3ce8905cdfe326b2742339888888876040518080602001806020018060200185151515158152602001848103845288818151815260200191508051906020019060200280838360005b83811015613a98578082015181840152602081019050613a7d565b50505050905001848103835287818151815260200191508051906020019060200280838360005b83811015613ada578082015181840152602081019050613abf565b50505050905001848103825286818151815260200191508051906020019060200280838360005b83811015613b1c578082015181840152602081019050613b01565b5050505090500197505050505050505060405180910390a260019150509695505050505050565b6000808284019050838110151515613b5757fe5b8091505092915050565b613b696143a8565b600060208301905060408051908101604052808451815260200182815250915050919050565b613b976143a8565b613ba2838383614116565b5092915050565b606080600083600001516040519080825280601f01601f191660200182016040528015613be55781602001602082028038833980820191505090505b509150602082019050613c0181856020015186600001516141b4565b8192505050919050565b6000606060008060008693506000925060009150600090505b8351811015613ee05760307f0100000000000000000000000000000000000000000000000000000000000000028482815181101515613c5f57fe5b9060200101517f010000000000000000000000000000000000000000000000000000000000000090047f0100000000000000000000000000000000000000000000000000000000000000027effffffffffffffffffffffffffffffffffffffffffffffffffffffffffffff191610158015613d77575060397f0100000000000000000000000000000000000000000000000000000000000000028482815181101515613d0757fe5b9060200101517f010000000000000000000000000000000000000000000000000000000000000090047f0100000000000000000000000000000000000000000000000000000000000000027effffffffffffffffffffffffffffffffffffffffffffffffffffffffffffff191611155b15613e28578115613d9a576000861415613d9057613ee0565b8580600190039650505b600a8302925060308482815181101515613db057fe5b9060200101517f010000000000000000000000000000000000000000000000000000000000000090047f0100000000000000000000000000000000000000000000000000000000000000027f010000000000000000000000000000000000000000000000000000000000000090040383019250613ed3565b602e7f0100000000000000000000000000000000000000000000000000000000000000028482815181101515613e5a57fe5b9060200101517f010000000000000000000000000000000000000000000000000000000000000090047f0100000000000000000000000000000000000000000000000000000000000000027effffffffffffffffffffffffffffffffffffffffffffffffffffffffffffff19161415613ed257600191505b5b8080600101915050613c24565b6000861115613ef25785600a0a830292505b8294505050505092915050565b606080600083600001518560000151016040519080825280601f01601f191660200182016040528015613f415781602001602082028038833980820191505090505b509150602082019050613f5d81866020015187600001516141b4565b613f7685600001518201856020015186600001516141b4565b819250505092915050565b60008082840290506000841480613fa25750828482811515613f9f57fe5b04145b1515613faa57fe5b8091505092915050565b6000808284811515613fc257fe5b0490508091505092915050565b600060606000613fdf8786612110565b9150600180029050608060405190810160405280613ffd8989612a62565b81526020018973ffffffffffffffffffffffffffffffffffffffff168152602001851515815260200186151581525060076000836000191660001916815260200190815260200160002060008201518160000190805190602001906140639291906143c2565b5060208201518160010160006101000a81548173ffffffffffffffffffffffffffffffffffffffff021916908373ffffffffffffffffffffffffffffffffffffffff16021790555060408201518160010160146101000a81548160ff02191690831515021790555060608201518160010160156101000a81548160ff02191690831515021790555090505060019250505095945050505050565b600082821115151561410b57fe5b818303905092915050565b61411e6143a8565b600061413c85600001518660200151866000015187602001516141ff565b9050846020015183602001818152505084602001518103836000018181525050846000015185602001510181141561417e5760008560000181815250506141a9565b8360000151836000015101856000018181510391508181525050836000015181018560200181815250505b829150509392505050565b60005b6020821015156141dc57825184526020840193506020830192506020820391506141b7565b6001826020036101000a0390508019835116818551168181178652505050505050565b60008060008060008060008060008b97508c8b1115156142cf5760208b1115156142895760018b60200360080260020a03196001029550858a511694508a8d8d010393508588511692505b8460001916836000191614151561428157838810151561426e578c8c0198506142d5565b878060010198505085885116925061424a565b8798506142d5565b8a8a209150600096505b8a8d03871115156142ce578a882090508060001916826000191614156142bb578798506142d5565b6001880197508680600101975050614293565b5b8c8c0198505b5050505050505050949350505050565b60806040519081016040528060608152602001600073ffffffffffffffffffffffffffffffffffffffff1681526020016000151581526020016000151581525090565b828054600181600116156101000203166002900490600052602060002090601f016020900481019282601f1061436957805160ff1916838001178555614397565b82800160010185558215614397579182015b8281111561439657825182559160200191906001019061437b565b5b5090506143a4919061440f565b5090565b604080519081016040528060008152602001600081525090565b8280548282559060005260206000209081019282156143fe579160200282015b828111156143fd5782518255916020019190600101906143e2565b5b50905061440b919061440f565b5090565b61443191905b8082111561442d576000816000905550600101614415565b5090565b905600a165627a7a723058203d4dfb098beba552438316f7fd9b82fc7baee89e703a2b4d03f7b1da4df2355d0029",
  "source": "pragma solidity ^0.4.23;\nimport './SafeMathLib.sol';\nimport './Ownable.sol';\nimport './Strings.sol';\nimport './UserData.sol';\nimport './Bank.sol';\nimport './ERC20Interface.sol';\n//import \"github.com/oraclize/ethereum-api/oraclizeAPI.sol\";\n\n\n/**\n * @dev This contract accepts COIN deposit with a list of every crypto in desired portfolio\n * @dev (and the % of each) stores this information, then disburses withdrawals when requested\n * @dev in COIN depending on the new price of the coins in the portfolio\n**/\n\ncontract InvestmentTest is Ownable {//, usingOraclize { \n\n    using SafeMathLib for uint256;\n    using strings for *;\n    \n    Bank public bank;\n    UserData public userData;\n    address public coinToken;\n    address public cashToken;\n    uint256 public customGasPrice;\n    \n    // Stores all trade info so Oraclize can return and update.\n    // idsAndAmts stores both the crypto ID and amounts with a uint8 and uint248 respectively.\n    struct TradeInfo {\n        uint256[] idsAndAmts;\n        address beneficiary;\n        bool isBuy;\n        bool isCoin;\n    }\n    \n    // Oraclize ID => TradeInfo.\n    mapping(bytes32 => TradeInfo) trades;\n    \n    // Crypto Id => string symbol used for crafting Oraclize URL.\n    mapping(uint256 => string) public cryptoSymbols;\n    \n    // Crypto Id => the inverse (or regular) crypto this id is tied to, if any.\n    mapping(uint256 => uint256) public tiedInverse;\n    \n    // Crypto Id => whether or not this crypto is an inverse.\n    mapping (uint256 => bool) public isInverse;\n\n    // Balances of a user's free trades, generally given as reward for DAO voting.\n    mapping(address => uint256) public freeTrades;\n\n    event newOraclizeQuery(string description);\n    event Buy(address indexed buyer, uint256[] cryptoIds, uint256[] amounts, uint256[] prices, bool isCoin);\n    event Sell(address indexed seller, uint256[] cryptoIds, uint256[] amounts, uint256[] prices, bool isCoin);\n\n/** ********************************** Defaults ************************************* **/\n    \n    /**\n     * @dev Constructor function, construct with coinvest token.\n     * @param _coinToken The address of the Coinvest COIN token.\n     * @param _cashToken Address of the Coinvest CASH token.\n     * @param _bank Contract where all of the user Coinvest tokens will be stored.\n     * @param _userData Contract where all of the user balances will be stored.\n    **/\n    constructor(address _coinToken, address _cashToken, address _bank, address _userData)\n      public\n      payable\n    {\n        coinToken = _coinToken;\n        cashToken = _cashToken;\n        bank = Bank(_bank);\n        userData = UserData(_userData);\n\n        //oraclize_setProof(proofType_TLSNotary | proofStorage_IPFS);\n        \n        addCrypto(1, \"BTC,\", 11, false);\n        addCrypto(2, \"ETH,\", 12, false);\n        addCrypto(3, \"XRP,\", 13, false);\n        addCrypto(4, \"LTC,\", 14, false);\n        addCrypto(5, \"DASH,\", 15, false);\n        addCrypto(6, \"BCH,\", 16, false);\n        addCrypto(7, \"XMR,\", 17, false);\n        addCrypto(8, \"XEM,\", 18, false);\n        addCrypto(9, \"EOS,\", 19, false);\n        addCrypto(10, \"COIN,\", 20, false);\n        addCrypto(11, \"BTC,\", 1, true);\n        addCrypto(12, \"ETH,\", 2, true);\n        addCrypto(13, \"XRP,\", 3, true);\n        addCrypto(14, \"LTC,\", 4, true);\n        addCrypto(15, \"DASH,\", 5, true);\n        addCrypto(16, \"BCH,\", 6, true);\n        addCrypto(17, \"XMR,\", 7, true);\n        addCrypto(18, \"XEM,\", 8, true);\n        addCrypto(19, \"EOS,\", 9, true);\n        addCrypto(20, \"COIN,\", 10, true);\n        addCrypto(21, \"CASH,\", 22, false);\n        addCrypto(22, \"CASH,\", 21, true);\n\n        customGasPrice = 20000000000;\n        //oraclize_setCustomGasPrice(customGasPrice);\n    }\n  \n    function()\n      external\n      payable\n    {\n        \n    }\n  \n/** *************************** ApproveAndCall FallBack **************************** **/\n  \n    /**\n     * @dev ApproveAndCall will send us data, we'll determine if the beneficiary is the sender, then we'll call this contract.\n    **/\n    function receiveApproval(address _from, uint256 _amount, address _token, bytes _data) \n      public\n    {\n        require(msg.sender == coinToken || msg.sender == cashToken);\n        \n        // check here to make sure _from == beneficiary in data\n        address beneficiary;\n        assembly {\n            beneficiary := mload(add(_data,36))\n        }\n        require(_from == beneficiary);\n        \n        require(address(this).delegatecall(_data));\n    }\n  \n/** ********************************** External ************************************* **/\n    \n    /**\n     * @dev User calls to invest, will then call Oraclize and Oraclize adds holdings.\n     * @dev User must first approve this contract to transfer enough tokens to buy.\n     * @param _beneficiary The user making the call whose balance will be updated.\n     * @param _cryptoIds The Ids of the cryptos to invest in.\n     * @param _amounts The amount of each crypto the user wants to buy, delineated in 10 ^ 18 wei.\n     * @param _isCoin True/False of the crypto that is being used to invest is COIN/CASH.\n    **/\n    function buy(address _beneficiary, uint256[] _cryptoIds, uint256[] _amounts, bool _isCoin)\n      public\n      onlySenderOrToken(_beneficiary)\n    returns (bool success)\n    {\n        require(_cryptoIds.length == _amounts.length);\n        require(getPrices(_beneficiary, _cryptoIds, _amounts, _isCoin, true));\n        return true;\n    }\n    \n    /**\n     * @dev User calls to sell holdings with same parameters as buy.\n    **/\n    function sell(address _beneficiary, uint256[] _cryptoIds, uint256[] _amounts, bool _isCoin)\n      public\n      onlySenderOrToken(_beneficiary)\n    returns (bool success)\n    {\n        require(_cryptoIds.length == _amounts.length);\n        require(getPrices(_beneficiary, _cryptoIds, _amounts, _isCoin, false));\n        return true;\n    }\n    \n/** ********************************** Internal ************************************ **/\n    \n    /**\n     * @dev Broker will call this for an investor to invest in one or multiple assets\n     * @param _beneficiary The address that is being bought for\n     * @param _cryptoIds The list of uint IDs for each crypto to buy\n     * @param _amounts The amounts of each crypto to buy (measured in 10 ** 18 wei!)\n     * @param _prices The price of each bought crypto at time of callback.\n     * @param _coinValue The amount of coin to transferFrom from user.\n     * @param _isCoin True/False of the crypto that is being used to invest is COIN/CASH.\n    **/\n    function finalizeBuy(address _beneficiary, uint256[] _cryptoIds, uint256[] _amounts, uint256[] _prices, uint256 _coinValue, bool _isCoin)\n      internal\n    returns (bool success)\n    {\n        ERC20Interface token;\n        if (_isCoin) token = ERC20Interface(coinToken);\n        else token = ERC20Interface(cashToken);\n\n        uint256 fee = 4990000000000000000 * (10 ** 18) / _prices[0];\n        if (freeTrades[_beneficiary] >  0) freeTrades[_beneficiary] = freeTrades[_beneficiary].sub(1);\n        else require(token.transferFrom(_beneficiary, coinvest, fee));\n        \n        require(token.transferFrom(_beneficiary, bank, _coinValue));\n\n        // We want to allow actual COIN/CASH exchange so users have easy access and we can \"CASH\" out fees\n        if (_cryptoIds[0] == 10 && _cryptoIds.length == 1) {\n            require(bank.transfer(_beneficiary, _amounts[0], true));\n        } else if (_cryptoIds[0] == 21 && _cryptoIds.length == 1) {\n            require(bank.transfer(_beneficiary, _amounts[0], false));\n        } else {\n            require(userData.modifyHoldings(_beneficiary, _cryptoIds, _amounts, true));\n        }\n\n        emit Buy(_beneficiary, _cryptoIds, _amounts, _prices, _isCoin);\n        return true;\n    }\n    \n    /**\n     * @param _beneficiary The address that is being sold for\n     * @param _cryptoIds The list of uint IDs for each crypto\n     * @param _amounts The amounts of each crypto to sell (measured in 10 ** 18 wei!)\n     * @param _prices The prices of each crypto at time of callback.\n     * @param _coinValue The amount of COIN to be transferred to user.\n     * @param _isCoin True/False of the crypto that is being used to invest is COIN/CASH.\n    **/\n    function finalizeSell(address _beneficiary, uint256[] _cryptoIds, uint256[] _amounts, uint256[] _prices, uint256 _coinValue, bool _isCoin)\n      internal\n    returns (bool success)\n    {   \n        uint256 fee = 4990000000000000000 * (10 ** 18) / _prices[0];\n        if (freeTrades[_beneficiary] > 0) freeTrades[_beneficiary] = freeTrades[_beneficiary].sub(1);\n        else {\n            require(_coinValue > fee);\n            require(bank.transfer(coinvest, fee, _isCoin));\n            _coinValue = _coinValue.sub(fee);\n        }\n\n        require(bank.transfer(_beneficiary, _coinValue, _isCoin));\n        \n        // Subtract from balance of each held crypto for user.\n        require(userData.modifyHoldings(_beneficiary, _cryptoIds, _amounts, false));\n        \n        emit Sell(_beneficiary, _cryptoIds, _amounts, _prices, _isCoin);\n        return true;\n    }\n    \n/** ******************************** Only Owner ************************************* **/\n    \n    /**\n     * @dev Owner may add a crypto to the investment contract.\n     * @param _id Id of the new crypto.\n     * @param _symbol Symbol of the new crypto.\n     * @param _inverse The inverse crypto id, if any, that this crypto is tied to\n     * @param _isInverse Whether or not this crypto is an inverse.\n    **/\n    function addCrypto(uint256 _id, string _symbol, uint256 _inverse, bool _isInverse)\n      public\n      onlyOwner\n    returns (bool success)\n    {\n\n        cryptoSymbols[_id] = _symbol;\n        tiedInverse[_id] = _inverse;\n        isInverse[_id] = _isInverse;\n        return true;\n    }\n    \n    /**\n     * @dev Allows Coinvest to reward users with free platform trades.\n     * @param _users List of users to reward.\n     * @param _trades List of free trades to give to each.\n    **/\n    function addTrades(address[] _users, uint256[] _trades)\n      external\n      onlyCoinvest\n    {\n        require(_users.length == _trades.length);\n        \n        for (uint256 i = 0; i < _users.length; i++) {\n            freeTrades[_users[i]] = freeTrades[_users[i]].add(_trades[i]);\n        }     \n    }\n\n    /**\n     * @dev Allows owner to change address of other contracts in the system.\n     * @param _coinToken Address of the COIN token contract.\n     * @param _cashToken Address of the CASH token contract.\n     * @param _bank Address of the bank contract.\n     * @param _userData Address of the user data contract.\n    **/\n    function changeContracts(address _coinToken, address _cashToken, address _bank, address _userData)\n      external\n      onlyOwner\n    returns (bool success)\n    {\n        coinToken = _coinToken;\n        cashToken = _cashToken;\n        bank = Bank(_bank);\n        userData = UserData(_userData);\n        return true;\n    }\n    \n/** ********************************* Modifiers ************************************* **/\n    \n    /**\n     * @dev For buys and sells we only want an approved broker or the buyer/seller\n     * @dev themselves to mess with the buyer/seller's portfolio\n     * @param _beneficiary The buyer or seller whose portfolio is being modified\n    **/\n    modifier onlySenderOrToken(address _beneficiary)\n    {\n        require(msg.sender == _beneficiary || msg.sender == coinToken || msg.sender == cashToken);\n        _;\n    }\n    \n/** ******************************************************************************** **/\n/** ******************************* Oracle Logic *********************************** **/\n/** ******************************************************************************** **/\n\n    /**\n     * @dev Here we Oraclize to CryptoCompare to get prices for these cryptos.\n     * @param _cryptos The IDs of the cryptos to get prices for.\n     * @param _amounts Amount of each crypto to buy.\n     * @param _isCoin True/False of the crypto that is being used to invest is COIN/CASH.\n     * @param _buy Whether or not this is a buy (as opposed to sell).\n    **/\n    function getPrices(address _beneficiary, uint256[] _cryptos, uint256[] _amounts, bool _isCoin, bool _buy) \n      internal\n    returns (bool success)\n    {\n        //if (oraclize_getPrice(\"URL\") > this.balance) {\n        //    emit newOraclizeQuery(\"Oraclize query was NOT sent, please add some ETH to cover for the query fee\");\n        //} else {\n        //    emit newOraclizeQuery(\"Oraclize query was sent, standing by for the answer..\");\n            string memory fullUrl = craftUrl(_cryptos, _isCoin);\n            \n        //    bytes32 queryId = oraclize_query(\"URL\", fullUrl, 150000 + 50000 * _cryptos.length);\n            bytes32 queryId = 0x0000000000000000000000000000000000000000000000000000000000000001;\n            trades[queryId] = TradeInfo(bitConv(_cryptos, _amounts), _beneficiary, _buy, _isCoin);\n        //}\n        return true;\n    }\n    \n    /**\n     * @dev Oraclize calls and should simply set the query array to the int results.\n    **/\n    function __callback(bytes32 myid, string result, bytes proof)\n      public\n    {\n        //if (msg.sender != oraclize_cbAddress()) throw;\n    \n        TradeInfo memory tradeInfo = trades[myid];\n        var (a,b) = bitRec(tradeInfo.idsAndAmts);\n        uint256[] memory cryptos = a;\n        uint256[] memory amounts = b;\n\n        address beneficiary = tradeInfo.beneficiary;\n        bool isBuy = tradeInfo.isBuy;\n        bool isCoin = tradeInfo.isCoin;\n    \n        uint256[] memory cryptoValues = decodePrices(cryptos, result, isCoin);\n        uint256 value = calculateValue(amounts, cryptoValues);\n        \n        if (isBuy) require(finalizeBuy(beneficiary, cryptos, amounts, cryptoValues, value, isCoin));\n        else require(finalizeSell(beneficiary, cryptos, amounts, cryptoValues, value, isCoin));\n    }\n    \n/** ******************************* Constants ************************************ **/\n    \n    /**\n     * @dev Crafts URL for Oraclize to grab data from.\n     * @param _cryptos The uint256 crypto ID of the cryptos to search.\n     * @param _isCoin True if COIN is being used as the investment token.\n    **/\n    function craftUrl(uint256[] _cryptos, bool _isCoin)\n      public\n      view\n    returns (string)\n    {\n        if (_isCoin) var url = \"https://min-api.cryptocompare.com/data/pricemulti?fsyms=COIN,\";\n        else url = \"https://min-api.cryptocompare.com/data/pricemulti?fsyms=CASH,\";\n\n        for (uint256 i = 0; i < _cryptos.length; i++) {\n            uint256 id = _cryptos[i];\n\n            require(bytes(cryptoSymbols[id]).length > 0);\n            url = url.toSlice().concat(cryptoSymbols[id].toSlice());\n        }\n        url = url.toSlice().concat(\"&tsyms=USD\".toSlice());\n        return url;\n    }\n\n    /**\n     * @dev Cycles through a list of separators to split the api\n     * @dev result string. Returns list so that we can update invest contract with values.\n     * @param _cryptos The cryptoIds being decoded.\n     * @param _result The raw string returned from the cryptocompare api with all crypto prices.\n     * @param _isCoin True/False of the crypto that is being used to invest is COIN/CASH.\n    **/\n    function decodePrices(uint256[] _cryptos, string _result, bool _isCoin) \n      public\n      view\n    returns (uint256[])\n    {\n        var s = _result.toSlice();\n        var delim = 'USD'.toSlice();\n        var breakPart = s.split(delim).toString();\n\n        uint256[] memory prices = new uint256[](_cryptos.length + 1);\n        \n        //Find price of COIN first.\n        var coinPart = s.split(delim).toString();\n        prices[0] = parseInt(coinPart,18);\n\n        for(uint256 i = 0; i < _cryptos.length; i++) {\n            // This loop is necessary because cryptocompare will only return 1 value when the same crypto is queried twice.\n            uint256 inverse = tiedInverse[i];\n            for (uint256 j = 0; j < _cryptos.length; j++) {\n                if (j == i) break;\n                if (_cryptos[j] == inverse) {\n                    prices[i+1] = (10 ** 36) / prices[j+1];\n                    break;\n                }\n            }\n            // If the crypto is COIN we don't want it to split price (because compare will only return the first query)\n            if (prices[i + 1] == 0 && _isCoin && (_cryptos[i] == 10 || _cryptos[i] == 20)) {\n                if (!isInverse[_cryptos[i]]) prices[i+1] = prices[0];\n                else prices[i+1] = (10 ** 36) / prices[0];\n            }\n            // Same deal for CASH\n            else if (prices[i + 1] == 0 && !_isCoin && (_cryptos[i] == 20 || _cryptos[i] == 21)) {\n                if (!isInverse[_cryptos[i]]) prices[i+1] = prices[0];\n                else prices[i+1] = (10 ** 36) / prices[0];\n            }\n            else if (prices[i+1] == 0) {\n                var part = s.split(delim).toString();\n        \n                uint256 price = parseInt(part,18);\n                if (price > 0 && !isInverse[_cryptos[i]]) prices[i+1] = price;\n                else if (price > 0) prices[i+1] = (10 ** 36) / price;\n            }\n        }\n        return prices;\n    }\n\n    /**\n     * @dev Calculate the COIN value of the cryptos to be bought/sold.\n     * @param _cryptoValues The value of the cryptos at time of call.\n    **/\n    function calculateValue(uint256[] _amounts, uint256[] _cryptoValues)\n      public\n      pure\n    returns (uint256 value)\n    {\n        for (uint256 i = 0; i < _amounts.length; i++) {\n            value = value.add(_cryptoValues[i+1].mul(_amounts[i]).div(_cryptoValues[0]));\n        }\n    }\n    \n    /**\n     * @dev Converts given cryptos and amounts into a single uint256[] array.\n     * @param _cryptos Array of the crypto Ids to be bought.\n     * @param _amounts Array containing the amounts of each crypto to buy.\n    **/\n    function bitConv(uint256[] _cryptos, uint256[] _amounts)\n      public\n      pure\n    returns (uint256[])\n    {\n        uint256[] memory combined = new uint256[](_cryptos.length); \n        for (uint256 i = 0; i < _cryptos.length; i++) {\n            combined[i] |= _cryptos[i];\n            combined[i] |= _amounts[i] << 8;\n        }\n        return combined;\n    }\n    \n    /**\n     * @dev Recovers the cryptos and amounts from combined array.\n     * @param _idsAndAmts Array of uints containing both crypto Id and amount.\n    **/\n    function bitRec(uint256[] _idsAndAmts) \n      public\n      pure\n    returns (uint256[], uint256[]) \n    {\n        uint256[] memory cryptos = new uint256[](_idsAndAmts.length);\n        uint256[] memory amounts = new uint256[](_idsAndAmts.length);\n\n        for (uint256 i = 0; i < _idsAndAmts.length; i++) {\n            cryptos[i] = uint256(uint8(_idsAndAmts[i]));\n            amounts[i] = uint256(uint248(_idsAndAmts[i] >> 8));\n        }\n        return (cryptos, amounts);\n    }\n    \n/** *************************** Only Owner *********************************** **/\n\n    /**\n     * @dev Change Oraclize gas limit and price.\n     * @param _newGasPrice New gas price to use in wei.\n    **/\n    function changeGas(uint256 _newGasPrice)\n      external\n      onlyOwner\n    returns (bool success)\n    {\n        customGasPrice = _newGasPrice;\n        //oraclize_setCustomGasPrice(_newGasPrice);\n        return true;\n    }\n    \n/** ************************** Only Coinvest ******************************* **/\n\n    /**\n     * @dev Allow the owner to take ERC20 tokens off of this contract if they are accidentally sent.\n     * @param _tokenContract The address of the token to withdraw (0x0 if Ether).\n     * @param _amount The amount of Ether to withdraw (because some needs to be left for Oraclize).\n    **/\n    function tokenEscape(address _tokenContract, uint256 _amount)\n      external\n      onlyCoinvest\n    {\n        if (_tokenContract == address(0)) coinvest.transfer(_amount);\n        else {\n            ERC20Interface lostToken = ERC20Interface(_tokenContract);\n        \n            uint256 stuckTokens = lostToken.balanceOf(address(this));\n            lostToken.transfer(coinvest, stuckTokens);\n        }\n    }\n\n /** ************************** Temp ************************************ **/\n    \n    // parseInt\n    function parseInt(string _a) internal pure returns (uint) {\n        return parseInt(_a, 0);\n    }\n\n    // parseInt(parseFloat*10^_b)\n    function parseInt(string _a, uint _b) internal pure returns (uint) {\n        bytes memory bresult = bytes(_a);\n        uint mint = 0;\n        bool decimals = false;\n        for (uint i=0; i<bresult.length; i++){\n            if ((bresult[i] >= 48)&&(bresult[i] <= 57)){\n                if (decimals){\n                   if (_b == 0) break;\n                    else _b--;\n                }\n                mint *= 10;\n                mint += uint(bresult[i]) - 48;\n            } else if (bresult[i] == 46) decimals = true;\n        }\n        if (_b > 0) mint *= 10**_b;\n        return mint;\n    }\n    \n}\n\n\n\n\n\n\n",
  "sourcePath": "/root/Coinvest2/contracts/InvestmentTest.sol",
  "compiler": {
    "name": "solc",
    "version": "0.4.24+commit.e67f0147.Emscripten.clang"
  },
  "schemaVersion": "2.0.1",
  "updatedAt": "2018-09-15T23:55:34.460Z"
}