{
  "contractName": "MinervaToken",
  "abi": [
    {
      "constant": true,
      "inputs": [],
      "name": "name",
      "outputs": [
        {
          "name": "",
          "type": "string"
        }
      ],
      "payable": false,
      "stateMutability": "view",
      "type": "function"
    },
    {
      "constant": true,
      "inputs": [],
      "name": "minter",
      "outputs": [
        {
          "name": "",
          "type": "address"
        }
      ],
      "payable": false,
      "stateMutability": "view",
      "type": "function"
    },
    {
      "constant": true,
      "inputs": [],
      "name": "maxDailyBonus",
      "outputs": [
        {
          "name": "",
          "type": "uint256"
        }
      ],
      "payable": false,
      "stateMutability": "view",
      "type": "function"
    },
    {
      "constant": true,
      "inputs": [],
      "name": "decimals",
      "outputs": [
        {
          "name": "",
          "type": "uint256"
        }
      ],
      "payable": false,
      "stateMutability": "view",
      "type": "function"
    },
    {
      "constant": true,
      "inputs": [],
      "name": "lastDay",
      "outputs": [
        {
          "name": "",
          "type": "uint256"
        }
      ],
      "payable": false,
      "stateMutability": "view",
      "type": "function"
    },
    {
      "constant": true,
      "inputs": [],
      "name": "taxRate",
      "outputs": [
        {
          "name": "",
          "type": "uint256"
        }
      ],
      "payable": false,
      "stateMutability": "view",
      "type": "function"
    },
    {
      "constant": true,
      "inputs": [],
      "name": "bankAddress",
      "outputs": [
        {
          "name": "",
          "type": "address"
        }
      ],
      "payable": false,
      "stateMutability": "view",
      "type": "function"
    },
    {
      "constant": true,
      "inputs": [],
      "name": "rewardRate",
      "outputs": [
        {
          "name": "",
          "type": "uint256"
        }
      ],
      "payable": false,
      "stateMutability": "view",
      "type": "function"
    },
    {
      "constant": true,
      "inputs": [],
      "name": "owner",
      "outputs": [
        {
          "name": "",
          "type": "address"
        }
      ],
      "payable": false,
      "stateMutability": "view",
      "type": "function"
    },
    {
      "constant": true,
      "inputs": [
        {
          "name": "",
          "type": "address"
        }
      ],
      "name": "partners",
      "outputs": [
        {
          "name": "",
          "type": "uint256"
        }
      ],
      "payable": false,
      "stateMutability": "view",
      "type": "function"
    },
    {
      "constant": true,
      "inputs": [],
      "name": "symbol",
      "outputs": [
        {
          "name": "",
          "type": "string"
        }
      ],
      "payable": false,
      "stateMutability": "view",
      "type": "function"
    },
    {
      "constant": true,
      "inputs": [],
      "name": "mintedToday",
      "outputs": [
        {
          "name": "",
          "type": "uint256"
        }
      ],
      "payable": false,
      "stateMutability": "view",
      "type": "function"
    },
    {
      "constant": true,
      "inputs": [],
      "name": "votingAddress",
      "outputs": [
        {
          "name": "",
          "type": "address"
        }
      ],
      "payable": false,
      "stateMutability": "view",
      "type": "function"
    },
    {
      "constant": true,
      "inputs": [],
      "name": "updater",
      "outputs": [
        {
          "name": "",
          "type": "address"
        }
      ],
      "payable": false,
      "stateMutability": "view",
      "type": "function"
    },
    {
      "inputs": [
        {
          "name": "_owner",
          "type": "address"
        },
        {
          "name": "_minter",
          "type": "address"
        }
      ],
      "payable": false,
      "stateMutability": "nonpayable",
      "type": "constructor"
    },
    {
      "anonymous": false,
      "inputs": [
        {
          "indexed": true,
          "name": "from",
          "type": "address"
        },
        {
          "indexed": true,
          "name": "to",
          "type": "address"
        },
        {
          "indexed": false,
          "name": "value",
          "type": "uint256"
        }
      ],
      "name": "Transfer",
      "type": "event"
    },
    {
      "anonymous": false,
      "inputs": [
        {
          "indexed": true,
          "name": "from",
          "type": "address"
        },
        {
          "indexed": false,
          "name": "value",
          "type": "uint256"
        }
      ],
      "name": "Burn",
      "type": "event"
    },
    {
      "anonymous": false,
      "inputs": [
        {
          "indexed": true,
          "name": "_owner",
          "type": "address"
        },
        {
          "indexed": true,
          "name": "_spender",
          "type": "address"
        },
        {
          "indexed": false,
          "name": "_value",
          "type": "uint256"
        }
      ],
      "name": "Approval",
      "type": "event"
    },
    {
      "anonymous": false,
      "inputs": [
        {
          "indexed": true,
          "name": "to",
          "type": "address"
        },
        {
          "indexed": false,
          "name": "amount",
          "type": "uint256"
        }
      ],
      "name": "Mint",
      "type": "event"
    },
    {
      "constant": false,
      "inputs": [
        {
          "name": "_to",
          "type": "address"
        },
        {
          "name": "_value",
          "type": "uint256"
        }
      ],
      "name": "transfer",
      "outputs": [
        {
          "name": "success",
          "type": "bool"
        }
      ],
      "payable": false,
      "stateMutability": "nonpayable",
      "type": "function"
    },
    {
      "constant": false,
      "inputs": [
        {
          "name": "_from",
          "type": "address"
        },
        {
          "name": "_to",
          "type": "address"
        },
        {
          "name": "_value",
          "type": "uint256"
        }
      ],
      "name": "transferFrom",
      "outputs": [
        {
          "name": "success",
          "type": "bool"
        }
      ],
      "payable": false,
      "stateMutability": "nonpayable",
      "type": "function"
    },
    {
      "constant": false,
      "inputs": [
        {
          "name": "_spender",
          "type": "address"
        },
        {
          "name": "_value",
          "type": "uint256"
        }
      ],
      "name": "approve",
      "outputs": [
        {
          "name": "success",
          "type": "bool"
        }
      ],
      "payable": false,
      "stateMutability": "nonpayable",
      "type": "function"
    },
    {
      "constant": false,
      "inputs": [
        {
          "name": "_value",
          "type": "uint256"
        }
      ],
      "name": "burn",
      "outputs": [
        {
          "name": "success",
          "type": "bool"
        }
      ],
      "payable": false,
      "stateMutability": "nonpayable",
      "type": "function"
    },
    {
      "constant": false,
      "inputs": [
        {
          "name": "_from",
          "type": "address"
        },
        {
          "name": "_value",
          "type": "uint256"
        }
      ],
      "name": "burnFrom",
      "outputs": [
        {
          "name": "success",
          "type": "bool"
        }
      ],
      "payable": false,
      "stateMutability": "nonpayable",
      "type": "function"
    },
    {
      "constant": true,
      "inputs": [],
      "name": "totalSupply",
      "outputs": [
        {
          "name": "",
          "type": "uint256"
        }
      ],
      "payable": false,
      "stateMutability": "view",
      "type": "function"
    },
    {
      "constant": true,
      "inputs": [
        {
          "name": "_owner",
          "type": "address"
        }
      ],
      "name": "balanceOf",
      "outputs": [
        {
          "name": "",
          "type": "uint256"
        }
      ],
      "payable": false,
      "stateMutability": "view",
      "type": "function"
    },
    {
      "constant": true,
      "inputs": [
        {
          "name": "_owner",
          "type": "address"
        },
        {
          "name": "_spender",
          "type": "address"
        }
      ],
      "name": "allowance",
      "outputs": [
        {
          "name": "",
          "type": "uint256"
        }
      ],
      "payable": false,
      "stateMutability": "view",
      "type": "function"
    },
    {
      "constant": false,
      "inputs": [
        {
          "name": "_votes",
          "type": "uint256[]"
        },
        {
          "name": "_deposit",
          "type": "uint256"
        }
      ],
      "name": "vote",
      "outputs": [
        {
          "name": "success",
          "type": "bool"
        }
      ],
      "payable": false,
      "stateMutability": "nonpayable",
      "type": "function"
    },
    {
      "constant": false,
      "inputs": [
        {
          "name": "_value",
          "type": "uint256"
        },
        {
          "name": "_to",
          "type": "address"
        },
        {
          "name": "_votes",
          "type": "uint256[]"
        },
        {
          "name": "_deposit",
          "type": "uint256"
        }
      ],
      "name": "transferAndVote",
      "outputs": [
        {
          "name": "success",
          "type": "bool"
        }
      ],
      "payable": false,
      "stateMutability": "nonpayable",
      "type": "function"
    },
    {
      "constant": false,
      "inputs": [
        {
          "name": "_to",
          "type": "address"
        },
        {
          "name": "_value",
          "type": "uint256"
        }
      ],
      "name": "mint",
      "outputs": [
        {
          "name": "success",
          "type": "bool"
        }
      ],
      "payable": false,
      "stateMutability": "nonpayable",
      "type": "function"
    },
    {
      "constant": false,
      "inputs": [
        {
          "name": "_rewardRate",
          "type": "uint256"
        }
      ],
      "name": "updateReward",
      "outputs": [
        {
          "name": "success",
          "type": "bool"
        }
      ],
      "payable": false,
      "stateMutability": "nonpayable",
      "type": "function"
    },
    {
      "constant": false,
      "inputs": [
        {
          "name": "_tax",
          "type": "uint256"
        },
        {
          "name": "_votingAddress",
          "type": "address"
        },
        {
          "name": "_bank",
          "type": "address"
        },
        {
          "name": "_owner",
          "type": "address"
        }
      ],
      "name": "ownerUpdate",
      "outputs": [
        {
          "name": "success",
          "type": "bool"
        }
      ],
      "payable": false,
      "stateMutability": "nonpayable",
      "type": "function"
    },
    {
      "constant": false,
      "inputs": [
        {
          "name": "_partner",
          "type": "address"
        },
        {
          "name": "_bonus",
          "type": "uint256"
        }
      ],
      "name": "updatePartner",
      "outputs": [
        {
          "name": "success",
          "type": "bool"
        }
      ],
      "payable": false,
      "stateMutability": "nonpayable",
      "type": "function"
    },
    {
      "constant": false,
      "inputs": [
        {
          "name": "_newMax",
          "type": "uint256"
        }
      ],
      "name": "updateMaxDailyBonus",
      "outputs": [
        {
          "name": "success",
          "type": "bool"
        }
      ],
      "payable": false,
      "stateMutability": "nonpayable",
      "type": "function"
    },
    {
      "constant": false,
      "inputs": [
        {
          "name": "_newUpdater",
          "type": "address"
        }
      ],
      "name": "updateUpdater",
      "outputs": [
        {
          "name": "success",
          "type": "bool"
        }
      ],
      "payable": false,
      "stateMutability": "nonpayable",
      "type": "function"
    }
  ],
  "bytecode": "0x60806040526040805190810160405280600781526020017f4d696e65727661000000000000000000000000000000000000000000000000008152506000908051906020019062000051929190620001b2565b506040805190810160405280600381526020017f4f574c0000000000000000000000000000000000000000000000000000000000815250600190805190602001906200009f929190620001b2565b506012600255348015620000b257600080fd5b5060405160408062002a56833981018060405281019080805190602001909291908051906020019092919050505081600560006101000a81548173ffffffffffffffffffffffffffffffffffffffff021916908373ffffffffffffffffffffffffffffffffffffffff16021790555080600460006101000a81548173ffffffffffffffffffffffffffffffffffffffff021916908373ffffffffffffffffffffffffffffffffffffffff16021790555033600a60006101000a81548173ffffffffffffffffffffffffffffffffffffffff021916908373ffffffffffffffffffffffffffffffffffffffff16021790555042600d81905550505062000261565b828054600181600116156101000203166002900490600052602060002090601f016020900481019282601f10620001f557805160ff191683800117855562000226565b8280016001018555821562000226579182015b828111156200022557825182559160200191906001019062000208565b5b50905062000235919062000239565b5090565b6200025e91905b808211156200025a57600081600090555060010162000240565b5090565b90565b6127e580620002716000396000f300608060405260043610610180576000357c0100000000000000000000000000000000000000000000000000000000900463ffffffff16806306fdde03146101855780630754617214610215578063095ea7b31461026c57806318160ddd146102d15780631924d269146102fc57806323b872dd146103275780632730f59e146103ac578063313ce5671461043357806340c10f191461045e578063425c8abd146104c357806342966c6814610508578063637af51c1461054d5780636b0c932d146105a8578063704582b7146105d357806370a0823114610618578063771a3a1d1461066f5780637822ed491461069a57806379cc6790146106f15780637b0a47ee146107565780638da5cb5b1461078157806395c33652146107d857806395d89b411461082f578063a142e638146108bf578063a9059cbb14610924578063b7c140dd14610989578063c6968557146109b4578063d2fa717014610a59578063dd62ed3e14610ab0578063df034cd014610b27578063f429af1914610b7e575b600080fd5b34801561019157600080fd5b5061019a610c06565b6040518080602001828103825283818151815260200191508051906020019080838360005b838110156101da5780820151818401526020810190506101bf565b50505050905090810190601f1680156102075780820380516001836020036101000a031916815260200191505b509250505060405180910390f35b34801561022157600080fd5b5061022a610ca4565b604051808273ffffffffffffffffffffffffffffffffffffffff1673ffffffffffffffffffffffffffffffffffffffff16815260200191505060405180910390f35b34801561027857600080fd5b506102b7600480360381019080803573ffffffffffffffffffffffffffffffffffffffff16906020019092919080359060200190929190505050610cca565b604051808215151515815260200191505060405180910390f35b3480156102dd57600080fd5b506102e6610e51565b6040518082815260200191505060405180910390f35b34801561030857600080fd5b50610311610e5b565b6040518082815260200191505060405180910390f35b34801561033357600080fd5b50610392600480360381019080803573ffffffffffffffffffffffffffffffffffffffff169060200190929190803573ffffffffffffffffffffffffffffffffffffffff16906020019092919080359060200190929190505050610e61565b604051808215151515815260200191505060405180910390f35b3480156103b857600080fd5b5061041960048036038101908080359060200190929190803573ffffffffffffffffffffffffffffffffffffffff169060200190929190803590602001908201803590602001919091929391929390803590602001909291905050506112c9565b604051808215151515815260200191505060405180910390f35b34801561043f57600080fd5b5061044861138e565b6040518082815260200191505060405180910390f35b34801561046a57600080fd5b506104a9600480360381019080803573ffffffffffffffffffffffffffffffffffffffff16906020019092919080359060200190929190505050611394565b604051808215151515815260200191505060405180910390f35b3480156104cf57600080fd5b506104ee60048036038101908080359060200190929190505050611545565b604051808215151515815260200191505060405180910390f35b34801561051457600080fd5b506105336004803603810190808035906020019092919050505061160b565b604051808215151515815260200191505060405180910390f35b34801561055957600080fd5b5061058e600480360381019080803573ffffffffffffffffffffffffffffffffffffffff169060200190929190505050611762565b604051808215151515815260200191505060405180910390f35b3480156105b457600080fd5b506105bd611846565b6040518082815260200191505060405180910390f35b3480156105df57600080fd5b506105fe6004803603810190808035906020019092919050505061184c565b604051808215151515815260200191505060405180910390f35b34801561062457600080fd5b50610659600480360381019080803573ffffffffffffffffffffffffffffffffffffffff1690602001909291905050506118ba565b6040518082815260200191505060405180910390f35b34801561067b57600080fd5b50610684611903565b6040518082815260200191505060405180910390f35b3480156106a657600080fd5b506106af611909565b604051808273ffffffffffffffffffffffffffffffffffffffff1673ffffffffffffffffffffffffffffffffffffffff16815260200191505060405180910390f35b3480156106fd57600080fd5b5061073c600480360381019080803573ffffffffffffffffffffffffffffffffffffffff1690602001909291908035906020019092919050505061192f565b604051808215151515815260200191505060405180910390f35b34801561076257600080fd5b5061076b611c21565b6040518082815260200191505060405180910390f35b34801561078d57600080fd5b50610796611c27565b604051808273ffffffffffffffffffffffffffffffffffffffff1673ffffffffffffffffffffffffffffffffffffffff16815260200191505060405180910390f35b3480156107e457600080fd5b50610819600480360381019080803573ffffffffffffffffffffffffffffffffffffffff169060200190929190505050611c4d565b6040518082815260200191505060405180910390f35b34801561083b57600080fd5b50610844611c65565b6040518080602001828103825283818151815260200191508051906020019080838360005b83811015610884578082015181840152602081019050610869565b50505050905090810190601f1680156108b15780820380516001836020036101000a031916815260200191505b509250505060405180910390f35b3480156108cb57600080fd5b5061090a600480360381019080803573ffffffffffffffffffffffffffffffffffffffff16906020019092919080359060200190929190505050611d03565b604051808215151515815260200191505060405180910390f35b34801561093057600080fd5b5061096f600480360381019080803573ffffffffffffffffffffffffffffffffffffffff16906020019092919080359060200190929190505050611daf565b604051808215151515815260200191505060405180910390f35b34801561099557600080fd5b5061099e61207c565b6040518082815260200191505060405180910390f35b3480156109c057600080fd5b50610a3f60048036038101908080359060200190929190803573ffffffffffffffffffffffffffffffffffffffff169060200190929190803573ffffffffffffffffffffffffffffffffffffffff169060200190929190803573ffffffffffffffffffffffffffffffffffffffff169060200190929190505050612082565b604051808215151515815260200191505060405180910390f35b348015610a6557600080fd5b50610a6e61227e565b604051808273ffffffffffffffffffffffffffffffffffffffff1673ffffffffffffffffffffffffffffffffffffffff16815260200191505060405180910390f35b348015610abc57600080fd5b50610b11600480360381019080803573ffffffffffffffffffffffffffffffffffffffff169060200190929190803573ffffffffffffffffffffffffffffffffffffffff1690602001909291905050506122a4565b6040518082815260200191505060405180910390f35b348015610b3357600080fd5b50610b3c61232b565b604051808273ffffffffffffffffffffffffffffffffffffffff1673ffffffffffffffffffffffffffffffffffffffff16815260200191505060405180910390f35b348015610b8a57600080fd5b50610bec6004803603810190808035906020019082018035906020019080806020026020016040519081016040528093929190818152602001838360200280828437820191505050505050919291929080359060200190929190505050612351565b604051808215151515815260200191505060405180910390f35b60008054600181600116156101000203166002900480601f016020809104026020016040519081016040528092919081815260200182805460018160011615610100020316600290048015610c9c5780601f10610c7157610100808354040283529160200191610c9c565b820191906000526020600020905b815481529060010190602001808311610c7f57829003601f168201915b505050505081565b600460009054906101000a900473ffffffffffffffffffffffffffffffffffffffff1681565b600080821480610d5657506000601060003373ffffffffffffffffffffffffffffffffffffffff1673ffffffffffffffffffffffffffffffffffffffff16815260200190815260200160002060008573ffffffffffffffffffffffffffffffffffffffff1673ffffffffffffffffffffffffffffffffffffffff16815260200190815260200160002054145b1515610d6157600080fd5b81601060003373ffffffffffffffffffffffffffffffffffffffff1673ffffffffffffffffffffffffffffffffffffffff16815260200190815260200160002060008573ffffffffffffffffffffffffffffffffffffffff1673ffffffffffffffffffffffffffffffffffffffff168152602001908152602001600020819055508273ffffffffffffffffffffffffffffffffffffffff163373ffffffffffffffffffffffffffffffffffffffff167f8c5be1e5ebec7d5bd14f71427d1e84f3dd0314c0f7b2291e5b200ac8c7c3b925846040518082815260200191505060405180910390a36001905092915050565b6000600354905090565b600b5481565b600080600073ffffffffffffffffffffffffffffffffffffffff168473ffffffffffffffffffffffffffffffffffffffff1614151515610ea057600080fd5b82600f60008773ffffffffffffffffffffffffffffffffffffffff1673ffffffffffffffffffffffffffffffffffffffff1681526020019081526020016000205410151515610eee57600080fd5b82601060008773ffffffffffffffffffffffffffffffffffffffff1673ffffffffffffffffffffffffffffffffffffffff16815260200190815260200160002060003373ffffffffffffffffffffffffffffffffffffffff1673ffffffffffffffffffffffffffffffffffffffff1681526020019081526020016000205410151515610f7957600080fd5b6000600e60008673ffffffffffffffffffffffffffffffffffffffff1673ffffffffffffffffffffffffffffffffffffffff16815260200190815260200160002054111561100d5761100a83600e60008773ffffffffffffffffffffffffffffffffffffffff1673ffffffffffffffffffffffffffffffffffffffff16815260200190815260200160002054612526565b90505b61109c83601060008873ffffffffffffffffffffffffffffffffffffffff1673ffffffffffffffffffffffffffffffffffffffff16815260200190815260200160002060003373ffffffffffffffffffffffffffffffffffffffff1673ffffffffffffffffffffffffffffffffffffffff1681526020019081526020016000205461273490919063ffffffff16565b601060008773ffffffffffffffffffffffffffffffffffffffff1673ffffffffffffffffffffffffffffffffffffffff16815260200190815260200160002060003373ffffffffffffffffffffffffffffffffffffffff1673ffffffffffffffffffffffffffffffffffffffff1681526020019081526020016000208190555061116e83600f60008873ffffffffffffffffffffffffffffffffffffffff1673ffffffffffffffffffffffffffffffffffffffff1681526020019081526020016000205461273490919063ffffffff16565b600f60008773ffffffffffffffffffffffffffffffffffffffff1673ffffffffffffffffffffffffffffffffffffffff168152602001908152602001600020819055506112156111c7828561274d90919063ffffffff16565b600f60008773ffffffffffffffffffffffffffffffffffffffff1673ffffffffffffffffffffffffffffffffffffffff1681526020019081526020016000205461274d90919063ffffffff16565b600f60008673ffffffffffffffffffffffffffffffffffffffff1673ffffffffffffffffffffffffffffffffffffffff168152602001908152602001600020819055508373ffffffffffffffffffffffffffffffffffffffff168573ffffffffffffffffffffffffffffffffffffffff167fddf252ad1be2c89b69c2b068fc378daa952ba7f163c4a11628f55a4df523b3ef856040518082815260200191505060405180910390a360019150509392505050565b60008073ffffffffffffffffffffffffffffffffffffffff16600660009054906101000a900473ffffffffffffffffffffffffffffffffffffffff1673ffffffffffffffffffffffffffffffffffffffff161415151561132857600080fd5b6113328587611daf565b151561133d57600080fd5b61137684848080602002602001604051908101604052809392919081815260200183836020028082843782019150505050505083612351565b151561138157600080fd5b6001905095945050505050565b60025481565b6000600460009054906101000a900473ffffffffffffffffffffffffffffffffffffffff1673ffffffffffffffffffffffffffffffffffffffff163373ffffffffffffffffffffffffffffffffffffffff161415156113f257600080fd5b600073ffffffffffffffffffffffffffffffffffffffff168373ffffffffffffffffffffffffffffffffffffffff161415151561142e57600080fd5b60008211151561143d57600080fd5b61148f82600f60008673ffffffffffffffffffffffffffffffffffffffff1673ffffffffffffffffffffffffffffffffffffffff1681526020019081526020016000205461274d90919063ffffffff16565b600f60008573ffffffffffffffffffffffffffffffffffffffff1673ffffffffffffffffffffffffffffffffffffffff168152602001908152602001600020819055506114e78260035461274d90919063ffffffff16565b6003819055508273ffffffffffffffffffffffffffffffffffffffff167f0f6798a560793a54c3bcfe86a93cde1e73087d944c0ea20544137d4121396885836040518082815260200191505060405180910390a26001905092915050565b6000600560009054906101000a900473ffffffffffffffffffffffffffffffffffffffff1673ffffffffffffffffffffffffffffffffffffffff163373ffffffffffffffffffffffffffffffffffffffff1614806115f05750600660009054906101000a900473ffffffffffffffffffffffffffffffffffffffff1673ffffffffffffffffffffffffffffffffffffffff163373ffffffffffffffffffffffffffffffffffffffff16145b15156115fb57600080fd5b8160098190555060019050919050565b600081600f60003373ffffffffffffffffffffffffffffffffffffffff1673ffffffffffffffffffffffffffffffffffffffff168152602001908152602001600020541015151561165b57600080fd5b6116ad82600f60003373ffffffffffffffffffffffffffffffffffffffff1673ffffffffffffffffffffffffffffffffffffffff1681526020019081526020016000205461273490919063ffffffff16565b600f60003373ffffffffffffffffffffffffffffffffffffffff1673ffffffffffffffffffffffffffffffffffffffff168152602001908152602001600020819055506117058260035461273490919063ffffffff16565b6003819055503373ffffffffffffffffffffffffffffffffffffffff167fcc16f5dbb4873280815c1ee09dbd06736cffcc184412cf7a71a0fdb75d397ca5836040518082815260200191505060405180910390a260019050919050565b6000600a60009054906101000a900473ffffffffffffffffffffffffffffffffffffffff1673ffffffffffffffffffffffffffffffffffffffff163373ffffffffffffffffffffffffffffffffffffffff161415156117c057600080fd5b600073ffffffffffffffffffffffffffffffffffffffff168273ffffffffffffffffffffffffffffffffffffffff16141515156117fc57600080fd5b81600a60006101000a81548173ffffffffffffffffffffffffffffffffffffffff021916908373ffffffffffffffffffffffffffffffffffffffff16021790555060019050919050565b600d5481565b6000600a60009054906101000a900473ffffffffffffffffffffffffffffffffffffffff1673ffffffffffffffffffffffffffffffffffffffff163373ffffffffffffffffffffffffffffffffffffffff161415156118aa57600080fd5b81600b8190555060019050919050565b6000600f60008373ffffffffffffffffffffffffffffffffffffffff1673ffffffffffffffffffffffffffffffffffffffff168152602001908152602001600020549050919050565b60075481565b600860009054906101000a900473ffffffffffffffffffffffffffffffffffffffff1681565b600081600f60008573ffffffffffffffffffffffffffffffffffffffff1673ffffffffffffffffffffffffffffffffffffffff168152602001908152602001600020541015151561197f57600080fd5b601060008473ffffffffffffffffffffffffffffffffffffffff1673ffffffffffffffffffffffffffffffffffffffff16815260200190815260200160002060003373ffffffffffffffffffffffffffffffffffffffff1673ffffffffffffffffffffffffffffffffffffffff168152602001908152602001600020548211151515611a0a57600080fd5b611a5c82600f60008673ffffffffffffffffffffffffffffffffffffffff1673ffffffffffffffffffffffffffffffffffffffff1681526020019081526020016000205461273490919063ffffffff16565b600f60008573ffffffffffffffffffffffffffffffffffffffff1673ffffffffffffffffffffffffffffffffffffffff16815260200190815260200160002081905550611ab48260035461273490919063ffffffff16565b600381905550611b4982601060008673ffffffffffffffffffffffffffffffffffffffff1673ffffffffffffffffffffffffffffffffffffffff16815260200190815260200160002060003373ffffffffffffffffffffffffffffffffffffffff1673ffffffffffffffffffffffffffffffffffffffff1681526020019081526020016000205461273490919063ffffffff16565b601060008573ffffffffffffffffffffffffffffffffffffffff1673ffffffffffffffffffffffffffffffffffffffff16815260200190815260200160002060003373ffffffffffffffffffffffffffffffffffffffff1673ffffffffffffffffffffffffffffffffffffffff168152602001908152602001600020819055508273ffffffffffffffffffffffffffffffffffffffff167fcc16f5dbb4873280815c1ee09dbd06736cffcc184412cf7a71a0fdb75d397ca5836040518082815260200191505060405180910390a26001905092915050565b60095481565b600560009054906101000a900473ffffffffffffffffffffffffffffffffffffffff1681565b600e6020528060005260406000206000915090505481565b60018054600181600116156101000203166002900480601f016020809104026020016040519081016040528092919081815260200182805460018160011615610100020316600290048015611cfb5780601f10611cd057610100808354040283529160200191611cfb565b820191906000526020600020905b815481529060010190602001808311611cde57829003601f168201915b505050505081565b6000600560009054906101000a900473ffffffffffffffffffffffffffffffffffffffff1673ffffffffffffffffffffffffffffffffffffffff163373ffffffffffffffffffffffffffffffffffffffff16141515611d6157600080fd5b81600e60008573ffffffffffffffffffffffffffffffffffffffff1673ffffffffffffffffffffffffffffffffffffffff168152602001908152602001600020819055506001905092915050565b600080600073ffffffffffffffffffffffffffffffffffffffff168473ffffffffffffffffffffffffffffffffffffffff1614151515611dee57600080fd5b82600f60003373ffffffffffffffffffffffffffffffffffffffff1673ffffffffffffffffffffffffffffffffffffffff1681526020019081526020016000205410151515611e3c57600080fd5b6000600e60008673ffffffffffffffffffffffffffffffffffffffff1673ffffffffffffffffffffffffffffffffffffffff168152602001908152602001600020541115611ed057611ecd83600e60008773ffffffffffffffffffffffffffffffffffffffff1673ffffffffffffffffffffffffffffffffffffffff16815260200190815260200160002054612526565b90505b611f2283600f60003373ffffffffffffffffffffffffffffffffffffffff1673ffffffffffffffffffffffffffffffffffffffff1681526020019081526020016000205461273490919063ffffffff16565b600f60003373ffffffffffffffffffffffffffffffffffffffff1673ffffffffffffffffffffffffffffffffffffffff16815260200190815260200160002081905550611fc9611f7b828561274d90919063ffffffff16565b600f60008773ffffffffffffffffffffffffffffffffffffffff1673ffffffffffffffffffffffffffffffffffffffff1681526020019081526020016000205461274d90919063ffffffff16565b600f60008673ffffffffffffffffffffffffffffffffffffffff1673ffffffffffffffffffffffffffffffffffffffff168152602001908152602001600020819055508373ffffffffffffffffffffffffffffffffffffffff163373ffffffffffffffffffffffffffffffffffffffff167fddf252ad1be2c89b69c2b068fc378daa952ba7f163c4a11628f55a4df523b3ef856040518082815260200191505060405180910390a3600191505092915050565b600c5481565b6000600560009054906101000a900473ffffffffffffffffffffffffffffffffffffffff1673ffffffffffffffffffffffffffffffffffffffff163373ffffffffffffffffffffffffffffffffffffffff161415156120e057600080fd5b60008514151561210a57606585101515612101576000600781905550612109565b846007819055505b5b600073ffffffffffffffffffffffffffffffffffffffff168473ffffffffffffffffffffffffffffffffffffffff161415156121825783600660006101000a81548173ffffffffffffffffffffffffffffffffffffffff021916908373ffffffffffffffffffffffffffffffffffffffff1602179055505b600073ffffffffffffffffffffffffffffffffffffffff168373ffffffffffffffffffffffffffffffffffffffff161415156121fa5782600860006101000a81548173ffffffffffffffffffffffffffffffffffffffff021916908373ffffffffffffffffffffffffffffffffffffffff1602179055505b600073ffffffffffffffffffffffffffffffffffffffff168273ffffffffffffffffffffffffffffffffffffffff161415156122725781600560006101000a81548173ffffffffffffffffffffffffffffffffffffffff021916908373ffffffffffffffffffffffffffffffffffffffff1602179055505b60019050949350505050565b600660009054906101000a900473ffffffffffffffffffffffffffffffffffffffff1681565b6000601060008473ffffffffffffffffffffffffffffffffffffffff1673ffffffffffffffffffffffffffffffffffffffff16815260200190815260200160002060008373ffffffffffffffffffffffffffffffffffffffff1673ffffffffffffffffffffffffffffffffffffffff16815260200190815260200160002054905092915050565b600a60009054906101000a900473ffffffffffffffffffffffffffffffffffffffff1681565b60008073ffffffffffffffffffffffffffffffffffffffff16600660009054906101000a900473ffffffffffffffffffffffffffffffffffffffff1673ffffffffffffffffffffffffffffffffffffffff16141515156123b057600080fd5b6000821115156123bf57600080fd5b6123eb600660009054906101000a900473ffffffffffffffffffffffffffffffffffffffff1683611daf565b15156123f657600080fd5b600660009054906101000a900473ffffffffffffffffffffffffffffffffffffffff1673ffffffffffffffffffffffffffffffffffffffff16638e738dcb8433856040518463ffffffff167c010000000000000000000000000000000000000000000000000000000002815260040180806020018473ffffffffffffffffffffffffffffffffffffffff1673ffffffffffffffffffffffffffffffffffffffff168152602001838152602001828103825285818151815260200191508051906020019060200280838360005b838110156124dd5780820151818401526020810190506124c2565b50505050905001945050505050600060405180830381600087803b15801561250457600080fd5b505af1158015612518573d6000803e3d6000fd5b505050506001905092915050565b6000806000806125556103e86125476009548961276b90919063ffffffff16565b61279e90919063ffffffff16565b925061257d606461256f878661276b90919063ffffffff16565b61279e90919063ffffffff16565b91506125a760646125996007548561276b90919063ffffffff16565b61279e90919063ffffffff16565b90506125bc818361273490919063ffffffff16565b93506125d4620151804261273490919063ffffffff16565b600d5410156125f05742600d8190555081600c81905550612633565b600b5461260883600c5461274d90919063ffffffff16565b1115612617576000935061272b565b61262c82600c5461274d90919063ffffffff16565b600c819055505b6126488260035461274d90919063ffffffff16565b6003819055506126c281600f6000600860009054906101000a900473ffffffffffffffffffffffffffffffffffffffff1673ffffffffffffffffffffffffffffffffffffffff1673ffffffffffffffffffffffffffffffffffffffff1681526020019081526020016000205461274d90919063ffffffff16565b600f6000600860009054906101000a900473ffffffffffffffffffffffffffffffffffffffff1673ffffffffffffffffffffffffffffffffffffffff1673ffffffffffffffffffffffffffffffffffffffff168152602001908152602001600020819055508393505b50505092915050565b600082821115151561274257fe5b818303905092915050565b600080828401905083811015151561276157fe5b8091505092915050565b6000808284029050600084148061278c575082848281151561278957fe5b04145b151561279457fe5b8091505092915050565b60008082848115156127ac57fe5b04905080915050929150505600a165627a7a72305820e8c54a3ed4bec954316eb95993bfddb0842f7956691c0c5acb771bf149ff50720029",
  "source": "pragma solidity ^0.4.17;\nimport \"./SafeMathLib.sol\";\n/** \n  * @title Minerva Token\n  * @dev Primarily an ERC20 contract with a few extra functions: \n  * bonus value is added if transferring to partner,\n  * vote allows one to vote on the current USD:OWL conversion rate from token\n  * voteAndTransfer function allows you to vote at in the same function your transfer,\n  * updatePartner, updateVote, etc. are used for the owner (or owners) to update the contract.\n**/\n\ncontract VotingBooth { function submitVotes(uint256[] _votes, address _voter, uint256 _deposit) public; }\n\ncontract MinervaToken {\n    using SafeMathLib for uint256;\n    \n    /* Public variables of the token */\n    string public name          = \"Minerva\";\n    string public symbol        = \"OWL\";\n    uint256 public decimals     = 18;\n    uint256 _totalSupply;                                               // Supply decided by number of coins minted in crowdsale\n\n    address public minter;                                              // Crowdsale contract is the minter\n    address public owner;                                               // Consensus contract that can update\n    address public votingAddress;                                       // Address where voting contract is located\n    uint256 public taxRate;                                             // Rate at which rewards are taxed for voting, MVP, and foundation\n    address public bankAddress;                                         // Address where voting/MVP bank is located\n    uint256 public rewardRate;                                          // Current reward rate--changed by reward calculator; 2 digits to signify 1 decimal place\n\n    address public updater;\n    uint256 public maxDailyBonus;                                       // Max amount of OWL to be minted per day\n    uint256 public mintedToday;                                         // Total amount of OWL minted today\n    uint256 public lastDay;                                             // Timestamp of last time date was changed.\n\n    /* Mapping of all partners affiliated with Minerva -- partner address => bonus percent */\n    mapping (address => uint256) public partners;\n    mapping (address => uint256) balances;\n    mapping (address => mapping (address => uint256)) allowed;\n\n    /* Public events for the eponymous functions */\n    event Transfer(address indexed from, address indexed to, uint256 value);\n    event Burn(address indexed from, uint256 value);\n    event Approval(address indexed _owner, address indexed _spender, uint256 _value);\n    event Mint(address indexed to, uint256 amount);\n\n    /**\n     * @dev Initializes contract, assigning owner for updating variables (consensus) and crowdsale as minter\n     * @param _owner Consensus or DAO that controls all functions on this contract\n     * @param _minter Contract (crowdsale) that can mint coins during our crowdsale\n    **/\n    function MinervaToken(address _owner, address _minter) public {\n        owner = _owner;                                                         // Owner--used for permission to set partner bonuses\n        minter = _minter;                                                       // Crowdsale contract is only minter\n        updater = msg.sender;\n        lastDay = now;\n    }\n    \n    function transfer(address _to, uint256 _value) \n      public\n    returns (bool success) \n    {\n        require(_to != address(0));                                             // Prevent transfer to 0x0 address. Use burn() instead\n        require(balances[msg.sender] >= _value);                                // Check if the sender has enough\n\n        uint256 bonus;                                                          // Declare bonus, 0 if not partner\n        if (partners[_to] > 0) {\n            bonus = addTokens(_value, partners[_to]);                           // Add the reward if transaction is to partner       \n        }\n        balances[msg.sender] = balances[msg.sender].sub(_value);                // Subtract from the sender\n        balances[_to] = balances[_to].add(_value.add(bonus));                   // Add the same to the recipient\n        emit Transfer(msg.sender, _to, _value);                                      // Notify anyone listening that this transfer took place\n        return true;\n    }\n\n    function transferFrom(address _from, address _to, uint256 _value) \n      external\n    returns (bool success) \n    {\n        require(_to != address(0));                                             // Prevent transfer to 0x0 address. Use burn() instead\n        require(balances[_from] >= _value);                                     // Require from address has enough balance\n        require(allowed[_from][msg.sender] >= _value);                          // Check allowance\n\n        uint256 _bonus;\n        if (partners[_to] > 0) {\n            _bonus = addTokens(_value, partners[_to]);                          // Add the reward if transaction is to partner       \n        }\n        allowed[_from][msg.sender] = allowed[_from][msg.sender].sub(_value);    // Subtract from allowance\n        balances[_from] = balances[_from].sub(_value);                          // Subtract from sender\n        balances[_to] = balances[_to].add(_value.add(_bonus));                  // Add the same to the recipient\n        emit Transfer(_from, _to, _value);                                           // This happens early so value is what was sent, not received in case of partner\n        return true;\n    }\n\n    function approve(address _spender, uint256 _value)\n      external\n    returns (bool success) \n    {\n        // protects race condition\n        require((_value == 0) || (allowed[msg.sender][_spender] == 0));\n        \n        allowed[msg.sender][_spender] = _value;\n        emit Approval(msg.sender, _spender, _value);\n        return true;\n    }\n\n    function burn(uint256 _value) \n      external\n    returns (bool success) \n    {\n        require(balances[msg.sender] >= _value);                                // Check if the sender has enough\n        balances[msg.sender] = balances[msg.sender].sub(_value);                // Subtract from the sender\n        _totalSupply = _totalSupply.sub(_value);                                // Updates totalSupply\n        emit Burn(msg.sender, _value);\n        return true;\n    }\n\n    function burnFrom(address _from, uint256 _value) \n      external\n    returns (bool success) \n    {\n        require(balances[_from] >= _value);                                     // Check if the sender has enough\n        require(_value <= allowed[_from][msg.sender]);                          // Check allowance\n        balances[_from] = balances[_from].sub(_value);                          // Subtract from the sender\n        _totalSupply = _totalSupply.sub(_value);                                // Updates totalSupply\n        allowed[_from][msg.sender] = allowed[_from][msg.sender].sub(_value);    // remove value from allowance\n        emit Burn(_from, _value);\n        return true;\n    }\n    \n    /**\n     * @dev Return total supply of token.\n    **/\n    function totalSupply() \n      external\n      view \n    returns (uint256) \n    {\n        return _totalSupply;\n    }\n\n    /**\n     * @dev Return balance of a certain address.\n     * @param _owner The address whose balance we want to check.\n    **/\n    function balanceOf(address _owner)\n      external\n      view \n    returns (uint256) \n    {\n        return balances[_owner];\n    }\n    \n    /**\n     * @dev Return the allowed amount of tokens to be trasnferFrom'd.\n     * @param _owner The current owner of the tokens.\n     * @param _spender The address allowed to spend the owner's tokens.\n    **/\n    function allowance(address _owner, address _spender)\n      external\n      view\n    returns (uint256)\n    {\n        return allowed[_owner][_spender];\n    }\n\n/** ***************************** Custom ******************************** **/\n    \n    /**\n     * @dev Just a normal vote. Will be costly so not likely to be used alone (see transferAndVote)\n     * @param _votes Array of recent market prices of the Minerva token\n     * @param _deposit The deposit put down that will give assign your vote weight and reward\n    **/\n    function vote(uint256[] _votes, uint256 _deposit) public\n        returns (bool success) \n    {\n        require(votingAddress != address(0));                                   // Voting contract must exist\n        require(_deposit > 0);                                                  // Deposit to vote must be made\n        require(transfer(votingAddress, _deposit));                             // Transfer deposit...is this too costly?\n        VotingBooth(votingAddress).submitVotes(_votes, msg.sender, _deposit);   // Enact actual votes\n        return true;\n    }\n        \n    \n    /**\n     * @dev Transfer like normal but also vote on current exchange price in one tx.\n     * @dev If voting address is set to 0, this can't be used.\n     * @param _value The amount of tokens to transferAndVote\n     * @param _to The address to transfer tokens to\n     * @param _votes An array of recent market prices of Minerva tokens at different times\n     * @param _deposit The deposit to put down for voting\n    **/\n    function transferAndVote(uint256 _value, address _to, uint256[] _votes, uint256 _deposit)\n      external\n    returns (bool success) \n    {\n        require(votingAddress != address(0));                                   // Voting contract must exist\n        require(transfer(_to, _value));                                         // Transfer from msg.sender like normal\n        require(vote(_votes, _deposit));                                        // Vote from msg.sender like normal\n        return true;\n    }\n    \n/** *************************** onlyMinter ******************************* **/\n    \n    /**\n     * @dev Only useable by crowdsale contract while the crowdsale is active \n     * @param _to The recipient address of the minted coins\n     * @param _value The amount of coins to mint\n    **/\n    function mint(address _to, uint256 _value)\n      external\n      onlyMinter\n    returns (bool success)\n    {\n        require(_to != address(0));\n        require(_value > 0);\n        balances[_to] = balances[_to].add(_value);\n        _totalSupply = _totalSupply.add(_value);\n        \n        emit Mint(_to, _value);\n        return true;\n    }\n    \n/** ************************** ownerOrVoting ***************************** **/\n    \n    /**\n     * @dev Used to update the current reward rate.\n     * @dev This rate is a multiple digit uint that signifies 1 decimal place (21 reward rate = 2.1%)\n     * @param _rewardRate the % bonus a partner will get for each transaction\n    **/\n    function updateReward(uint256 _rewardRate) \n      external\n      ownerOrVoting\n    returns (bool success) \n    {\n        rewardRate = _rewardRate;\n        return true;\n    }\n\n/** **************************** onlyOwner ******************************* **/\n    \n    /**\n     * @dev All variables an owner (the consensus contract for now) can update\n     * @param _tax The tax that should be taken from partner rewards for MVP bank\n     * @param _votingAddress The address allowed to change reward rate\n     * @param _bank The address where taxes are sent\n     * @param _owner The consensus/DAO that can edit these variables\n    **/\n    function ownerUpdate(uint256 _tax, address _votingAddress, address _bank, address _owner)\n      external\n      onlyOwner\n    returns (bool success)\n    {\n        if (_tax != 0) {\n            if (_tax >= 101) {\n                taxRate = 0;\n            } else {\n                taxRate = _tax; \n            }\n        }\n        if (_votingAddress != address(0)) {\n            votingAddress = _votingAddress; \n        }\n\n        if (_bank != address(0)) {\n            bankAddress = _bank;\n        }\n\n        if (_owner != address(0)) {\n            owner = _owner;\n        }\n\n        return true;\n    }\n\n    /**\n     * @dev Updates the percent of the reward rate the partner gets (100 = default)\n     * @param _partner The address of the partner merchant\n     * @param _bonus The percent of the reward rate the partner will received\n    **/\n    function updatePartner(address _partner, uint256 _bonus) \n      external\n      onlyOwner\n    returns (bool success) \n    {\n        partners[_partner] = _bonus;\n        return true;\n    }\n    \n/** **************************** onlyUpdater ***************************** **/\n    \n    /**\n     * @dev Used to change the max daily bonus.\n     * @param _newMax New max of tokens that may be minted.\n    **/\n    function updateMaxDailyBonus(uint256 _newMax)\n      external\n      onlyUpdater\n    returns (bool success)\n    {\n        maxDailyBonus = _newMax;\n        return true;\n    }\n    \n    /**\n     * @dev Updater may change the address allowed to update max daily bonus.\n     * @param _newUpdater Address of the new updater.\n    **/\n    function updateUpdater(address _newUpdater)\n      external\n      onlyUpdater\n    returns (bool success)\n    {\n        require(_newUpdater != address(0));\n        updater = _newUpdater;\n        return true;\n    }\n    \n/** *************************** Internal ********************************* **/\n    \n    /**\n     * @dev Adds bonus -- to be used in transfer if _to == partner\n     * @dev partners mapping will show what % of default bonus partner will received\n     * @param _value The amount of tokens originally sent in the transaction\n     * @param _bonus The bonus percent a partner will receive\n     * @return partnerTokens The number of tokens that should be added to the transaction\n    **/\n    function addTokens(uint256 _value, uint256 _bonus) \n      internal \n    returns (uint256 partnerTokens) \n    {\n        uint256 defaultNewTokens = (_value.mul(rewardRate)).div(1000);          // Default bonus value for merchant partners--rewardRate is not just a % but % with 1 decimal\n        uint256 newTokens = (defaultNewTokens.mul(_bonus)).div(100);            // Bonus tokens after taking into account individual partner bonus\n        uint256 taxTokens = (newTokens.mul(taxRate)).div(100);                  // Taxes are taken out of reward\n        partnerTokens = newTokens.sub(taxTokens);                               // Tokens to go to partner website\n        \n        if (lastDay < now.sub(1 days)) {\n            lastDay = now;\n            mintedToday = newTokens;\n        } else {\n            if (mintedToday.add(newTokens) > maxDailyBonus) return 0;\n            mintedToday = mintedToday.add(newTokens);\n        }\n        \n        _totalSupply = _totalSupply.add(newTokens);                             // Add the newly minted coins to total supply\n        balances[bankAddress] = balances[bankAddress].add(taxTokens);\n        \n        return partnerTokens;\n    }\n    \n/** *************************** Modifiers ******************************** **/\n    \n    /**\n     * @dev This modifier used to update variables--will start as Consensus.sol \n    **/\n    modifier onlyOwner() \n    {\n        require(msg.sender == owner);\n        _;\n    }\n    \n    /**\n     * @dev This modifier used to update variables--will start as Consensus.sol \n    **/\n    modifier onlyUpdater() \n    {\n        require(msg.sender == updater);\n        _;\n    }\n    \n    /**\n     * @dev ONLY the crowdsale address is allowed to mint (owner may mint presales through that)\n    **/\n    modifier onlyMinter() \n    {\n        require(msg.sender == minter);\n        _;\n    }\n    \n    /**\n     * @dev Must allow only owner (consensus) or voting contract for reward rate changes.\n    **/\n    modifier ownerOrVoting() \n    {\n        require(msg.sender == owner || msg.sender == votingAddress);\n        _;\n    }\n\n}\n\n",
  "sourcePath": "/root/Coinvest2/contracts/MinervaToken.sol",
  "compiler": {
    "name": "solc",
    "version": "0.4.24+commit.e67f0147.Emscripten.clang"
  },
  "schemaVersion": "2.0.1",
  "updatedAt": "2018-09-14T20:58:38.105Z"
}