{
  "contractName": "PostAuditTest",
  "abi": [
    {
      "constant": true,
      "inputs": [],
      "name": "CASH_ID",
      "outputs": [
        {
          "name": "",
          "type": "uint256"
        }
      ],
      "payable": false,
      "stateMutability": "view",
      "type": "function"
    },
    {
      "constant": true,
      "inputs": [],
      "name": "coinvest",
      "outputs": [
        {
          "name": "",
          "type": "address"
        }
      ],
      "payable": false,
      "stateMutability": "view",
      "type": "function"
    },
    {
      "constant": false,
      "inputs": [
        {
          "name": "_user",
          "type": "address"
        },
        {
          "name": "_status",
          "type": "bool"
        }
      ],
      "name": "alterAdmin",
      "outputs": [],
      "payable": false,
      "stateMutability": "nonpayable",
      "type": "function"
    },
    {
      "constant": true,
      "inputs": [
        {
          "name": "",
          "type": "address"
        }
      ],
      "name": "admins",
      "outputs": [
        {
          "name": "",
          "type": "bool"
        }
      ],
      "payable": false,
      "stateMutability": "view",
      "type": "function"
    },
    {
      "constant": true,
      "inputs": [
        {
          "name": "",
          "type": "uint256"
        }
      ],
      "name": "cryptoSymbols",
      "outputs": [
        {
          "name": "",
          "type": "string"
        }
      ],
      "payable": false,
      "stateMutability": "view",
      "type": "function"
    },
    {
      "constant": true,
      "inputs": [],
      "name": "customGasPrice",
      "outputs": [
        {
          "name": "",
          "type": "uint256"
        }
      ],
      "payable": false,
      "stateMutability": "view",
      "type": "function"
    },
    {
      "constant": true,
      "inputs": [],
      "name": "CASH_INV",
      "outputs": [
        {
          "name": "",
          "type": "uint256"
        }
      ],
      "payable": false,
      "stateMutability": "view",
      "type": "function"
    },
    {
      "constant": true,
      "inputs": [],
      "name": "coinToken",
      "outputs": [
        {
          "name": "",
          "type": "address"
        }
      ],
      "payable": false,
      "stateMutability": "view",
      "type": "function"
    },
    {
      "constant": true,
      "inputs": [],
      "name": "paused",
      "outputs": [
        {
          "name": "",
          "type": "bool"
        }
      ],
      "payable": false,
      "stateMutability": "view",
      "type": "function"
    },
    {
      "constant": true,
      "inputs": [],
      "name": "bank",
      "outputs": [
        {
          "name": "",
          "type": "address"
        }
      ],
      "payable": false,
      "stateMutability": "view",
      "type": "function"
    },
    {
      "constant": true,
      "inputs": [],
      "name": "owner",
      "outputs": [
        {
          "name": "",
          "type": "address"
        }
      ],
      "payable": false,
      "stateMutability": "view",
      "type": "function"
    },
    {
      "constant": true,
      "inputs": [],
      "name": "COIN_INV",
      "outputs": [
        {
          "name": "",
          "type": "uint256"
        }
      ],
      "payable": false,
      "stateMutability": "view",
      "type": "function"
    },
    {
      "constant": true,
      "inputs": [],
      "name": "COIN_ID",
      "outputs": [
        {
          "name": "",
          "type": "uint256"
        }
      ],
      "payable": false,
      "stateMutability": "view",
      "type": "function"
    },
    {
      "constant": true,
      "inputs": [],
      "name": "cashToken",
      "outputs": [
        {
          "name": "",
          "type": "address"
        }
      ],
      "payable": false,
      "stateMutability": "view",
      "type": "function"
    },
    {
      "constant": true,
      "inputs": [],
      "name": "userData",
      "outputs": [
        {
          "name": "",
          "type": "address"
        }
      ],
      "payable": false,
      "stateMutability": "view",
      "type": "function"
    },
    {
      "constant": true,
      "inputs": [],
      "name": "coinUrl",
      "outputs": [
        {
          "name": "",
          "type": "string"
        }
      ],
      "payable": false,
      "stateMutability": "view",
      "type": "function"
    },
    {
      "constant": true,
      "inputs": [
        {
          "name": "",
          "type": "address"
        }
      ],
      "name": "freeTrades",
      "outputs": [
        {
          "name": "",
          "type": "uint256"
        }
      ],
      "payable": false,
      "stateMutability": "view",
      "type": "function"
    },
    {
      "constant": true,
      "inputs": [],
      "name": "cashUrl",
      "outputs": [
        {
          "name": "",
          "type": "string"
        }
      ],
      "payable": false,
      "stateMutability": "view",
      "type": "function"
    },
    {
      "constant": false,
      "inputs": [
        {
          "name": "_newCoinvest",
          "type": "address"
        }
      ],
      "name": "transferCoinvest",
      "outputs": [],
      "payable": false,
      "stateMutability": "nonpayable",
      "type": "function"
    },
    {
      "constant": false,
      "inputs": [
        {
          "name": "newOwner",
          "type": "address"
        }
      ],
      "name": "transferOwnership",
      "outputs": [],
      "payable": false,
      "stateMutability": "nonpayable",
      "type": "function"
    },
    {
      "inputs": [
        {
          "name": "_coinToken",
          "type": "address"
        },
        {
          "name": "_cashToken",
          "type": "address"
        },
        {
          "name": "_bank",
          "type": "address"
        },
        {
          "name": "_userData",
          "type": "address"
        }
      ],
      "payable": true,
      "stateMutability": "payable",
      "type": "constructor"
    },
    {
      "payable": true,
      "stateMutability": "payable",
      "type": "fallback"
    },
    {
      "anonymous": false,
      "inputs": [
        {
          "indexed": false,
          "name": "description",
          "type": "string"
        }
      ],
      "name": "newOraclizeQuery",
      "type": "event"
    },
    {
      "anonymous": false,
      "inputs": [
        {
          "indexed": true,
          "name": "buyer",
          "type": "address"
        },
        {
          "indexed": false,
          "name": "cryptoIds",
          "type": "uint256[]"
        },
        {
          "indexed": false,
          "name": "amounts",
          "type": "uint256[]"
        },
        {
          "indexed": false,
          "name": "prices",
          "type": "uint256[]"
        },
        {
          "indexed": false,
          "name": "isCoin",
          "type": "bool"
        }
      ],
      "name": "Buy",
      "type": "event"
    },
    {
      "anonymous": false,
      "inputs": [
        {
          "indexed": true,
          "name": "seller",
          "type": "address"
        },
        {
          "indexed": false,
          "name": "cryptoIds",
          "type": "uint256[]"
        },
        {
          "indexed": false,
          "name": "amounts",
          "type": "uint256[]"
        },
        {
          "indexed": false,
          "name": "prices",
          "type": "uint256[]"
        },
        {
          "indexed": false,
          "name": "isCoin",
          "type": "bool"
        }
      ],
      "name": "Sell",
      "type": "event"
    },
    {
      "anonymous": false,
      "inputs": [
        {
          "indexed": true,
          "name": "previousOwner",
          "type": "address"
        },
        {
          "indexed": true,
          "name": "newOwner",
          "type": "address"
        }
      ],
      "name": "OwnershipTransferred",
      "type": "event"
    },
    {
      "constant": false,
      "inputs": [
        {
          "name": "_from",
          "type": "address"
        },
        {
          "name": "_amount",
          "type": "uint256"
        },
        {
          "name": "_token",
          "type": "address"
        },
        {
          "name": "_data",
          "type": "bytes"
        }
      ],
      "name": "receiveApproval",
      "outputs": [],
      "payable": false,
      "stateMutability": "nonpayable",
      "type": "function"
    },
    {
      "constant": false,
      "inputs": [
        {
          "name": "_beneficiary",
          "type": "address"
        },
        {
          "name": "_cryptoIds",
          "type": "uint256[]"
        },
        {
          "name": "_amounts",
          "type": "uint256[]"
        },
        {
          "name": "_isCoin",
          "type": "bool"
        }
      ],
      "name": "buy",
      "outputs": [],
      "payable": true,
      "stateMutability": "payable",
      "type": "function"
    },
    {
      "constant": false,
      "inputs": [
        {
          "name": "_beneficiary",
          "type": "address"
        },
        {
          "name": "_cryptoIds",
          "type": "uint256[]"
        },
        {
          "name": "_amounts",
          "type": "uint256[]"
        },
        {
          "name": "_isCoin",
          "type": "bool"
        }
      ],
      "name": "sell",
      "outputs": [],
      "payable": true,
      "stateMutability": "payable",
      "type": "function"
    },
    {
      "constant": false,
      "inputs": [
        {
          "name": "_index",
          "type": "uint256"
        },
        {
          "name": "_symbol",
          "type": "string"
        },
        {
          "name": "_inverse",
          "type": "bool"
        }
      ],
      "name": "addCrypto",
      "outputs": [],
      "payable": false,
      "stateMutability": "nonpayable",
      "type": "function"
    },
    {
      "constant": false,
      "inputs": [
        {
          "name": "_users",
          "type": "address[]"
        },
        {
          "name": "_trades",
          "type": "uint256[]"
        }
      ],
      "name": "addTrades",
      "outputs": [],
      "payable": false,
      "stateMutability": "nonpayable",
      "type": "function"
    },
    {
      "constant": false,
      "inputs": [
        {
          "name": "_paused",
          "type": "bool"
        }
      ],
      "name": "alterPause",
      "outputs": [],
      "payable": false,
      "stateMutability": "nonpayable",
      "type": "function"
    },
    {
      "constant": false,
      "inputs": [
        {
          "name": "_coinToken",
          "type": "address"
        },
        {
          "name": "_cashToken",
          "type": "address"
        },
        {
          "name": "_bank",
          "type": "address"
        },
        {
          "name": "_userData",
          "type": "address"
        }
      ],
      "name": "changeContracts",
      "outputs": [],
      "payable": false,
      "stateMutability": "nonpayable",
      "type": "function"
    },
    {
      "constant": false,
      "inputs": [
        {
          "name": "_beneficiary",
          "type": "address"
        },
        {
          "name": "_cryptos",
          "type": "uint256[]"
        },
        {
          "name": "_amounts",
          "type": "uint256[]"
        },
        {
          "name": "_isCoin",
          "type": "bool"
        },
        {
          "name": "_buy",
          "type": "bool"
        }
      ],
      "name": "getPrices",
      "outputs": [],
      "payable": false,
      "stateMutability": "nonpayable",
      "type": "function"
    },
    {
      "constant": false,
      "inputs": [
        {
          "name": "myid",
          "type": "bytes32"
        },
        {
          "name": "result",
          "type": "string"
        },
        {
          "name": "proof",
          "type": "bytes"
        }
      ],
      "name": "__callback",
      "outputs": [],
      "payable": false,
      "stateMutability": "nonpayable",
      "type": "function"
    },
    {
      "constant": true,
      "inputs": [
        {
          "name": "_cryptos",
          "type": "uint256[]"
        },
        {
          "name": "_isCoin",
          "type": "bool"
        }
      ],
      "name": "craftUrl",
      "outputs": [
        {
          "name": "url",
          "type": "string"
        }
      ],
      "payable": false,
      "stateMutability": "view",
      "type": "function"
    },
    {
      "constant": true,
      "inputs": [
        {
          "name": "_cryptos",
          "type": "uint256[]"
        },
        {
          "name": "_result",
          "type": "string"
        },
        {
          "name": "_isCoin",
          "type": "bool"
        }
      ],
      "name": "decodePrices",
      "outputs": [
        {
          "name": "prices",
          "type": "uint256[]"
        }
      ],
      "payable": false,
      "stateMutability": "pure",
      "type": "function"
    },
    {
      "constant": true,
      "inputs": [
        {
          "name": "_amounts",
          "type": "uint256[]"
        },
        {
          "name": "_cryptoValues",
          "type": "uint256[]"
        }
      ],
      "name": "calculateValue",
      "outputs": [
        {
          "name": "value",
          "type": "uint256"
        }
      ],
      "payable": false,
      "stateMutability": "pure",
      "type": "function"
    },
    {
      "constant": true,
      "inputs": [
        {
          "name": "_idsAndAmts",
          "type": "uint256[]"
        }
      ],
      "name": "bitRec",
      "outputs": [
        {
          "name": "cryptos",
          "type": "uint256[]"
        },
        {
          "name": "amounts",
          "type": "uint256[]"
        }
      ],
      "payable": false,
      "stateMutability": "pure",
      "type": "function"
    },
    {
      "constant": false,
      "inputs": [
        {
          "name": "_newGasPrice",
          "type": "uint256"
        }
      ],
      "name": "changeGas",
      "outputs": [],
      "payable": false,
      "stateMutability": "nonpayable",
      "type": "function"
    },
    {
      "constant": false,
      "inputs": [
        {
          "name": "_tokenContract",
          "type": "address"
        },
        {
          "name": "_amount",
          "type": "uint256"
        }
      ],
      "name": "tokenEscape",
      "outputs": [],
      "payable": false,
      "stateMutability": "nonpayable",
      "type": "function"
    }
  ],
  "bytecode": "0x6080604052606060405190810160405280603d81526020017f68747470733a2f2f6d696e2d6170692e63727970746f636f6d706172652e636f81526020017f6d2f646174612f70726963656d756c74693f6673796d733d434f494e2c0000008152506008908051906020019062000078929190620008ce565b50606060405190810160405280603d81526020017f68747470733a2f2f6d696e2d6170692e63727970746f636f6d706172652e636f81526020017f6d2f646174612f70726963656d756c74693f6673796d733d434153482c00000081525060099080519060200190620000ed929190620008ce565b506040516080806200531583398101806040528101908080519060200190929190805190602001909291908051906020019092919080519060200190929190505050336000806101000a81548173ffffffffffffffffffffffffffffffffffffffff021916908373ffffffffffffffffffffffffffffffffffffffff16021790555033600160006101000a81548173ffffffffffffffffffffffffffffffffffffffff021916908373ffffffffffffffffffffffffffffffffffffffff1602179055506001600260008060009054906101000a900473ffffffffffffffffffffffffffffffffffffffff1673ffffffffffffffffffffffffffffffffffffffff1673ffffffffffffffffffffffffffffffffffffffff16815260200190815260200160002060006101000a81548160ff021916908315150217905550600160026000600160009054906101000a900473ffffffffffffffffffffffffffffffffffffffff1673ffffffffffffffffffffffffffffffffffffffff1673ffffffffffffffffffffffffffffffffffffffff16815260200190815260200160002060006101000a81548160ff02191690831515021790555083600560006101000a81548173ffffffffffffffffffffffffffffffffffffffff021916908373ffffffffffffffffffffffffffffffffffffffff16021790555082600660006101000a81548173ffffffffffffffffffffffffffffffffffffffff021916908373ffffffffffffffffffffffffffffffffffffffff16021790555081600360006101000a81548173ffffffffffffffffffffffffffffffffffffffff021916908373ffffffffffffffffffffffffffffffffffffffff16021790555080600460006101000a81548173ffffffffffffffffffffffffffffffffffffffff021916908373ffffffffffffffffffffffffffffffffffffffff160217905550620003fa60006040805190810160405280600581526020017f434f494e2c00000000000000000000000000000000000000000000000000000081525060016200074e640100000000026401000000009004565b6200044d60006040805190810160405280600581526020017f434153482c00000000000000000000000000000000000000000000000000000081525060016200074e640100000000026401000000009004565b620004a060006040805190810160405280600481526020017f4254432c0000000000000000000000000000000000000000000000000000000081525060016200074e640100000000026401000000009004565b620004f360006040805190810160405280600481526020017f4554482c0000000000000000000000000000000000000000000000000000000081525060016200074e640100000000026401000000009004565b6200054660006040805190810160405280600481526020017f5852502c0000000000000000000000000000000000000000000000000000000081525060016200074e640100000000026401000000009004565b6200059960006040805190810160405280600481526020017f4c54432c0000000000000000000000000000000000000000000000000000000081525060016200074e640100000000026401000000009004565b620005ec60006040805190810160405280600581526020017f444153482c00000000000000000000000000000000000000000000000000000081525060016200074e640100000000026401000000009004565b6200063f60006040805190810160405280600481526020017f4243482c0000000000000000000000000000000000000000000000000000000081525060016200074e640100000000026401000000009004565b6200069260006040805190810160405280600481526020017f584d522c0000000000000000000000000000000000000000000000000000000081525060016200074e640100000000026401000000009004565b620006e560006040805190810160405280600481526020017f58454d2c0000000000000000000000000000000000000000000000000000000081525060016200074e640100000000026401000000009004565b6200073860006040805190810160405280600481526020017f454f532c0000000000000000000000000000000000000000000000000000000081525060016200074e640100000000026401000000009004565b6404a817c800600781905550505050506200097d565b6000809054906101000a900473ffffffffffffffffffffffffffffffffffffffff1673ffffffffffffffffffffffffffffffffffffffff163373ffffffffffffffffffffffffffffffffffffffff16141515620007aa57600080fd5b6000831115620007eb5781600c84815481101515620007c557fe5b906000526020600020019080519060200190620007e4929190620008ce565b50620008c9565b600c8290806001815401808255809150509060018203906000526020600020016000909192909190915090805190602001906200082a929190620008ce565b505080156200087a57600c82908060018154018082558091505090600182039060005260206000200160009091929091909150908051906020019062000872929190620008ce565b5050620008c8565b600c806001815401808255809150509060018203906000526020600020016000602060405190810160405280600081525090919091509080519060200190620008c5929190620008ce565b50505b5b505050565b828054600181600116156101000203166002900490600052602060002090601f016020900481019282601f106200091157805160ff191683800117855562000942565b8280016001018555821562000942579182015b828111156200094157825182559160200191906001019062000924565b5b50905062000951919062000955565b5090565b6200097a91905b80821115620009765760008160009055506001016200095c565b5090565b90565b614988806200098d6000396000f3006080604052600436106101b7576000357c0100000000000000000000000000000000000000000000000000000000900463ffffffff16806302e7b53f146102115780630958a9f31461023c57806310840303146102935780631833a548146102e257806338bbfa501461030f578063429b62e5146103cc57806349c38b0a146104275780634b0720a7146104cd578063519e7e4f146104f857806356997026146105fb57806358797cb6146106265780635c975abb1461067d57806368e09ab5146106ac57806376cdb03b146106f95780638da5cb5b146107505780638f4ffcb1146107a7578063909c97051461085a57806393911ff8146108855780639d4870ba146108d85780639ecc626a146109e5578063a66ef36a14610a10578063a722468714610af1578063aa2f04da14610b48578063aa88a57c14610b77578063ad3213e014610c62578063bea6998f14610d1f578063c0eb2e7014610d76578063c118453714610e3e578063cbaec30f14610ee1578063cca7322814610f71578063d353ffa914610fc8578063d830fb9414611047578063dfb6c468146110d7578063e06572ec1461111a578063f2fde38b146111e2575b600260003373ffffffffffffffffffffffffffffffffffffffff1673ffffffffffffffffffffffffffffffffffffffff16815260200190815260200160002060009054906101000a900460ff16151561020f57600080fd5b005b34801561021d57600080fd5b50610226611225565b6040518082815260200191505060405180910390f35b34801561024857600080fd5b5061025161122a565b604051808273ffffffffffffffffffffffffffffffffffffffff1673ffffffffffffffffffffffffffffffffffffffff16815260200191505060405180910390f35b34801561029f57600080fd5b506102e0600480360381019080803573ffffffffffffffffffffffffffffffffffffffff169060200190929190803515159060200190929190505050611250565b005b3480156102ee57600080fd5b5061030d600480360381019080803590602001909291905050506113a0565b005b34801561031b57600080fd5b506103ca6004803603810190808035600019169060200190929190803590602001908201803590602001908080601f0160208091040260200160405190810160405280939291908181526020018383808284378201915050505050509192919290803590602001908201803590602001908080601f0160208091040260200160405190810160405280939291908181526020018383808284378201915050505050509192919290505050611405565b005b3480156103d857600080fd5b5061040d600480360381019080803573ffffffffffffffffffffffffffffffffffffffff16906020019092919050505061159a565b604051808215151515815260200191505060405180910390f35b34801561043357600080fd5b50610452600480360381019080803590602001909291905050506115ba565b6040518080602001828103825283818151815260200191508051906020019080838360005b83811015610492578082015181840152602081019050610477565b50505050905090810190601f1680156104bf5780820380516001836020036101000a031916815260200191505b509250505060405180910390f35b3480156104d957600080fd5b506104e2611675565b6040518082815260200191505060405180910390f35b34801561050457600080fd5b5061055c6004803603810190808035906020019082018035906020019080806020026020016040519081016040528093929190818152602001838360200280828437820191505050505050919291929050505061167b565b604051808060200180602001838103835285818151815260200191508051906020019060200280838360005b838110156105a3578082015181840152602081019050610588565b50505050905001838103825284818151815260200191508051906020019060200280838360005b838110156105e55780820151818401526020810190506105ca565b5050505090500194505050505060405180910390f35b34801561060757600080fd5b506106106117a1565b6040518082815260200191505060405180910390f35b34801561063257600080fd5b5061063b6117a6565b604051808273ffffffffffffffffffffffffffffffffffffffff1673ffffffffffffffffffffffffffffffffffffffff16815260200191505060405180910390f35b34801561068957600080fd5b506106926117cc565b604051808215151515815260200191505060405180910390f35b3480156106b857600080fd5b506106f7600480360381019080803573ffffffffffffffffffffffffffffffffffffffff169060200190929190803590602001909291905050506117df565b005b34801561070557600080fd5b5061070e611ac4565b604051808273ffffffffffffffffffffffffffffffffffffffff1673ffffffffffffffffffffffffffffffffffffffff16815260200191505060405180910390f35b34801561075c57600080fd5b50610765611aea565b604051808273ffffffffffffffffffffffffffffffffffffffff1673ffffffffffffffffffffffffffffffffffffffff16815260200191505060405180910390f35b3480156107b357600080fd5b50610858600480360381019080803573ffffffffffffffffffffffffffffffffffffffff16906020019092919080359060200190929190803573ffffffffffffffffffffffffffffffffffffffff169060200190929190803590602001908201803590602001908080601f0160208091040260200160405190810160405280939291908181526020018383808284378201915050505050509192919290505050611b0f565b005b34801561086657600080fd5b5061086f611c9d565b6040518082815260200191505060405180910390f35b34801561089157600080fd5b506108d6600480360381019080803590602001908201803590602001919091929391929390803590602001908201803590602001919091929391929390505050611ca2565b005b3480156108e457600080fd5b5061098e60048036038101908080359060200190820180359060200190808060200260200160405190810160405280939291908181526020018383602002808284378201915050505050509192919290803590602001908201803590602001908080601f0160208091040260200160405190810160405280939291908181526020018383808284378201915050505050509192919290803515159060200190929190505050611e35565b6040518080602001828103825283818151815260200191508051906020019060200280838360005b838110156109d15780820151818401526020810190506109b6565b505050509050019250505060405180910390f35b3480156109f157600080fd5b506109fa61229d565b6040518082815260200191505060405180910390f35b348015610a1c57600080fd5b50610aef600480360381019080803573ffffffffffffffffffffffffffffffffffffffff16906020019092919080359060200190820180359060200190808060200260200160405190810160405280939291908181526020018383602002808284378201915050505050509192919290803590602001908201803590602001908080602002602001604051908101604052809392919081815260200183836020028082843782019150505050505091929192908035151590602001909291908035151590602001909291905050506122a2565b005b348015610afd57600080fd5b50610b066123c4565b604051808273ffffffffffffffffffffffffffffffffffffffff1673ffffffffffffffffffffffffffffffffffffffff16815260200191505060405180910390f35b348015610b5457600080fd5b50610b756004803603810190808035151590602001909291905050506123ea565b005b348015610b8357600080fd5b50610be760048036038101908080359060200190820180359060200190808060200260200160405190810160405280939291908181526020018383602002808284378201915050505050509192919290803515159060200190929190505050612462565b6040518080602001828103825283818151815260200191508051906020019080838360005b83811015610c27578082015181840152602081019050610c0c565b50505050905090810190601f168015610c545780820380516001836020036101000a031916815260200191505b509250505060405180910390f35b348015610c6e57600080fd5b50610d0960048036038101908080359060200190820180359060200190808060200260200160405190810160405280939291908181526020018383602002808284378201915050505050509192919290803590602001908201803590602001908080602002602001604051908101604052809392919081815260200183836020028082843782019150505050505091929192905050506127aa565b6040518082815260200191505060405180910390f35b348015610d2b57600080fd5b50610d34612851565b604051808273ffffffffffffffffffffffffffffffffffffffff1673ffffffffffffffffffffffffffffffffffffffff16815260200191505060405180910390f35b610e3c600480360381019080803573ffffffffffffffffffffffffffffffffffffffff1690602001909291908035906020019082018035906020019080806020026020016040519081016040528093929190818152602001838360200280828437820191505050505050919291929080359060200190820180359060200190808060200260200160405190810160405280939291908181526020018383602002808284378201915050505050509192919290803515159060200190929190505050612877565b005b348015610e4a57600080fd5b50610edf600480360381019080803573ffffffffffffffffffffffffffffffffffffffff169060200190929190803573ffffffffffffffffffffffffffffffffffffffff169060200190929190803573ffffffffffffffffffffffffffffffffffffffff169060200190929190803573ffffffffffffffffffffffffffffffffffffffff1690602001909291905050506129a3565b005b348015610eed57600080fd5b50610ef6612b08565b6040518080602001828103825283818151815260200191508051906020019080838360005b83811015610f36578082015181840152602081019050610f1b565b50505050905090810190601f168015610f635780820380516001836020036101000a031916815260200191505b509250505060405180910390f35b348015610f7d57600080fd5b50610fb2600480360381019080803573ffffffffffffffffffffffffffffffffffffffff169060200190929190505050612ba6565b6040518082815260200191505060405180910390f35b348015610fd457600080fd5b5061104560048036038101908080359060200190929190803590602001908201803590602001908080601f0160208091040260200160405190810160405280939291908181526020018383808284378201915050505050509192919290803515159060200190929190505050612bbe565b005b34801561105357600080fd5b5061105c612d30565b6040518080602001828103825283818151815260200191508051906020019080838360005b8381101561109c578082015181840152602081019050611081565b50505050905090810190601f1680156110c95780820380516001836020036101000a031916815260200191505b509250505060405180910390f35b3480156110e357600080fd5b50611118600480360381019080803573ffffffffffffffffffffffffffffffffffffffff169060200190929190505050612dce565b005b6111e0600480360381019080803573ffffffffffffffffffffffffffffffffffffffff1690602001909291908035906020019082018035906020019080806020026020016040519081016040528093929190818152602001838360200280828437820191505050505050919291929080359060200190820180359060200190808060200260200160405190810160405280939291908181526020018383602002808284378201915050505050509192919290803515159060200190929190505050612eaa565b005b3480156111ee57600080fd5b50611223600480360381019080803573ffffffffffffffffffffffffffffffffffffffff169060200190929190505050612fd6565b005b600281565b600160009054906101000a900473ffffffffffffffffffffffffffffffffffffffff1681565b600160009054906101000a900473ffffffffffffffffffffffffffffffffffffffff1673ffffffffffffffffffffffffffffffffffffffff163373ffffffffffffffffffffffffffffffffffffffff161415156112ac57600080fd5b600073ffffffffffffffffffffffffffffffffffffffff168273ffffffffffffffffffffffffffffffffffffffff16141515156112e857600080fd5b600160009054906101000a900473ffffffffffffffffffffffffffffffffffffffff1673ffffffffffffffffffffffffffffffffffffffff168273ffffffffffffffffffffffffffffffffffffffff161415151561134557600080fd5b80600260008473ffffffffffffffffffffffffffffffffffffffff1673ffffffffffffffffffffffffffffffffffffffff16815260200190815260200160002060006101000a81548160ff0219169083151502179055505050565b6000809054906101000a900473ffffffffffffffffffffffffffffffffffffffff1673ffffffffffffffffffffffffffffffffffffffff163373ffffffffffffffffffffffffffffffffffffffff161415156113fb57600080fd5b8060078190555050565b61140d61480d565b606080600080600060606000600b60008c60001916600019168152602001908152602001600020608060405190810160405290816000820160009054906101000a900460ff161515151581526020016000820160019054906101000a900460ff161515151581526020016000820160029054906101000a900473ffffffffffffffffffffffffffffffffffffffff1673ffffffffffffffffffffffffffffffffffffffff1673ffffffffffffffffffffffffffffffffffffffff1681526020016001820180548060200260200160405190810160405280929190818152602001828054801561151b57602002820191906000526020600020905b815481526020019060010190808311611507575b5050505050815250509750611533886060015161167b565b96509650876040015194508760000151935087602001519250611557878b85611e35565b915061156386836127aa565b9050831561157e5761157985888885858861312b565b61158d565b61158c858888858588613a8f565b5b5050505050505050505050565b60026020528060005260406000206000915054906101000a900460ff1681565b600c818154811015156115c957fe5b906000526020600020016000915090508054600181600116156101000203166002900480601f01602080910402602001604051908101604052809291908181526020018280546001816001161561010002031660029004801561166d5780601f106116425761010080835404028352916020019161166d565b820191906000526020600020905b81548152906001019060200180831161165057829003601f168201915b505050505081565b60075481565b606080600083516040519080825280602002602001820160405280156116b05781602001602082028038833980820191505090505b50925083516040519080825280602002602001820160405280156116e35781602001602082028038833980820191505090505b509150600090505b835181101561179557838181518110151561170257fe5b9060200190602002015160ff16838281518110151561171d57fe5b90602001906020020181815250506008848281518110151561173b57fe5b906020019060200201519060020a90047effffffffffffffffffffffffffffffffffffffffffffffffffffffffffffff16828281518110151561177a57fe5b906020019060200201818152505080806001019150506116eb565b82829250925050915091565b600381565b600560009054906101000a900473ffffffffffffffffffffffffffffffffffffffff1681565b600a60009054906101000a900460ff1681565b600080600160009054906101000a900473ffffffffffffffffffffffffffffffffffffffff1673ffffffffffffffffffffffffffffffffffffffff163373ffffffffffffffffffffffffffffffffffffffff1614151561183e57600080fd5b600073ffffffffffffffffffffffffffffffffffffffff168473ffffffffffffffffffffffffffffffffffffffff1614156118e157600160009054906101000a900473ffffffffffffffffffffffffffffffffffffffff1673ffffffffffffffffffffffffffffffffffffffff166108fc849081150290604051600060405180830381858888f193505050501580156118db573d6000803e3d6000fd5b50611abe565b8391508173ffffffffffffffffffffffffffffffffffffffff166370a08231306040518263ffffffff167c0100000000000000000000000000000000000000000000000000000000028152600401808273ffffffffffffffffffffffffffffffffffffffff1673ffffffffffffffffffffffffffffffffffffffff168152602001915050602060405180830381600087803b15801561197f57600080fd5b505af1158015611993573d6000803e3d6000fd5b505050506040513d60208110156119a957600080fd5b810190808051906020019092919050505090508173ffffffffffffffffffffffffffffffffffffffff1663a9059cbb600160009054906101000a900473ffffffffffffffffffffffffffffffffffffffff16836040518363ffffffff167c0100000000000000000000000000000000000000000000000000000000028152600401808373ffffffffffffffffffffffffffffffffffffffff1673ffffffffffffffffffffffffffffffffffffffff16815260200182815260200192505050602060405180830381600087803b158015611a8157600080fd5b505af1158015611a95573d6000803e3d6000fd5b505050506040513d6020811015611aab57600080fd5b8101908080519060200190929190505050505b50505050565b600360009054906101000a900473ffffffffffffffffffffffffffffffffffffffff1681565b6000809054906101000a900473ffffffffffffffffffffffffffffffffffffffff1681565b6000600560009054906101000a900473ffffffffffffffffffffffffffffffffffffffff1673ffffffffffffffffffffffffffffffffffffffff163373ffffffffffffffffffffffffffffffffffffffff161480611bba5750600660009054906101000a900473ffffffffffffffffffffffffffffffffffffffff1673ffffffffffffffffffffffffffffffffffffffff163373ffffffffffffffffffffffffffffffffffffffff16145b1515611bc557600080fd5b602482015190508073ffffffffffffffffffffffffffffffffffffffff168573ffffffffffffffffffffffffffffffffffffffff16141515611c0657600080fd5b3073ffffffffffffffffffffffffffffffffffffffff168260405180828051906020019080838360005b83811015611c4b578082015181840152602081019050611c30565b50505050905090810190601f168015611c785780820380516001836020036101000a031916815260200191505b50915050600060405180830381855af49150501515611c9657600080fd5b5050505050565b600181565b6000600160009054906101000a900473ffffffffffffffffffffffffffffffffffffffff1673ffffffffffffffffffffffffffffffffffffffff163373ffffffffffffffffffffffffffffffffffffffff16141515611d0057600080fd5b8282905085859050141515611d1457600080fd5b600090505b84849050811015611e2e57611db48383838181101515611d3557fe5b90506020020135600d60008888868181101515611d4e57fe5b9050602002013573ffffffffffffffffffffffffffffffffffffffff1673ffffffffffffffffffffffffffffffffffffffff1673ffffffffffffffffffffffffffffffffffffffff168152602001908152602001600020546140c890919063ffffffff16565b600d60008787858181101515611dc657fe5b9050602002013573ffffffffffffffffffffffffffffffffffffffff1673ffffffffffffffffffffffffffffffffffffffff1673ffffffffffffffffffffffffffffffffffffffff168152602001908152602001600020819055508080600101915050611d19565b5050505050565b6060611e3f614850565b611e47614850565b60606000806000806060600080611e5d8d6140e6565b9950611e9d6040805190810160405280600381526020017f55534400000000000000000000000000000000000000000000000000000000008152506140e6565b9850611eba611eb58a8c61411490919063ffffffff16565b61412e565b5060018e5101604051908082528060200260200182016040528015611eee5781602001602082028038833980820191505090505b509a50611f0c611f078a8c61411490919063ffffffff16565b61412e565b9750611f19886012614190565b8b6000815181101515611f2857fe5b9060200190602002018181525050600096505b8d51871015612248578d87815181101515611f5257fe5b9060200190602002015195506000600287811515611f6c57fe5b06119450600093505b8d5184101561204a5786841415611f8b5761204a565b848015611fb15750600186038e85815181101515611fa557fe5b90602001906020020151145b80611fdf575084158015611fde5750600186018e85815181101515611fd257fe5b90602001906020020151145b5b1561203d578a60018501815181101515611ff557fe5b906020019060200201516ec097ce7bc90715b34b9f100000000081151561201857fe5b048b6001890181518110151561202a57fe5b906020019060200201818152505061204a565b8380600101945050611f75565b60008b6001890181518110151561205d57fe5b9060200190602002015114801561207157508b5b8015612088575060008614806120875750600186145b5b806120ce575060008b600189018151811015156120a157fe5b906020019060200201511480156120b657508b155b80156120cd575060028614806120cc5750600386145b5b5b1561216f57841515612117578a60008151811015156120e957fe5b906020019060200201518b6001890181518110151561210457fe5b906020019060200201818152505061216a565b8a600081518110151561212657fe5b906020019060200201516ec097ce7bc90715b34b9f100000000081151561214957fe5b048b6001890181518110151561215b57fe5b90602001906020020181815250505b61223b565b60008b6001890181518110151561218257fe5b90602001906020020151141561223a576121ad6121a88a8c61411490919063ffffffff16565b61412e565b92506121ba836012614190565b91506000821180156121ca575084155b156121f457818b600189018151811015156121e157fe5b9060200190602002018181525050612239565b600082111561223857816ec097ce7bc90715b34b9f100000000081151561221757fe5b048b6001890181518110151561222957fe5b90602001906020020181815250505b5b5b5b8680600101975050611f3b565b600090505b8a518110156122895760008b8281518110151561226657fe5b9060200190602002015111151561227c57600080fd5b808060010191505061224d565b8a9a50505050505050505050509392505050565b600081565b60006122ae8584612462565b50600180029050608060405190810160405280831515815260200184151581526020018773ffffffffffffffffffffffffffffffffffffffff1681526020016122f78787614484565b815250600b6000836000191660001916815260200190815260200160002060008201518160000160006101000a81548160ff02191690831515021790555060208201518160000160016101000a81548160ff02191690831515021790555060408201518160000160026101000a81548173ffffffffffffffffffffffffffffffffffffffff021916908373ffffffffffffffffffffffffffffffffffffffff16021790555060608201518160010190805190602001906123b892919061486a565b50905050505050505050565b600660009054906101000a900473ffffffffffffffffffffffffffffffffffffffff1681565b6000809054906101000a900473ffffffffffffffffffffffffffffffffffffffff1673ffffffffffffffffffffffffffffffffffffffff163373ffffffffffffffffffffffffffffffffffffffff1614151561244557600080fd5b80600a60006101000a81548160ff02191690831515021790555050565b6060600080600084156125115760088054600181600116156101000203166002900480601f0160208091040260200160405190810160405280929190818152602001828054600181600116156101000203166002900480156125055780601f106124da57610100808354040283529160200191612505565b820191906000526020600020905b8154815290600101906020018083116124e857829003601f168201915b505050505093506125af565b60098054600181600116156101000203166002900480601f0160208091040260200160405190810160405280929190818152602001828054600181600116156101000203166002900480156125a75780601f1061257c576101008083540402835291602001916125a7565b820191906000526020600020905b81548152906001019060200180831161258a57829003601f168201915b505050505093505b600092505b85518310156127445785838151811015156125cb57fe5b906020019060200201519150600090505b855181101561262557808314156125f257612625565b858181518110151561260057fe5b90602001906020020151821415151561261857600080fd5b80806001019150506125dc565b6000600c8381548110151561263657fe5b9060005260206000200180546001816001161561010002031660029004905011151561266157600080fd5b61273561271e600c8481548110151561267657fe5b906000526020600020018054600181600116156101000203166002900480601f0160208091040260200160405190810160405280929190818152602001828054600181600116156101000203166002900480156127145780601f106126e957610100808354040283529160200191612714565b820191906000526020600020905b8154815290600101906020018083116126f757829003601f168201915b50505050506140e6565b612727866140e6565b61455590919063ffffffff16565b935082806001019350506125b4565b61279c6127856040805190810160405280600a81526020017f267473796d733d555344000000000000000000000000000000000000000000008152506140e6565b61278e866140e6565b61455590919063ffffffff16565b935083935050505092915050565b600080600090505b835181101561284a5761283b61282c8460008151811015156127d057fe5b9060200190602002015161281e87858151811015156127eb57fe5b90602001906020020151876001870181518110151561280657fe5b906020019060200201516145d790919063ffffffff16565b61460a90919063ffffffff16565b836140c890919063ffffffff16565b915080806001019150506127b2565b5092915050565b600460009054906101000a900473ffffffffffffffffffffffffffffffffffffffff1681565b600a60009054906101000a900460ff1615151561289357600080fd5b838073ffffffffffffffffffffffffffffffffffffffff163373ffffffffffffffffffffffffffffffffffffffff16148061291b5750600560009054906101000a900473ffffffffffffffffffffffffffffffffffffffff1673ffffffffffffffffffffffffffffffffffffffff163373ffffffffffffffffffffffffffffffffffffffff16145b806129735750600660009054906101000a900473ffffffffffffffffffffffffffffffffffffffff1673ffffffffffffffffffffffffffffffffffffffff163373ffffffffffffffffffffffffffffffffffffffff16145b151561297e57600080fd5b8251845114151561298e57600080fd5b61299c8585858560016122a2565b5050505050565b6000809054906101000a900473ffffffffffffffffffffffffffffffffffffffff1673ffffffffffffffffffffffffffffffffffffffff163373ffffffffffffffffffffffffffffffffffffffff161415156129fe57600080fd5b83600560006101000a81548173ffffffffffffffffffffffffffffffffffffffff021916908373ffffffffffffffffffffffffffffffffffffffff16021790555082600660006101000a81548173ffffffffffffffffffffffffffffffffffffffff021916908373ffffffffffffffffffffffffffffffffffffffff16021790555081600360006101000a81548173ffffffffffffffffffffffffffffffffffffffff021916908373ffffffffffffffffffffffffffffffffffffffff16021790555080600460006101000a81548173ffffffffffffffffffffffffffffffffffffffff021916908373ffffffffffffffffffffffffffffffffffffffff16021790555050505050565b60088054600181600116156101000203166002900480601f016020809104026020016040519081016040528092919081815260200182805460018160011615610100020316600290048015612b9e5780601f10612b7357610100808354040283529160200191612b9e565b820191906000526020600020905b815481529060010190602001808311612b8157829003601f168201915b505050505081565b600d6020528060005260406000206000915090505481565b6000809054906101000a900473ffffffffffffffffffffffffffffffffffffffff1673ffffffffffffffffffffffffffffffffffffffff163373ffffffffffffffffffffffffffffffffffffffff16141515612c1957600080fd5b6000831115612c555781600c84815481101515612c3257fe5b906000526020600020019080519060200190612c4f9291906148b7565b50612d2b565b600c829080600181540180825580915050906001820390600052602060002001600090919290919091509080519060200190612c929291906148b7565b50508015612cde57600c829080600181540180825580915050906001820390600052602060002001600090919290919091509080519060200190612cd79291906148b7565b5050612d2a565b600c806001815401808255809150509060018203906000526020600020016000602060405190810160405280600081525090919091509080519060200190612d279291906148b7565b50505b5b505050565b60098054600181600116156101000203166002900480601f016020809104026020016040519081016040528092919081815260200182805460018160011615610100020316600290048015612dc65780601f10612d9b57610100808354040283529160200191612dc6565b820191906000526020600020905b815481529060010190602001808311612da957829003601f168201915b505050505081565b600160009054906101000a900473ffffffffffffffffffffffffffffffffffffffff1673ffffffffffffffffffffffffffffffffffffffff163373ffffffffffffffffffffffffffffffffffffffff16141515612e2a57600080fd5b600073ffffffffffffffffffffffffffffffffffffffff168173ffffffffffffffffffffffffffffffffffffffff1614151515612e6657600080fd5b80600160006101000a81548173ffffffffffffffffffffffffffffffffffffffff021916908373ffffffffffffffffffffffffffffffffffffffff16021790555050565b600a60009054906101000a900460ff16151515612ec657600080fd5b838073ffffffffffffffffffffffffffffffffffffffff163373ffffffffffffffffffffffffffffffffffffffff161480612f4e5750600560009054906101000a900473ffffffffffffffffffffffffffffffffffffffff1673ffffffffffffffffffffffffffffffffffffffff163373ffffffffffffffffffffffffffffffffffffffff16145b80612fa65750600660009054906101000a900473ffffffffffffffffffffffffffffffffffffffff1673ffffffffffffffffffffffffffffffffffffffff163373ffffffffffffffffffffffffffffffffffffffff16145b1515612fb157600080fd5b82518451141515612fc157600080fd5b612fcf8585858560006122a2565b5050505050565b6000809054906101000a900473ffffffffffffffffffffffffffffffffffffffff1673ffffffffffffffffffffffffffffffffffffffff163373ffffffffffffffffffffffffffffffffffffffff1614151561303157600080fd5b600073ffffffffffffffffffffffffffffffffffffffff168173ffffffffffffffffffffffffffffffffffffffff161415151561306d57600080fd5b8073ffffffffffffffffffffffffffffffffffffffff166000809054906101000a900473ffffffffffffffffffffffffffffffffffffffff1673ffffffffffffffffffffffffffffffffffffffff167f8be0079c531659141344cd1fd0a4f28419497f9722a3daafe3b4186f6b6457e060405160405180910390a3806000806101000a81548173ffffffffffffffffffffffffffffffffffffffff021916908373ffffffffffffffffffffffffffffffffffffffff16021790555050565b600080821561315e57600560009054906101000a900473ffffffffffffffffffffffffffffffffffffffff169150613184565b600660009054906101000a900473ffffffffffffffffffffffffffffffffffffffff1691505b84600081518110151561319357fe5b906020019060200201516f03c109feac3f9bac48ec8cec000000008115156131b757fe5b0490506000600d60008a73ffffffffffffffffffffffffffffffffffffffff1673ffffffffffffffffffffffffffffffffffffffff16815260200190815260200160002054111561329d576132556001600d60008b73ffffffffffffffffffffffffffffffffffffffff1673ffffffffffffffffffffffffffffffffffffffff1681526020019081526020016000205461462590919063ffffffff16565b600d60008a73ffffffffffffffffffffffffffffffffffffffff1673ffffffffffffffffffffffffffffffffffffffff168152602001908152602001600020819055506133dd565b8173ffffffffffffffffffffffffffffffffffffffff166323b872dd89600160009054906101000a900473ffffffffffffffffffffffffffffffffffffffff16846040518463ffffffff167c0100000000000000000000000000000000000000000000000000000000028152600401808473ffffffffffffffffffffffffffffffffffffffff1673ffffffffffffffffffffffffffffffffffffffff1681526020018373ffffffffffffffffffffffffffffffffffffffff1673ffffffffffffffffffffffffffffffffffffffff1681526020018281526020019350505050602060405180830381600087803b15801561339657600080fd5b505af11580156133aa573d6000803e3d6000fd5b505050506040513d60208110156133c057600080fd5b810190808051906020019092919050505015156133dc57600080fd5b5b8173ffffffffffffffffffffffffffffffffffffffff166323b872dd89600360009054906101000a900473ffffffffffffffffffffffffffffffffffffffff16876040518463ffffffff167c0100000000000000000000000000000000000000000000000000000000028152600401808473ffffffffffffffffffffffffffffffffffffffff1673ffffffffffffffffffffffffffffffffffffffff1681526020018373ffffffffffffffffffffffffffffffffffffffff1673ffffffffffffffffffffffffffffffffffffffff1681526020018281526020019350505050602060405180830381600087803b1580156134d657600080fd5b505af11580156134ea573d6000803e3d6000fd5b505050506040513d602081101561350057600080fd5b8101908080519060200190929190505050151561351c57600080fd5b600087600081518110151561352d57fe5b90602001906020020151148015613545575060018751145b1561367f57600360009054906101000a900473ffffffffffffffffffffffffffffffffffffffff1673ffffffffffffffffffffffffffffffffffffffff1663e1ad11628988600081518110151561359857fe5b9060200190602002015160016040518463ffffffff167c0100000000000000000000000000000000000000000000000000000000028152600401808473ffffffffffffffffffffffffffffffffffffffff1673ffffffffffffffffffffffffffffffffffffffff168152602001838152602001821515151581526020019350505050602060405180830381600087803b15801561363457600080fd5b505af1158015613648573d6000803e3d6000fd5b505050506040513d602081101561365e57600080fd5b8101908080519060200190929190505050151561367a57600080fd5b613958565b600287600081518110151561369057fe5b906020019060200201511480156136a8575060018751145b156137e257600360009054906101000a900473ffffffffffffffffffffffffffffffffffffffff1673ffffffffffffffffffffffffffffffffffffffff1663e1ad1162898860008151811015156136fb57fe5b9060200190602002015160006040518463ffffffff167c0100000000000000000000000000000000000000000000000000000000028152600401808473ffffffffffffffffffffffffffffffffffffffff1673ffffffffffffffffffffffffffffffffffffffff168152602001838152602001821515151581526020019350505050602060405180830381600087803b15801561379757600080fd5b505af11580156137ab573d6000803e3d6000fd5b505050506040513d60208110156137c157600080fd5b810190808051906020019092919050505015156137dd57600080fd5b613957565b600460009054906101000a900473ffffffffffffffffffffffffffffffffffffffff1673ffffffffffffffffffffffffffffffffffffffff166348663e7d89898960016040518563ffffffff167c0100000000000000000000000000000000000000000000000000000000028152600401808573ffffffffffffffffffffffffffffffffffffffff1673ffffffffffffffffffffffffffffffffffffffff168152602001806020018060200184151515158152602001838103835286818151815260200191508051906020019060200280838360005b838110156138d35780820151818401526020810190506138b8565b50505050905001838103825285818151815260200191508051906020019060200280838360005b838110156139155780820151818401526020810190506138fa565b505050509050019650505050505050600060405180830381600087803b15801561393e57600080fd5b505af1158015613952573d6000803e3d6000fd5b505050505b5b8773ffffffffffffffffffffffffffffffffffffffff167f895ef9c96d74ac11a2e32168368a763090669cc42fb30692c31b3242be99637d888888876040518080602001806020018060200185151515158152602001848103845288818151815260200191508051906020019060200280838360005b838110156139e95780820151818401526020810190506139ce565b50505050905001848103835287818151815260200191508051906020019060200280838360005b83811015613a2b578082015181840152602081019050613a10565b50505050905001848103825286818151815260200191508051906020019060200280838360005b83811015613a6d578082015181840152602081019050613a52565b5050505090500197505050505050505060405180910390a25050505050505050565b6000836000815181101515613aa057fe5b906020019060200201516f03c109feac3f9bac48ec8cec00000000811515613ac457fe5b0490506000600d60008973ffffffffffffffffffffffffffffffffffffffff1673ffffffffffffffffffffffffffffffffffffffff168152602001908152602001600020541115613baa57613b626001600d60008a73ffffffffffffffffffffffffffffffffffffffff1673ffffffffffffffffffffffffffffffffffffffff1681526020019081526020016000205461462590919063ffffffff16565b600d60008973ffffffffffffffffffffffffffffffffffffffff1673ffffffffffffffffffffffffffffffffffffffff16815260200190815260200160002081905550613d07565b8083111515613bb857600080fd5b600360009054906101000a900473ffffffffffffffffffffffffffffffffffffffff1673ffffffffffffffffffffffffffffffffffffffff1663e1ad1162600160009054906101000a900473ffffffffffffffffffffffffffffffffffffffff1683856040518463ffffffff167c0100000000000000000000000000000000000000000000000000000000028152600401808473ffffffffffffffffffffffffffffffffffffffff1673ffffffffffffffffffffffffffffffffffffffff168152602001838152602001821515151581526020019350505050602060405180830381600087803b158015613cab57600080fd5b505af1158015613cbf573d6000803e3d6000fd5b505050506040513d6020811015613cd557600080fd5b81019080805190602001909291905050501515613cf157600080fd5b613d04818461462590919063ffffffff16565b92505b600360009054906101000a900473ffffffffffffffffffffffffffffffffffffffff1673ffffffffffffffffffffffffffffffffffffffff1663e1ad11628885856040518463ffffffff167c0100000000000000000000000000000000000000000000000000000000028152600401808473ffffffffffffffffffffffffffffffffffffffff1673ffffffffffffffffffffffffffffffffffffffff168152602001838152602001821515151581526020019350505050602060405180830381600087803b158015613dd857600080fd5b505af1158015613dec573d6000803e3d6000fd5b505050506040513d6020811015613e0257600080fd5b81019080805190602001909291905050501515613e1e57600080fd5b600460009054906101000a900473ffffffffffffffffffffffffffffffffffffffff1673ffffffffffffffffffffffffffffffffffffffff166348663e7d88888860006040518563ffffffff167c0100000000000000000000000000000000000000000000000000000000028152600401808573ffffffffffffffffffffffffffffffffffffffff1673ffffffffffffffffffffffffffffffffffffffff168152602001806020018060200184151515158152602001838103835286818151815260200191508051906020019060200280838360005b83811015613f0f578082015181840152602081019050613ef4565b50505050905001838103825285818151815260200191508051906020019060200280838360005b83811015613f51578082015181840152602081019050613f36565b505050509050019650505050505050600060405180830381600087803b158015613f7a57600080fd5b505af1158015613f8e573d6000803e3d6000fd5b505050508673ffffffffffffffffffffffffffffffffffffffff167f9e2c65ef7d25bc0a96884607a1683a8db0dc8f84bf3ce8905cdfe326b2742339878787866040518080602001806020018060200185151515158152602001848103845288818151815260200191508051906020019060200280838360005b83811015614023578082015181840152602081019050614008565b50505050905001848103835287818151815260200191508051906020019060200280838360005b8381101561406557808201518184015260208101905061404a565b50505050905001848103825286818151815260200191508051906020019060200280838360005b838110156140a757808201518184015260208101905061408c565b5050505090500197505050505050505060405180910390a250505050505050565b60008082840190508381101515156140dc57fe5b8091505092915050565b6140ee614850565b600060208301905060408051908101604052808451815260200182815250915050919050565b61411c614850565b61412783838361463e565b5092915050565b606080600083600001516040519080825280601f01601f19166020018201604052801561416a5781602001602082028038833980820191505090505b50915060208201905061418681856020015186600001516146dc565b8192505050919050565b6000606060008060008693506000925060009150600090505b83518110156144655760307f01000000000000000000000000000000000000000000000000000000000000000284828151811015156141e457fe5b9060200101517f010000000000000000000000000000000000000000000000000000000000000090047f0100000000000000000000000000000000000000000000000000000000000000027effffffffffffffffffffffffffffffffffffffffffffffffffffffffffffff1916101580156142fc575060397f010000000000000000000000000000000000000000000000000000000000000002848281518110151561428c57fe5b9060200101517f010000000000000000000000000000000000000000000000000000000000000090047f0100000000000000000000000000000000000000000000000000000000000000027effffffffffffffffffffffffffffffffffffffffffffffffffffffffffffff191611155b156143ad57811561431f57600086141561431557614465565b8580600190039650505b600a830292506030848281518110151561433557fe5b9060200101517f010000000000000000000000000000000000000000000000000000000000000090047f0100000000000000000000000000000000000000000000000000000000000000027f010000000000000000000000000000000000000000000000000000000000000090040383019250614458565b602e7f01000000000000000000000000000000000000000000000000000000000000000284828151811015156143df57fe5b9060200101517f010000000000000000000000000000000000000000000000000000000000000090047f0100000000000000000000000000000000000000000000000000000000000000027effffffffffffffffffffffffffffffffffffffffffffffffffffffffffffff1916141561445757600191505b5b80806001019150506141a9565b60008611156144775785600a0a830292505b8294505050505092915050565b6060600083516040519080825280602002602001820160405280156144b85781602001602082028038833980820191505090505b509150600090505b835181101561454b5783818151811015156144d757fe5b9060200190602002015182828151811015156144ef57fe5b90602001906020020181815250506008838281518110151561450d57fe5b906020019060200201519060020a02828281518110151561452a57fe5b906020019060200201818151179150818152505080806001019150506144c0565b8191505092915050565b606080600083600001518560000151016040519080825280601f01601f1916602001820160405280156145975781602001602082028038833980820191505090505b5091506020820190506145b381866020015187600001516146dc565b6145cc85600001518201856020015186600001516146dc565b819250505092915050565b600080828402905060008414806145f857508284828115156145f557fe5b04145b151561460057fe5b8091505092915050565b600080828481151561461857fe5b0490508091505092915050565b600082821115151561463357fe5b818303905092915050565b614646614850565b60006146648560000151866020015186600001518760200151614727565b905084602001518360200181815250508460200151810383600001818152505084600001518560200151018114156146a65760008560000181815250506146d1565b8360000151836000015101856000018181510391508181525050836000015181018560200181815250505b829150509392505050565b60005b60208210151561470457825184526020840193506020830192506020820391506146df565b6001826020036101000a0390508019835116818551168181178652505050505050565b60008060008060008060008060008b97508c8b1115156147f75760208b1115156147b15760018b60200360080260020a03196001029550858a511694508a8d8d010393508588511692505b846000191683600019161415156147a9578388101515614796578c8c0198506147fd565b8780600101985050858851169250614772565b8798506147fd565b8a8a209150600096505b8a8d03871115156147f6578a882090508060001916826000191614156147e3578798506147fd565b60018801975086806001019750506147bb565b5b8c8c0198505b5050505050505050949350505050565b608060405190810160405280600015158152602001600015158152602001600073ffffffffffffffffffffffffffffffffffffffff168152602001606081525090565b604080519081016040528060008152602001600081525090565b8280548282559060005260206000209081019282156148a6579160200282015b828111156148a557825182559160200191906001019061488a565b5b5090506148b39190614937565b5090565b828054600181600116156101000203166002900490600052602060002090601f016020900481019282601f106148f857805160ff1916838001178555614926565b82800160010185558215614926579182015b8281111561492557825182559160200191906001019061490a565b5b5090506149339190614937565b5090565b61495991905b8082111561495557600081600090555060010161493d565b5090565b905600a165627a7a72305820855af5cf4b8743af4203d1ea76c678b74409214ce44bb71de438c947b951784c0029",
  "source": "pragma solidity ^0.4.24;\nimport './SafeMathLib.sol';\nimport './Ownable.sol';\nimport './Strings.sol';\nimport './UserData.sol';\nimport './Bank.sol';\nimport './ERC20Interface.sol';\n//import \"github.com/oraclize/ethereum-api/oraclizeAPI.sol\";\n\ncontract PostAuditTest is Ownable//, usingOraclize \n{ \n\n    using SafeMathLib for uint256;\n    using strings for *;\n    \n    Bank public bank;\n    UserData public userData;\n    \n    address public coinToken;\n    address public cashToken;\n    uint256 public customGasPrice;\n    string public coinUrl = \"https://min-api.cryptocompare.com/data/pricemulti?fsyms=COIN,\";\n    string public cashUrl = \"https://min-api.cryptocompare.com/data/pricemulti?fsyms=CASH,\";\n    bool public paused;\n    \n    uint256 public constant COIN_ID = 0;\n    uint256 public constant COIN_INV = 1;\n    uint256 public constant CASH_ID = 2;\n    uint256 public constant CASH_INV = 3;\n    \n    // Stores all trade info so Oraclize can return and update.\n    // idsAndAmts stores both the crypto ID and amounts with a uint8 and uint248 respectively.\n    struct TradeInfo {\n        bool isBuy;\n        bool isCoin;\n        address beneficiary;\n        uint256[] idsAndAmts;\n    }\n    \n    // Oraclize ID => TradeInfo.\n    mapping(bytes32 => TradeInfo) trades;\n\n    // Even indices are normal cryptos, odd are inverses--empty string if either does not exist.\n    string[] public cryptoSymbols;\n\n    // Balance of a user's free trades.\n    mapping(address => uint256) public freeTrades;\n\n    event newOraclizeQuery(string description);\n    event Buy(address indexed buyer, uint256[] cryptoIds, uint256[] amounts, uint256[] prices, bool isCoin);\n    event Sell(address indexed seller, uint256[] cryptoIds, uint256[] amounts, uint256[] prices, bool isCoin);\n\n/** ********************************** Defaults ************************************* **/\n    \n    /**\n     * @dev Constructor function, construct with coinvest token.\n     * @param _coinToken The address of the Coinvest COIN token.\n     * @param _cashToken Address of the Coinvest CASH token.\n     * @param _bank Contract where all of the user Coinvest tokens will be stored.\n     * @param _userData Contract where all of the user balances will be stored.\n    **/\n    constructor(address _coinToken, address _cashToken, address _bank, address _userData)\n      public\n      payable\n    {\n        coinToken = _coinToken;\n        cashToken = _cashToken;\n        bank = Bank(_bank);\n        userData = UserData(_userData);\n\n        //oraclize_setProof(proofType_TLSNotary | proofStorage_IPFS);\n        \n        addCrypto(0, \"COIN,\", true);\n        addCrypto(0, \"CASH,\", true);\n        addCrypto(0, \"BTC,\", true);\n        addCrypto(0, \"ETH,\", true);\n        addCrypto(0, \"XRP,\", true);\n        addCrypto(0, \"LTC,\", true);\n        addCrypto(0, \"DASH,\", true);\n        addCrypto(0, \"BCH,\", true);\n        addCrypto(0, \"XMR,\", true);\n        addCrypto(0, \"XEM,\", true);\n        addCrypto(0, \"EOS,\", true);\n\n        customGasPrice = 20000000000;\n        //oraclize_setCustomGasPrice(customGasPrice);\n    }\n  \n    /**\n     * @dev Used by Coinvest-associated wallets to fund the contract.\n            Users may also pay within a buy or sell call if no funds are available.\n    **/\n    function()\n      external\n      payable\n      onlyAdmin\n    {\n        \n    }\n  \n/** *************************** ApproveAndCall FallBack **************************** **/\n  \n    /**\n     * @dev ApproveAndCall will send us data, we'll determine if the beneficiary is the sender, then we'll call this contract.\n    **/\n    function receiveApproval(address _from, uint256 _amount, address _token, bytes _data) \n      public\n    {\n        require(msg.sender == coinToken || msg.sender == cashToken);\n\n        // check here to make sure _from == beneficiary in data\n        address beneficiary;\n        assembly {\n            beneficiary := mload(add(_data,36))\n        }\n        require(_from == beneficiary);\n        \n        require(address(this).delegatecall(_data));\n        _token; _amount;\n    }\n  \n/** ********************************** External ************************************* **/\n    \n    /**\n     * @dev User calls to invest, will then call Oraclize and Oraclize adds holdings.\n     * @dev User must first approve this contract to transfer enough tokens to buy.\n     * @param _beneficiary The user making the call whose balance will be updated.\n     * @param _cryptoIds The Ids of the cryptos to invest in.\n     * @param _amounts The amount of each crypto the user wants to buy, delineated in 10 ^ 18 wei.\n     * @param _isCoin True/False of the crypto that is being used to invest is COIN/CASH.\n    **/\n    function buy(address _beneficiary, uint256[] _cryptoIds, uint256[] _amounts, bool _isCoin)\n      public\n      payable\n      notPaused\n      onlySenderOrToken(_beneficiary)\n    {\n        require(_cryptoIds.length == _amounts.length);\n        getPrices(_beneficiary, _cryptoIds, _amounts, _isCoin, true);\n    }\n    \n    /**\n     * @dev User calls to sell holdings with same parameters as buy.\n    **/\n    function sell(address _beneficiary, uint256[] _cryptoIds, uint256[] _amounts, bool _isCoin)\n      public\n      payable\n      notPaused\n      onlySenderOrToken(_beneficiary)\n    {\n        require(_cryptoIds.length == _amounts.length);\n        getPrices(_beneficiary, _cryptoIds, _amounts, _isCoin, false);\n    }\n    \n/** ********************************** Internal ************************************ **/\n    \n    /**\n     * @dev Broker will call this for an investor to invest in one or multiple assets\n     * @param _beneficiary The address that is being bought for\n     * @param _cryptoIds The list of uint IDs for each crypto to buy\n     * @param _amounts The amounts of each crypto to buy (measured in 10 ** 18 wei!)\n     * @param _prices The price of each bought crypto at time of callback.\n     * @param _coinValue The amount of coin to transferFrom from user.\n     * @param _isCoin True/False of the crypto that is being used to invest is COIN/CASH.\n    **/\n    function finalizeBuy(address _beneficiary, uint256[] memory _cryptoIds, uint256[] memory _amounts, uint256[] memory _prices, uint256 _coinValue, bool _isCoin)\n      internal\n    {\n        ERC20Interface token;\n        if (_isCoin) token = ERC20Interface(coinToken);\n        else token = ERC20Interface(cashToken);\n\n        uint256 fee = 4990000000000000000 * (10 ** 18) / _prices[0];\n        if (freeTrades[_beneficiary] >  0) freeTrades[_beneficiary] = freeTrades[_beneficiary].sub(1);\n        else require(token.transferFrom(_beneficiary, coinvest, fee));\n        \n        require(token.transferFrom(_beneficiary, bank, _coinValue));\n\n        // We want to allow actual COIN/CASH exchange so users have easy access and we can \"CASH\" out fees\n        if (_cryptoIds[0] == COIN_ID && _cryptoIds.length == 1) {\n            require(bank.transfer(_beneficiary, _amounts[0], true));\n        } else if (_cryptoIds[0] == CASH_ID && _cryptoIds.length == 1) {\n            require(bank.transfer(_beneficiary, _amounts[0], false));\n        } else {\n            userData.modifyHoldings(_beneficiary, _cryptoIds, _amounts, true);\n        }\n\n        emit Buy(_beneficiary, _cryptoIds, _amounts, _prices, _isCoin);\n    }\n    \n    /**\n     * @param _beneficiary The address that is being sold for\n     * @param _cryptoIds The list of uint IDs for each crypto\n     * @param _amounts The amounts of each crypto to sell (measured in 10 ** 18 wei!)\n     * @param _prices The prices of each crypto at time of callback.\n     * @param _coinValue The amount of COIN to be transferred to user.\n     * @param _isCoin True/False of the crypto that is being used to invest is COIN/CASH.\n    **/\n    function finalizeSell(address _beneficiary, uint256[] memory _cryptoIds, uint256[] memory _amounts, uint256[] memory _prices, uint256 _coinValue, bool _isCoin)\n      internal\n    {   \n        uint256 fee = 4990000000000000000 * (10 ** 18) / _prices[0];\n        if (freeTrades[_beneficiary] > 0) freeTrades[_beneficiary] = freeTrades[_beneficiary].sub(1);\n        else {\n            require(_coinValue > fee);\n            require(bank.transfer(coinvest, fee, _isCoin));\n            _coinValue = _coinValue.sub(fee);\n        }\n\n        require(bank.transfer(_beneficiary, _coinValue, _isCoin));\n        \n        // Subtract from balance of each held crypto for user.\n        userData.modifyHoldings(_beneficiary, _cryptoIds, _amounts, false);\n        \n        emit Sell(_beneficiary, _cryptoIds, _amounts, _prices, _isCoin);\n    }\n    \n/** ******************************** Only Owner ************************************* **/\n    \n    /**\n     * @dev Owner may add a crypto to the investment contract.\n     * @param _index Id of the crypto if an old one is being altered, 0 if new crypto is to be added.\n     * @param _symbol Symbol of the new crypto.\n     * @param _inverse Whether or not an inverse should be added following a pushed crypto.\n    **/\n    function addCrypto(uint256 _index, string memory _symbol, bool _inverse)\n      public\n      onlyOwner\n    {\n        // If a used index is to be changed, only alter that symbol.\n        if (_index > 0) {\n            cryptoSymbols[_index] = _symbol;\n        } else { // If we are adding a new symbol, push either the symbol or blank string after.\n            cryptoSymbols.push(_symbol);\n            if (_inverse) cryptoSymbols.push(_symbol);\n            else cryptoSymbols.push(\"\");\n        }\n    }\n    \n    /**\n     * @dev Allows Coinvest to reward users with free platform trades.\n     * @param _users List of users to reward.\n     * @param _trades List of free trades to give to each.\n    **/\n    function addTrades(address[] _users, uint256[] _trades)\n      external\n      onlyCoinvest\n    {\n        require(_users.length == _trades.length);\n        \n        for (uint256 i = 0; i < _users.length; i++) {\n            freeTrades[_users[i]] = freeTrades[_users[i]].add(_trades[i]);\n        }     \n    }\n\n    /**\n     * @dev Allows the owner of the contract to pause all buys and sells.\n     * @param _paused True to halt operations, false to continue.\n    **/\n    function alterPause(bool _paused)\n      external\n      onlyOwner\n    {\n        paused = _paused;\n    }\n\n    /**\n     * @dev Allows owner to change address of other contracts in the system.\n     * @param _coinToken Address of the COIN token contract.\n     * @param _cashToken Address of the CASH token contract.\n     * @param _bank Address of the bank contract.\n     * @param _userData Address of the user data contract.\n    **/\n    function changeContracts(address _coinToken, address _cashToken, address _bank, address _userData)\n      external\n      onlyOwner\n    {\n        coinToken = _coinToken;\n        cashToken = _cashToken;\n        bank = Bank(_bank);\n        userData = UserData(_userData);\n    }\n    \n/** ********************************* Modifiers ************************************* **/\n    \n    /**\n     * @dev For buys and sells we only want an approved broker or the buyer/seller\n     * @dev themselves to mess with the buyer/seller's portfolio\n     * @param _beneficiary The buyer or seller whose portfolio is being modified\n    **/\n    modifier onlySenderOrToken(address _beneficiary)\n    {\n        require(msg.sender == _beneficiary || msg.sender == coinToken || msg.sender == cashToken);\n        _;\n    }\n    \n    /**\n     * @dev Ensures the contract cannot be used if Coinvest pauses it.\n    **/\n    modifier notPaused()\n    {\n        require(!paused);\n        _;\n    }\n    \n/** ******************************************************************************** **/\n/** ******************************* Oracle Logic *********************************** **/\n/** ******************************************************************************** **/\n\n    /**\n     * @dev Here we Oraclize to CryptoCompare to get prices for these cryptos.\n     * @param _beneficiary The user who is executing the buy or sell.\n     * @param _cryptos The IDs of the cryptos to get prices for.\n     * @param _amounts Amount of each crypto to buy.\n     * @param _isCoin True/False of the crypto that is being used to invest is COIN/CASH.\n     * @param _buy Whether or not this is a buy (as opposed to sell).\n    **/\n    function getPrices(address _beneficiary, uint256[] memory _cryptos, uint256[] memory _amounts, bool _isCoin, bool _buy) \n      public\n    {\n        //if (oraclize_getPrice(\"URL\") > address(this).balance) {\n        //    emit newOraclizeQuery(\"Oraclize query was NOT sent, please add some ETH to cover for the query fee\");\n        //} else {\n        //   emit newOraclizeQuery(\"Oraclize query was sent, standing by for the answer..\");\n            //string memory fullUrl = \n            craftUrl(_cryptos, _isCoin); // This is kept in test to ensure craftUrl requires work\n            \n            //bytes32 queryId = oraclize_query(\"URL\", fullUrl, 150000 + 40000 * _cryptos.length);\n            bytes32 queryId = 0x0000000000000000000000000000000000000000000000000000000000000001;\n            trades[queryId] = TradeInfo(_buy, _isCoin, _beneficiary, bitConv(_cryptos, _amounts));\n        //}\n    }\n    \n    /**\n     * @dev Oraclize calls and should simply set the query array to the int results.\n     * @param myid Unique ID of the Oraclize query, index for save idsAndAmts.\n     * @param result JSON string of CryptoCompare's return.\n     * @param proof Proof of validity of the Oracle call--not used.\n    **/\n    function __callback(bytes32 myid, string result, bytes proof)\n      public\n    {\n        //require(msg.sender == oraclize_cbAddress());\n        proof;\n\n        TradeInfo memory tradeInfo = trades[myid];\n        (uint256[] memory cryptos, uint256[] memory amounts) = bitRec(tradeInfo.idsAndAmts);\n\n        address beneficiary = tradeInfo.beneficiary;\n        bool isBuy = tradeInfo.isBuy;\n        bool isCoin = tradeInfo.isCoin;\n    \n        uint256[] memory cryptoValues = decodePrices(cryptos, result, isCoin);\n        uint256 value = calculateValue(amounts, cryptoValues);\n        \n        if (isBuy) finalizeBuy(beneficiary, cryptos, amounts, cryptoValues, value, isCoin);\n        else finalizeSell(beneficiary, cryptos, amounts, cryptoValues, value, isCoin);\n    }\n    \n/** ******************************* Constants ************************************ **/\n    \n    /**\n     * @dev Crafts URL for Oraclize to grab data from.\n     * @param _cryptos The uint256 crypto ID of the cryptos to search.\n     * @param _isCoin True if COIN is being used as the investment token.\n    **/\n    function craftUrl(uint256[] memory _cryptos, bool _isCoin)\n      public\n      view\n    returns (string memory url)\n    {\n        if (_isCoin) url = coinUrl;\n        else url = cashUrl;\n\n        for (uint256 i = 0; i < _cryptos.length; i++) {\n            uint256 id = _cryptos[i];\n\n            // This loop ensures only one of each crypto is being bought.\n            for (uint256 j = 0; j < _cryptos.length; j++) {\n                if (i == j) break;\n                require(id != _cryptos[j]);\n            }\n\n            require(bytes(cryptoSymbols[id]).length > 0);\n            url = url.toSlice().concat(cryptoSymbols[id].toSlice());\n        }\n        url = url.toSlice().concat(\"&tsyms=USD\".toSlice());\n        return url;\n    }\n\n    /**\n     * @dev Cycles through a list of separators to split the api\n     * @dev result string. Returns list so that we can update invest contract with values.\n     * @param _cryptos The cryptoIds being decoded.\n     * @param _result The raw string returned from the cryptocompare api with all crypto prices.\n     * @param _isCoin True/False of the crypto that is being used to invest is COIN/CASH.\n    **/\n    function decodePrices(uint256[] memory _cryptos, string memory _result, bool _isCoin) \n      public\n      pure\n    returns (uint256[] memory prices)\n    {\n        strings.slice memory s = _result.toSlice();\n        strings.slice memory delim = 'USD'.toSlice();\n        s.split(delim).toString();\n\n        prices = new uint256[](_cryptos.length + 1);\n        \n        //Find price of COIN first.\n        string memory coinPart = s.split(delim).toString();\n        prices[0] = parseInt(coinPart,18);\n\n        // Each crypto is advanced one in the prices array because COIN/CASH is index 0.\n        for(uint256 i = 0; i < _cryptos.length; i++) {\n            uint256 crypto = _cryptos[i];\n            bool isInverse = crypto % 2 > 0;\n            \n            // This loop is necessary because cryptocompare will only return 1 value when the same crypto is queried twice (in case of inverse).\n            for (uint256 j = 0; j < _cryptos.length; j++) {\n                if (j == i) break;\n                if ((isInverse && _cryptos[j] == crypto - 1) || (!isInverse && _cryptos[j] == crypto + 1)) {\n                    prices[i+1] = (10 ** 36) / prices[j+1];\n                    break;\n                }\n            }\n            \n            // If the crypto is COIN we don't want it to split price (because CryptoCompare will only return the first query)\n            if ((prices[i+1] == 0 && _isCoin && (crypto == COIN_ID || crypto == COIN_INV)) ||\n                (prices[i+1] == 0 && !_isCoin && (crypto == CASH_ID || crypto == CASH_INV))) {\n                \n                if (!isInverse) prices[i+1] = prices[0];\n                else prices[i+1] = (10 ** 36) / prices[0];\n            }\n\n            // Normal cases\n            else if (prices[i+1] == 0) {\n                string memory part = s.split(delim).toString();\n        \n                uint256 price = parseInt(part,18);\n                if (price > 0 && !isInverse) prices[i+1] = price;\n                else if (price > 0) prices[i+1] = (10 ** 36) / price;\n            }\n        }\n\n        for (uint256 k = 0; k < prices.length; k++) require(prices[k] > 0);\n        return prices;\n    }\n\n    /**\n     * @dev Calculate the COIN value of the cryptos to be bought/sold.\n     * @param _amounts The amount (in 10 ** 18) of the cryptos being bought.\n     * @param _cryptoValues The value of the cryptos at time of call.\n    **/\n    function calculateValue(uint256[] memory _amounts, uint256[] memory _cryptoValues)\n      public\n      pure\n    returns (uint256 value)\n    {\n        for (uint256 i = 0; i < _amounts.length; i++) {\n            value = value.add(_cryptoValues[i+1].mul(_amounts[i]).div(_cryptoValues[0]));\n        }\n    }\n    \n    /**\n     * @dev Converts given cryptos and amounts into a single uint256[] array.\n     * @param _cryptos Array of the crypto Ids to be bought.\n     * @param _amounts Array containing the amounts of each crypto to buy.\n    **/\n    function bitConv(uint256[] memory _cryptos, uint256[] memory _amounts)\n      internal\n      pure\n    returns (uint256[] memory combined)\n    {\n        combined = new uint256[](_cryptos.length); \n        for (uint256 i = 0; i < _cryptos.length; i++) {\n            combined[i] = _cryptos[i];\n            combined[i] |= _amounts[i] << 8;\n        }\n        return combined;\n    }\n    \n    /**\n     * @dev Recovers the cryptos and amounts from combined array.\n     * @param _idsAndAmts Array of uints containing both crypto Id and amount.\n    **/\n    function bitRec(uint256[] memory _idsAndAmts) \n      public\n      pure\n    returns (uint256[] memory cryptos, uint256[] memory amounts) \n    {\n        cryptos = new uint256[](_idsAndAmts.length);\n        amounts = new uint256[](_idsAndAmts.length);\n\n        for (uint256 i = 0; i < _idsAndAmts.length; i++) {\n            cryptos[i] = uint256(uint8(_idsAndAmts[i]));\n            amounts[i] = uint256(uint248(_idsAndAmts[i] >> 8));\n        }\n        return (cryptos, amounts);\n    }\n    \n/** *************************** Only Owner *********************************** **/\n\n    /**\n     * @dev Change Oraclize gas limit and price.\n     * @param _newGasPrice New gas price to use in wei.\n    **/\n    function changeGas(uint256 _newGasPrice)\n      external\n      onlyOwner\n    {\n        customGasPrice = _newGasPrice;\n        //oraclize_setCustomGasPrice(_newGasPrice);\n    }\n    \n/** ************************** Only Coinvest ******************************* **/\n\n    /**\n     * @dev Allow the owner to take ERC20 tokens off of this contract if they are accidentally sent.\n     * @param _tokenContract The address of the token to withdraw (0x0 if Ether).\n     * @param _amount The amount of Ether to withdraw (because some needs to be left for Oraclize).\n    **/\n    function tokenEscape(address _tokenContract, uint256 _amount)\n      external\n      onlyCoinvest\n    {\n        if (_tokenContract == address(0)) coinvest.transfer(_amount);\n        else {\n            ERC20Interface lostToken = ERC20Interface(_tokenContract);\n        \n            uint256 stuckTokens = lostToken.balanceOf(address(this));\n            lostToken.transfer(coinvest, stuckTokens);\n        }\n    }\n    \n\n /** ************************** Temp ************************************ **/\n    \n    // parseInt\n    function parseInt(string _a) internal pure returns (uint) {\n        return parseInt(_a, 0);\n    }\n\n    // parseInt(parseFloat*10^_b)\n    function parseInt(string _a, uint _b) internal pure returns (uint) {\n        bytes memory bresult = bytes(_a);\n        uint mint = 0;\n        bool decimals = false;\n        for (uint i=0; i<bresult.length; i++){\n            if ((bresult[i] >= 48)&&(bresult[i] <= 57)){\n                if (decimals){\n                   if (_b == 0) break;\n                    else _b--;\n                }\n                mint *= 10;\n                mint += uint(bresult[i]) - 48;\n            } else if (bresult[i] == 46) decimals = true;\n        }\n        if (_b > 0) mint *= 10**_b;\n        return mint;\n    }\n\n}",
  "sourcePath": "/root/Coinvest2/contracts/PostAuditTest.sol",
  "compiler": {
    "name": "solc",
    "version": "0.4.24+commit.e67f0147.Emscripten.clang"
  },
  "schemaVersion": "2.0.1",
  "updatedAt": "2018-09-25T15:47:52.114Z"
}