{
  "contractName": "TokenSwap",
  "abi": [
    {
      "constant": false,
      "inputs": [
        {
          "name": "_tokenV1",
          "type": "address"
        },
        {
          "name": "_tokenV2",
          "type": "address"
        },
        {
          "name": "_tokenV3",
          "type": "address"
        }
      ],
      "name": "constructor",
      "outputs": [],
      "payable": false,
      "stateMutability": "nonpayable",
      "type": "function"
    },
    {
      "constant": false,
      "inputs": [
        {
          "name": "_from",
          "type": "address"
        },
        {
          "name": "_value",
          "type": "uint256"
        },
        {
          "name": "_data",
          "type": "bytes"
        }
      ],
      "name": "tokenFallback",
      "outputs": [],
      "payable": false,
      "stateMutability": "nonpayable",
      "type": "function"
    },
    {
      "constant": false,
      "inputs": [
        {
          "name": "_from",
          "type": "address"
        },
        {
          "name": "_amount",
          "type": "uint256"
        },
        {
          "name": "_token",
          "type": "address"
        },
        {
          "name": "_data",
          "type": "bytes"
        }
      ],
      "name": "receiveApproval",
      "outputs": [],
      "payable": false,
      "stateMutability": "nonpayable",
      "type": "function"
    }
  ],
  "bytecode": "0x608060405234801561001057600080fd5b50610720806100206000396000f300608060405260043610610057576000357c0100000000000000000000000000000000000000000000000000000000900463ffffffff1680636dd23b5b1461005c5780638f4ffcb1146100df578063c0ee0b8a14610192575b600080fd5b34801561006857600080fd5b506100dd600480360381019080803573ffffffffffffffffffffffffffffffffffffffff169060200190929190803573ffffffffffffffffffffffffffffffffffffffff169060200190929190803573ffffffffffffffffffffffffffffffffffffffff1690602001909291905050506101f7565b005b3480156100eb57600080fd5b50610190600480360381019080803573ffffffffffffffffffffffffffffffffffffffff16906020019092919080359060200190929190803573ffffffffffffffffffffffffffffffffffffffff169060200190929190803590602001908201803590602001908080601f01602080910402602001604051908101604052809392919081815260200183838082843782019150505050505091929192905050506102be565b005b34801561019e57600080fd5b506101f5600480360381019080803573ffffffffffffffffffffffffffffffffffffffff16906020019092919080359060200190929190803590602001908201803590602001919091929391929390505050610579565b005b826000806101000a81548173ffffffffffffffffffffffffffffffffffffffff021916908373ffffffffffffffffffffffffffffffffffffffff16021790555081600160006101000a81548173ffffffffffffffffffffffffffffffffffffffff021916908373ffffffffffffffffffffffffffffffffffffffff16021790555080600260006101000a81548173ffffffffffffffffffffffffffffffffffffffff021916908373ffffffffffffffffffffffffffffffffffffffff160217905550505050565b600160009054906101000a900473ffffffffffffffffffffffffffffffffffffffff1673ffffffffffffffffffffffffffffffffffffffff163373ffffffffffffffffffffffffffffffffffffffff1614151561031a57600080fd5b60008311151561032957600080fd5b600160009054906101000a900473ffffffffffffffffffffffffffffffffffffffff1673ffffffffffffffffffffffffffffffffffffffff166323b872dd8530866040518463ffffffff167c0100000000000000000000000000000000000000000000000000000000028152600401808473ffffffffffffffffffffffffffffffffffffffff1673ffffffffffffffffffffffffffffffffffffffff1681526020018373ffffffffffffffffffffffffffffffffffffffff1673ffffffffffffffffffffffffffffffffffffffff1681526020018281526020019350505050602060405180830381600087803b15801561042257600080fd5b505af1158015610436573d6000803e3d6000fd5b505050506040513d602081101561044c57600080fd5b8101908080519060200190929190505050151561046857600080fd5b600260009054906101000a900473ffffffffffffffffffffffffffffffffffffffff1673ffffffffffffffffffffffffffffffffffffffff1663a9059cbb85856040518363ffffffff167c0100000000000000000000000000000000000000000000000000000000028152600401808373ffffffffffffffffffffffffffffffffffffffff1673ffffffffffffffffffffffffffffffffffffffff16815260200182815260200192505050602060405180830381600087803b15801561052d57600080fd5b505af1158015610541573d6000803e3d6000fd5b505050506040513d602081101561055757600080fd5b8101908080519060200190929190505050151561057357600080fd5b50505050565b6000809054906101000a900473ffffffffffffffffffffffffffffffffffffffff1673ffffffffffffffffffffffffffffffffffffffff163373ffffffffffffffffffffffffffffffffffffffff161415156105d457600080fd5b6000831115156105e357600080fd5b600260009054906101000a900473ffffffffffffffffffffffffffffffffffffffff1673ffffffffffffffffffffffffffffffffffffffff1663a9059cbb85856040518363ffffffff167c0100000000000000000000000000000000000000000000000000000000028152600401808373ffffffffffffffffffffffffffffffffffffffff1673ffffffffffffffffffffffffffffffffffffffff16815260200182815260200192505050602060405180830381600087803b1580156106a857600080fd5b505af11580156106bc573d6000803e3d6000fd5b505050506040513d60208110156106d257600080fd5b810190808051906020019092919050505015156106ee57600080fd5b505050505600a165627a7a723058204fbd1e0a4dd3a5ff7d9b47356196cc8ecee1570582933c9a733cd7f0c4d0f0ee0029",
  "source": "pragma solidity ^0.4.24; import './ERC20Interface.sol'; contract TokenSwap {\n    \n    ERC20Interface tokenV1;\n    ERC20Interface tokenV2;\n    ERC20Interface tokenV3;\n    \n    /**\n    **/\n    function constructor(address _tokenV1, address _tokenV2, address _tokenV3) {\n        tokenV1 = ERC20Interface(_tokenV1);\n        tokenV2 = ERC20Interface(_tokenV2);\n        tokenV3 = ERC20Interface(_tokenV3);\n    }\n    /**\n     * @param _from The address that has transferred this contract tokens.\n     * @param _value The amount of tokens that have been transferred.\n     * @param _data The extra data sent with transfer (should be nothing).\n    **/\n    function tokenFallback(address _from, uint _value, bytes _data)\n      external\n    {\n        require(msg.sender == address(tokenV1));\n        require(_value > 0);\n        require(tokenV3.transfer(_from, _value));\n        _data;\n    }\n    /**\n     * @dev approveAndCall will be used on the old token to transfer from the user\n     * to the contract, which will then return to them the new tokens.\n     * @param _from The user that is making the call.\n     * @param _amount The amount of tokens being transferred to this swap contract.\n     * @param _token The address of the token contract (address(oldToken))--not used.\n     * @param _data Extra data with the call--not used.\n    **/\n    function receiveApproval(address _from, uint256 _amount, address _token, bytes _data)\n      public\n    {\n        require(msg.sender == address(tokenV2));\n        require(_amount > 0);\n        require(tokenV2.transferFrom(_from, address(this), _amount));\n        require(tokenV3.transfer(_from, _amount));\n        _token; _data;\n    }\n    \n}\n",
  "sourcePath": "/root/Coinvest2/contracts/TokenSwap.sol",
  "compiler": {
    "name": "solc",
    "version": "0.4.24+commit.e67f0147.Emscripten.clang"
  },
  "schemaVersion": "2.0.1",
  "updatedAt": "2018-09-25T17:11:20.651Z"
}