{
  "contractName": "UserData",
  "abi": [
    {
      "constant": true,
      "inputs": [],
      "name": "coinvest",
      "outputs": [
        {
          "name": "",
          "type": "address"
        }
      ],
      "payable": false,
      "stateMutability": "view",
      "type": "function"
    },
    {
      "constant": false,
      "inputs": [
        {
          "name": "_user",
          "type": "address"
        },
        {
          "name": "_status",
          "type": "bool"
        }
      ],
      "name": "alterAdmin",
      "outputs": [],
      "payable": false,
      "stateMutability": "nonpayable",
      "type": "function"
    },
    {
      "constant": true,
      "inputs": [
        {
          "name": "",
          "type": "address"
        }
      ],
      "name": "admins",
      "outputs": [
        {
          "name": "",
          "type": "bool"
        }
      ],
      "payable": false,
      "stateMutability": "view",
      "type": "function"
    },
    {
      "constant": true,
      "inputs": [],
      "name": "investmentAddress",
      "outputs": [
        {
          "name": "",
          "type": "address"
        }
      ],
      "payable": false,
      "stateMutability": "view",
      "type": "function"
    },
    {
      "constant": true,
      "inputs": [
        {
          "name": "",
          "type": "address"
        },
        {
          "name": "",
          "type": "uint256"
        }
      ],
      "name": "userHoldings",
      "outputs": [
        {
          "name": "",
          "type": "uint256"
        }
      ],
      "payable": false,
      "stateMutability": "view",
      "type": "function"
    },
    {
      "constant": true,
      "inputs": [],
      "name": "owner",
      "outputs": [
        {
          "name": "",
          "type": "address"
        }
      ],
      "payable": false,
      "stateMutability": "view",
      "type": "function"
    },
    {
      "constant": false,
      "inputs": [
        {
          "name": "_newCoinvest",
          "type": "address"
        }
      ],
      "name": "transferCoinvest",
      "outputs": [],
      "payable": false,
      "stateMutability": "nonpayable",
      "type": "function"
    },
    {
      "constant": false,
      "inputs": [
        {
          "name": "newOwner",
          "type": "address"
        }
      ],
      "name": "transferOwnership",
      "outputs": [],
      "payable": false,
      "stateMutability": "nonpayable",
      "type": "function"
    },
    {
      "inputs": [
        {
          "name": "_investmentAddress",
          "type": "address"
        }
      ],
      "payable": false,
      "stateMutability": "nonpayable",
      "type": "constructor"
    },
    {
      "anonymous": false,
      "inputs": [
        {
          "indexed": true,
          "name": "previousOwner",
          "type": "address"
        },
        {
          "indexed": true,
          "name": "newOwner",
          "type": "address"
        }
      ],
      "name": "OwnershipTransferred",
      "type": "event"
    },
    {
      "constant": false,
      "inputs": [
        {
          "name": "_beneficiary",
          "type": "address"
        },
        {
          "name": "_cryptoIds",
          "type": "uint256[]"
        },
        {
          "name": "_amounts",
          "type": "uint256[]"
        },
        {
          "name": "_buy",
          "type": "bool"
        }
      ],
      "name": "modifyHoldings",
      "outputs": [],
      "payable": false,
      "stateMutability": "nonpayable",
      "type": "function"
    },
    {
      "constant": true,
      "inputs": [
        {
          "name": "_beneficiary",
          "type": "address"
        },
        {
          "name": "_start",
          "type": "uint256"
        },
        {
          "name": "_end",
          "type": "uint256"
        }
      ],
      "name": "returnHoldings",
      "outputs": [
        {
          "name": "holdings",
          "type": "uint256[]"
        }
      ],
      "payable": false,
      "stateMutability": "view",
      "type": "function"
    },
    {
      "constant": false,
      "inputs": [
        {
          "name": "_newAddress",
          "type": "address"
        }
      ],
      "name": "changeInvestment",
      "outputs": [],
      "payable": false,
      "stateMutability": "nonpayable",
      "type": "function"
    },
    {
      "constant": false,
      "inputs": [
        {
          "name": "_tokenContract",
          "type": "address"
        }
      ],
      "name": "tokenEscape",
      "outputs": [],
      "payable": false,
      "stateMutability": "nonpayable",
      "type": "function"
    }
  ],
  "bytecode": "0x608060405234801561001057600080fd5b506040516020806112ab83398101806040528101908080519060200190929190505050336000806101000a81548173ffffffffffffffffffffffffffffffffffffffff021916908373ffffffffffffffffffffffffffffffffffffffff16021790555033600160006101000a81548173ffffffffffffffffffffffffffffffffffffffff021916908373ffffffffffffffffffffffffffffffffffffffff1602179055506001600260008060009054906101000a900473ffffffffffffffffffffffffffffffffffffffff1673ffffffffffffffffffffffffffffffffffffffff1673ffffffffffffffffffffffffffffffffffffffff16815260200190815260200160002060006101000a81548160ff021916908315150217905550600160026000600160009054906101000a900473ffffffffffffffffffffffffffffffffffffffff1673ffffffffffffffffffffffffffffffffffffffff1673ffffffffffffffffffffffffffffffffffffffff16815260200190815260200160002060006101000a81548160ff02191690831515021790555080600360006101000a81548173ffffffffffffffffffffffffffffffffffffffff021916908373ffffffffffffffffffffffffffffffffffffffff160217905550506110b3806101f86000396000f3006080604052600436106100ba576000357c0100000000000000000000000000000000000000000000000000000000900463ffffffff1680630958a9f3146100bf57806310840303146101165780633f45440614610165578063429b62e5146101a857806348663e7d1461020357806353030d91146102825780635cb59849146102d95780638da5cb5b1461033a578063b05f99f514610391578063dac54b8a146103d4578063dfb6c46814610480578063f2fde38b146104c3575b600080fd5b3480156100cb57600080fd5b506100d4610506565b604051808273ffffffffffffffffffffffffffffffffffffffff1673ffffffffffffffffffffffffffffffffffffffff16815260200191505060405180910390f35b34801561012257600080fd5b50610163600480360381019080803573ffffffffffffffffffffffffffffffffffffffff16906020019092919080351515906020019092919050505061052c565b005b34801561017157600080fd5b506101a6600480360381019080803573ffffffffffffffffffffffffffffffffffffffff16906020019092919050505061067c565b005b3480156101b457600080fd5b506101e9600480360381019080803573ffffffffffffffffffffffffffffffffffffffff169060200190929190505050610977565b604051808215151515815260200191505060405180910390f35b34801561020f57600080fd5b50610280600480360381019080803573ffffffffffffffffffffffffffffffffffffffff169060200190929190803590602001908201803590602001919091929391929390803590602001908201803590602001919091929391929390803515159060200190929190505050610997565b005b34801561028e57600080fd5b50610297610c21565b604051808273ffffffffffffffffffffffffffffffffffffffff1673ffffffffffffffffffffffffffffffffffffffff16815260200191505060405180910390f35b3480156102e557600080fd5b50610324600480360381019080803573ffffffffffffffffffffffffffffffffffffffff16906020019092919080359060200190929190505050610c47565b6040518082815260200191505060405180910390f35b34801561034657600080fd5b5061034f610c6c565b604051808273ffffffffffffffffffffffffffffffffffffffff1673ffffffffffffffffffffffffffffffffffffffff16815260200191505060405180910390f35b34801561039d57600080fd5b506103d2600480360381019080803573ffffffffffffffffffffffffffffffffffffffff169060200190929190505050610c91565b005b3480156103e057600080fd5b50610429600480360381019080803573ffffffffffffffffffffffffffffffffffffffff1690602001909291908035906020019092919080359060200190929190505050610d30565b6040518080602001828103825283818151815260200191508051906020019060200280838360005b8381101561046c578082015181840152602081019050610451565b505050509050019250505060405180910390f35b34801561048c57600080fd5b506104c1600480360381019080803573ffffffffffffffffffffffffffffffffffffffff169060200190929190505050610e1f565b005b3480156104cf57600080fd5b50610504600480360381019080803573ffffffffffffffffffffffffffffffffffffffff169060200190929190505050610efb565b005b600160009054906101000a900473ffffffffffffffffffffffffffffffffffffffff1681565b600160009054906101000a900473ffffffffffffffffffffffffffffffffffffffff1673ffffffffffffffffffffffffffffffffffffffff163373ffffffffffffffffffffffffffffffffffffffff1614151561058857600080fd5b600073ffffffffffffffffffffffffffffffffffffffff168273ffffffffffffffffffffffffffffffffffffffff16141515156105c457600080fd5b600160009054906101000a900473ffffffffffffffffffffffffffffffffffffffff1673ffffffffffffffffffffffffffffffffffffffff168273ffffffffffffffffffffffffffffffffffffffff161415151561062157600080fd5b80600260008473ffffffffffffffffffffffffffffffffffffffff1673ffffffffffffffffffffffffffffffffffffffff16815260200190815260200160002060006101000a81548160ff0219169083151502179055505050565b600080600160009054906101000a900473ffffffffffffffffffffffffffffffffffffffff1673ffffffffffffffffffffffffffffffffffffffff163373ffffffffffffffffffffffffffffffffffffffff161415156106db57600080fd5b600073ffffffffffffffffffffffffffffffffffffffff168373ffffffffffffffffffffffffffffffffffffffff16141561079557600160009054906101000a900473ffffffffffffffffffffffffffffffffffffffff1673ffffffffffffffffffffffffffffffffffffffff166108fc3073ffffffffffffffffffffffffffffffffffffffff16319081150290604051600060405180830381858888f1935050505015801561078f573d6000803e3d6000fd5b50610972565b8291508173ffffffffffffffffffffffffffffffffffffffff166370a08231306040518263ffffffff167c0100000000000000000000000000000000000000000000000000000000028152600401808273ffffffffffffffffffffffffffffffffffffffff1673ffffffffffffffffffffffffffffffffffffffff168152602001915050602060405180830381600087803b15801561083357600080fd5b505af1158015610847573d6000803e3d6000fd5b505050506040513d602081101561085d57600080fd5b810190808051906020019092919050505090508173ffffffffffffffffffffffffffffffffffffffff1663a9059cbb600160009054906101000a900473ffffffffffffffffffffffffffffffffffffffff16836040518363ffffffff167c0100000000000000000000000000000000000000000000000000000000028152600401808373ffffffffffffffffffffffffffffffffffffffff1673ffffffffffffffffffffffffffffffffffffffff16815260200182815260200192505050602060405180830381600087803b15801561093557600080fd5b505af1158015610949573d6000803e3d6000fd5b505050506040513d602081101561095f57600080fd5b8101908080519060200190929190505050505b505050565b60026020528060005260406000206000915054906101000a900460ff1681565b6000600360009054906101000a900473ffffffffffffffffffffffffffffffffffffffff1673ffffffffffffffffffffffffffffffffffffffff163373ffffffffffffffffffffffffffffffffffffffff161415156109f557600080fd5b8383905086869050141515610a0957600080fd5b600090505b85859050811015610c18578115610b1757610aaa8484838181101515610a3057fe5b90506020020135600460008a73ffffffffffffffffffffffffffffffffffffffff1673ffffffffffffffffffffffffffffffffffffffff16815260200190815260200160002060008989868181101515610a8657fe5b9050602002013581526020019081526020016000205461105090919063ffffffff16565b600460008973ffffffffffffffffffffffffffffffffffffffff1673ffffffffffffffffffffffffffffffffffffffff16815260200190815260200160002060008888858181101515610af957fe5b90506020020135815260200190815260200160002081905550610c0b565b610ba28484838181101515610b2857fe5b90506020020135600460008a73ffffffffffffffffffffffffffffffffffffffff1673ffffffffffffffffffffffffffffffffffffffff16815260200190815260200160002060008989868181101515610b7e57fe5b9050602002013581526020019081526020016000205461106e90919063ffffffff16565b600460008973ffffffffffffffffffffffffffffffffffffffff1673ffffffffffffffffffffffffffffffffffffffff16815260200190815260200160002060008888858181101515610bf157fe5b905060200201358152602001908152602001600020819055505b8080600101915050610a0e565b50505050505050565b600360009054906101000a900473ffffffffffffffffffffffffffffffffffffffff1681565b6004602052816000526040600020602052806000526040600020600091509150505481565b6000809054906101000a900473ffffffffffffffffffffffffffffffffffffffff1681565b6000809054906101000a900473ffffffffffffffffffffffffffffffffffffffff1673ffffffffffffffffffffffffffffffffffffffff163373ffffffffffffffffffffffffffffffffffffffff16141515610cec57600080fd5b80600360006101000a81548173ffffffffffffffffffffffffffffffffffffffff021916908373ffffffffffffffffffffffffffffffffffffffff16021790555050565b60606000828411151515610d4357600080fd5b6001610d58858561106e90919063ffffffff16565b01604051908082528060200260200182016040528015610d875781602001602082028038833980820191505090505b509150600090505b8151811015610e1457600460008673ffffffffffffffffffffffffffffffffffffffff1673ffffffffffffffffffffffffffffffffffffffff16815260200190815260200160002060008286018152602001908152602001600020548282815181101515610df957fe5b90602001906020020181815250508080600101915050610d8f565b819150509392505050565b600160009054906101000a900473ffffffffffffffffffffffffffffffffffffffff1673ffffffffffffffffffffffffffffffffffffffff163373ffffffffffffffffffffffffffffffffffffffff16141515610e7b57600080fd5b600073ffffffffffffffffffffffffffffffffffffffff168173ffffffffffffffffffffffffffffffffffffffff1614151515610eb757600080fd5b80600160006101000a81548173ffffffffffffffffffffffffffffffffffffffff021916908373ffffffffffffffffffffffffffffffffffffffff16021790555050565b6000809054906101000a900473ffffffffffffffffffffffffffffffffffffffff1673ffffffffffffffffffffffffffffffffffffffff163373ffffffffffffffffffffffffffffffffffffffff16141515610f5657600080fd5b600073ffffffffffffffffffffffffffffffffffffffff168173ffffffffffffffffffffffffffffffffffffffff1614151515610f9257600080fd5b8073ffffffffffffffffffffffffffffffffffffffff166000809054906101000a900473ffffffffffffffffffffffffffffffffffffffff1673ffffffffffffffffffffffffffffffffffffffff167f8be0079c531659141344cd1fd0a4f28419497f9722a3daafe3b4186f6b6457e060405160405180910390a3806000806101000a81548173ffffffffffffffffffffffffffffffffffffffff021916908373ffffffffffffffffffffffffffffffffffffffff16021790555050565b600080828401905083811015151561106457fe5b8091505092915050565b600082821115151561107c57fe5b8183039050929150505600a165627a7a7230582099b27b5072ecdbaca8aea492ef81ded2338fd55e5522236427eea7dff0cd50660029",
  "source": "pragma solidity ^0.4.24;\nimport './Ownable.sol';\nimport './ERC20Interface.sol';\nimport './SafeMathLib.sol';\n\ncontract UserData is Ownable {\n    using SafeMathLib for uint256;\n\n    // Contract that is allowed to modify user holdings (investment.sol).\n    address public investmentAddress;\n    \n    // Address => crypto Id => amount of crypto wei held\n    mapping (address => mapping (uint256 => uint256)) public userHoldings;\n\n    /**\n     * @param _investmentAddress Beginning address of the investment contract that may modify holdings.\n    **/\n    constructor(address _investmentAddress) \n      public\n    {\n        investmentAddress = _investmentAddress;\n    }\n    \n    /**\n     * @dev Investment contract has permission to modify user's holdings on a buy or sell.\n     * @param _beneficiary The user who is buying or selling tokens.\n     * @param _cryptoIds The IDs of the cryptos being bought and sold.\n     * @param _amounts The amount of each crypto being bought and sold.\n     * @param _buy True if the purchase is a buy, false if it is a sell.\n    **/\n    function modifyHoldings(address _beneficiary, uint256[] _cryptoIds, uint256[] _amounts, bool _buy)\n      external\n    {\n        require(msg.sender == investmentAddress);\n        require(_cryptoIds.length == _amounts.length);\n        \n        for (uint256 i = 0; i < _cryptoIds.length; i++) {\n            if (_buy) {\n                userHoldings[_beneficiary][_cryptoIds[i]] = userHoldings[_beneficiary][_cryptoIds[i]].add(_amounts[i]);\n            } else {\n                userHoldings[_beneficiary][_cryptoIds[i]] = userHoldings[_beneficiary][_cryptoIds[i]].sub(_amounts[i]);\n            }\n        }\n    }\n\n/** ************************** Constants *********************************** **/\n    \n    /**\n     * @dev Return the holdings of a specific address. Returns dynamic array of all cryptos.\n     *      Start and end is used in case there are a large number of cryptos in total.\n     * @param _beneficiary The address to check balance of.\n     * @param _start The beginning index of the array to return.\n     * @param _end The (inclusive) end of the array to return.\n    **/\n    function returnHoldings(address _beneficiary, uint256 _start, uint256 _end)\n      external\n      view\n    returns (uint256[] memory holdings)\n    {\n        require(_start <= _end);\n        \n        holdings = new uint256[](_end.sub(_start)+1); \n        for (uint256 i = 0; i < holdings.length; i++) {\n            holdings[i] = userHoldings[_beneficiary][_start+i];\n        }\n        return holdings;\n    }\n    \n/** ************************** Only Owner ********************************** **/\n    \n    /**\n     * @dev Used to switch out the investment contract address to a new one.\n     * @param _newAddress The address of the new investment contract.\n    **/\n    function changeInvestment(address _newAddress)\n      external\n      onlyOwner\n    {\n        investmentAddress = _newAddress;\n    }\n    \n/** ************************** Only Coinvest ******************************* **/\n    \n    /**\n     * @dev Allow the owner to take Ether or tokens off of this contract if they are accidentally sent.\n     * @param _tokenContract The address of the token to withdraw (0x0 if Ether).\n    **/\n    function tokenEscape(address _tokenContract)\n      external\n      onlyCoinvest\n    {\n        if (_tokenContract == address(0)) coinvest.transfer(address(this).balance);\n        else {\n            ERC20Interface lostToken = ERC20Interface(_tokenContract);\n        \n            uint256 stuckTokens = lostToken.balanceOf(address(this));\n            lostToken.transfer(coinvest, stuckTokens);\n        }    \n    }\n    \n}\n",
  "sourcePath": "/root/Coinvest2/contracts/UserData.sol",
  "compiler": {
    "name": "solc",
    "version": "0.4.24+commit.e67f0147.Emscripten.clang"
  },
  "schemaVersion": "2.0.1",
  "updatedAt": "2018-09-25T15:47:51.891Z"
}